{
	"contracts/ballot.sol": {
		"VotingWithRegistration": {
			"abi": [
				{
					"inputs": [
						{
							"internalType": "string[]",
							"name": "_candidateNames",
							"type": "string[]"
						}
					],
					"stateMutability": "nonpayable",
					"type": "constructor"
				},
				{
					"anonymous": false,
					"inputs": [
						{
							"indexed": false,
							"internalType": "string",
							"name": "name",
							"type": "string"
						},
						{
							"indexed": false,
							"internalType": "uint256",
							"name": "index",
							"type": "uint256"
						}
					],
					"name": "CandidateAdded",
					"type": "event"
				},
				{
					"anonymous": false,
					"inputs": [
						{
							"indexed": true,
							"internalType": "address",
							"name": "voter",
							"type": "address"
						},
						{
							"indexed": false,
							"internalType": "string",
							"name": "candidateName",
							"type": "string"
						},
						{
							"indexed": false,
							"internalType": "uint256",
							"name": "candidateIndex",
							"type": "uint256"
						}
					],
					"name": "VoteCasted",
					"type": "event"
				},
				{
					"anonymous": false,
					"inputs": [
						{
							"indexed": true,
							"internalType": "address",
							"name": "voter",
							"type": "address"
						}
					],
					"name": "VoterRegistered",
					"type": "event"
				},
				{
					"inputs": [
						{
							"internalType": "string",
							"name": "_name",
							"type": "string"
						}
					],
					"name": "addCandidate",
					"outputs": [],
					"stateMutability": "nonpayable",
					"type": "function"
				},
				{
					"inputs": [
						{
							"internalType": "uint256",
							"name": "",
							"type": "uint256"
						}
					],
					"name": "candidates",
					"outputs": [
						{
							"internalType": "string",
							"name": "name",
							"type": "string"
						},
						{
							"internalType": "uint256",
							"name": "voteCount",
							"type": "uint256"
						}
					],
					"stateMutability": "view",
					"type": "function"
				},
				{
					"inputs": [
						{
							"internalType": "address",
							"name": "_voter",
							"type": "address"
						}
					],
					"name": "checkRegistration",
					"outputs": [
						{
							"internalType": "bool",
							"name": "",
							"type": "bool"
						}
					],
					"stateMutability": "view",
					"type": "function"
				},
				{
					"inputs": [],
					"name": "getAllRegisteredVoters",
					"outputs": [
						{
							"internalType": "address[]",
							"name": "",
							"type": "address[]"
						}
					],
					"stateMutability": "view",
					"type": "function"
				},
				{
					"inputs": [
						{
							"internalType": "uint256",
							"name": "_index",
							"type": "uint256"
						}
					],
					"name": "getCandidate",
					"outputs": [
						{
							"internalType": "string",
							"name": "name",
							"type": "string"
						},
						{
							"internalType": "uint256",
							"name": "voteCount",
							"type": "uint256"
						}
					],
					"stateMutability": "view",
					"type": "function"
				},
				{
					"inputs": [],
					"name": "getCandidateCount",
					"outputs": [
						{
							"internalType": "uint256",
							"name": "",
							"type": "uint256"
						}
					],
					"stateMutability": "view",
					"type": "function"
				},
				{
					"inputs": [],
					"name": "getRegisteredVoterCount",
					"outputs": [
						{
							"internalType": "uint256",
							"name": "",
							"type": "uint256"
						}
					],
					"stateMutability": "view",
					"type": "function"
				},
				{
					"inputs": [],
					"name": "getWinner",
					"outputs": [
						{
							"internalType": "string",
							"name": "winnerName",
							"type": "string"
						},
						{
							"internalType": "uint256",
							"name": "winnerVotes",
							"type": "uint256"
						}
					],
					"stateMutability": "view",
					"type": "function"
				},
				{
					"inputs": [
						{
							"internalType": "address",
							"name": "",
							"type": "address"
						}
					],
					"name": "hasVoted",
					"outputs": [
						{
							"internalType": "bool",
							"name": "",
							"type": "bool"
						}
					],
					"stateMutability": "view",
					"type": "function"
				},
				{
					"inputs": [
						{
							"internalType": "address",
							"name": "",
							"type": "address"
						}
					],
					"name": "isRegistered",
					"outputs": [
						{
							"internalType": "bool",
							"name": "",
							"type": "bool"
						}
					],
					"stateMutability": "view",
					"type": "function"
				},
				{
					"inputs": [],
					"name": "owner",
					"outputs": [
						{
							"internalType": "address",
							"name": "",
							"type": "address"
						}
					],
					"stateMutability": "view",
					"type": "function"
				},
				{
					"inputs": [
						{
							"internalType": "address[]",
							"name": "_voters",
							"type": "address[]"
						}
					],
					"name": "registerMultipleVoters",
					"outputs": [],
					"stateMutability": "nonpayable",
					"type": "function"
				},
				{
					"inputs": [
						{
							"internalType": "address",
							"name": "_voter",
							"type": "address"
						}
					],
					"name": "registerVoter",
					"outputs": [],
					"stateMutability": "nonpayable",
					"type": "function"
				},
				{
					"inputs": [
						{
							"internalType": "uint256",
							"name": "",
							"type": "uint256"
						}
					],
					"name": "registeredVotersList",
					"outputs": [
						{
							"internalType": "address",
							"name": "",
							"type": "address"
						}
					],
					"stateMutability": "view",
					"type": "function"
				},
				{
					"inputs": [
						{
							"internalType": "uint256",
							"name": "_candidateIndex",
							"type": "uint256"
						}
					],
					"name": "vote",
					"outputs": [],
					"stateMutability": "nonpayable",
					"type": "function"
				}
			],
			"devdoc": {
				"details": "Only registered voters can vote. Owner registers voters.",
				"kind": "dev",
				"methods": {
					"addCandidate(string)": {
						"params": {
							"_name": "Name of the new candidate."
						}
					},
					"constructor": {
						"params": {
							"_candidateNames": "Array of candidate names (e.g., [\"Vincent\",\"Junior\",\"Ruto\"])"
						}
					},
					"registerMultipleVoters(address[])": {
						"params": {
							"_voters": "Array of addresses to register."
						}
					},
					"registerVoter(address)": {
						"params": {
							"_voter": "The address to register."
						}
					},
					"vote(uint256)": {
						"params": {
							"_candidateIndex": "The index of the candidate in the `candidates` array."
						}
					}
				},
				"title": "Voting system with admin-controlled voter registration",
				"version": 1
			},
			"evm": {
				"assembly": "    /* \"contracts/ballot.sol\":194:5024  contract VotingWithRegistration {... */\n  mstore(0x40, 0x80)\n    /* \"contracts/ballot.sol\":1269:1568  constructor(string[] memory _candidateNames) {... */\n  callvalue\n  dup1\n  iszero\n  tag_1\n  jumpi\n  revert(0x00, 0x00)\ntag_1:\n  pop\n  mload(0x40)\n  sub(codesize, bytecodeSize)\n  dup1\n  bytecodeSize\n  dup4\n  codecopy\n  dup2\n  dup2\n  add\n  0x40\n  mstore\n  dup2\n  add\n  swap1\n  tag_2\n  swap2\n  swap1\n  tag_3\n  jump\t// in\ntag_2:\n    /* \"contracts/ballot.sol\":1333:1343  msg.sender */\n  caller\n    /* \"contracts/ballot.sol\":1325:1330  owner */\n  0x00\n  0x00\n    /* \"contracts/ballot.sol\":1325:1343  owner = msg.sender */\n  0x0100\n  exp\n  dup2\n  sload\n  dup2\n  0xffffffffffffffffffffffffffffffffffffffff\n  mul\n  not\n  and\n  swap1\n  dup4\n  0xffffffffffffffffffffffffffffffffffffffff\n  and\n  mul\n  or\n  swap1\n  sstore\n  pop\n    /* \"contracts/ballot.sol\":1359:1368  uint256 i */\n  0x00\n    /* \"contracts/ballot.sol\":1371:1372  0 */\n  0x00\n    /* \"contracts/ballot.sol\":1359:1372  uint256 i = 0 */\n  swap1\n  pop\n    /* \"contracts/ballot.sol\":1354:1561  for (uint256 i = 0; i < _candidateNames.length; i++) {... */\ntag_6:\n    /* \"contracts/ballot.sol\":1378:1393  _candidateNames */\n  dup2\n    /* \"contracts/ballot.sol\":1378:1400  _candidateNames.length */\n  mload\n    /* \"contracts/ballot.sol\":1374:1375  i */\n  dup2\n    /* \"contracts/ballot.sol\":1374:1400  i < _candidateNames.length */\n  lt\n    /* \"contracts/ballot.sol\":1354:1561  for (uint256 i = 0; i < _candidateNames.length; i++) {... */\n  iszero\n  tag_7\n  jumpi\n    /* \"contracts/ballot.sol\":1422:1432  candidates */\n  0x01\n    /* \"contracts/ballot.sol\":1438:1491  Candidate({ name: _candidateNames[i], voteCount: 0 }) */\n  mload(0x40)\n  dup1\n  0x40\n  add\n  0x40\n  mstore\n  dup1\n    /* \"contracts/ballot.sol\":1456:1471  _candidateNames */\n  dup5\n    /* \"contracts/ballot.sol\":1472:1473  i */\n  dup5\n    /* \"contracts/ballot.sol\":1456:1474  _candidateNames[i] */\n  dup2\n  mload\n  dup2\n  lt\n  tag_9\n  jumpi\n  tag_10\n  tag_11\n  jump\t// in\ntag_10:\ntag_9:\n  0x20\n  mul\n  0x20\n  add\n  add\n  mload\n    /* \"contracts/ballot.sol\":1438:1491  Candidate({ name: _candidateNames[i], voteCount: 0 }) */\n  dup2\n  mstore\n  0x20\n  add\n    /* \"contracts/ballot.sol\":1487:1488  0 */\n  0x00\n    /* \"contracts/ballot.sol\":1438:1491  Candidate({ name: _candidateNames[i], voteCount: 0 }) */\n  dup2\n  mstore\n  pop\n    /* \"contracts/ballot.sol\":1422:1492  candidates.push(Candidate({ name: _candidateNames[i], voteCount: 0 })) */\n  swap1\n  dup1\n  0x01\n  dup2\n  sload\n  add\n  dup1\n  dup3\n  sstore\n  dup1\n  swap2\n  pop\n  pop\n  0x01\n  swap1\n  sub\n  swap1\n  0x00\n  mstore\n  keccak256(0x00, 0x20)\n  swap1\n  0x02\n  mul\n  add\n  0x00\n  swap1\n  swap2\n  swap1\n  swap2\n  swap1\n  swap2\n  pop\n  0x00\n  dup3\n  add\n  mload\n  dup2\n  0x00\n  add\n  swap1\n  dup2\n  tag_13\n  swap2\n  swap1\n  tag_14\n  jump\t// in\ntag_13:\n  pop\n  0x20\n  dup3\n  add\n  mload\n  dup2\n  0x01\n  add\n  sstore\n  pop\n  pop\n    /* \"contracts/ballot.sol\":1512:1549  CandidateAdded(_candidateNames[i], i) */\n  0xa89e28469fa9e15d5149634a9ce8d8dd59ec42c18ba2d281b08c305f2095acef\n    /* \"contracts/ballot.sol\":1527:1542  _candidateNames */\n  dup3\n    /* \"contracts/ballot.sol\":1543:1544  i */\n  dup3\n    /* \"contracts/ballot.sol\":1527:1545  _candidateNames[i] */\n  dup2\n  mload\n  dup2\n  lt\n  tag_15\n  jumpi\n  tag_16\n  tag_11\n  jump\t// in\ntag_16:\ntag_15:\n  0x20\n  mul\n  0x20\n  add\n  add\n  mload\n    /* \"contracts/ballot.sol\":1547:1548  i */\n  dup3\n    /* \"contracts/ballot.sol\":1512:1549  CandidateAdded(_candidateNames[i], i) */\n  mload(0x40)\n  tag_17\n  swap3\n  swap2\n  swap1\n  tag_18\n  jump\t// in\ntag_17:\n  mload(0x40)\n  dup1\n  swap2\n  sub\n  swap1\n  log1\n    /* \"contracts/ballot.sol\":1402:1405  i++ */\n  dup1\n  dup1\n  0x01\n  add\n  swap2\n  pop\n  pop\n    /* \"contracts/ballot.sol\":1354:1561  for (uint256 i = 0; i < _candidateNames.length; i++) {... */\n  jump(tag_6)\ntag_7:\n  pop\n    /* \"contracts/ballot.sol\":1269:1568  constructor(string[] memory _candidateNames) {... */\n  pop\n    /* \"contracts/ballot.sol\":194:5024  contract VotingWithRegistration {... */\n  jump(tag_19)\n    /* \"#utility.yul\":7:82   */\ntag_20:\n    /* \"#utility.yul\":40:46   */\n  0x00\n    /* \"#utility.yul\":73:75   */\n  0x40\n    /* \"#utility.yul\":67:76   */\n  mload\n    /* \"#utility.yul\":57:76   */\n  swap1\n  pop\n    /* \"#utility.yul\":7:82   */\n  swap1\n  jump\t// out\n    /* \"#utility.yul\":88:205   */\ntag_21:\n    /* \"#utility.yul\":197:198   */\n  0x00\n    /* \"#utility.yul\":194:195   */\n  0x00\n    /* \"#utility.yul\":187:199   */\n  revert\n    /* \"#utility.yul\":211:328   */\ntag_22:\n    /* \"#utility.yul\":320:321   */\n  0x00\n    /* \"#utility.yul\":317:318   */\n  0x00\n    /* \"#utility.yul\":310:322   */\n  revert\n    /* \"#utility.yul\":334:451   */\ntag_23:\n    /* \"#utility.yul\":443:444   */\n  0x00\n    /* \"#utility.yul\":440:441   */\n  0x00\n    /* \"#utility.yul\":433:445   */\n  revert\n    /* \"#utility.yul\":457:559   */\ntag_24:\n    /* \"#utility.yul\":498:504   */\n  0x00\n    /* \"#utility.yul\":549:551   */\n  0x1f\n    /* \"#utility.yul\":545:552   */\n  not\n    /* \"#utility.yul\":540:542   */\n  0x1f\n    /* \"#utility.yul\":533:538   */\n  dup4\n    /* \"#utility.yul\":529:543   */\n  add\n    /* \"#utility.yul\":525:553   */\n  and\n    /* \"#utility.yul\":515:553   */\n  swap1\n  pop\n    /* \"#utility.yul\":457:559   */\n  swap2\n  swap1\n  pop\n  jump\t// out\n    /* \"#utility.yul\":565:745   */\ntag_25:\n    /* \"#utility.yul\":613:690   */\n  0x4e487b7100000000000000000000000000000000000000000000000000000000\n    /* \"#utility.yul\":610:611   */\n  0x00\n    /* \"#utility.yul\":603:691   */\n  mstore\n    /* \"#utility.yul\":710:714   */\n  0x41\n    /* \"#utility.yul\":707:708   */\n  0x04\n    /* \"#utility.yul\":700:715   */\n  mstore\n    /* \"#utility.yul\":734:738   */\n  0x24\n    /* \"#utility.yul\":731:732   */\n  0x00\n    /* \"#utility.yul\":724:739   */\n  revert\n    /* \"#utility.yul\":751:1032   */\ntag_26:\n    /* \"#utility.yul\":834:861   */\n  tag_67\n    /* \"#utility.yul\":856:860   */\n  dup3\n    /* \"#utility.yul\":834:861   */\n  tag_24\n  jump\t// in\ntag_67:\n    /* \"#utility.yul\":826:832   */\n  dup2\n    /* \"#utility.yul\":822:862   */\n  add\n    /* \"#utility.yul\":964:970   */\n  dup2\n    /* \"#utility.yul\":952:962   */\n  dup2\n    /* \"#utility.yul\":949:971   */\n  lt\n    /* \"#utility.yul\":928:946   */\n  0xffffffffffffffff\n    /* \"#utility.yul\":916:926   */\n  dup3\n    /* \"#utility.yul\":913:947   */\n  gt\n    /* \"#utility.yul\":910:972   */\n  or\n    /* \"#utility.yul\":907:995   */\n  iszero\n  tag_68\n  jumpi\n    /* \"#utility.yul\":975:993   */\n  tag_69\n  tag_25\n  jump\t// in\ntag_69:\n    /* \"#utility.yul\":907:995   */\ntag_68:\n    /* \"#utility.yul\":1015:1025   */\n  dup1\n    /* \"#utility.yul\":1011:1013   */\n  0x40\n    /* \"#utility.yul\":1004:1026   */\n  mstore\n    /* \"#utility.yul\":794:1032   */\n  pop\n    /* \"#utility.yul\":751:1032   */\n  pop\n  pop\n  jump\t// out\n    /* \"#utility.yul\":1038:1167   */\ntag_27:\n    /* \"#utility.yul\":1072:1078   */\n  0x00\n    /* \"#utility.yul\":1099:1119   */\n  tag_71\n  tag_20\n  jump\t// in\ntag_71:\n    /* \"#utility.yul\":1089:1119   */\n  swap1\n  pop\n    /* \"#utility.yul\":1128:1161   */\n  tag_72\n    /* \"#utility.yul\":1156:1160   */\n  dup3\n    /* \"#utility.yul\":1148:1154   */\n  dup3\n    /* \"#utility.yul\":1128:1161   */\n  tag_26\n  jump\t// in\ntag_72:\n    /* \"#utility.yul\":1038:1167   */\n  swap2\n  swap1\n  pop\n  jump\t// out\n    /* \"#utility.yul\":1173:1494   */\ntag_28:\n    /* \"#utility.yul\":1260:1264   */\n  0x00\n    /* \"#utility.yul\":1350:1368   */\n  0xffffffffffffffff\n    /* \"#utility.yul\":1342:1348   */\n  dup3\n    /* \"#utility.yul\":1339:1369   */\n  gt\n    /* \"#utility.yul\":1336:1392   */\n  iszero\n  tag_74\n  jumpi\n    /* \"#utility.yul\":1372:1390   */\n  tag_75\n  tag_25\n  jump\t// in\ntag_75:\n    /* \"#utility.yul\":1336:1392   */\ntag_74:\n    /* \"#utility.yul\":1422:1426   */\n  0x20\n    /* \"#utility.yul\":1414:1420   */\n  dup3\n    /* \"#utility.yul\":1410:1427   */\n  mul\n    /* \"#utility.yul\":1402:1427   */\n  swap1\n  pop\n    /* \"#utility.yul\":1482:1486   */\n  0x20\n    /* \"#utility.yul\":1476:1480   */\n  dup2\n    /* \"#utility.yul\":1472:1487   */\n  add\n    /* \"#utility.yul\":1464:1487   */\n  swap1\n  pop\n    /* \"#utility.yul\":1173:1494   */\n  swap2\n  swap1\n  pop\n  jump\t// out\n    /* \"#utility.yul\":1500:1617   */\ntag_29:\n    /* \"#utility.yul\":1609:1610   */\n  0x00\n    /* \"#utility.yul\":1606:1607   */\n  0x00\n    /* \"#utility.yul\":1599:1611   */\n  revert\n    /* \"#utility.yul\":1623:1740   */\ntag_30:\n    /* \"#utility.yul\":1732:1733   */\n  0x00\n    /* \"#utility.yul\":1729:1730   */\n  0x00\n    /* \"#utility.yul\":1722:1734   */\n  revert\n    /* \"#utility.yul\":1746:2054   */\ntag_31:\n    /* \"#utility.yul\":1808:1812   */\n  0x00\n    /* \"#utility.yul\":1898:1916   */\n  0xffffffffffffffff\n    /* \"#utility.yul\":1890:1896   */\n  dup3\n    /* \"#utility.yul\":1887:1917   */\n  gt\n    /* \"#utility.yul\":1884:1940   */\n  iszero\n  tag_79\n  jumpi\n    /* \"#utility.yul\":1920:1938   */\n  tag_80\n  tag_25\n  jump\t// in\ntag_80:\n    /* \"#utility.yul\":1884:1940   */\ntag_79:\n    /* \"#utility.yul\":1958:1987   */\n  tag_81\n    /* \"#utility.yul\":1980:1986   */\n  dup3\n    /* \"#utility.yul\":1958:1987   */\n  tag_24\n  jump\t// in\ntag_81:\n    /* \"#utility.yul\":1950:1987   */\n  swap1\n  pop\n    /* \"#utility.yul\":2042:2046   */\n  0x20\n    /* \"#utility.yul\":2036:2040   */\n  dup2\n    /* \"#utility.yul\":2032:2047   */\n  add\n    /* \"#utility.yul\":2024:2047   */\n  swap1\n  pop\n    /* \"#utility.yul\":1746:2054   */\n  swap2\n  swap1\n  pop\n  jump\t// out\n    /* \"#utility.yul\":2060:2199   */\ntag_32:\n    /* \"#utility.yul\":2149:2155   */\n  dup3\n    /* \"#utility.yul\":2144:2147   */\n  dup2\n    /* \"#utility.yul\":2139:2142   */\n  dup4\n    /* \"#utility.yul\":2133:2156   */\n  mcopy\n    /* \"#utility.yul\":2190:2191   */\n  0x00\n    /* \"#utility.yul\":2181:2187   */\n  dup4\n    /* \"#utility.yul\":2176:2179   */\n  dup4\n    /* \"#utility.yul\":2172:2188   */\n  add\n    /* \"#utility.yul\":2165:2192   */\n  mstore\n    /* \"#utility.yul\":2060:2199   */\n  pop\n  pop\n  pop\n  jump\t// out\n    /* \"#utility.yul\":2205:2639   */\ntag_33:\n    /* \"#utility.yul\":2294:2299   */\n  0x00\n    /* \"#utility.yul\":2319:2385   */\n  tag_84\n    /* \"#utility.yul\":2335:2384   */\n  tag_85\n    /* \"#utility.yul\":2377:2383   */\n  dup5\n    /* \"#utility.yul\":2335:2384   */\n  tag_31\n  jump\t// in\ntag_85:\n    /* \"#utility.yul\":2319:2385   */\n  tag_27\n  jump\t// in\ntag_84:\n    /* \"#utility.yul\":2310:2385   */\n  swap1\n  pop\n    /* \"#utility.yul\":2408:2414   */\n  dup3\n    /* \"#utility.yul\":2401:2406   */\n  dup2\n    /* \"#utility.yul\":2394:2415   */\n  mstore\n    /* \"#utility.yul\":2446:2450   */\n  0x20\n    /* \"#utility.yul\":2439:2444   */\n  dup2\n    /* \"#utility.yul\":2435:2451   */\n  add\n    /* \"#utility.yul\":2484:2487   */\n  dup5\n    /* \"#utility.yul\":2475:2481   */\n  dup5\n    /* \"#utility.yul\":2470:2473   */\n  dup5\n    /* \"#utility.yul\":2466:2482   */\n  add\n    /* \"#utility.yul\":2463:2488   */\n  gt\n    /* \"#utility.yul\":2460:2572   */\n  iszero\n  tag_86\n  jumpi\n    /* \"#utility.yul\":2491:2570   */\n  tag_87\n  tag_30\n  jump\t// in\ntag_87:\n    /* \"#utility.yul\":2460:2572   */\ntag_86:\n    /* \"#utility.yul\":2581:2633   */\n  tag_88\n    /* \"#utility.yul\":2626:2632   */\n  dup5\n    /* \"#utility.yul\":2621:2624   */\n  dup3\n    /* \"#utility.yul\":2616:2619   */\n  dup6\n    /* \"#utility.yul\":2581:2633   */\n  tag_32\n  jump\t// in\ntag_88:\n    /* \"#utility.yul\":2300:2639   */\n  pop\n    /* \"#utility.yul\":2205:2639   */\n  swap4\n  swap3\n  pop\n  pop\n  pop\n  jump\t// out\n    /* \"#utility.yul\":2659:3014   */\ntag_34:\n    /* \"#utility.yul\":2726:2731   */\n  0x00\n    /* \"#utility.yul\":2775:2778   */\n  dup3\n    /* \"#utility.yul\":2768:2772   */\n  0x1f\n    /* \"#utility.yul\":2760:2766   */\n  dup4\n    /* \"#utility.yul\":2756:2773   */\n  add\n    /* \"#utility.yul\":2752:2779   */\n  slt\n    /* \"#utility.yul\":2742:2864   */\n  tag_90\n  jumpi\n    /* \"#utility.yul\":2783:2862   */\n  tag_91\n  tag_23\n  jump\t// in\ntag_91:\n    /* \"#utility.yul\":2742:2864   */\ntag_90:\n    /* \"#utility.yul\":2893:2899   */\n  dup2\n    /* \"#utility.yul\":2887:2900   */\n  mload\n    /* \"#utility.yul\":2918:3008   */\n  tag_92\n    /* \"#utility.yul\":3004:3007   */\n  dup5\n    /* \"#utility.yul\":2996:3002   */\n  dup3\n    /* \"#utility.yul\":2989:2993   */\n  0x20\n    /* \"#utility.yul\":2981:2987   */\n  dup7\n    /* \"#utility.yul\":2977:2994   */\n  add\n    /* \"#utility.yul\":2918:3008   */\n  tag_33\n  jump\t// in\ntag_92:\n    /* \"#utility.yul\":2909:3008   */\n  swap2\n  pop\n    /* \"#utility.yul\":2732:3014   */\n  pop\n    /* \"#utility.yul\":2659:3014   */\n  swap3\n  swap2\n  pop\n  pop\n  jump\t// out\n    /* \"#utility.yul\":3036:3996   */\ntag_35:\n    /* \"#utility.yul\":3153:3158   */\n  0x00\n    /* \"#utility.yul\":3178:3269   */\n  tag_94\n    /* \"#utility.yul\":3194:3268   */\n  tag_95\n    /* \"#utility.yul\":3261:3267   */\n  dup5\n    /* \"#utility.yul\":3194:3268   */\n  tag_28\n  jump\t// in\ntag_95:\n    /* \"#utility.yul\":3178:3269   */\n  tag_27\n  jump\t// in\ntag_94:\n    /* \"#utility.yul\":3169:3269   */\n  swap1\n  pop\n    /* \"#utility.yul\":3289:3294   */\n  dup1\n    /* \"#utility.yul\":3318:3324   */\n  dup4\n    /* \"#utility.yul\":3311:3316   */\n  dup3\n    /* \"#utility.yul\":3304:3325   */\n  mstore\n    /* \"#utility.yul\":3352:3356   */\n  0x20\n    /* \"#utility.yul\":3345:3350   */\n  dup3\n    /* \"#utility.yul\":3341:3357   */\n  add\n    /* \"#utility.yul\":3334:3357   */\n  swap1\n  pop\n    /* \"#utility.yul\":3405:3409   */\n  0x20\n    /* \"#utility.yul\":3397:3403   */\n  dup5\n    /* \"#utility.yul\":3393:3410   */\n  mul\n    /* \"#utility.yul\":3385:3391   */\n  dup4\n    /* \"#utility.yul\":3381:3411   */\n  add\n    /* \"#utility.yul\":3434:3437   */\n  dup6\n    /* \"#utility.yul\":3426:3432   */\n  dup2\n    /* \"#utility.yul\":3423:3438   */\n  gt\n    /* \"#utility.yul\":3420:3542   */\n  iszero\n  tag_96\n  jumpi\n    /* \"#utility.yul\":3453:3532   */\n  tag_97\n  tag_29\n  jump\t// in\ntag_97:\n    /* \"#utility.yul\":3420:3542   */\ntag_96:\n    /* \"#utility.yul\":3568:3574   */\n  dup4\n    /* \"#utility.yul\":3551:3990   */\ntag_98:\n    /* \"#utility.yul\":3585:3591   */\n  dup2\n    /* \"#utility.yul\":3580:3583   */\n  dup2\n    /* \"#utility.yul\":3577:3592   */\n  lt\n    /* \"#utility.yul\":3551:3990   */\n  iszero\n  tag_100\n  jumpi\n    /* \"#utility.yul\":3667:3670   */\n  dup1\n    /* \"#utility.yul\":3661:3671   */\n  mload\n    /* \"#utility.yul\":3703:3721   */\n  0xffffffffffffffff\n    /* \"#utility.yul\":3690:3701   */\n  dup2\n    /* \"#utility.yul\":3687:3722   */\n  gt\n    /* \"#utility.yul\":3684:3806   */\n  iszero\n  tag_101\n  jumpi\n    /* \"#utility.yul\":3725:3804   */\n  tag_102\n  tag_23\n  jump\t// in\ntag_102:\n    /* \"#utility.yul\":3684:3806   */\ntag_101:\n    /* \"#utility.yul\":3849:3860   */\n  dup1\n    /* \"#utility.yul\":3841:3847   */\n  dup7\n    /* \"#utility.yul\":3837:3861   */\n  add\n    /* \"#utility.yul\":3887:3945   */\n  tag_103\n    /* \"#utility.yul\":3941:3944   */\n  dup10\n    /* \"#utility.yul\":3929:3939   */\n  dup3\n    /* \"#utility.yul\":3887:3945   */\n  tag_34\n  jump\t// in\ntag_103:\n    /* \"#utility.yul\":3882:3885   */\n  dup6\n    /* \"#utility.yul\":3875:3946   */\n  mstore\n    /* \"#utility.yul\":3975:3979   */\n  0x20\n    /* \"#utility.yul\":3970:3973   */\n  dup6\n    /* \"#utility.yul\":3966:3980   */\n  add\n    /* \"#utility.yul\":3959:3980   */\n  swap5\n  pop\n    /* \"#utility.yul\":3627:3990   */\n  pop\n  pop\n    /* \"#utility.yul\":3611:3615   */\n  0x20\n    /* \"#utility.yul\":3606:3609   */\n  dup2\n    /* \"#utility.yul\":3602:3616   */\n  add\n    /* \"#utility.yul\":3595:3616   */\n  swap1\n  pop\n    /* \"#utility.yul\":3551:3990   */\n  jump(tag_98)\ntag_100:\n    /* \"#utility.yul\":3555:3576   */\n  pop\n    /* \"#utility.yul\":3159:3996   */\n  pop\n  pop\n    /* \"#utility.yul\":3036:3996   */\n  swap4\n  swap3\n  pop\n  pop\n  pop\n  jump\t// out\n    /* \"#utility.yul\":4018:4423   */\ntag_36:\n    /* \"#utility.yul\":4110:4115   */\n  0x00\n    /* \"#utility.yul\":4159:4162   */\n  dup3\n    /* \"#utility.yul\":4152:4156   */\n  0x1f\n    /* \"#utility.yul\":4144:4150   */\n  dup4\n    /* \"#utility.yul\":4140:4157   */\n  add\n    /* \"#utility.yul\":4136:4163   */\n  slt\n    /* \"#utility.yul\":4126:4248   */\n  tag_105\n  jumpi\n    /* \"#utility.yul\":4167:4246   */\n  tag_106\n  tag_23\n  jump\t// in\ntag_106:\n    /* \"#utility.yul\":4126:4248   */\ntag_105:\n    /* \"#utility.yul\":4277:4283   */\n  dup2\n    /* \"#utility.yul\":4271:4284   */\n  mload\n    /* \"#utility.yul\":4302:4417   */\n  tag_107\n    /* \"#utility.yul\":4413:4416   */\n  dup5\n    /* \"#utility.yul\":4405:4411   */\n  dup3\n    /* \"#utility.yul\":4398:4402   */\n  0x20\n    /* \"#utility.yul\":4390:4396   */\n  dup7\n    /* \"#utility.yul\":4386:4403   */\n  add\n    /* \"#utility.yul\":4302:4417   */\n  tag_35\n  jump\t// in\ntag_107:\n    /* \"#utility.yul\":4293:4417   */\n  swap2\n  pop\n    /* \"#utility.yul\":4116:4423   */\n  pop\n    /* \"#utility.yul\":4018:4423   */\n  swap3\n  swap2\n  pop\n  pop\n  jump\t// out\n    /* \"#utility.yul\":4429:5003   */\ntag_3:\n    /* \"#utility.yul\":4534:4540   */\n  0x00\n    /* \"#utility.yul\":4583:4585   */\n  0x20\n    /* \"#utility.yul\":4571:4580   */\n  dup3\n    /* \"#utility.yul\":4562:4569   */\n  dup5\n    /* \"#utility.yul\":4558:4581   */\n  sub\n    /* \"#utility.yul\":4554:4586   */\n  slt\n    /* \"#utility.yul\":4551:4670   */\n  iszero\n  tag_109\n  jumpi\n    /* \"#utility.yul\":4589:4668   */\n  tag_110\n  tag_21\n  jump\t// in\ntag_110:\n    /* \"#utility.yul\":4551:4670   */\ntag_109:\n    /* \"#utility.yul\":4730:4731   */\n  0x00\n    /* \"#utility.yul\":4719:4728   */\n  dup3\n    /* \"#utility.yul\":4715:4732   */\n  add\n    /* \"#utility.yul\":4709:4733   */\n  mload\n    /* \"#utility.yul\":4760:4778   */\n  0xffffffffffffffff\n    /* \"#utility.yul\":4752:4758   */\n  dup2\n    /* \"#utility.yul\":4749:4779   */\n  gt\n    /* \"#utility.yul\":4746:4863   */\n  iszero\n  tag_111\n  jumpi\n    /* \"#utility.yul\":4782:4861   */\n  tag_112\n  tag_22\n  jump\t// in\ntag_112:\n    /* \"#utility.yul\":4746:4863   */\ntag_111:\n    /* \"#utility.yul\":4887:4986   */\n  tag_113\n    /* \"#utility.yul\":4978:4985   */\n  dup5\n    /* \"#utility.yul\":4969:4975   */\n  dup3\n    /* \"#utility.yul\":4958:4967   */\n  dup6\n    /* \"#utility.yul\":4954:4976   */\n  add\n    /* \"#utility.yul\":4887:4986   */\n  tag_36\n  jump\t// in\ntag_113:\n    /* \"#utility.yul\":4877:4986   */\n  swap2\n  pop\n    /* \"#utility.yul\":4680:4996   */\n  pop\n    /* \"#utility.yul\":4429:5003   */\n  swap3\n  swap2\n  pop\n  pop\n  jump\t// out\n    /* \"#utility.yul\":5009:5189   */\ntag_11:\n    /* \"#utility.yul\":5057:5134   */\n  0x4e487b7100000000000000000000000000000000000000000000000000000000\n    /* \"#utility.yul\":5054:5055   */\n  0x00\n    /* \"#utility.yul\":5047:5135   */\n  mstore\n    /* \"#utility.yul\":5154:5158   */\n  0x32\n    /* \"#utility.yul\":5151:5152   */\n  0x04\n    /* \"#utility.yul\":5144:5159   */\n  mstore\n    /* \"#utility.yul\":5178:5182   */\n  0x24\n    /* \"#utility.yul\":5175:5176   */\n  0x00\n    /* \"#utility.yul\":5168:5183   */\n  revert\n    /* \"#utility.yul\":5195:5294   */\ntag_37:\n    /* \"#utility.yul\":5247:5253   */\n  0x00\n    /* \"#utility.yul\":5281:5286   */\n  dup2\n    /* \"#utility.yul\":5275:5287   */\n  mload\n    /* \"#utility.yul\":5265:5287   */\n  swap1\n  pop\n    /* \"#utility.yul\":5195:5294   */\n  swap2\n  swap1\n  pop\n  jump\t// out\n    /* \"#utility.yul\":5300:5480   */\ntag_38:\n    /* \"#utility.yul\":5348:5425   */\n  0x4e487b7100000000000000000000000000000000000000000000000000000000\n    /* \"#utility.yul\":5345:5346   */\n  0x00\n    /* \"#utility.yul\":5338:5426   */\n  mstore\n    /* \"#utility.yul\":5445:5449   */\n  0x22\n    /* \"#utility.yul\":5442:5443   */\n  0x04\n    /* \"#utility.yul\":5435:5450   */\n  mstore\n    /* \"#utility.yul\":5469:5473   */\n  0x24\n    /* \"#utility.yul\":5466:5467   */\n  0x00\n    /* \"#utility.yul\":5459:5474   */\n  revert\n    /* \"#utility.yul\":5486:5806   */\ntag_39:\n    /* \"#utility.yul\":5530:5536   */\n  0x00\n    /* \"#utility.yul\":5567:5568   */\n  0x02\n    /* \"#utility.yul\":5561:5565   */\n  dup3\n    /* \"#utility.yul\":5557:5569   */\n  div\n    /* \"#utility.yul\":5547:5569   */\n  swap1\n  pop\n    /* \"#utility.yul\":5614:5615   */\n  0x01\n    /* \"#utility.yul\":5608:5612   */\n  dup3\n    /* \"#utility.yul\":5604:5616   */\n  and\n    /* \"#utility.yul\":5635:5653   */\n  dup1\n    /* \"#utility.yul\":5625:5706   */\n  tag_118\n  jumpi\n    /* \"#utility.yul\":5691:5695   */\n  0x7f\n    /* \"#utility.yul\":5683:5689   */\n  dup3\n    /* \"#utility.yul\":5679:5696   */\n  and\n    /* \"#utility.yul\":5669:5696   */\n  swap2\n  pop\n    /* \"#utility.yul\":5625:5706   */\ntag_118:\n    /* \"#utility.yul\":5753:5755   */\n  0x20\n    /* \"#utility.yul\":5745:5751   */\n  dup3\n    /* \"#utility.yul\":5742:5756   */\n  lt\n    /* \"#utility.yul\":5722:5740   */\n  dup2\n    /* \"#utility.yul\":5719:5757   */\n  sub\n    /* \"#utility.yul\":5716:5800   */\n  tag_119\n  jumpi\n    /* \"#utility.yul\":5772:5790   */\n  tag_120\n  tag_38\n  jump\t// in\ntag_120:\n    /* \"#utility.yul\":5716:5800   */\ntag_119:\n    /* \"#utility.yul\":5537:5806   */\n  pop\n    /* \"#utility.yul\":5486:5806   */\n  swap2\n  swap1\n  pop\n  jump\t// out\n    /* \"#utility.yul\":5812:5953   */\ntag_40:\n    /* \"#utility.yul\":5861:5865   */\n  0x00\n    /* \"#utility.yul\":5884:5887   */\n  dup2\n    /* \"#utility.yul\":5876:5887   */\n  swap1\n  pop\n    /* \"#utility.yul\":5907:5910   */\n  dup2\n    /* \"#utility.yul\":5904:5905   */\n  0x00\n    /* \"#utility.yul\":5897:5911   */\n  mstore\n    /* \"#utility.yul\":5941:5945   */\n  0x20\n    /* \"#utility.yul\":5938:5939   */\n  0x00\n    /* \"#utility.yul\":5928:5946   */\n  keccak256\n    /* \"#utility.yul\":5920:5946   */\n  swap1\n  pop\n    /* \"#utility.yul\":5812:5953   */\n  swap2\n  swap1\n  pop\n  jump\t// out\n    /* \"#utility.yul\":5959:6052   */\ntag_41:\n    /* \"#utility.yul\":5996:6002   */\n  0x00\n    /* \"#utility.yul\":6043:6045   */\n  0x20\n    /* \"#utility.yul\":6038:6040   */\n  0x1f\n    /* \"#utility.yul\":6031:6036   */\n  dup4\n    /* \"#utility.yul\":6027:6041   */\n  add\n    /* \"#utility.yul\":6023:6046   */\n  div\n    /* \"#utility.yul\":6013:6046   */\n  swap1\n  pop\n    /* \"#utility.yul\":5959:6052   */\n  swap2\n  swap1\n  pop\n  jump\t// out\n    /* \"#utility.yul\":6058:6165   */\ntag_42:\n    /* \"#utility.yul\":6102:6110   */\n  0x00\n    /* \"#utility.yul\":6152:6157   */\n  dup3\n    /* \"#utility.yul\":6146:6150   */\n  dup3\n    /* \"#utility.yul\":6142:6158   */\n  shl\n    /* \"#utility.yul\":6121:6158   */\n  swap1\n  pop\n    /* \"#utility.yul\":6058:6165   */\n  swap3\n  swap2\n  pop\n  pop\n  jump\t// out\n    /* \"#utility.yul\":6171:6564   */\ntag_43:\n    /* \"#utility.yul\":6240:6246   */\n  0x00\n    /* \"#utility.yul\":6290:6291   */\n  0x08\n    /* \"#utility.yul\":6278:6288   */\n  dup4\n    /* \"#utility.yul\":6274:6292   */\n  mul\n    /* \"#utility.yul\":6313:6410   */\n  tag_125\n    /* \"#utility.yul\":6343:6409   */\n  0xffffffffffffffffffffffffffffffffffffffffffffffffffffffffffffffff\n    /* \"#utility.yul\":6332:6341   */\n  dup3\n    /* \"#utility.yul\":6313:6410   */\n  tag_42\n  jump\t// in\ntag_125:\n    /* \"#utility.yul\":6431:6470   */\n  tag_126\n    /* \"#utility.yul\":6461:6469   */\n  dup7\n    /* \"#utility.yul\":6450:6459   */\n  dup4\n    /* \"#utility.yul\":6431:6470   */\n  tag_42\n  jump\t// in\ntag_126:\n    /* \"#utility.yul\":6419:6470   */\n  swap6\n  pop\n    /* \"#utility.yul\":6503:6507   */\n  dup1\n    /* \"#utility.yul\":6499:6508   */\n  not\n    /* \"#utility.yul\":6492:6497   */\n  dup5\n    /* \"#utility.yul\":6488:6509   */\n  and\n    /* \"#utility.yul\":6479:6509   */\n  swap4\n  pop\n    /* \"#utility.yul\":6552:6556   */\n  dup1\n    /* \"#utility.yul\":6542:6550   */\n  dup7\n    /* \"#utility.yul\":6538:6557   */\n  and\n    /* \"#utility.yul\":6531:6536   */\n  dup5\n    /* \"#utility.yul\":6528:6558   */\n  or\n    /* \"#utility.yul\":6518:6558   */\n  swap3\n  pop\n    /* \"#utility.yul\":6247:6564   */\n  pop\n  pop\n    /* \"#utility.yul\":6171:6564   */\n  swap4\n  swap3\n  pop\n  pop\n  pop\n  jump\t// out\n    /* \"#utility.yul\":6570:6647   */\ntag_44:\n    /* \"#utility.yul\":6607:6614   */\n  0x00\n    /* \"#utility.yul\":6636:6641   */\n  dup2\n    /* \"#utility.yul\":6625:6641   */\n  swap1\n  pop\n    /* \"#utility.yul\":6570:6647   */\n  swap2\n  swap1\n  pop\n  jump\t// out\n    /* \"#utility.yul\":6653:6713   */\ntag_45:\n    /* \"#utility.yul\":6681:6684   */\n  0x00\n    /* \"#utility.yul\":6702:6707   */\n  dup2\n    /* \"#utility.yul\":6695:6707   */\n  swap1\n  pop\n    /* \"#utility.yul\":6653:6713   */\n  swap2\n  swap1\n  pop\n  jump\t// out\n    /* \"#utility.yul\":6719:6861   */\ntag_46:\n    /* \"#utility.yul\":6769:6778   */\n  0x00\n    /* \"#utility.yul\":6802:6855   */\n  tag_130\n    /* \"#utility.yul\":6820:6854   */\n  tag_131\n    /* \"#utility.yul\":6829:6853   */\n  tag_132\n    /* \"#utility.yul\":6847:6852   */\n  dup5\n    /* \"#utility.yul\":6829:6853   */\n  tag_44\n  jump\t// in\ntag_132:\n    /* \"#utility.yul\":6820:6854   */\n  tag_45\n  jump\t// in\ntag_131:\n    /* \"#utility.yul\":6802:6855   */\n  tag_44\n  jump\t// in\ntag_130:\n    /* \"#utility.yul\":6789:6855   */\n  swap1\n  pop\n    /* \"#utility.yul\":6719:6861   */\n  swap2\n  swap1\n  pop\n  jump\t// out\n    /* \"#utility.yul\":6867:6942   */\ntag_47:\n    /* \"#utility.yul\":6910:6913   */\n  0x00\n    /* \"#utility.yul\":6931:6936   */\n  dup2\n    /* \"#utility.yul\":6924:6936   */\n  swap1\n  pop\n    /* \"#utility.yul\":6867:6942   */\n  swap2\n  swap1\n  pop\n  jump\t// out\n    /* \"#utility.yul\":6948:7217   */\ntag_48:\n    /* \"#utility.yul\":7058:7097   */\n  tag_135\n    /* \"#utility.yul\":7089:7096   */\n  dup4\n    /* \"#utility.yul\":7058:7097   */\n  tag_46\n  jump\t// in\ntag_135:\n    /* \"#utility.yul\":7119:7210   */\n  tag_136\n    /* \"#utility.yul\":7168:7209   */\n  tag_137\n    /* \"#utility.yul\":7192:7208   */\n  dup3\n    /* \"#utility.yul\":7168:7209   */\n  tag_47\n  jump\t// in\ntag_137:\n    /* \"#utility.yul\":7160:7166   */\n  dup5\n    /* \"#utility.yul\":7153:7157   */\n  dup5\n    /* \"#utility.yul\":7147:7158   */\n  sload\n    /* \"#utility.yul\":7119:7210   */\n  tag_43\n  jump\t// in\ntag_136:\n    /* \"#utility.yul\":7113:7117   */\n  dup3\n    /* \"#utility.yul\":7106:7211   */\n  sstore\n    /* \"#utility.yul\":7024:7217   */\n  pop\n    /* \"#utility.yul\":6948:7217   */\n  pop\n  pop\n  pop\n  jump\t// out\n    /* \"#utility.yul\":7223:7296   */\ntag_49:\n    /* \"#utility.yul\":7268:7271   */\n  0x00\n    /* \"#utility.yul\":7289:7290   */\n  0x00\n    /* \"#utility.yul\":7282:7290   */\n  swap1\n  pop\n    /* \"#utility.yul\":7223:7296   */\n  swap1\n  jump\t// out\n    /* \"#utility.yul\":7302:7491   */\ntag_50:\n    /* \"#utility.yul\":7379:7411   */\n  tag_140\n  tag_49\n  jump\t// in\ntag_140:\n    /* \"#utility.yul\":7420:7485   */\n  tag_141\n    /* \"#utility.yul\":7478:7484   */\n  dup2\n    /* \"#utility.yul\":7470:7476   */\n  dup5\n    /* \"#utility.yul\":7464:7468   */\n  dup5\n    /* \"#utility.yul\":7420:7485   */\n  tag_48\n  jump\t// in\ntag_141:\n    /* \"#utility.yul\":7355:7491   */\n  pop\n    /* \"#utility.yul\":7302:7491   */\n  pop\n  pop\n  jump\t// out\n    /* \"#utility.yul\":7497:7711   */\ntag_51:\n    /* \"#utility.yul\":7582:7583   */\n  0x00\n    /* \"#utility.yul\":7567:7705   */\ntag_143:\n    /* \"#utility.yul\":7592:7601   */\n  dup3\n    /* \"#utility.yul\":7589:7590   */\n  dup2\n    /* \"#utility.yul\":7586:7602   */\n  lt\n    /* \"#utility.yul\":7567:7705   */\n  iszero\n  tag_145\n  jumpi\n    /* \"#utility.yul\":7644:7695   */\n  tag_146\n    /* \"#utility.yul\":7693:7694   */\n  0x00\n    /* \"#utility.yul\":7689:7690   */\n  dup3\n    /* \"#utility.yul\":7678:7687   */\n  dup5\n    /* \"#utility.yul\":7674:7691   */\n  add\n    /* \"#utility.yul\":7644:7695   */\n  tag_50\n  jump\t// in\ntag_146:\n    /* \"#utility.yul\":7617:7618   */\n  0x01\n    /* \"#utility.yul\":7614:7615   */\n  dup2\n    /* \"#utility.yul\":7610:7619   */\n  add\n    /* \"#utility.yul\":7605:7619   */\n  swap1\n  pop\n    /* \"#utility.yul\":7567:7705   */\n  jump(tag_143)\ntag_145:\n    /* \"#utility.yul\":7571:7585   */\n  pop\n    /* \"#utility.yul\":7497:7711   */\n  pop\n  pop\n  jump\t// out\n    /* \"#utility.yul\":7717:8463   */\ntag_52:\n    /* \"#utility.yul\":7818:7820   */\n  0x1f\n    /* \"#utility.yul\":7813:7816   */\n  dup3\n    /* \"#utility.yul\":7810:7821   */\n  gt\n    /* \"#utility.yul\":7807:8456   */\n  iszero\n  tag_148\n  jumpi\n    /* \"#utility.yul\":7847:7857   */\n  dup3\n    /* \"#utility.yul\":7842:7845   */\n  dup3\n    /* \"#utility.yul\":7839:7858   */\n  gt\n    /* \"#utility.yul\":7836:8446   */\n  iszero\n  tag_149\n  jumpi\n    /* \"#utility.yul\":7893:7931   */\n  tag_150\n    /* \"#utility.yul\":7925:7930   */\n  dup2\n    /* \"#utility.yul\":7893:7931   */\n  tag_40\n  jump\t// in\ntag_150:\n    /* \"#utility.yul\":7968:7990   */\n  tag_151\n    /* \"#utility.yul\":7986:7989   */\n  dup4\n    /* \"#utility.yul\":7968:7990   */\n  tag_41\n  jump\t// in\ntag_151:\n    /* \"#utility.yul\":8027:8056   */\n  tag_152\n    /* \"#utility.yul\":8045:8055   */\n  dup6\n    /* \"#utility.yul\":8027:8056   */\n  tag_41\n  jump\t// in\ntag_152:\n    /* \"#utility.yul\":8217:8219   */\n  0x20\n    /* \"#utility.yul\":8205:8215   */\n  dup7\n    /* \"#utility.yul\":8202:8220   */\n  lt\n    /* \"#utility.yul\":8199:8278   */\n  iszero\n  tag_153\n  jumpi\n    /* \"#utility.yul\":8259:8260   */\n  0x00\n    /* \"#utility.yul\":8243:8260   */\n  swap1\n  pop\n    /* \"#utility.yul\":8199:8278   */\ntag_153:\n    /* \"#utility.yul\":8328:8340   */\n  dup1\n    /* \"#utility.yul\":8318:8326   */\n  dup4\n    /* \"#utility.yul\":8314:8341   */\n  add\n    /* \"#utility.yul\":8358:8432   */\n  tag_154\n    /* \"#utility.yul\":8418:8430   */\n  dup3\n    /* \"#utility.yul\":8404:8416   */\n  dup5\n    /* \"#utility.yul\":8400:8431   */\n  sub\n    /* \"#utility.yul\":8387:8398   */\n  dup3\n    /* \"#utility.yul\":8358:8432   */\n  tag_51\n  jump\t// in\ntag_154:\n    /* \"#utility.yul\":7859:8446   */\n  pop\n  pop\n  pop\n  pop\n    /* \"#utility.yul\":7836:8446   */\ntag_149:\n    /* \"#utility.yul\":7807:8456   */\ntag_148:\n    /* \"#utility.yul\":7717:8463   */\n  pop\n  pop\n  pop\n  jump\t// out\n    /* \"#utility.yul\":8469:8586   */\ntag_53:\n    /* \"#utility.yul\":8523:8531   */\n  0x00\n    /* \"#utility.yul\":8573:8578   */\n  dup3\n    /* \"#utility.yul\":8567:8571   */\n  dup3\n    /* \"#utility.yul\":8563:8579   */\n  shr\n    /* \"#utility.yul\":8542:8579   */\n  swap1\n  pop\n    /* \"#utility.yul\":8469:8586   */\n  swap3\n  swap2\n  pop\n  pop\n  jump\t// out\n    /* \"#utility.yul\":8592:8761   */\ntag_54:\n    /* \"#utility.yul\":8636:8642   */\n  0x00\n    /* \"#utility.yul\":8669:8720   */\n  tag_157\n    /* \"#utility.yul\":8717:8718   */\n  0x00\n    /* \"#utility.yul\":8713:8719   */\n  not\n    /* \"#utility.yul\":8705:8710   */\n  dup5\n    /* \"#utility.yul\":8702:8703   */\n  0x08\n    /* \"#utility.yul\":8698:8711   */\n  mul\n    /* \"#utility.yul\":8669:8720   */\n  tag_53\n  jump\t// in\ntag_157:\n    /* \"#utility.yul\":8665:8721   */\n  not\n    /* \"#utility.yul\":8750:8754   */\n  dup1\n    /* \"#utility.yul\":8744:8748   */\n  dup4\n    /* \"#utility.yul\":8740:8755   */\n  and\n    /* \"#utility.yul\":8730:8755   */\n  swap2\n  pop\n    /* \"#utility.yul\":8643:8761   */\n  pop\n    /* \"#utility.yul\":8592:8761   */\n  swap3\n  swap2\n  pop\n  pop\n  jump\t// out\n    /* \"#utility.yul\":8766:9061   */\ntag_55:\n    /* \"#utility.yul\":8842:8846   */\n  0x00\n    /* \"#utility.yul\":8988:9017   */\n  tag_159\n    /* \"#utility.yul\":9013:9016   */\n  dup4\n    /* \"#utility.yul\":9007:9011   */\n  dup4\n    /* \"#utility.yul\":8988:9017   */\n  tag_54\n  jump\t// in\ntag_159:\n    /* \"#utility.yul\":8980:9017   */\n  swap2\n  pop\n    /* \"#utility.yul\":9050:9053   */\n  dup3\n    /* \"#utility.yul\":9047:9048   */\n  0x02\n    /* \"#utility.yul\":9043:9054   */\n  mul\n    /* \"#utility.yul\":9037:9041   */\n  dup3\n    /* \"#utility.yul\":9034:9055   */\n  or\n    /* \"#utility.yul\":9026:9055   */\n  swap1\n  pop\n    /* \"#utility.yul\":8766:9061   */\n  swap3\n  swap2\n  pop\n  pop\n  jump\t// out\n    /* \"#utility.yul\":9066:10461   */\ntag_14:\n    /* \"#utility.yul\":9183:9220   */\n  tag_161\n    /* \"#utility.yul\":9216:9219   */\n  dup3\n    /* \"#utility.yul\":9183:9220   */\n  tag_37\n  jump\t// in\ntag_161:\n    /* \"#utility.yul\":9285:9303   */\n  0xffffffffffffffff\n    /* \"#utility.yul\":9277:9283   */\n  dup2\n    /* \"#utility.yul\":9274:9304   */\n  gt\n    /* \"#utility.yul\":9271:9327   */\n  iszero\n  tag_162\n  jumpi\n    /* \"#utility.yul\":9307:9325   */\n  tag_163\n  tag_25\n  jump\t// in\ntag_163:\n    /* \"#utility.yul\":9271:9327   */\ntag_162:\n    /* \"#utility.yul\":9351:9389   */\n  tag_164\n    /* \"#utility.yul\":9383:9387   */\n  dup3\n    /* \"#utility.yul\":9377:9388   */\n  sload\n    /* \"#utility.yul\":9351:9389   */\n  tag_39\n  jump\t// in\ntag_164:\n    /* \"#utility.yul\":9436:9503   */\n  tag_165\n    /* \"#utility.yul\":9496:9502   */\n  dup3\n    /* \"#utility.yul\":9488:9494   */\n  dup3\n    /* \"#utility.yul\":9482:9486   */\n  dup6\n    /* \"#utility.yul\":9436:9503   */\n  tag_52\n  jump\t// in\ntag_165:\n    /* \"#utility.yul\":9530:9531   */\n  0x00\n    /* \"#utility.yul\":9554:9558   */\n  0x20\n    /* \"#utility.yul\":9541:9558   */\n  swap1\n  pop\n    /* \"#utility.yul\":9586:9588   */\n  0x1f\n    /* \"#utility.yul\":9578:9584   */\n  dup4\n    /* \"#utility.yul\":9575:9589   */\n  gt\n    /* \"#utility.yul\":9603:9604   */\n  0x01\n    /* \"#utility.yul\":9598:10216   */\n  dup2\n  eq\n  tag_167\n  jumpi\n    /* \"#utility.yul\":10260:10261   */\n  0x00\n    /* \"#utility.yul\":10277:10283   */\n  dup5\n    /* \"#utility.yul\":10274:10351   */\n  iszero\n  tag_168\n  jumpi\n    /* \"#utility.yul\":10326:10335   */\n  dup3\n    /* \"#utility.yul\":10321:10324   */\n  dup8\n    /* \"#utility.yul\":10317:10336   */\n  add\n    /* \"#utility.yul\":10311:10337   */\n  mload\n    /* \"#utility.yul\":10302:10337   */\n  swap1\n  pop\n    /* \"#utility.yul\":10274:10351   */\ntag_168:\n    /* \"#utility.yul\":10377:10444   */\n  tag_169\n    /* \"#utility.yul\":10437:10443   */\n  dup6\n    /* \"#utility.yul\":10430:10435   */\n  dup3\n    /* \"#utility.yul\":10377:10444   */\n  tag_55\n  jump\t// in\ntag_169:\n    /* \"#utility.yul\":10371:10375   */\n  dup7\n    /* \"#utility.yul\":10364:10445   */\n  sstore\n    /* \"#utility.yul\":10233:10455   */\n  pop\n    /* \"#utility.yul\":9568:10455   */\n  jump(tag_166)\n    /* \"#utility.yul\":9598:10216   */\ntag_167:\n    /* \"#utility.yul\":9650:9654   */\n  0x1f\n    /* \"#utility.yul\":9646:9655   */\n  not\n    /* \"#utility.yul\":9638:9644   */\n  dup5\n    /* \"#utility.yul\":9634:9656   */\n  and\n    /* \"#utility.yul\":9684:9721   */\n  tag_170\n    /* \"#utility.yul\":9716:9720   */\n  dup7\n    /* \"#utility.yul\":9684:9721   */\n  tag_40\n  jump\t// in\ntag_170:\n    /* \"#utility.yul\":9743:9744   */\n  0x00\n    /* \"#utility.yul\":9757:9965   */\ntag_171:\n    /* \"#utility.yul\":9771:9778   */\n  dup3\n    /* \"#utility.yul\":9768:9769   */\n  dup2\n    /* \"#utility.yul\":9765:9779   */\n  lt\n    /* \"#utility.yul\":9757:9965   */\n  iszero\n  tag_173\n  jumpi\n    /* \"#utility.yul\":9850:9859   */\n  dup5\n    /* \"#utility.yul\":9845:9848   */\n  dup10\n    /* \"#utility.yul\":9841:9860   */\n  add\n    /* \"#utility.yul\":9835:9861   */\n  mload\n    /* \"#utility.yul\":9827:9833   */\n  dup3\n    /* \"#utility.yul\":9820:9862   */\n  sstore\n    /* \"#utility.yul\":9901:9902   */\n  0x01\n    /* \"#utility.yul\":9893:9899   */\n  dup3\n    /* \"#utility.yul\":9889:9903   */\n  add\n    /* \"#utility.yul\":9879:9903   */\n  swap2\n  pop\n    /* \"#utility.yul\":9948:9950   */\n  0x20\n    /* \"#utility.yul\":9937:9946   */\n  dup6\n    /* \"#utility.yul\":9933:9951   */\n  add\n    /* \"#utility.yul\":9920:9951   */\n  swap5\n  pop\n    /* \"#utility.yul\":9794:9798   */\n  0x20\n    /* \"#utility.yul\":9791:9792   */\n  dup2\n    /* \"#utility.yul\":9787:9799   */\n  add\n    /* \"#utility.yul\":9782:9799   */\n  swap1\n  pop\n    /* \"#utility.yul\":9757:9965   */\n  jump(tag_171)\ntag_173:\n    /* \"#utility.yul\":9993:9999   */\n  dup7\n    /* \"#utility.yul\":9984:9991   */\n  dup4\n    /* \"#utility.yul\":9981:10000   */\n  lt\n    /* \"#utility.yul\":9978:10157   */\n  iszero\n  tag_174\n  jumpi\n    /* \"#utility.yul\":10051:10060   */\n  dup5\n    /* \"#utility.yul\":10046:10049   */\n  dup10\n    /* \"#utility.yul\":10042:10061   */\n  add\n    /* \"#utility.yul\":10036:10062   */\n  mload\n    /* \"#utility.yul\":10094:10142   */\n  tag_175\n    /* \"#utility.yul\":10136:10140   */\n  0x1f\n    /* \"#utility.yul\":10128:10134   */\n  dup10\n    /* \"#utility.yul\":10124:10141   */\n  and\n    /* \"#utility.yul\":10113:10122   */\n  dup3\n    /* \"#utility.yul\":10094:10142   */\n  tag_54\n  jump\t// in\ntag_175:\n    /* \"#utility.yul\":10086:10092   */\n  dup4\n    /* \"#utility.yul\":10079:10143   */\n  sstore\n    /* \"#utility.yul\":10001:10157   */\n  pop\n    /* \"#utility.yul\":9978:10157   */\ntag_174:\n    /* \"#utility.yul\":10203:10204   */\n  0x01\n    /* \"#utility.yul\":10199:10200   */\n  0x02\n    /* \"#utility.yul\":10191:10197   */\n  dup9\n    /* \"#utility.yul\":10187:10201   */\n  mul\n    /* \"#utility.yul\":10183:10205   */\n  add\n    /* \"#utility.yul\":10177:10181   */\n  dup9\n    /* \"#utility.yul\":10170:10206   */\n  sstore\n    /* \"#utility.yul\":9605:10216   */\n  pop\n  pop\n  pop\n    /* \"#utility.yul\":9568:10455   */\ntag_166:\n  pop\n    /* \"#utility.yul\":9158:10461   */\n  pop\n  pop\n  pop\n    /* \"#utility.yul\":9066:10461   */\n  pop\n  pop\n  jump\t// out\n    /* \"#utility.yul\":10467:10636   */\ntag_56:\n    /* \"#utility.yul\":10551:10562   */\n  0x00\n    /* \"#utility.yul\":10585:10591   */\n  dup3\n    /* \"#utility.yul\":10580:10583   */\n  dup3\n    /* \"#utility.yul\":10573:10592   */\n  mstore\n    /* \"#utility.yul\":10625:10629   */\n  0x20\n    /* \"#utility.yul\":10620:10623   */\n  dup3\n    /* \"#utility.yul\":10616:10630   */\n  add\n    /* \"#utility.yul\":10601:10630   */\n  swap1\n  pop\n    /* \"#utility.yul\":10467:10636   */\n  swap3\n  swap2\n  pop\n  pop\n  jump\t// out\n    /* \"#utility.yul\":10642:11019   */\ntag_57:\n    /* \"#utility.yul\":10730:10733   */\n  0x00\n    /* \"#utility.yul\":10758:10797   */\n  tag_178\n    /* \"#utility.yul\":10791:10796   */\n  dup3\n    /* \"#utility.yul\":10758:10797   */\n  tag_37\n  jump\t// in\ntag_178:\n    /* \"#utility.yul\":10813:10884   */\n  tag_179\n    /* \"#utility.yul\":10877:10883   */\n  dup2\n    /* \"#utility.yul\":10872:10875   */\n  dup6\n    /* \"#utility.yul\":10813:10884   */\n  tag_56\n  jump\t// in\ntag_179:\n    /* \"#utility.yul\":10806:10884   */\n  swap4\n  pop\n    /* \"#utility.yul\":10893:10958   */\n  tag_180\n    /* \"#utility.yul\":10951:10957   */\n  dup2\n    /* \"#utility.yul\":10946:10949   */\n  dup6\n    /* \"#utility.yul\":10939:10943   */\n  0x20\n    /* \"#utility.yul\":10932:10937   */\n  dup7\n    /* \"#utility.yul\":10928:10944   */\n  add\n    /* \"#utility.yul\":10893:10958   */\n  tag_32\n  jump\t// in\ntag_180:\n    /* \"#utility.yul\":10983:11012   */\n  tag_181\n    /* \"#utility.yul\":11005:11011   */\n  dup2\n    /* \"#utility.yul\":10983:11012   */\n  tag_24\n  jump\t// in\ntag_181:\n    /* \"#utility.yul\":10978:10981   */\n  dup5\n    /* \"#utility.yul\":10974:11013   */\n  add\n    /* \"#utility.yul\":10967:11013   */\n  swap2\n  pop\n    /* \"#utility.yul\":10734:11019   */\n  pop\n    /* \"#utility.yul\":10642:11019   */\n  swap3\n  swap2\n  pop\n  pop\n  jump\t// out\n    /* \"#utility.yul\":11025:11143   */\ntag_58:\n    /* \"#utility.yul\":11112:11136   */\n  tag_183\n    /* \"#utility.yul\":11130:11135   */\n  dup2\n    /* \"#utility.yul\":11112:11136   */\n  tag_44\n  jump\t// in\ntag_183:\n    /* \"#utility.yul\":11107:11110   */\n  dup3\n    /* \"#utility.yul\":11100:11137   */\n  mstore\n    /* \"#utility.yul\":11025:11143   */\n  pop\n  pop\n  jump\t// out\n    /* \"#utility.yul\":11149:11572   */\ntag_18:\n    /* \"#utility.yul\":11290:11294   */\n  0x00\n    /* \"#utility.yul\":11328:11330   */\n  0x40\n    /* \"#utility.yul\":11317:11326   */\n  dup3\n    /* \"#utility.yul\":11313:11331   */\n  add\n    /* \"#utility.yul\":11305:11331   */\n  swap1\n  pop\n    /* \"#utility.yul\":11377:11386   */\n  dup2\n    /* \"#utility.yul\":11371:11375   */\n  dup2\n    /* \"#utility.yul\":11367:11387   */\n  sub\n    /* \"#utility.yul\":11363:11364   */\n  0x00\n    /* \"#utility.yul\":11352:11361   */\n  dup4\n    /* \"#utility.yul\":11348:11365   */\n  add\n    /* \"#utility.yul\":11341:11388   */\n  mstore\n    /* \"#utility.yul\":11405:11483   */\n  tag_185\n    /* \"#utility.yul\":11478:11482   */\n  dup2\n    /* \"#utility.yul\":11469:11475   */\n  dup6\n    /* \"#utility.yul\":11405:11483   */\n  tag_57\n  jump\t// in\ntag_185:\n    /* \"#utility.yul\":11397:11483   */\n  swap1\n  pop\n    /* \"#utility.yul\":11493:11565   */\n  tag_186\n    /* \"#utility.yul\":11561:11563   */\n  0x20\n    /* \"#utility.yul\":11550:11559   */\n  dup4\n    /* \"#utility.yul\":11546:11564   */\n  add\n    /* \"#utility.yul\":11537:11543   */\n  dup5\n    /* \"#utility.yul\":11493:11565   */\n  tag_58\n  jump\t// in\ntag_186:\n    /* \"#utility.yul\":11149:11572   */\n  swap4\n  swap3\n  pop\n  pop\n  pop\n  jump\t// out\n    /* \"contracts/ballot.sol\":194:5024  contract VotingWithRegistration {... */\ntag_19:\n  dataSize(sub_0)\n  dup1\n  dataOffset(sub_0)\n  0x00\n  codecopy\n  0x00\n  return\nstop\n\nsub_0: assembly {\n        /* \"contracts/ballot.sol\":194:5024  contract VotingWithRegistration {... */\n      mstore(0x40, 0x80)\n      callvalue\n      dup1\n      iszero\n      tag_1\n      jumpi\n      revert(0x00, 0x00)\n    tag_1:\n      pop\n      jumpi(tag_2, lt(calldatasize, 0x04))\n      shr(0xe0, calldataload(0x00))\n      dup1\n      0x462e91ec\n      gt\n      tag_18\n      jumpi\n      dup1\n      0xd3a078da\n      gt\n      tag_19\n      jumpi\n      dup1\n      0xd3a078da\n      eq\n      tag_14\n      jumpi\n      dup1\n      0xd63db98e\n      eq\n      tag_15\n      jumpi\n      dup1\n      0xe2a41283\n      eq\n      tag_16\n      jumpi\n      dup1\n      0xf225c1f8\n      eq\n      tag_17\n      jumpi\n      jump(tag_2)\n    tag_19:\n      dup1\n      0x462e91ec\n      eq\n      tag_10\n      jumpi\n      dup1\n      0x8da5cb5b\n      eq\n      tag_11\n      jumpi\n      dup1\n      0x8e7ea5b2\n      eq\n      tag_12\n      jumpi\n      dup1\n      0xc3c5a547\n      eq\n      tag_13\n      jumpi\n      jump(tag_2)\n    tag_18:\n      dup1\n      0x30a56347\n      gt\n      tag_20\n      jumpi\n      dup1\n      0x30a56347\n      eq\n      tag_6\n      jumpi\n      dup1\n      0x3477ee2e\n      eq\n      tag_7\n      jumpi\n      dup1\n      0x35b8e820\n      eq\n      tag_8\n      jumpi\n      dup1\n      0x38db6dd3\n      eq\n      tag_9\n      jumpi\n      jump(tag_2)\n    tag_20:\n      dup1\n      0x0121b93f\n      eq\n      tag_3\n      jumpi\n      dup1\n      0x09eef43e\n      eq\n      tag_4\n      jumpi\n      dup1\n      0x2b8c2504\n      eq\n      tag_5\n      jumpi\n    tag_2:\n      revert(0x00, 0x00)\n        /* \"contracts/ballot.sol\":2949:3348  function vote(uint256 _candidateIndex) public onlyRegistered {... */\n    tag_3:\n      tag_21\n      0x04\n      dup1\n      calldatasize\n      sub\n      dup2\n      add\n      swap1\n      tag_22\n      swap2\n      swap1\n      tag_23\n      jump\t// in\n    tag_22:\n      tag_24\n      jump\t// in\n    tag_21:\n      stop\n        /* \"contracts/ballot.sol\":494:534  mapping(address => bool) public hasVoted */\n    tag_4:\n      tag_25\n      0x04\n      dup1\n      calldatasize\n      sub\n      dup2\n      add\n      swap1\n      tag_26\n      swap2\n      swap1\n      tag_27\n      jump\t// in\n    tag_26:\n      tag_28\n      jump\t// in\n    tag_25:\n      mload(0x40)\n      tag_29\n      swap2\n      swap1\n      tag_30\n      jump\t// in\n    tag_29:\n      mload(0x40)\n      dup1\n      swap2\n      sub\n      swap1\n      return\n        /* \"contracts/ballot.sol\":3913:4031  function getRegisteredVoterCount() public view returns (uint256) {... */\n    tag_5:\n      tag_31\n      tag_32\n      jump\t// in\n    tag_31:\n      mload(0x40)\n      tag_33\n      swap2\n      swap1\n      tag_34\n      jump\t// in\n    tag_33:\n      mload(0x40)\n      dup1\n      swap2\n      sub\n      swap1\n      return\n        /* \"contracts/ballot.sol\":3413:3515  function getCandidateCount() public view returns (uint256) {... */\n    tag_6:\n      tag_35\n      tag_36\n      jump\t// in\n    tag_35:\n      mload(0x40)\n      tag_37\n      swap2\n      swap1\n      tag_34\n      jump\t// in\n    tag_37:\n      mload(0x40)\n      dup1\n      swap2\n      sub\n      swap1\n      return\n        /* \"contracts/ballot.sol\":407:436  Candidate[] public candidates */\n    tag_7:\n      tag_38\n      0x04\n      dup1\n      calldatasize\n      sub\n      dup2\n      add\n      swap1\n      tag_39\n      swap2\n      swap1\n      tag_23\n      jump\t// in\n    tag_39:\n      tag_40\n      jump\t// in\n    tag_38:\n      mload(0x40)\n      tag_41\n      swap3\n      swap2\n      swap1\n      tag_42\n      jump\t// in\n    tag_41:\n      mload(0x40)\n      dup1\n      swap2\n      sub\n      swap1\n      return\n        /* \"contracts/ballot.sol\":3576:3841  function getCandidate(uint256 _index) public view returns (string memory name, uint256 voteCount) {... */\n    tag_8:\n      tag_43\n      0x04\n      dup1\n      calldatasize\n      sub\n      dup2\n      add\n      swap1\n      tag_44\n      swap2\n      swap1\n      tag_23\n      jump\t// in\n    tag_44:\n      tag_45\n      jump\t// in\n    tag_43:\n      mload(0x40)\n      tag_46\n      swap3\n      swap2\n      swap1\n      tag_42\n      jump\t// in\n    tag_46:\n      mload(0x40)\n      dup1\n      swap2\n      sub\n      swap1\n      return\n        /* \"contracts/ballot.sol\":2020:2274  function registerVoter(address _voter) public onlyOwner {... */\n    tag_9:\n      tag_47\n      0x04\n      dup1\n      calldatasize\n      sub\n      dup2\n      add\n      swap1\n      tag_48\n      swap2\n      swap1\n      tag_27\n      jump\t// in\n    tag_48:\n      tag_49\n      jump\t// in\n    tag_47:\n      stop\n        /* \"contracts/ballot.sol\":1700:1896  function addCandidate(string memory _name) public onlyOwner {... */\n    tag_10:\n      tag_50\n      0x04\n      dup1\n      calldatasize\n      sub\n      dup2\n      add\n      swap1\n      tag_51\n      swap2\n      swap1\n      tag_52\n      jump\t// in\n    tag_51:\n      tag_53\n      jump\t// in\n    tag_50:\n      stop\n        /* \"contracts/ballot.sol\":380:400  address public owner */\n    tag_11:\n      tag_54\n      tag_55\n      jump\t// in\n    tag_54:\n      mload(0x40)\n      tag_56\n      swap2\n      swap1\n      tag_57\n      jump\t// in\n    tag_56:\n      mload(0x40)\n      dup1\n      swap2\n      sub\n      swap1\n      return\n        /* \"contracts/ballot.sol\":4491:5021  function getWinner() public view returns (string memory winnerName, uint256 winnerVotes) {... */\n    tag_12:\n      tag_58\n      tag_59\n      jump\t// in\n    tag_58:\n      mload(0x40)\n      tag_60\n      swap3\n      swap2\n      swap1\n      tag_42\n      jump\t// in\n    tag_60:\n      mload(0x40)\n      dup1\n      swap2\n      sub\n      swap1\n      return\n        /* \"contracts/ballot.sol\":443:487  mapping(address => bool) public isRegistered */\n    tag_13:\n      tag_61\n      0x04\n      dup1\n      calldatasize\n      sub\n      dup2\n      add\n      swap1\n      tag_62\n      swap2\n      swap1\n      tag_27\n      jump\t// in\n    tag_62:\n      tag_63\n      jump\t// in\n    tag_61:\n      mload(0x40)\n      tag_64\n      swap2\n      swap1\n      tag_30\n      jump\t// in\n    tag_64:\n      mload(0x40)\n      dup1\n      swap2\n      sub\n      swap1\n      return\n        /* \"contracts/ballot.sol\":4106:4225  function getAllRegisteredVoters() public view returns (address[] memory) {... */\n    tag_14:\n      tag_65\n      tag_66\n      jump\t// in\n    tag_65:\n      mload(0x40)\n      tag_67\n      swap2\n      swap1\n      tag_68\n      jump\t// in\n    tag_67:\n      mload(0x40)\n      dup1\n      swap2\n      sub\n      swap1\n      return\n        /* \"contracts/ballot.sol\":541:578  address[] public registeredVotersList */\n    tag_15:\n      tag_69\n      0x04\n      dup1\n      calldatasize\n      sub\n      dup2\n      add\n      swap1\n      tag_70\n      swap2\n      swap1\n      tag_23\n      jump\t// in\n    tag_70:\n      tag_71\n      jump\t// in\n    tag_69:\n      mload(0x40)\n      tag_72\n      swap2\n      swap1\n      tag_57\n      jump\t// in\n    tag_72:\n      mload(0x40)\n      dup1\n      swap2\n      sub\n      swap1\n      return\n        /* \"contracts/ballot.sol\":4294:4410  function checkRegistration(address _voter) public view returns (bool) {... */\n    tag_16:\n      tag_73\n      0x04\n      dup1\n      calldatasize\n      sub\n      dup2\n      add\n      swap1\n      tag_74\n      swap2\n      swap1\n      tag_27\n      jump\t// in\n    tag_74:\n      tag_75\n      jump\t// in\n    tag_73:\n      mload(0x40)\n      tag_76\n      swap2\n      swap1\n      tag_30\n      jump\t// in\n    tag_76:\n      mload(0x40)\n      dup1\n      swap2\n      sub\n      swap1\n      return\n        /* \"contracts/ballot.sol\":2399:2767  function registerMultipleVoters(address[] memory _voters) public onlyOwner {... */\n    tag_17:\n      tag_77\n      0x04\n      dup1\n      calldatasize\n      sub\n      dup2\n      add\n      swap1\n      tag_78\n      swap2\n      swap1\n      tag_79\n      jump\t// in\n    tag_78:\n      tag_80\n      jump\t// in\n    tag_77:\n      stop\n        /* \"contracts/ballot.sol\":2949:3348  function vote(uint256 _candidateIndex) public onlyRegistered {... */\n    tag_24:\n        /* \"contracts/ballot.sol\":1007:1019  isRegistered */\n      0x02\n        /* \"contracts/ballot.sol\":1007:1031  isRegistered[msg.sender] */\n      0x00\n        /* \"contracts/ballot.sol\":1020:1030  msg.sender */\n      caller\n        /* \"contracts/ballot.sol\":1007:1031  isRegistered[msg.sender] */\n      0xffffffffffffffffffffffffffffffffffffffff\n      and\n      0xffffffffffffffffffffffffffffffffffffffff\n      and\n      dup2\n      mstore\n      0x20\n      add\n      swap1\n      dup2\n      mstore\n      0x20\n      add\n      0x00\n      keccak256\n      0x00\n      swap1\n      sload\n      swap1\n      0x0100\n      exp\n      swap1\n      div\n      0xff\n      and\n        /* \"contracts/ballot.sol\":999:1066  require(isRegistered[msg.sender], \"You are not a registered voter\") */\n      tag_82\n      jumpi\n      mload(0x40)\n      0x08c379a000000000000000000000000000000000000000000000000000000000\n      dup2\n      mstore\n      0x04\n      add\n      tag_83\n      swap1\n      tag_84\n      jump\t// in\n    tag_83:\n      mload(0x40)\n      dup1\n      swap2\n      sub\n      swap1\n      revert\n    tag_82:\n        /* \"contracts/ballot.sol\":3030:3038  hasVoted */\n      0x03\n        /* \"contracts/ballot.sol\":3030:3050  hasVoted[msg.sender] */\n      0x00\n        /* \"contracts/ballot.sol\":3039:3049  msg.sender */\n      caller\n        /* \"contracts/ballot.sol\":3030:3050  hasVoted[msg.sender] */\n      0xffffffffffffffffffffffffffffffffffffffff\n      and\n      0xffffffffffffffffffffffffffffffffffffffff\n      and\n      dup2\n      mstore\n      0x20\n      add\n      swap1\n      dup2\n      mstore\n      0x20\n      add\n      0x00\n      keccak256\n      0x00\n      swap1\n      sload\n      swap1\n      0x0100\n      exp\n      swap1\n      div\n      0xff\n      and\n        /* \"contracts/ballot.sol\":3029:3050  !hasVoted[msg.sender] */\n      iszero\n        /* \"contracts/ballot.sol\":3021:3077  require(!hasVoted[msg.sender], \"You have already voted\") */\n      tag_86\n      jumpi\n      mload(0x40)\n      0x08c379a000000000000000000000000000000000000000000000000000000000\n      dup2\n      mstore\n      0x04\n      add\n      tag_87\n      swap1\n      tag_88\n      jump\t// in\n    tag_87:\n      mload(0x40)\n      dup1\n      swap2\n      sub\n      swap1\n      revert\n    tag_86:\n        /* \"contracts/ballot.sol\":3114:3124  candidates */\n      0x01\n        /* \"contracts/ballot.sol\":3114:3131  candidates.length */\n      dup1\n      sload\n      swap1\n      pop\n        /* \"contracts/ballot.sol\":3096:3111  _candidateIndex */\n      dup2\n        /* \"contracts/ballot.sol\":3096:3131  _candidateIndex < candidates.length */\n      lt\n        /* \"contracts/ballot.sol\":3088:3159  require(_candidateIndex < candidates.length, \"Invalid candidate index\") */\n      tag_89\n      jumpi\n      mload(0x40)\n      0x08c379a000000000000000000000000000000000000000000000000000000000\n      dup2\n      mstore\n      0x04\n      add\n      tag_90\n      swap1\n      tag_91\n      jump\t// in\n    tag_90:\n      mload(0x40)\n      dup1\n      swap2\n      sub\n      swap1\n      revert\n    tag_89:\n        /* \"contracts/ballot.sol\":3195:3199  true */\n      0x01\n        /* \"contracts/ballot.sol\":3172:3180  hasVoted */\n      0x03\n        /* \"contracts/ballot.sol\":3172:3192  hasVoted[msg.sender] */\n      0x00\n        /* \"contracts/ballot.sol\":3181:3191  msg.sender */\n      caller\n        /* \"contracts/ballot.sol\":3172:3192  hasVoted[msg.sender] */\n      0xffffffffffffffffffffffffffffffffffffffff\n      and\n      0xffffffffffffffffffffffffffffffffffffffff\n      and\n      dup2\n      mstore\n      0x20\n      add\n      swap1\n      dup2\n      mstore\n      0x20\n      add\n      0x00\n      keccak256\n      0x00\n        /* \"contracts/ballot.sol\":3172:3199  hasVoted[msg.sender] = true */\n      0x0100\n      exp\n      dup2\n      sload\n      dup2\n      0xff\n      mul\n      not\n      and\n      swap1\n      dup4\n      iszero\n      iszero\n      mul\n      or\n      swap1\n      sstore\n      pop\n        /* \"contracts/ballot.sol\":3210:3220  candidates */\n      0x01\n        /* \"contracts/ballot.sol\":3221:3236  _candidateIndex */\n      dup2\n        /* \"contracts/ballot.sol\":3210:3237  candidates[_candidateIndex] */\n      dup2\n      sload\n      dup2\n      lt\n      tag_92\n      jumpi\n      tag_93\n      tag_94\n      jump\t// in\n    tag_93:\n    tag_92:\n      swap1\n      0x00\n      mstore\n      keccak256(0x00, 0x20)\n      swap1\n      0x02\n      mul\n      add\n        /* \"contracts/ballot.sol\":3210:3247  candidates[_candidateIndex].voteCount */\n      0x01\n      add\n      0x00\n        /* \"contracts/ballot.sol\":3210:3249  candidates[_candidateIndex].voteCount++ */\n      dup2\n      sload\n      dup1\n      swap3\n      swap2\n      swap1\n      tag_96\n      swap1\n      tag_97\n      jump\t// in\n    tag_96:\n      swap2\n      swap1\n      pop\n      sstore\n      pop\n        /* \"contracts/ballot.sol\":3278:3288  msg.sender */\n      caller\n        /* \"contracts/ballot.sol\":3267:3340  VoteCasted(msg.sender, candidates[_candidateIndex].name, _candidateIndex) */\n      0xffffffffffffffffffffffffffffffffffffffff\n      and\n      0x089c14bef1f215ec2a9cac0041a8a539033590f2ac7424e2f5659c48a08503\n        /* \"contracts/ballot.sol\":3290:3300  candidates */\n      0x01\n        /* \"contracts/ballot.sol\":3301:3316  _candidateIndex */\n      dup4\n        /* \"contracts/ballot.sol\":3290:3317  candidates[_candidateIndex] */\n      dup2\n      sload\n      dup2\n      lt\n      tag_98\n      jumpi\n      tag_99\n      tag_94\n      jump\t// in\n    tag_99:\n    tag_98:\n      swap1\n      0x00\n      mstore\n      keccak256(0x00, 0x20)\n      swap1\n      0x02\n      mul\n      add\n        /* \"contracts/ballot.sol\":3290:3322  candidates[_candidateIndex].name */\n      0x00\n      add\n        /* \"contracts/ballot.sol\":3324:3339  _candidateIndex */\n      dup4\n        /* \"contracts/ballot.sol\":3267:3340  VoteCasted(msg.sender, candidates[_candidateIndex].name, _candidateIndex) */\n      mload(0x40)\n      tag_101\n      swap3\n      swap2\n      swap1\n      tag_102\n      jump\t// in\n    tag_101:\n      mload(0x40)\n      dup1\n      swap2\n      sub\n      swap1\n      log2\n        /* \"contracts/ballot.sol\":2949:3348  function vote(uint256 _candidateIndex) public onlyRegistered {... */\n      pop\n      jump\t// out\n        /* \"contracts/ballot.sol\":494:534  mapping(address => bool) public hasVoted */\n    tag_28:\n      mstore(0x20, 0x03)\n      dup1\n      0x00\n      mstore\n      keccak256(0x00, 0x40)\n      0x00\n      swap2\n      pop\n      sload\n      swap1\n      0x0100\n      exp\n      swap1\n      div\n      0xff\n      and\n      dup2\n      jump\t// out\n        /* \"contracts/ballot.sol\":3913:4031  function getRegisteredVoterCount() public view returns (uint256) {... */\n    tag_32:\n        /* \"contracts/ballot.sol\":3969:3976  uint256 */\n      0x00\n        /* \"contracts/ballot.sol\":3996:4016  registeredVotersList */\n      0x04\n        /* \"contracts/ballot.sol\":3996:4023  registeredVotersList.length */\n      dup1\n      sload\n      swap1\n      pop\n        /* \"contracts/ballot.sol\":3989:4023  return registeredVotersList.length */\n      swap1\n      pop\n        /* \"contracts/ballot.sol\":3913:4031  function getRegisteredVoterCount() public view returns (uint256) {... */\n      swap1\n      jump\t// out\n        /* \"contracts/ballot.sol\":3413:3515  function getCandidateCount() public view returns (uint256) {... */\n    tag_36:\n        /* \"contracts/ballot.sol\":3463:3470  uint256 */\n      0x00\n        /* \"contracts/ballot.sol\":3490:3500  candidates */\n      0x01\n        /* \"contracts/ballot.sol\":3490:3507  candidates.length */\n      dup1\n      sload\n      swap1\n      pop\n        /* \"contracts/ballot.sol\":3483:3507  return candidates.length */\n      swap1\n      pop\n        /* \"contracts/ballot.sol\":3413:3515  function getCandidateCount() public view returns (uint256) {... */\n      swap1\n      jump\t// out\n        /* \"contracts/ballot.sol\":407:436  Candidate[] public candidates */\n    tag_40:\n      0x01\n      dup2\n      dup2\n      sload\n      dup2\n      lt\n      tag_105\n      jumpi\n      0x00\n      dup1\n      revert\n    tag_105:\n      swap1\n      0x00\n      mstore\n      keccak256(0x00, 0x20)\n      swap1\n      0x02\n      mul\n      add\n      0x00\n      swap2\n      pop\n      swap1\n      pop\n      dup1\n      0x00\n      add\n      dup1\n      sload\n      tag_107\n      swap1\n      tag_108\n      jump\t// in\n    tag_107:\n      dup1\n      0x1f\n      add\n      0x20\n      dup1\n      swap2\n      div\n      mul\n      0x20\n      add\n      mload(0x40)\n      swap1\n      dup2\n      add\n      0x40\n      mstore\n      dup1\n      swap3\n      swap2\n      swap1\n      dup2\n      dup2\n      mstore\n      0x20\n      add\n      dup3\n      dup1\n      sload\n      tag_109\n      swap1\n      tag_108\n      jump\t// in\n    tag_109:\n      dup1\n      iszero\n      tag_110\n      jumpi\n      dup1\n      0x1f\n      lt\n      tag_111\n      jumpi\n      0x0100\n      dup1\n      dup4\n      sload\n      div\n      mul\n      dup4\n      mstore\n      swap2\n      0x20\n      add\n      swap2\n      jump(tag_110)\n    tag_111:\n      dup3\n      add\n      swap2\n      swap1\n      0x00\n      mstore\n      keccak256(0x00, 0x20)\n      swap1\n    tag_112:\n      dup2\n      sload\n      dup2\n      mstore\n      swap1\n      0x01\n      add\n      swap1\n      0x20\n      add\n      dup1\n      dup4\n      gt\n      tag_112\n      jumpi\n      dup3\n      swap1\n      sub\n      0x1f\n      and\n      dup3\n      add\n      swap2\n    tag_110:\n      pop\n      pop\n      pop\n      pop\n      pop\n      swap1\n      dup1\n      0x01\n      add\n      sload\n      swap1\n      pop\n      dup3\n      jump\t// out\n        /* \"contracts/ballot.sol\":3576:3841  function getCandidate(uint256 _index) public view returns (string memory name, uint256 voteCount) {... */\n    tag_45:\n        /* \"contracts/ballot.sol\":3635:3653  string memory name */\n      0x60\n        /* \"contracts/ballot.sol\":3655:3672  uint256 voteCount */\n      0x00\n        /* \"contracts/ballot.sol\":3702:3712  candidates */\n      0x01\n        /* \"contracts/ballot.sol\":3702:3719  candidates.length */\n      dup1\n      sload\n      swap1\n      pop\n        /* \"contracts/ballot.sol\":3693:3699  _index */\n      dup4\n        /* \"contracts/ballot.sol\":3693:3719  _index < candidates.length */\n      lt\n        /* \"contracts/ballot.sol\":3685:3743  require(_index < candidates.length, \"Index out of bounds\") */\n      tag_114\n      jumpi\n      mload(0x40)\n      0x08c379a000000000000000000000000000000000000000000000000000000000\n      dup2\n      mstore\n      0x04\n      add\n      tag_115\n      swap1\n      tag_116\n      jump\t// in\n    tag_115:\n      mload(0x40)\n      dup1\n      swap2\n      sub\n      swap1\n      revert\n    tag_114:\n        /* \"contracts/ballot.sol\":3754:3773  Candidate storage c */\n      0x00\n        /* \"contracts/ballot.sol\":3776:3786  candidates */\n      0x01\n        /* \"contracts/ballot.sol\":3787:3793  _index */\n      dup5\n        /* \"contracts/ballot.sol\":3776:3794  candidates[_index] */\n      dup2\n      sload\n      dup2\n      lt\n      tag_117\n      jumpi\n      tag_118\n      tag_94\n      jump\t// in\n    tag_118:\n    tag_117:\n      swap1\n      0x00\n      mstore\n      keccak256(0x00, 0x20)\n      swap1\n      0x02\n      mul\n      add\n        /* \"contracts/ballot.sol\":3754:3794  Candidate storage c = candidates[_index] */\n      swap1\n      pop\n        /* \"contracts/ballot.sol\":3813:3814  c */\n      dup1\n        /* \"contracts/ballot.sol\":3813:3819  c.name */\n      0x00\n      add\n        /* \"contracts/ballot.sol\":3821:3822  c */\n      dup2\n        /* \"contracts/ballot.sol\":3821:3832  c.voteCount */\n      0x01\n      add\n      sload\n        /* \"contracts/ballot.sol\":3805:3833  return (c.name, c.voteCount) */\n      dup2\n      dup1\n      sload\n      tag_120\n      swap1\n      tag_108\n      jump\t// in\n    tag_120:\n      dup1\n      0x1f\n      add\n      0x20\n      dup1\n      swap2\n      div\n      mul\n      0x20\n      add\n      mload(0x40)\n      swap1\n      dup2\n      add\n      0x40\n      mstore\n      dup1\n      swap3\n      swap2\n      swap1\n      dup2\n      dup2\n      mstore\n      0x20\n      add\n      dup3\n      dup1\n      sload\n      tag_121\n      swap1\n      tag_108\n      jump\t// in\n    tag_121:\n      dup1\n      iszero\n      tag_122\n      jumpi\n      dup1\n      0x1f\n      lt\n      tag_123\n      jumpi\n      0x0100\n      dup1\n      dup4\n      sload\n      div\n      mul\n      dup4\n      mstore\n      swap2\n      0x20\n      add\n      swap2\n      jump(tag_122)\n    tag_123:\n      dup3\n      add\n      swap2\n      swap1\n      0x00\n      mstore\n      keccak256(0x00, 0x20)\n      swap1\n    tag_124:\n      dup2\n      sload\n      dup2\n      mstore\n      swap1\n      0x01\n      add\n      swap1\n      0x20\n      add\n      dup1\n      dup4\n      gt\n      tag_124\n      jumpi\n      dup3\n      swap1\n      sub\n      0x1f\n      and\n      dup3\n      add\n      swap2\n    tag_122:\n      pop\n      pop\n      pop\n      pop\n      pop\n      swap2\n      pop\n      swap3\n      pop\n      swap3\n      pop\n      pop\n        /* \"contracts/ballot.sol\":3576:3841  function getCandidate(uint256 _index) public view returns (string memory name, uint256 voteCount) {... */\n      swap2\n      pop\n      swap2\n      jump\t// out\n        /* \"contracts/ballot.sol\":2020:2274  function registerVoter(address _voter) public onlyOwner {... */\n    tag_49:\n        /* \"contracts/ballot.sol\":890:895  owner */\n      0x00\n      0x00\n      swap1\n      sload\n      swap1\n      0x0100\n      exp\n      swap1\n      div\n      0xffffffffffffffffffffffffffffffffffffffff\n      and\n        /* \"contracts/ballot.sol\":876:895  msg.sender == owner */\n      0xffffffffffffffffffffffffffffffffffffffff\n      and\n        /* \"contracts/ballot.sol\":876:886  msg.sender */\n      caller\n        /* \"contracts/ballot.sol\":876:895  msg.sender == owner */\n      0xffffffffffffffffffffffffffffffffffffffff\n      and\n      eq\n        /* \"contracts/ballot.sol\":868:934  require(msg.sender == owner, \"Only owner can perform this action\") */\n      tag_126\n      jumpi\n      mload(0x40)\n      0x08c379a000000000000000000000000000000000000000000000000000000000\n      dup2\n      mstore\n      0x04\n      add\n      tag_127\n      swap1\n      tag_128\n      jump\t// in\n    tag_127:\n      mload(0x40)\n      dup1\n      swap2\n      sub\n      swap1\n      revert\n    tag_126:\n        /* \"contracts/ballot.sol\":2096:2108  isRegistered */\n      0x02\n        /* \"contracts/ballot.sol\":2096:2116  isRegistered[_voter] */\n      0x00\n        /* \"contracts/ballot.sol\":2109:2115  _voter */\n      dup3\n        /* \"contracts/ballot.sol\":2096:2116  isRegistered[_voter] */\n      0xffffffffffffffffffffffffffffffffffffffff\n      and\n      0xffffffffffffffffffffffffffffffffffffffff\n      and\n      dup2\n      mstore\n      0x20\n      add\n      swap1\n      dup2\n      mstore\n      0x20\n      add\n      0x00\n      keccak256\n      0x00\n      swap1\n      sload\n      swap1\n      0x0100\n      exp\n      swap1\n      div\n      0xff\n      and\n        /* \"contracts/ballot.sol\":2095:2116  !isRegistered[_voter] */\n      iszero\n        /* \"contracts/ballot.sol\":2087:2145  require(!isRegistered[_voter], \"Voter already registered\") */\n      tag_130\n      jumpi\n      mload(0x40)\n      0x08c379a000000000000000000000000000000000000000000000000000000000\n      dup2\n      mstore\n      0x04\n      add\n      tag_131\n      swap1\n      tag_132\n      jump\t// in\n    tag_131:\n      mload(0x40)\n      dup1\n      swap2\n      sub\n      swap1\n      revert\n    tag_130:\n        /* \"contracts/ballot.sol\":2179:2183  true */\n      0x01\n        /* \"contracts/ballot.sol\":2156:2168  isRegistered */\n      0x02\n        /* \"contracts/ballot.sol\":2156:2176  isRegistered[_voter] */\n      0x00\n        /* \"contracts/ballot.sol\":2169:2175  _voter */\n      dup4\n        /* \"contracts/ballot.sol\":2156:2176  isRegistered[_voter] */\n      0xffffffffffffffffffffffffffffffffffffffff\n      and\n      0xffffffffffffffffffffffffffffffffffffffff\n      and\n      dup2\n      mstore\n      0x20\n      add\n      swap1\n      dup2\n      mstore\n      0x20\n      add\n      0x00\n      keccak256\n      0x00\n        /* \"contracts/ballot.sol\":2156:2183  isRegistered[_voter] = true */\n      0x0100\n      exp\n      dup2\n      sload\n      dup2\n      0xff\n      mul\n      not\n      and\n      swap1\n      dup4\n      iszero\n      iszero\n      mul\n      or\n      swap1\n      sstore\n      pop\n        /* \"contracts/ballot.sol\":2194:2214  registeredVotersList */\n      0x04\n        /* \"contracts/ballot.sol\":2220:2226  _voter */\n      dup2\n        /* \"contracts/ballot.sol\":2194:2227  registeredVotersList.push(_voter) */\n      swap1\n      dup1\n      0x01\n      dup2\n      sload\n      add\n      dup1\n      dup3\n      sstore\n      dup1\n      swap2\n      pop\n      pop\n      0x01\n      swap1\n      sub\n      swap1\n      0x00\n      mstore\n      keccak256(0x00, 0x20)\n      add\n      0x00\n      swap1\n      swap2\n      swap1\n      swap2\n      swap1\n      swap2\n      0x0100\n      exp\n      dup2\n      sload\n      dup2\n      0xffffffffffffffffffffffffffffffffffffffff\n      mul\n      not\n      and\n      swap1\n      dup4\n      0xffffffffffffffffffffffffffffffffffffffff\n      and\n      mul\n      or\n      swap1\n      sstore\n      pop\n        /* \"contracts/ballot.sol\":2259:2265  _voter */\n      dup1\n        /* \"contracts/ballot.sol\":2243:2266  VoterRegistered(_voter) */\n      0xffffffffffffffffffffffffffffffffffffffff\n      and\n      0xb6be2187d059cc2a55fe29e0e503b566e1e0f8c8780096e185429350acffd3dd\n      mload(0x40)\n      mload(0x40)\n      dup1\n      swap2\n      sub\n      swap1\n      log2\n        /* \"contracts/ballot.sol\":2020:2274  function registerVoter(address _voter) public onlyOwner {... */\n      pop\n      jump\t// out\n        /* \"contracts/ballot.sol\":1700:1896  function addCandidate(string memory _name) public onlyOwner {... */\n    tag_53:\n        /* \"contracts/ballot.sol\":890:895  owner */\n      0x00\n      0x00\n      swap1\n      sload\n      swap1\n      0x0100\n      exp\n      swap1\n      div\n      0xffffffffffffffffffffffffffffffffffffffff\n      and\n        /* \"contracts/ballot.sol\":876:895  msg.sender == owner */\n      0xffffffffffffffffffffffffffffffffffffffff\n      and\n        /* \"contracts/ballot.sol\":876:886  msg.sender */\n      caller\n        /* \"contracts/ballot.sol\":876:895  msg.sender == owner */\n      0xffffffffffffffffffffffffffffffffffffffff\n      and\n      eq\n        /* \"contracts/ballot.sol\":868:934  require(msg.sender == owner, \"Only owner can perform this action\") */\n      tag_135\n      jumpi\n      mload(0x40)\n      0x08c379a000000000000000000000000000000000000000000000000000000000\n      dup2\n      mstore\n      0x04\n      add\n      tag_136\n      swap1\n      tag_128\n      jump\t// in\n    tag_136:\n      mload(0x40)\n      dup1\n      swap2\n      sub\n      swap1\n      revert\n    tag_135:\n        /* \"contracts/ballot.sol\":1771:1781  candidates */\n      0x01\n        /* \"contracts/ballot.sol\":1787:1827  Candidate({ name: _name, voteCount: 0 }) */\n      mload(0x40)\n      dup1\n      0x40\n      add\n      0x40\n      mstore\n      dup1\n        /* \"contracts/ballot.sol\":1805:1810  _name */\n      dup4\n        /* \"contracts/ballot.sol\":1787:1827  Candidate({ name: _name, voteCount: 0 }) */\n      dup2\n      mstore\n      0x20\n      add\n        /* \"contracts/ballot.sol\":1823:1824  0 */\n      0x00\n        /* \"contracts/ballot.sol\":1787:1827  Candidate({ name: _name, voteCount: 0 }) */\n      dup2\n      mstore\n      pop\n        /* \"contracts/ballot.sol\":1771:1828  candidates.push(Candidate({ name: _name, voteCount: 0 })) */\n      swap1\n      dup1\n      0x01\n      dup2\n      sload\n      add\n      dup1\n      dup3\n      sstore\n      dup1\n      swap2\n      pop\n      pop\n      0x01\n      swap1\n      sub\n      swap1\n      0x00\n      mstore\n      keccak256(0x00, 0x20)\n      swap1\n      0x02\n      mul\n      add\n      0x00\n      swap1\n      swap2\n      swap1\n      swap2\n      swap1\n      swap2\n      pop\n      0x00\n      dup3\n      add\n      mload\n      dup2\n      0x00\n      add\n      swap1\n      dup2\n      tag_139\n      swap2\n      swap1\n      tag_140\n      jump\t// in\n    tag_139:\n      pop\n      0x20\n      dup3\n      add\n      mload\n      dup2\n      0x01\n      add\n      sstore\n      pop\n      pop\n        /* \"contracts/ballot.sol\":1844:1888  CandidateAdded(_name, candidates.length - 1) */\n      0xa89e28469fa9e15d5149634a9ce8d8dd59ec42c18ba2d281b08c305f2095acef\n        /* \"contracts/ballot.sol\":1859:1864  _name */\n      dup2\n        /* \"contracts/ballot.sol\":1886:1887  1 */\n      0x01\n        /* \"contracts/ballot.sol\":1866:1876  candidates */\n      dup1\n        /* \"contracts/ballot.sol\":1866:1883  candidates.length */\n      dup1\n      sload\n      swap1\n      pop\n        /* \"contracts/ballot.sol\":1866:1887  candidates.length - 1 */\n      tag_141\n      swap2\n      swap1\n      tag_142\n      jump\t// in\n    tag_141:\n        /* \"contracts/ballot.sol\":1844:1888  CandidateAdded(_name, candidates.length - 1) */\n      mload(0x40)\n      tag_143\n      swap3\n      swap2\n      swap1\n      tag_42\n      jump\t// in\n    tag_143:\n      mload(0x40)\n      dup1\n      swap2\n      sub\n      swap1\n      log1\n        /* \"contracts/ballot.sol\":1700:1896  function addCandidate(string memory _name) public onlyOwner {... */\n      pop\n      jump\t// out\n        /* \"contracts/ballot.sol\":380:400  address public owner */\n    tag_55:\n      0x00\n      0x00\n      swap1\n      sload\n      swap1\n      0x0100\n      exp\n      swap1\n      div\n      0xffffffffffffffffffffffffffffffffffffffff\n      and\n      dup2\n      jump\t// out\n        /* \"contracts/ballot.sol\":4491:5021  function getWinner() public view returns (string memory winnerName, uint256 winnerVotes) {... */\n    tag_59:\n        /* \"contracts/ballot.sol\":4533:4557  string memory winnerName */\n      0x60\n        /* \"contracts/ballot.sol\":4559:4578  uint256 winnerVotes */\n      0x00\n        /* \"contracts/ballot.sol\":4619:4620  0 */\n      0x00\n        /* \"contracts/ballot.sol\":4599:4609  candidates */\n      0x01\n        /* \"contracts/ballot.sol\":4599:4616  candidates.length */\n      dup1\n      sload\n      swap1\n      pop\n        /* \"contracts/ballot.sol\":4599:4620  candidates.length > 0 */\n      gt\n        /* \"contracts/ballot.sol\":4591:4638  require(candidates.length > 0, \"No candidates\") */\n      tag_145\n      jumpi\n      mload(0x40)\n      0x08c379a000000000000000000000000000000000000000000000000000000000\n      dup2\n      mstore\n      0x04\n      add\n      tag_146\n      swap1\n      tag_147\n      jump\t// in\n    tag_146:\n      mload(0x40)\n      dup1\n      swap2\n      sub\n      swap1\n      revert\n    tag_145:\n        /* \"contracts/ballot.sol\":4649:4665  uint256 maxVotes */\n      0x00\n        /* \"contracts/ballot.sol\":4668:4669  0 */\n      0x00\n        /* \"contracts/ballot.sol\":4649:4669  uint256 maxVotes = 0 */\n      swap1\n      pop\n        /* \"contracts/ballot.sol\":4680:4699  uint256 winnerIndex */\n      0x00\n        /* \"contracts/ballot.sol\":4702:4703  0 */\n      0x00\n        /* \"contracts/ballot.sol\":4680:4703  uint256 winnerIndex = 0 */\n      swap1\n      pop\n        /* \"contracts/ballot.sol\":4719:4728  uint256 i */\n      0x00\n        /* \"contracts/ballot.sol\":4731:4732  0 */\n      0x00\n        /* \"contracts/ballot.sol\":4719:4732  uint256 i = 0 */\n      swap1\n      pop\n        /* \"contracts/ballot.sol\":4714:4931  for (uint256 i = 0; i < candidates.length; i++) {... */\n    tag_148:\n        /* \"contracts/ballot.sol\":4738:4748  candidates */\n      0x01\n        /* \"contracts/ballot.sol\":4738:4755  candidates.length */\n      dup1\n      sload\n      swap1\n      pop\n        /* \"contracts/ballot.sol\":4734:4735  i */\n      dup2\n        /* \"contracts/ballot.sol\":4734:4755  i < candidates.length */\n      lt\n        /* \"contracts/ballot.sol\":4714:4931  for (uint256 i = 0; i < candidates.length; i++) {... */\n      iszero\n      tag_149\n      jumpi\n        /* \"contracts/ballot.sol\":4807:4815  maxVotes */\n      dup3\n        /* \"contracts/ballot.sol\":4781:4791  candidates */\n      0x01\n        /* \"contracts/ballot.sol\":4792:4793  i */\n      dup3\n        /* \"contracts/ballot.sol\":4781:4794  candidates[i] */\n      dup2\n      sload\n      dup2\n      lt\n      tag_151\n      jumpi\n      tag_152\n      tag_94\n      jump\t// in\n    tag_152:\n    tag_151:\n      swap1\n      0x00\n      mstore\n      keccak256(0x00, 0x20)\n      swap1\n      0x02\n      mul\n      add\n        /* \"contracts/ballot.sol\":4781:4804  candidates[i].voteCount */\n      0x01\n      add\n      sload\n        /* \"contracts/ballot.sol\":4781:4815  candidates[i].voteCount > maxVotes */\n      gt\n        /* \"contracts/ballot.sol\":4777:4920  if (candidates[i].voteCount > maxVotes) {... */\n      iszero\n      tag_154\n      jumpi\n        /* \"contracts/ballot.sol\":4847:4857  candidates */\n      0x01\n        /* \"contracts/ballot.sol\":4858:4859  i */\n      dup2\n        /* \"contracts/ballot.sol\":4847:4860  candidates[i] */\n      dup2\n      sload\n      dup2\n      lt\n      tag_155\n      jumpi\n      tag_156\n      tag_94\n      jump\t// in\n    tag_156:\n    tag_155:\n      swap1\n      0x00\n      mstore\n      keccak256(0x00, 0x20)\n      swap1\n      0x02\n      mul\n      add\n        /* \"contracts/ballot.sol\":4847:4870  candidates[i].voteCount */\n      0x01\n      add\n      sload\n        /* \"contracts/ballot.sol\":4836:4870  maxVotes = candidates[i].voteCount */\n      swap3\n      pop\n        /* \"contracts/ballot.sol\":4903:4904  i */\n      dup1\n        /* \"contracts/ballot.sol\":4889:4904  winnerIndex = i */\n      swap2\n      pop\n        /* \"contracts/ballot.sol\":4777:4920  if (candidates[i].voteCount > maxVotes) {... */\n    tag_154:\n        /* \"contracts/ballot.sol\":4757:4760  i++ */\n      dup1\n      dup1\n      0x01\n      add\n      swap2\n      pop\n      pop\n        /* \"contracts/ballot.sol\":4714:4931  for (uint256 i = 0; i < candidates.length; i++) {... */\n      jump(tag_148)\n    tag_149:\n      pop\n        /* \"contracts/ballot.sol\":4949:4959  candidates */\n      0x01\n        /* \"contracts/ballot.sol\":4960:4971  winnerIndex */\n      dup2\n        /* \"contracts/ballot.sol\":4949:4972  candidates[winnerIndex] */\n      dup2\n      sload\n      dup2\n      lt\n      tag_158\n      jumpi\n      tag_159\n      tag_94\n      jump\t// in\n    tag_159:\n    tag_158:\n      swap1\n      0x00\n      mstore\n      keccak256(0x00, 0x20)\n      swap1\n      0x02\n      mul\n      add\n        /* \"contracts/ballot.sol\":4949:4977  candidates[winnerIndex].name */\n      0x00\n      add\n        /* \"contracts/ballot.sol\":4979:4989  candidates */\n      0x01\n        /* \"contracts/ballot.sol\":4990:5001  winnerIndex */\n      dup3\n        /* \"contracts/ballot.sol\":4979:5002  candidates[winnerIndex] */\n      dup2\n      sload\n      dup2\n      lt\n      tag_161\n      jumpi\n      tag_162\n      tag_94\n      jump\t// in\n    tag_162:\n    tag_161:\n      swap1\n      0x00\n      mstore\n      keccak256(0x00, 0x20)\n      swap1\n      0x02\n      mul\n      add\n        /* \"contracts/ballot.sol\":4979:5012  candidates[winnerIndex].voteCount */\n      0x01\n      add\n      sload\n        /* \"contracts/ballot.sol\":4941:5013  return (candidates[winnerIndex].name, candidates[winnerIndex].voteCount) */\n      dup2\n      dup1\n      sload\n      tag_164\n      swap1\n      tag_108\n      jump\t// in\n    tag_164:\n      dup1\n      0x1f\n      add\n      0x20\n      dup1\n      swap2\n      div\n      mul\n      0x20\n      add\n      mload(0x40)\n      swap1\n      dup2\n      add\n      0x40\n      mstore\n      dup1\n      swap3\n      swap2\n      swap1\n      dup2\n      dup2\n      mstore\n      0x20\n      add\n      dup3\n      dup1\n      sload\n      tag_165\n      swap1\n      tag_108\n      jump\t// in\n    tag_165:\n      dup1\n      iszero\n      tag_166\n      jumpi\n      dup1\n      0x1f\n      lt\n      tag_167\n      jumpi\n      0x0100\n      dup1\n      dup4\n      sload\n      div\n      mul\n      dup4\n      mstore\n      swap2\n      0x20\n      add\n      swap2\n      jump(tag_166)\n    tag_167:\n      dup3\n      add\n      swap2\n      swap1\n      0x00\n      mstore\n      keccak256(0x00, 0x20)\n      swap1\n    tag_168:\n      dup2\n      sload\n      dup2\n      mstore\n      swap1\n      0x01\n      add\n      swap1\n      0x20\n      add\n      dup1\n      dup4\n      gt\n      tag_168\n      jumpi\n      dup3\n      swap1\n      sub\n      0x1f\n      and\n      dup3\n      add\n      swap2\n    tag_166:\n      pop\n      pop\n      pop\n      pop\n      pop\n      swap2\n      pop\n      swap4\n      pop\n      swap4\n      pop\n      pop\n      pop\n        /* \"contracts/ballot.sol\":4491:5021  function getWinner() public view returns (string memory winnerName, uint256 winnerVotes) {... */\n      swap1\n      swap2\n      jump\t// out\n        /* \"contracts/ballot.sol\":443:487  mapping(address => bool) public isRegistered */\n    tag_63:\n      mstore(0x20, 0x02)\n      dup1\n      0x00\n      mstore\n      keccak256(0x00, 0x40)\n      0x00\n      swap2\n      pop\n      sload\n      swap1\n      0x0100\n      exp\n      swap1\n      div\n      0xff\n      and\n      dup2\n      jump\t// out\n        /* \"contracts/ballot.sol\":4106:4225  function getAllRegisteredVoters() public view returns (address[] memory) {... */\n    tag_66:\n        /* \"contracts/ballot.sol\":4161:4177  address[] memory */\n      0x60\n        /* \"contracts/ballot.sol\":4197:4217  registeredVotersList */\n      0x04\n        /* \"contracts/ballot.sol\":4190:4217  return registeredVotersList */\n      dup1\n      sload\n      dup1\n      0x20\n      mul\n      0x20\n      add\n      mload(0x40)\n      swap1\n      dup2\n      add\n      0x40\n      mstore\n      dup1\n      swap3\n      swap2\n      swap1\n      dup2\n      dup2\n      mstore\n      0x20\n      add\n      dup3\n      dup1\n      sload\n      dup1\n      iszero\n      tag_170\n      jumpi\n      0x20\n      mul\n      dup3\n      add\n      swap2\n      swap1\n      0x00\n      mstore\n      keccak256(0x00, 0x20)\n      swap1\n    tag_171:\n      dup2\n      0x00\n      swap1\n      sload\n      swap1\n      0x0100\n      exp\n      swap1\n      div\n      0xffffffffffffffffffffffffffffffffffffffff\n      and\n      0xffffffffffffffffffffffffffffffffffffffff\n      and\n      dup2\n      mstore\n      0x20\n      add\n      swap1\n      0x01\n      add\n      swap1\n      dup1\n      dup4\n      gt\n      tag_171\n      jumpi\n    tag_170:\n      pop\n      pop\n      pop\n      pop\n      pop\n      swap1\n      pop\n        /* \"contracts/ballot.sol\":4106:4225  function getAllRegisteredVoters() public view returns (address[] memory) {... */\n      swap1\n      jump\t// out\n        /* \"contracts/ballot.sol\":541:578  address[] public registeredVotersList */\n    tag_71:\n      0x04\n      dup2\n      dup2\n      sload\n      dup2\n      lt\n      tag_172\n      jumpi\n      0x00\n      dup1\n      revert\n    tag_172:\n      swap1\n      0x00\n      mstore\n      keccak256(0x00, 0x20)\n      add\n      0x00\n      swap2\n      pop\n      sload\n      swap1\n      0x0100\n      exp\n      swap1\n      div\n      0xffffffffffffffffffffffffffffffffffffffff\n      and\n      dup2\n      jump\t// out\n        /* \"contracts/ballot.sol\":4294:4410  function checkRegistration(address _voter) public view returns (bool) {... */\n    tag_75:\n        /* \"contracts/ballot.sol\":4358:4362  bool */\n      0x00\n        /* \"contracts/ballot.sol\":4382:4394  isRegistered */\n      0x02\n        /* \"contracts/ballot.sol\":4382:4402  isRegistered[_voter] */\n      0x00\n        /* \"contracts/ballot.sol\":4395:4401  _voter */\n      dup4\n        /* \"contracts/ballot.sol\":4382:4402  isRegistered[_voter] */\n      0xffffffffffffffffffffffffffffffffffffffff\n      and\n      0xffffffffffffffffffffffffffffffffffffffff\n      and\n      dup2\n      mstore\n      0x20\n      add\n      swap1\n      dup2\n      mstore\n      0x20\n      add\n      0x00\n      keccak256\n      0x00\n      swap1\n      sload\n      swap1\n      0x0100\n      exp\n      swap1\n      div\n      0xff\n      and\n        /* \"contracts/ballot.sol\":4375:4402  return isRegistered[_voter] */\n      swap1\n      pop\n        /* \"contracts/ballot.sol\":4294:4410  function checkRegistration(address _voter) public view returns (bool) {... */\n      swap2\n      swap1\n      pop\n      jump\t// out\n        /* \"contracts/ballot.sol\":2399:2767  function registerMultipleVoters(address[] memory _voters) public onlyOwner {... */\n    tag_80:\n        /* \"contracts/ballot.sol\":890:895  owner */\n      0x00\n      0x00\n      swap1\n      sload\n      swap1\n      0x0100\n      exp\n      swap1\n      div\n      0xffffffffffffffffffffffffffffffffffffffff\n      and\n        /* \"contracts/ballot.sol\":876:895  msg.sender == owner */\n      0xffffffffffffffffffffffffffffffffffffffff\n      and\n        /* \"contracts/ballot.sol\":876:886  msg.sender */\n      caller\n        /* \"contracts/ballot.sol\":876:895  msg.sender == owner */\n      0xffffffffffffffffffffffffffffffffffffffff\n      and\n      eq\n        /* \"contracts/ballot.sol\":868:934  require(msg.sender == owner, \"Only owner can perform this action\") */\n      tag_176\n      jumpi\n      mload(0x40)\n      0x08c379a000000000000000000000000000000000000000000000000000000000\n      dup2\n      mstore\n      0x04\n      add\n      tag_177\n      swap1\n      tag_128\n      jump\t// in\n    tag_177:\n      mload(0x40)\n      dup1\n      swap2\n      sub\n      swap1\n      revert\n    tag_176:\n        /* \"contracts/ballot.sol\":2490:2499  uint256 i */\n      0x00\n        /* \"contracts/ballot.sol\":2502:2503  0 */\n      0x00\n        /* \"contracts/ballot.sol\":2490:2503  uint256 i = 0 */\n      swap1\n      pop\n        /* \"contracts/ballot.sol\":2485:2760  for (uint256 i = 0; i < _voters.length; i++) {... */\n    tag_179:\n        /* \"contracts/ballot.sol\":2509:2516  _voters */\n      dup2\n        /* \"contracts/ballot.sol\":2509:2523  _voters.length */\n      mload\n        /* \"contracts/ballot.sol\":2505:2506  i */\n      dup2\n        /* \"contracts/ballot.sol\":2505:2523  i < _voters.length */\n      lt\n        /* \"contracts/ballot.sol\":2485:2760  for (uint256 i = 0; i < _voters.length; i++) {... */\n      iszero\n      tag_180\n      jumpi\n        /* \"contracts/ballot.sol\":2550:2562  isRegistered */\n      0x02\n        /* \"contracts/ballot.sol\":2550:2574  isRegistered[_voters[i]] */\n      0x00\n        /* \"contracts/ballot.sol\":2563:2570  _voters */\n      dup4\n        /* \"contracts/ballot.sol\":2571:2572  i */\n      dup4\n        /* \"contracts/ballot.sol\":2563:2573  _voters[i] */\n      dup2\n      mload\n      dup2\n      lt\n      tag_182\n      jumpi\n      tag_183\n      tag_94\n      jump\t// in\n    tag_183:\n    tag_182:\n      0x20\n      mul\n      0x20\n      add\n      add\n      mload\n        /* \"contracts/ballot.sol\":2550:2574  isRegistered[_voters[i]] */\n      0xffffffffffffffffffffffffffffffffffffffff\n      and\n      0xffffffffffffffffffffffffffffffffffffffff\n      and\n      dup2\n      mstore\n      0x20\n      add\n      swap1\n      dup2\n      mstore\n      0x20\n      add\n      0x00\n      keccak256\n      0x00\n      swap1\n      sload\n      swap1\n      0x0100\n      exp\n      swap1\n      div\n      0xff\n      and\n        /* \"contracts/ballot.sol\":2545:2749  if (!isRegistered[_voters[i]]) {... */\n      tag_184\n      jumpi\n        /* \"contracts/ballot.sol\":2622:2626  true */\n      0x01\n        /* \"contracts/ballot.sol\":2595:2607  isRegistered */\n      0x02\n        /* \"contracts/ballot.sol\":2595:2619  isRegistered[_voters[i]] */\n      0x00\n        /* \"contracts/ballot.sol\":2608:2615  _voters */\n      dup5\n        /* \"contracts/ballot.sol\":2616:2617  i */\n      dup5\n        /* \"contracts/ballot.sol\":2608:2618  _voters[i] */\n      dup2\n      mload\n      dup2\n      lt\n      tag_185\n      jumpi\n      tag_186\n      tag_94\n      jump\t// in\n    tag_186:\n    tag_185:\n      0x20\n      mul\n      0x20\n      add\n      add\n      mload\n        /* \"contracts/ballot.sol\":2595:2619  isRegistered[_voters[i]] */\n      0xffffffffffffffffffffffffffffffffffffffff\n      and\n      0xffffffffffffffffffffffffffffffffffffffff\n      and\n      dup2\n      mstore\n      0x20\n      add\n      swap1\n      dup2\n      mstore\n      0x20\n      add\n      0x00\n      keccak256\n      0x00\n        /* \"contracts/ballot.sol\":2595:2626  isRegistered[_voters[i]] = true */\n      0x0100\n      exp\n      dup2\n      sload\n      dup2\n      0xff\n      mul\n      not\n      and\n      swap1\n      dup4\n      iszero\n      iszero\n      mul\n      or\n      swap1\n      sstore\n      pop\n        /* \"contracts/ballot.sol\":2645:2665  registeredVotersList */\n      0x04\n        /* \"contracts/ballot.sol\":2671:2678  _voters */\n      dup3\n        /* \"contracts/ballot.sol\":2679:2680  i */\n      dup3\n        /* \"contracts/ballot.sol\":2671:2681  _voters[i] */\n      dup2\n      mload\n      dup2\n      lt\n      tag_187\n      jumpi\n      tag_188\n      tag_94\n      jump\t// in\n    tag_188:\n    tag_187:\n      0x20\n      mul\n      0x20\n      add\n      add\n      mload\n        /* \"contracts/ballot.sol\":2645:2682  registeredVotersList.push(_voters[i]) */\n      swap1\n      dup1\n      0x01\n      dup2\n      sload\n      add\n      dup1\n      dup3\n      sstore\n      dup1\n      swap2\n      pop\n      pop\n      0x01\n      swap1\n      sub\n      swap1\n      0x00\n      mstore\n      keccak256(0x00, 0x20)\n      add\n      0x00\n      swap1\n      swap2\n      swap1\n      swap2\n      swap1\n      swap2\n      0x0100\n      exp\n      dup2\n      sload\n      dup2\n      0xffffffffffffffffffffffffffffffffffffffff\n      mul\n      not\n      and\n      swap1\n      dup4\n      0xffffffffffffffffffffffffffffffffffffffff\n      and\n      mul\n      or\n      swap1\n      sstore\n      pop\n        /* \"contracts/ballot.sol\":2722:2729  _voters */\n      dup2\n        /* \"contracts/ballot.sol\":2730:2731  i */\n      dup2\n        /* \"contracts/ballot.sol\":2722:2732  _voters[i] */\n      dup2\n      mload\n      dup2\n      lt\n      tag_190\n      jumpi\n      tag_191\n      tag_94\n      jump\t// in\n    tag_191:\n    tag_190:\n      0x20\n      mul\n      0x20\n      add\n      add\n      mload\n        /* \"contracts/ballot.sol\":2706:2733  VoterRegistered(_voters[i]) */\n      0xffffffffffffffffffffffffffffffffffffffff\n      and\n      0xb6be2187d059cc2a55fe29e0e503b566e1e0f8c8780096e185429350acffd3dd\n      mload(0x40)\n      mload(0x40)\n      dup1\n      swap2\n      sub\n      swap1\n      log2\n        /* \"contracts/ballot.sol\":2545:2749  if (!isRegistered[_voters[i]]) {... */\n    tag_184:\n        /* \"contracts/ballot.sol\":2525:2528  i++ */\n      dup1\n      dup1\n      0x01\n      add\n      swap2\n      pop\n      pop\n        /* \"contracts/ballot.sol\":2485:2760  for (uint256 i = 0; i < _voters.length; i++) {... */\n      jump(tag_179)\n    tag_180:\n      pop\n        /* \"contracts/ballot.sol\":2399:2767  function registerMultipleVoters(address[] memory _voters) public onlyOwner {... */\n      pop\n      jump\t// out\n        /* \"#utility.yul\":7:82   */\n    tag_192:\n        /* \"#utility.yul\":40:46   */\n      0x00\n        /* \"#utility.yul\":73:75   */\n      0x40\n        /* \"#utility.yul\":67:76   */\n      mload\n        /* \"#utility.yul\":57:76   */\n      swap1\n      pop\n        /* \"#utility.yul\":7:82   */\n      swap1\n      jump\t// out\n        /* \"#utility.yul\":88:205   */\n    tag_193:\n        /* \"#utility.yul\":197:198   */\n      0x00\n        /* \"#utility.yul\":194:195   */\n      0x00\n        /* \"#utility.yul\":187:199   */\n      revert\n        /* \"#utility.yul\":211:328   */\n    tag_194:\n        /* \"#utility.yul\":320:321   */\n      0x00\n        /* \"#utility.yul\":317:318   */\n      0x00\n        /* \"#utility.yul\":310:322   */\n      revert\n        /* \"#utility.yul\":334:411   */\n    tag_195:\n        /* \"#utility.yul\":371:378   */\n      0x00\n        /* \"#utility.yul\":400:405   */\n      dup2\n        /* \"#utility.yul\":389:405   */\n      swap1\n      pop\n        /* \"#utility.yul\":334:411   */\n      swap2\n      swap1\n      pop\n      jump\t// out\n        /* \"#utility.yul\":417:539   */\n    tag_196:\n        /* \"#utility.yul\":490:514   */\n      tag_269\n        /* \"#utility.yul\":508:513   */\n      dup2\n        /* \"#utility.yul\":490:514   */\n      tag_195\n      jump\t// in\n    tag_269:\n        /* \"#utility.yul\":483:488   */\n      dup2\n        /* \"#utility.yul\":480:515   */\n      eq\n        /* \"#utility.yul\":470:533   */\n      tag_270\n      jumpi\n        /* \"#utility.yul\":529:530   */\n      0x00\n        /* \"#utility.yul\":526:527   */\n      0x00\n        /* \"#utility.yul\":519:531   */\n      revert\n        /* \"#utility.yul\":470:533   */\n    tag_270:\n        /* \"#utility.yul\":417:539   */\n      pop\n      jump\t// out\n        /* \"#utility.yul\":545:684   */\n    tag_197:\n        /* \"#utility.yul\":591:596   */\n      0x00\n        /* \"#utility.yul\":629:635   */\n      dup2\n        /* \"#utility.yul\":616:636   */\n      calldataload\n        /* \"#utility.yul\":607:636   */\n      swap1\n      pop\n        /* \"#utility.yul\":645:678   */\n      tag_272\n        /* \"#utility.yul\":672:677   */\n      dup2\n        /* \"#utility.yul\":645:678   */\n      tag_196\n      jump\t// in\n    tag_272:\n        /* \"#utility.yul\":545:684   */\n      swap3\n      swap2\n      pop\n      pop\n      jump\t// out\n        /* \"#utility.yul\":690:1019   */\n    tag_23:\n        /* \"#utility.yul\":749:755   */\n      0x00\n        /* \"#utility.yul\":798:800   */\n      0x20\n        /* \"#utility.yul\":786:795   */\n      dup3\n        /* \"#utility.yul\":777:784   */\n      dup5\n        /* \"#utility.yul\":773:796   */\n      sub\n        /* \"#utility.yul\":769:801   */\n      slt\n        /* \"#utility.yul\":766:885   */\n      iszero\n      tag_274\n      jumpi\n        /* \"#utility.yul\":804:883   */\n      tag_275\n      tag_193\n      jump\t// in\n    tag_275:\n        /* \"#utility.yul\":766:885   */\n    tag_274:\n        /* \"#utility.yul\":924:925   */\n      0x00\n        /* \"#utility.yul\":949:1002   */\n      tag_276\n        /* \"#utility.yul\":994:1001   */\n      dup5\n        /* \"#utility.yul\":985:991   */\n      dup3\n        /* \"#utility.yul\":974:983   */\n      dup6\n        /* \"#utility.yul\":970:992   */\n      add\n        /* \"#utility.yul\":949:1002   */\n      tag_197\n      jump\t// in\n    tag_276:\n        /* \"#utility.yul\":939:1002   */\n      swap2\n      pop\n        /* \"#utility.yul\":895:1012   */\n      pop\n        /* \"#utility.yul\":690:1019   */\n      swap3\n      swap2\n      pop\n      pop\n      jump\t// out\n        /* \"#utility.yul\":1025:1151   */\n    tag_198:\n        /* \"#utility.yul\":1062:1069   */\n      0x00\n        /* \"#utility.yul\":1102:1144   */\n      0xffffffffffffffffffffffffffffffffffffffff\n        /* \"#utility.yul\":1095:1100   */\n      dup3\n        /* \"#utility.yul\":1091:1145   */\n      and\n        /* \"#utility.yul\":1080:1145   */\n      swap1\n      pop\n        /* \"#utility.yul\":1025:1151   */\n      swap2\n      swap1\n      pop\n      jump\t// out\n        /* \"#utility.yul\":1157:1253   */\n    tag_199:\n        /* \"#utility.yul\":1194:1201   */\n      0x00\n        /* \"#utility.yul\":1223:1247   */\n      tag_279\n        /* \"#utility.yul\":1241:1246   */\n      dup3\n        /* \"#utility.yul\":1223:1247   */\n      tag_198\n      jump\t// in\n    tag_279:\n        /* \"#utility.yul\":1212:1247   */\n      swap1\n      pop\n        /* \"#utility.yul\":1157:1253   */\n      swap2\n      swap1\n      pop\n      jump\t// out\n        /* \"#utility.yul\":1259:1381   */\n    tag_200:\n        /* \"#utility.yul\":1332:1356   */\n      tag_281\n        /* \"#utility.yul\":1350:1355   */\n      dup2\n        /* \"#utility.yul\":1332:1356   */\n      tag_199\n      jump\t// in\n    tag_281:\n        /* \"#utility.yul\":1325:1330   */\n      dup2\n        /* \"#utility.yul\":1322:1357   */\n      eq\n        /* \"#utility.yul\":1312:1375   */\n      tag_282\n      jumpi\n        /* \"#utility.yul\":1371:1372   */\n      0x00\n        /* \"#utility.yul\":1368:1369   */\n      0x00\n        /* \"#utility.yul\":1361:1373   */\n      revert\n        /* \"#utility.yul\":1312:1375   */\n    tag_282:\n        /* \"#utility.yul\":1259:1381   */\n      pop\n      jump\t// out\n        /* \"#utility.yul\":1387:1526   */\n    tag_201:\n        /* \"#utility.yul\":1433:1438   */\n      0x00\n        /* \"#utility.yul\":1471:1477   */\n      dup2\n        /* \"#utility.yul\":1458:1478   */\n      calldataload\n        /* \"#utility.yul\":1449:1478   */\n      swap1\n      pop\n        /* \"#utility.yul\":1487:1520   */\n      tag_284\n        /* \"#utility.yul\":1514:1519   */\n      dup2\n        /* \"#utility.yul\":1487:1520   */\n      tag_200\n      jump\t// in\n    tag_284:\n        /* \"#utility.yul\":1387:1526   */\n      swap3\n      swap2\n      pop\n      pop\n      jump\t// out\n        /* \"#utility.yul\":1532:1861   */\n    tag_27:\n        /* \"#utility.yul\":1591:1597   */\n      0x00\n        /* \"#utility.yul\":1640:1642   */\n      0x20\n        /* \"#utility.yul\":1628:1637   */\n      dup3\n        /* \"#utility.yul\":1619:1626   */\n      dup5\n        /* \"#utility.yul\":1615:1638   */\n      sub\n        /* \"#utility.yul\":1611:1643   */\n      slt\n        /* \"#utility.yul\":1608:1727   */\n      iszero\n      tag_286\n      jumpi\n        /* \"#utility.yul\":1646:1725   */\n      tag_287\n      tag_193\n      jump\t// in\n    tag_287:\n        /* \"#utility.yul\":1608:1727   */\n    tag_286:\n        /* \"#utility.yul\":1766:1767   */\n      0x00\n        /* \"#utility.yul\":1791:1844   */\n      tag_288\n        /* \"#utility.yul\":1836:1843   */\n      dup5\n        /* \"#utility.yul\":1827:1833   */\n      dup3\n        /* \"#utility.yul\":1816:1825   */\n      dup6\n        /* \"#utility.yul\":1812:1834   */\n      add\n        /* \"#utility.yul\":1791:1844   */\n      tag_201\n      jump\t// in\n    tag_288:\n        /* \"#utility.yul\":1781:1844   */\n      swap2\n      pop\n        /* \"#utility.yul\":1737:1854   */\n      pop\n        /* \"#utility.yul\":1532:1861   */\n      swap3\n      swap2\n      pop\n      pop\n      jump\t// out\n        /* \"#utility.yul\":1867:1957   */\n    tag_202:\n        /* \"#utility.yul\":1901:1908   */\n      0x00\n        /* \"#utility.yul\":1944:1949   */\n      dup2\n        /* \"#utility.yul\":1937:1950   */\n      iszero\n        /* \"#utility.yul\":1930:1951   */\n      iszero\n        /* \"#utility.yul\":1919:1951   */\n      swap1\n      pop\n        /* \"#utility.yul\":1867:1957   */\n      swap2\n      swap1\n      pop\n      jump\t// out\n        /* \"#utility.yul\":1963:2072   */\n    tag_203:\n        /* \"#utility.yul\":2044:2065   */\n      tag_291\n        /* \"#utility.yul\":2059:2064   */\n      dup2\n        /* \"#utility.yul\":2044:2065   */\n      tag_202\n      jump\t// in\n    tag_291:\n        /* \"#utility.yul\":2039:2042   */\n      dup3\n        /* \"#utility.yul\":2032:2066   */\n      mstore\n        /* \"#utility.yul\":1963:2072   */\n      pop\n      pop\n      jump\t// out\n        /* \"#utility.yul\":2078:2288   */\n    tag_30:\n        /* \"#utility.yul\":2165:2169   */\n      0x00\n        /* \"#utility.yul\":2203:2205   */\n      0x20\n        /* \"#utility.yul\":2192:2201   */\n      dup3\n        /* \"#utility.yul\":2188:2206   */\n      add\n        /* \"#utility.yul\":2180:2206   */\n      swap1\n      pop\n        /* \"#utility.yul\":2216:2281   */\n      tag_293\n        /* \"#utility.yul\":2278:2279   */\n      0x00\n        /* \"#utility.yul\":2267:2276   */\n      dup4\n        /* \"#utility.yul\":2263:2280   */\n      add\n        /* \"#utility.yul\":2254:2260   */\n      dup5\n        /* \"#utility.yul\":2216:2281   */\n      tag_203\n      jump\t// in\n    tag_293:\n        /* \"#utility.yul\":2078:2288   */\n      swap3\n      swap2\n      pop\n      pop\n      jump\t// out\n        /* \"#utility.yul\":2294:2412   */\n    tag_204:\n        /* \"#utility.yul\":2381:2405   */\n      tag_295\n        /* \"#utility.yul\":2399:2404   */\n      dup2\n        /* \"#utility.yul\":2381:2405   */\n      tag_195\n      jump\t// in\n    tag_295:\n        /* \"#utility.yul\":2376:2379   */\n      dup3\n        /* \"#utility.yul\":2369:2406   */\n      mstore\n        /* \"#utility.yul\":2294:2412   */\n      pop\n      pop\n      jump\t// out\n        /* \"#utility.yul\":2418:2640   */\n    tag_34:\n        /* \"#utility.yul\":2511:2515   */\n      0x00\n        /* \"#utility.yul\":2549:2551   */\n      0x20\n        /* \"#utility.yul\":2538:2547   */\n      dup3\n        /* \"#utility.yul\":2534:2552   */\n      add\n        /* \"#utility.yul\":2526:2552   */\n      swap1\n      pop\n        /* \"#utility.yul\":2562:2633   */\n      tag_297\n        /* \"#utility.yul\":2630:2631   */\n      0x00\n        /* \"#utility.yul\":2619:2628   */\n      dup4\n        /* \"#utility.yul\":2615:2632   */\n      add\n        /* \"#utility.yul\":2606:2612   */\n      dup5\n        /* \"#utility.yul\":2562:2633   */\n      tag_204\n      jump\t// in\n    tag_297:\n        /* \"#utility.yul\":2418:2640   */\n      swap3\n      swap2\n      pop\n      pop\n      jump\t// out\n        /* \"#utility.yul\":2646:2745   */\n    tag_205:\n        /* \"#utility.yul\":2698:2704   */\n      0x00\n        /* \"#utility.yul\":2732:2737   */\n      dup2\n        /* \"#utility.yul\":2726:2738   */\n      mload\n        /* \"#utility.yul\":2716:2738   */\n      swap1\n      pop\n        /* \"#utility.yul\":2646:2745   */\n      swap2\n      swap1\n      pop\n      jump\t// out\n        /* \"#utility.yul\":2751:2920   */\n    tag_206:\n        /* \"#utility.yul\":2835:2846   */\n      0x00\n        /* \"#utility.yul\":2869:2875   */\n      dup3\n        /* \"#utility.yul\":2864:2867   */\n      dup3\n        /* \"#utility.yul\":2857:2876   */\n      mstore\n        /* \"#utility.yul\":2909:2913   */\n      0x20\n        /* \"#utility.yul\":2904:2907   */\n      dup3\n        /* \"#utility.yul\":2900:2914   */\n      add\n        /* \"#utility.yul\":2885:2914   */\n      swap1\n      pop\n        /* \"#utility.yul\":2751:2920   */\n      swap3\n      swap2\n      pop\n      pop\n      jump\t// out\n        /* \"#utility.yul\":2926:3065   */\n    tag_207:\n        /* \"#utility.yul\":3015:3021   */\n      dup3\n        /* \"#utility.yul\":3010:3013   */\n      dup2\n        /* \"#utility.yul\":3005:3008   */\n      dup4\n        /* \"#utility.yul\":2999:3022   */\n      mcopy\n        /* \"#utility.yul\":3056:3057   */\n      0x00\n        /* \"#utility.yul\":3047:3053   */\n      dup4\n        /* \"#utility.yul\":3042:3045   */\n      dup4\n        /* \"#utility.yul\":3038:3054   */\n      add\n        /* \"#utility.yul\":3031:3058   */\n      mstore\n        /* \"#utility.yul\":2926:3065   */\n      pop\n      pop\n      pop\n      jump\t// out\n        /* \"#utility.yul\":3071:3173   */\n    tag_208:\n        /* \"#utility.yul\":3112:3118   */\n      0x00\n        /* \"#utility.yul\":3163:3165   */\n      0x1f\n        /* \"#utility.yul\":3159:3166   */\n      not\n        /* \"#utility.yul\":3154:3156   */\n      0x1f\n        /* \"#utility.yul\":3147:3152   */\n      dup4\n        /* \"#utility.yul\":3143:3157   */\n      add\n        /* \"#utility.yul\":3139:3167   */\n      and\n        /* \"#utility.yul\":3129:3167   */\n      swap1\n      pop\n        /* \"#utility.yul\":3071:3173   */\n      swap2\n      swap1\n      pop\n      jump\t// out\n        /* \"#utility.yul\":3179:3556   */\n    tag_209:\n        /* \"#utility.yul\":3267:3270   */\n      0x00\n        /* \"#utility.yul\":3295:3334   */\n      tag_303\n        /* \"#utility.yul\":3328:3333   */\n      dup3\n        /* \"#utility.yul\":3295:3334   */\n      tag_205\n      jump\t// in\n    tag_303:\n        /* \"#utility.yul\":3350:3421   */\n      tag_304\n        /* \"#utility.yul\":3414:3420   */\n      dup2\n        /* \"#utility.yul\":3409:3412   */\n      dup6\n        /* \"#utility.yul\":3350:3421   */\n      tag_206\n      jump\t// in\n    tag_304:\n        /* \"#utility.yul\":3343:3421   */\n      swap4\n      pop\n        /* \"#utility.yul\":3430:3495   */\n      tag_305\n        /* \"#utility.yul\":3488:3494   */\n      dup2\n        /* \"#utility.yul\":3483:3486   */\n      dup6\n        /* \"#utility.yul\":3476:3480   */\n      0x20\n        /* \"#utility.yul\":3469:3474   */\n      dup7\n        /* \"#utility.yul\":3465:3481   */\n      add\n        /* \"#utility.yul\":3430:3495   */\n      tag_207\n      jump\t// in\n    tag_305:\n        /* \"#utility.yul\":3520:3549   */\n      tag_306\n        /* \"#utility.yul\":3542:3548   */\n      dup2\n        /* \"#utility.yul\":3520:3549   */\n      tag_208\n      jump\t// in\n    tag_306:\n        /* \"#utility.yul\":3515:3518   */\n      dup5\n        /* \"#utility.yul\":3511:3550   */\n      add\n        /* \"#utility.yul\":3504:3550   */\n      swap2\n      pop\n        /* \"#utility.yul\":3271:3556   */\n      pop\n        /* \"#utility.yul\":3179:3556   */\n      swap3\n      swap2\n      pop\n      pop\n      jump\t// out\n        /* \"#utility.yul\":3562:3985   */\n    tag_42:\n        /* \"#utility.yul\":3703:3707   */\n      0x00\n        /* \"#utility.yul\":3741:3743   */\n      0x40\n        /* \"#utility.yul\":3730:3739   */\n      dup3\n        /* \"#utility.yul\":3726:3744   */\n      add\n        /* \"#utility.yul\":3718:3744   */\n      swap1\n      pop\n        /* \"#utility.yul\":3790:3799   */\n      dup2\n        /* \"#utility.yul\":3784:3788   */\n      dup2\n        /* \"#utility.yul\":3780:3800   */\n      sub\n        /* \"#utility.yul\":3776:3777   */\n      0x00\n        /* \"#utility.yul\":3765:3774   */\n      dup4\n        /* \"#utility.yul\":3761:3778   */\n      add\n        /* \"#utility.yul\":3754:3801   */\n      mstore\n        /* \"#utility.yul\":3818:3896   */\n      tag_308\n        /* \"#utility.yul\":3891:3895   */\n      dup2\n        /* \"#utility.yul\":3882:3888   */\n      dup6\n        /* \"#utility.yul\":3818:3896   */\n      tag_209\n      jump\t// in\n    tag_308:\n        /* \"#utility.yul\":3810:3896   */\n      swap1\n      pop\n        /* \"#utility.yul\":3906:3978   */\n      tag_309\n        /* \"#utility.yul\":3974:3976   */\n      0x20\n        /* \"#utility.yul\":3963:3972   */\n      dup4\n        /* \"#utility.yul\":3959:3977   */\n      add\n        /* \"#utility.yul\":3950:3956   */\n      dup5\n        /* \"#utility.yul\":3906:3978   */\n      tag_204\n      jump\t// in\n    tag_309:\n        /* \"#utility.yul\":3562:3985   */\n      swap4\n      swap3\n      pop\n      pop\n      pop\n      jump\t// out\n        /* \"#utility.yul\":3991:4108   */\n    tag_210:\n        /* \"#utility.yul\":4100:4101   */\n      0x00\n        /* \"#utility.yul\":4097:4098   */\n      0x00\n        /* \"#utility.yul\":4090:4102   */\n      revert\n        /* \"#utility.yul\":4114:4231   */\n    tag_211:\n        /* \"#utility.yul\":4223:4224   */\n      0x00\n        /* \"#utility.yul\":4220:4221   */\n      0x00\n        /* \"#utility.yul\":4213:4225   */\n      revert\n        /* \"#utility.yul\":4237:4417   */\n    tag_212:\n        /* \"#utility.yul\":4285:4362   */\n      0x4e487b7100000000000000000000000000000000000000000000000000000000\n        /* \"#utility.yul\":4282:4283   */\n      0x00\n        /* \"#utility.yul\":4275:4363   */\n      mstore\n        /* \"#utility.yul\":4382:4386   */\n      0x41\n        /* \"#utility.yul\":4379:4380   */\n      0x04\n        /* \"#utility.yul\":4372:4387   */\n      mstore\n        /* \"#utility.yul\":4406:4410   */\n      0x24\n        /* \"#utility.yul\":4403:4404   */\n      0x00\n        /* \"#utility.yul\":4396:4411   */\n      revert\n        /* \"#utility.yul\":4423:4704   */\n    tag_213:\n        /* \"#utility.yul\":4506:4533   */\n      tag_314\n        /* \"#utility.yul\":4528:4532   */\n      dup3\n        /* \"#utility.yul\":4506:4533   */\n      tag_208\n      jump\t// in\n    tag_314:\n        /* \"#utility.yul\":4498:4504   */\n      dup2\n        /* \"#utility.yul\":4494:4534   */\n      add\n        /* \"#utility.yul\":4636:4642   */\n      dup2\n        /* \"#utility.yul\":4624:4634   */\n      dup2\n        /* \"#utility.yul\":4621:4643   */\n      lt\n        /* \"#utility.yul\":4600:4618   */\n      0xffffffffffffffff\n        /* \"#utility.yul\":4588:4598   */\n      dup3\n        /* \"#utility.yul\":4585:4619   */\n      gt\n        /* \"#utility.yul\":4582:4644   */\n      or\n        /* \"#utility.yul\":4579:4667   */\n      iszero\n      tag_315\n      jumpi\n        /* \"#utility.yul\":4647:4665   */\n      tag_316\n      tag_212\n      jump\t// in\n    tag_316:\n        /* \"#utility.yul\":4579:4667   */\n    tag_315:\n        /* \"#utility.yul\":4687:4697   */\n      dup1\n        /* \"#utility.yul\":4683:4685   */\n      0x40\n        /* \"#utility.yul\":4676:4698   */\n      mstore\n        /* \"#utility.yul\":4466:4704   */\n      pop\n        /* \"#utility.yul\":4423:4704   */\n      pop\n      pop\n      jump\t// out\n        /* \"#utility.yul\":4710:4839   */\n    tag_214:\n        /* \"#utility.yul\":4744:4750   */\n      0x00\n        /* \"#utility.yul\":4771:4791   */\n      tag_318\n      tag_192\n      jump\t// in\n    tag_318:\n        /* \"#utility.yul\":4761:4791   */\n      swap1\n      pop\n        /* \"#utility.yul\":4800:4833   */\n      tag_319\n        /* \"#utility.yul\":4828:4832   */\n      dup3\n        /* \"#utility.yul\":4820:4826   */\n      dup3\n        /* \"#utility.yul\":4800:4833   */\n      tag_213\n      jump\t// in\n    tag_319:\n        /* \"#utility.yul\":4710:4839   */\n      swap2\n      swap1\n      pop\n      jump\t// out\n        /* \"#utility.yul\":4845:5153   */\n    tag_215:\n        /* \"#utility.yul\":4907:4911   */\n      0x00\n        /* \"#utility.yul\":4997:5015   */\n      0xffffffffffffffff\n        /* \"#utility.yul\":4989:4995   */\n      dup3\n        /* \"#utility.yul\":4986:5016   */\n      gt\n        /* \"#utility.yul\":4983:5039   */\n      iszero\n      tag_321\n      jumpi\n        /* \"#utility.yul\":5019:5037   */\n      tag_322\n      tag_212\n      jump\t// in\n    tag_322:\n        /* \"#utility.yul\":4983:5039   */\n    tag_321:\n        /* \"#utility.yul\":5057:5086   */\n      tag_323\n        /* \"#utility.yul\":5079:5085   */\n      dup3\n        /* \"#utility.yul\":5057:5086   */\n      tag_208\n      jump\t// in\n    tag_323:\n        /* \"#utility.yul\":5049:5086   */\n      swap1\n      pop\n        /* \"#utility.yul\":5141:5145   */\n      0x20\n        /* \"#utility.yul\":5135:5139   */\n      dup2\n        /* \"#utility.yul\":5131:5146   */\n      add\n        /* \"#utility.yul\":5123:5146   */\n      swap1\n      pop\n        /* \"#utility.yul\":4845:5153   */\n      swap2\n      swap1\n      pop\n      jump\t// out\n        /* \"#utility.yul\":5159:5307   */\n    tag_216:\n        /* \"#utility.yul\":5257:5263   */\n      dup3\n        /* \"#utility.yul\":5252:5255   */\n      dup2\n        /* \"#utility.yul\":5247:5250   */\n      dup4\n        /* \"#utility.yul\":5234:5264   */\n      calldatacopy\n        /* \"#utility.yul\":5298:5299   */\n      0x00\n        /* \"#utility.yul\":5289:5295   */\n      dup4\n        /* \"#utility.yul\":5284:5287   */\n      dup4\n        /* \"#utility.yul\":5280:5296   */\n      add\n        /* \"#utility.yul\":5273:5300   */\n      mstore\n        /* \"#utility.yul\":5159:5307   */\n      pop\n      pop\n      pop\n      jump\t// out\n        /* \"#utility.yul\":5313:5738   */\n    tag_217:\n        /* \"#utility.yul\":5391:5396   */\n      0x00\n        /* \"#utility.yul\":5416:5482   */\n      tag_326\n        /* \"#utility.yul\":5432:5481   */\n      tag_327\n        /* \"#utility.yul\":5474:5480   */\n      dup5\n        /* \"#utility.yul\":5432:5481   */\n      tag_215\n      jump\t// in\n    tag_327:\n        /* \"#utility.yul\":5416:5482   */\n      tag_214\n      jump\t// in\n    tag_326:\n        /* \"#utility.yul\":5407:5482   */\n      swap1\n      pop\n        /* \"#utility.yul\":5505:5511   */\n      dup3\n        /* \"#utility.yul\":5498:5503   */\n      dup2\n        /* \"#utility.yul\":5491:5512   */\n      mstore\n        /* \"#utility.yul\":5543:5547   */\n      0x20\n        /* \"#utility.yul\":5536:5541   */\n      dup2\n        /* \"#utility.yul\":5532:5548   */\n      add\n        /* \"#utility.yul\":5581:5584   */\n      dup5\n        /* \"#utility.yul\":5572:5578   */\n      dup5\n        /* \"#utility.yul\":5567:5570   */\n      dup5\n        /* \"#utility.yul\":5563:5579   */\n      add\n        /* \"#utility.yul\":5560:5585   */\n      gt\n        /* \"#utility.yul\":5557:5669   */\n      iszero\n      tag_328\n      jumpi\n        /* \"#utility.yul\":5588:5667   */\n      tag_329\n      tag_211\n      jump\t// in\n    tag_329:\n        /* \"#utility.yul\":5557:5669   */\n    tag_328:\n        /* \"#utility.yul\":5678:5732   */\n      tag_330\n        /* \"#utility.yul\":5725:5731   */\n      dup5\n        /* \"#utility.yul\":5720:5723   */\n      dup3\n        /* \"#utility.yul\":5715:5718   */\n      dup6\n        /* \"#utility.yul\":5678:5732   */\n      tag_216\n      jump\t// in\n    tag_330:\n        /* \"#utility.yul\":5397:5738   */\n      pop\n        /* \"#utility.yul\":5313:5738   */\n      swap4\n      swap3\n      pop\n      pop\n      pop\n      jump\t// out\n        /* \"#utility.yul\":5758:6098   */\n    tag_218:\n        /* \"#utility.yul\":5814:5819   */\n      0x00\n        /* \"#utility.yul\":5863:5866   */\n      dup3\n        /* \"#utility.yul\":5856:5860   */\n      0x1f\n        /* \"#utility.yul\":5848:5854   */\n      dup4\n        /* \"#utility.yul\":5844:5861   */\n      add\n        /* \"#utility.yul\":5840:5867   */\n      slt\n        /* \"#utility.yul\":5830:5952   */\n      tag_332\n      jumpi\n        /* \"#utility.yul\":5871:5950   */\n      tag_333\n      tag_210\n      jump\t// in\n    tag_333:\n        /* \"#utility.yul\":5830:5952   */\n    tag_332:\n        /* \"#utility.yul\":5988:5994   */\n      dup2\n        /* \"#utility.yul\":5975:5995   */\n      calldataload\n        /* \"#utility.yul\":6013:6092   */\n      tag_334\n        /* \"#utility.yul\":6088:6091   */\n      dup5\n        /* \"#utility.yul\":6080:6086   */\n      dup3\n        /* \"#utility.yul\":6073:6077   */\n      0x20\n        /* \"#utility.yul\":6065:6071   */\n      dup7\n        /* \"#utility.yul\":6061:6078   */\n      add\n        /* \"#utility.yul\":6013:6092   */\n      tag_217\n      jump\t// in\n    tag_334:\n        /* \"#utility.yul\":6004:6092   */\n      swap2\n      pop\n        /* \"#utility.yul\":5820:6098   */\n      pop\n        /* \"#utility.yul\":5758:6098   */\n      swap3\n      swap2\n      pop\n      pop\n      jump\t// out\n        /* \"#utility.yul\":6104:6613   */\n    tag_52:\n        /* \"#utility.yul\":6173:6179   */\n      0x00\n        /* \"#utility.yul\":6222:6224   */\n      0x20\n        /* \"#utility.yul\":6210:6219   */\n      dup3\n        /* \"#utility.yul\":6201:6208   */\n      dup5\n        /* \"#utility.yul\":6197:6220   */\n      sub\n        /* \"#utility.yul\":6193:6225   */\n      slt\n        /* \"#utility.yul\":6190:6309   */\n      iszero\n      tag_336\n      jumpi\n        /* \"#utility.yul\":6228:6307   */\n      tag_337\n      tag_193\n      jump\t// in\n    tag_337:\n        /* \"#utility.yul\":6190:6309   */\n    tag_336:\n        /* \"#utility.yul\":6376:6377   */\n      0x00\n        /* \"#utility.yul\":6365:6374   */\n      dup3\n        /* \"#utility.yul\":6361:6378   */\n      add\n        /* \"#utility.yul\":6348:6379   */\n      calldataload\n        /* \"#utility.yul\":6406:6424   */\n      0xffffffffffffffff\n        /* \"#utility.yul\":6398:6404   */\n      dup2\n        /* \"#utility.yul\":6395:6425   */\n      gt\n        /* \"#utility.yul\":6392:6509   */\n      iszero\n      tag_338\n      jumpi\n        /* \"#utility.yul\":6428:6507   */\n      tag_339\n      tag_194\n      jump\t// in\n    tag_339:\n        /* \"#utility.yul\":6392:6509   */\n    tag_338:\n        /* \"#utility.yul\":6533:6596   */\n      tag_340\n        /* \"#utility.yul\":6588:6595   */\n      dup5\n        /* \"#utility.yul\":6579:6585   */\n      dup3\n        /* \"#utility.yul\":6568:6577   */\n      dup6\n        /* \"#utility.yul\":6564:6586   */\n      add\n        /* \"#utility.yul\":6533:6596   */\n      tag_218\n      jump\t// in\n    tag_340:\n        /* \"#utility.yul\":6523:6596   */\n      swap2\n      pop\n        /* \"#utility.yul\":6319:6606   */\n      pop\n        /* \"#utility.yul\":6104:6613   */\n      swap3\n      swap2\n      pop\n      pop\n      jump\t// out\n        /* \"#utility.yul\":6619:6737   */\n    tag_219:\n        /* \"#utility.yul\":6706:6730   */\n      tag_342\n        /* \"#utility.yul\":6724:6729   */\n      dup2\n        /* \"#utility.yul\":6706:6730   */\n      tag_199\n      jump\t// in\n    tag_342:\n        /* \"#utility.yul\":6701:6704   */\n      dup3\n        /* \"#utility.yul\":6694:6731   */\n      mstore\n        /* \"#utility.yul\":6619:6737   */\n      pop\n      pop\n      jump\t// out\n        /* \"#utility.yul\":6743:6965   */\n    tag_57:\n        /* \"#utility.yul\":6836:6840   */\n      0x00\n        /* \"#utility.yul\":6874:6876   */\n      0x20\n        /* \"#utility.yul\":6863:6872   */\n      dup3\n        /* \"#utility.yul\":6859:6877   */\n      add\n        /* \"#utility.yul\":6851:6877   */\n      swap1\n      pop\n        /* \"#utility.yul\":6887:6958   */\n      tag_344\n        /* \"#utility.yul\":6955:6956   */\n      0x00\n        /* \"#utility.yul\":6944:6953   */\n      dup4\n        /* \"#utility.yul\":6940:6957   */\n      add\n        /* \"#utility.yul\":6931:6937   */\n      dup5\n        /* \"#utility.yul\":6887:6958   */\n      tag_219\n      jump\t// in\n    tag_344:\n        /* \"#utility.yul\":6743:6965   */\n      swap3\n      swap2\n      pop\n      pop\n      jump\t// out\n        /* \"#utility.yul\":6971:7085   */\n    tag_220:\n        /* \"#utility.yul\":7038:7044   */\n      0x00\n        /* \"#utility.yul\":7072:7077   */\n      dup2\n        /* \"#utility.yul\":7066:7078   */\n      mload\n        /* \"#utility.yul\":7056:7078   */\n      swap1\n      pop\n        /* \"#utility.yul\":6971:7085   */\n      swap2\n      swap1\n      pop\n      jump\t// out\n        /* \"#utility.yul\":7091:7275   */\n    tag_221:\n        /* \"#utility.yul\":7190:7201   */\n      0x00\n        /* \"#utility.yul\":7224:7230   */\n      dup3\n        /* \"#utility.yul\":7219:7222   */\n      dup3\n        /* \"#utility.yul\":7212:7231   */\n      mstore\n        /* \"#utility.yul\":7264:7268   */\n      0x20\n        /* \"#utility.yul\":7259:7262   */\n      dup3\n        /* \"#utility.yul\":7255:7269   */\n      add\n        /* \"#utility.yul\":7240:7269   */\n      swap1\n      pop\n        /* \"#utility.yul\":7091:7275   */\n      swap3\n      swap2\n      pop\n      pop\n      jump\t// out\n        /* \"#utility.yul\":7281:7413   */\n    tag_222:\n        /* \"#utility.yul\":7348:7352   */\n      0x00\n        /* \"#utility.yul\":7371:7374   */\n      dup2\n        /* \"#utility.yul\":7363:7374   */\n      swap1\n      pop\n        /* \"#utility.yul\":7401:7405   */\n      0x20\n        /* \"#utility.yul\":7396:7399   */\n      dup3\n        /* \"#utility.yul\":7392:7406   */\n      add\n        /* \"#utility.yul\":7384:7406   */\n      swap1\n      pop\n        /* \"#utility.yul\":7281:7413   */\n      swap2\n      swap1\n      pop\n      jump\t// out\n        /* \"#utility.yul\":7419:7527   */\n    tag_223:\n        /* \"#utility.yul\":7496:7520   */\n      tag_349\n        /* \"#utility.yul\":7514:7519   */\n      dup2\n        /* \"#utility.yul\":7496:7520   */\n      tag_199\n      jump\t// in\n    tag_349:\n        /* \"#utility.yul\":7491:7494   */\n      dup3\n        /* \"#utility.yul\":7484:7521   */\n      mstore\n        /* \"#utility.yul\":7419:7527   */\n      pop\n      pop\n      jump\t// out\n        /* \"#utility.yul\":7533:7712   */\n    tag_224:\n        /* \"#utility.yul\":7602:7612   */\n      0x00\n        /* \"#utility.yul\":7623:7669   */\n      tag_351\n        /* \"#utility.yul\":7665:7668   */\n      dup4\n        /* \"#utility.yul\":7657:7663   */\n      dup4\n        /* \"#utility.yul\":7623:7669   */\n      tag_223\n      jump\t// in\n    tag_351:\n        /* \"#utility.yul\":7701:7705   */\n      0x20\n        /* \"#utility.yul\":7696:7699   */\n      dup4\n        /* \"#utility.yul\":7692:7706   */\n      add\n        /* \"#utility.yul\":7678:7706   */\n      swap1\n      pop\n        /* \"#utility.yul\":7533:7712   */\n      swap3\n      swap2\n      pop\n      pop\n      jump\t// out\n        /* \"#utility.yul\":7718:7831   */\n    tag_225:\n        /* \"#utility.yul\":7788:7792   */\n      0x00\n        /* \"#utility.yul\":7820:7824   */\n      0x20\n        /* \"#utility.yul\":7815:7818   */\n      dup3\n        /* \"#utility.yul\":7811:7825   */\n      add\n        /* \"#utility.yul\":7803:7825   */\n      swap1\n      pop\n        /* \"#utility.yul\":7718:7831   */\n      swap2\n      swap1\n      pop\n      jump\t// out\n        /* \"#utility.yul\":7867:8599   */\n    tag_226:\n        /* \"#utility.yul\":7986:7989   */\n      0x00\n        /* \"#utility.yul\":8015:8069   */\n      tag_354\n        /* \"#utility.yul\":8063:8068   */\n      dup3\n        /* \"#utility.yul\":8015:8069   */\n      tag_220\n      jump\t// in\n    tag_354:\n        /* \"#utility.yul\":8085:8171   */\n      tag_355\n        /* \"#utility.yul\":8164:8170   */\n      dup2\n        /* \"#utility.yul\":8159:8162   */\n      dup6\n        /* \"#utility.yul\":8085:8171   */\n      tag_221\n      jump\t// in\n    tag_355:\n        /* \"#utility.yul\":8078:8171   */\n      swap4\n      pop\n        /* \"#utility.yul\":8195:8251   */\n      tag_356\n        /* \"#utility.yul\":8245:8250   */\n      dup4\n        /* \"#utility.yul\":8195:8251   */\n      tag_222\n      jump\t// in\n    tag_356:\n        /* \"#utility.yul\":8274:8281   */\n      dup1\n        /* \"#utility.yul\":8305:8306   */\n      0x00\n        /* \"#utility.yul\":8290:8574   */\n    tag_357:\n        /* \"#utility.yul\":8315:8321   */\n      dup4\n        /* \"#utility.yul\":8312:8313   */\n      dup2\n        /* \"#utility.yul\":8309:8322   */\n      lt\n        /* \"#utility.yul\":8290:8574   */\n      iszero\n      tag_359\n      jumpi\n        /* \"#utility.yul\":8391:8397   */\n      dup2\n        /* \"#utility.yul\":8385:8398   */\n      mload\n        /* \"#utility.yul\":8418:8481   */\n      tag_360\n        /* \"#utility.yul\":8477:8480   */\n      dup9\n        /* \"#utility.yul\":8462:8475   */\n      dup3\n        /* \"#utility.yul\":8418:8481   */\n      tag_224\n      jump\t// in\n    tag_360:\n        /* \"#utility.yul\":8411:8481   */\n      swap8\n      pop\n        /* \"#utility.yul\":8504:8564   */\n      tag_361\n        /* \"#utility.yul\":8557:8563   */\n      dup4\n        /* \"#utility.yul\":8504:8564   */\n      tag_225\n      jump\t// in\n    tag_361:\n        /* \"#utility.yul\":8494:8564   */\n      swap3\n      pop\n        /* \"#utility.yul\":8350:8574   */\n      pop\n        /* \"#utility.yul\":8337:8338   */\n      0x01\n        /* \"#utility.yul\":8334:8335   */\n      dup2\n        /* \"#utility.yul\":8330:8339   */\n      add\n        /* \"#utility.yul\":8325:8339   */\n      swap1\n      pop\n        /* \"#utility.yul\":8290:8574   */\n      jump(tag_357)\n    tag_359:\n        /* \"#utility.yul\":8294:8308   */\n      pop\n        /* \"#utility.yul\":8590:8593   */\n      dup6\n        /* \"#utility.yul\":8583:8593   */\n      swap4\n      pop\n        /* \"#utility.yul\":7991:8599   */\n      pop\n      pop\n      pop\n        /* \"#utility.yul\":7867:8599   */\n      swap3\n      swap2\n      pop\n      pop\n      jump\t// out\n        /* \"#utility.yul\":8605:8978   */\n    tag_68:\n        /* \"#utility.yul\":8748:8752   */\n      0x00\n        /* \"#utility.yul\":8786:8788   */\n      0x20\n        /* \"#utility.yul\":8775:8784   */\n      dup3\n        /* \"#utility.yul\":8771:8789   */\n      add\n        /* \"#utility.yul\":8763:8789   */\n      swap1\n      pop\n        /* \"#utility.yul\":8835:8844   */\n      dup2\n        /* \"#utility.yul\":8829:8833   */\n      dup2\n        /* \"#utility.yul\":8825:8845   */\n      sub\n        /* \"#utility.yul\":8821:8822   */\n      0x00\n        /* \"#utility.yul\":8810:8819   */\n      dup4\n        /* \"#utility.yul\":8806:8823   */\n      add\n        /* \"#utility.yul\":8799:8846   */\n      mstore\n        /* \"#utility.yul\":8863:8971   */\n      tag_363\n        /* \"#utility.yul\":8966:8970   */\n      dup2\n        /* \"#utility.yul\":8957:8963   */\n      dup5\n        /* \"#utility.yul\":8863:8971   */\n      tag_226\n      jump\t// in\n    tag_363:\n        /* \"#utility.yul\":8855:8971   */\n      swap1\n      pop\n        /* \"#utility.yul\":8605:8978   */\n      swap3\n      swap2\n      pop\n      pop\n      jump\t// out\n        /* \"#utility.yul\":8984:9295   */\n    tag_227:\n        /* \"#utility.yul\":9061:9065   */\n      0x00\n        /* \"#utility.yul\":9151:9169   */\n      0xffffffffffffffff\n        /* \"#utility.yul\":9143:9149   */\n      dup3\n        /* \"#utility.yul\":9140:9170   */\n      gt\n        /* \"#utility.yul\":9137:9193   */\n      iszero\n      tag_365\n      jumpi\n        /* \"#utility.yul\":9173:9191   */\n      tag_366\n      tag_212\n      jump\t// in\n    tag_366:\n        /* \"#utility.yul\":9137:9193   */\n    tag_365:\n        /* \"#utility.yul\":9223:9227   */\n      0x20\n        /* \"#utility.yul\":9215:9221   */\n      dup3\n        /* \"#utility.yul\":9211:9228   */\n      mul\n        /* \"#utility.yul\":9203:9228   */\n      swap1\n      pop\n        /* \"#utility.yul\":9283:9287   */\n      0x20\n        /* \"#utility.yul\":9277:9281   */\n      dup2\n        /* \"#utility.yul\":9273:9288   */\n      add\n        /* \"#utility.yul\":9265:9288   */\n      swap1\n      pop\n        /* \"#utility.yul\":8984:9295   */\n      swap2\n      swap1\n      pop\n      jump\t// out\n        /* \"#utility.yul\":9301:9418   */\n    tag_228:\n        /* \"#utility.yul\":9410:9411   */\n      0x00\n        /* \"#utility.yul\":9407:9408   */\n      0x00\n        /* \"#utility.yul\":9400:9412   */\n      revert\n        /* \"#utility.yul\":9441:10151   */\n    tag_229:\n        /* \"#utility.yul\":9537:9542   */\n      0x00\n        /* \"#utility.yul\":9562:9643   */\n      tag_369\n        /* \"#utility.yul\":9578:9642   */\n      tag_370\n        /* \"#utility.yul\":9635:9641   */\n      dup5\n        /* \"#utility.yul\":9578:9642   */\n      tag_227\n      jump\t// in\n    tag_370:\n        /* \"#utility.yul\":9562:9643   */\n      tag_214\n      jump\t// in\n    tag_369:\n        /* \"#utility.yul\":9553:9643   */\n      swap1\n      pop\n        /* \"#utility.yul\":9663:9668   */\n      dup1\n        /* \"#utility.yul\":9692:9698   */\n      dup4\n        /* \"#utility.yul\":9685:9690   */\n      dup3\n        /* \"#utility.yul\":9678:9699   */\n      mstore\n        /* \"#utility.yul\":9726:9730   */\n      0x20\n        /* \"#utility.yul\":9719:9724   */\n      dup3\n        /* \"#utility.yul\":9715:9731   */\n      add\n        /* \"#utility.yul\":9708:9731   */\n      swap1\n      pop\n        /* \"#utility.yul\":9779:9783   */\n      0x20\n        /* \"#utility.yul\":9771:9777   */\n      dup5\n        /* \"#utility.yul\":9767:9784   */\n      mul\n        /* \"#utility.yul\":9759:9765   */\n      dup4\n        /* \"#utility.yul\":9755:9785   */\n      add\n        /* \"#utility.yul\":9808:9811   */\n      dup6\n        /* \"#utility.yul\":9800:9806   */\n      dup2\n        /* \"#utility.yul\":9797:9812   */\n      gt\n        /* \"#utility.yul\":9794:9916   */\n      iszero\n      tag_371\n      jumpi\n        /* \"#utility.yul\":9827:9906   */\n      tag_372\n      tag_228\n      jump\t// in\n    tag_372:\n        /* \"#utility.yul\":9794:9916   */\n    tag_371:\n        /* \"#utility.yul\":9942:9948   */\n      dup4\n        /* \"#utility.yul\":9925:10145   */\n    tag_373:\n        /* \"#utility.yul\":9959:9965   */\n      dup2\n        /* \"#utility.yul\":9954:9957   */\n      dup2\n        /* \"#utility.yul\":9951:9966   */\n      lt\n        /* \"#utility.yul\":9925:10145   */\n      iszero\n      tag_375\n      jumpi\n        /* \"#utility.yul\":10034:10037   */\n      dup1\n        /* \"#utility.yul\":10063:10100   */\n      tag_376\n        /* \"#utility.yul\":10096:10099   */\n      dup9\n        /* \"#utility.yul\":10084:10094   */\n      dup3\n        /* \"#utility.yul\":10063:10100   */\n      tag_201\n      jump\t// in\n    tag_376:\n        /* \"#utility.yul\":10058:10061   */\n      dup5\n        /* \"#utility.yul\":10051:10101   */\n      mstore\n        /* \"#utility.yul\":10130:10134   */\n      0x20\n        /* \"#utility.yul\":10125:10128   */\n      dup5\n        /* \"#utility.yul\":10121:10135   */\n      add\n        /* \"#utility.yul\":10114:10135   */\n      swap4\n      pop\n        /* \"#utility.yul\":10001:10145   */\n      pop\n        /* \"#utility.yul\":9985:9989   */\n      0x20\n        /* \"#utility.yul\":9980:9983   */\n      dup2\n        /* \"#utility.yul\":9976:9990   */\n      add\n        /* \"#utility.yul\":9969:9990   */\n      swap1\n      pop\n        /* \"#utility.yul\":9925:10145   */\n      jump(tag_373)\n    tag_375:\n        /* \"#utility.yul\":9929:9950   */\n      pop\n        /* \"#utility.yul\":9543:10151   */\n      pop\n      pop\n        /* \"#utility.yul\":9441:10151   */\n      swap4\n      swap3\n      pop\n      pop\n      pop\n      jump\t// out\n        /* \"#utility.yul\":10174:10544   */\n    tag_230:\n        /* \"#utility.yul\":10245:10250   */\n      0x00\n        /* \"#utility.yul\":10294:10297   */\n      dup3\n        /* \"#utility.yul\":10287:10291   */\n      0x1f\n        /* \"#utility.yul\":10279:10285   */\n      dup4\n        /* \"#utility.yul\":10275:10292   */\n      add\n        /* \"#utility.yul\":10271:10298   */\n      slt\n        /* \"#utility.yul\":10261:10383   */\n      tag_378\n      jumpi\n        /* \"#utility.yul\":10302:10381   */\n      tag_379\n      tag_210\n      jump\t// in\n    tag_379:\n        /* \"#utility.yul\":10261:10383   */\n    tag_378:\n        /* \"#utility.yul\":10419:10425   */\n      dup2\n        /* \"#utility.yul\":10406:10426   */\n      calldataload\n        /* \"#utility.yul\":10444:10538   */\n      tag_380\n        /* \"#utility.yul\":10534:10537   */\n      dup5\n        /* \"#utility.yul\":10526:10532   */\n      dup3\n        /* \"#utility.yul\":10519:10523   */\n      0x20\n        /* \"#utility.yul\":10511:10517   */\n      dup7\n        /* \"#utility.yul\":10507:10524   */\n      add\n        /* \"#utility.yul\":10444:10538   */\n      tag_229\n      jump\t// in\n    tag_380:\n        /* \"#utility.yul\":10435:10538   */\n      swap2\n      pop\n        /* \"#utility.yul\":10251:10544   */\n      pop\n        /* \"#utility.yul\":10174:10544   */\n      swap3\n      swap2\n      pop\n      pop\n      jump\t// out\n        /* \"#utility.yul\":10550:11089   */\n    tag_79:\n        /* \"#utility.yul\":10634:10640   */\n      0x00\n        /* \"#utility.yul\":10683:10685   */\n      0x20\n        /* \"#utility.yul\":10671:10680   */\n      dup3\n        /* \"#utility.yul\":10662:10669   */\n      dup5\n        /* \"#utility.yul\":10658:10681   */\n      sub\n        /* \"#utility.yul\":10654:10686   */\n      slt\n        /* \"#utility.yul\":10651:10770   */\n      iszero\n      tag_382\n      jumpi\n        /* \"#utility.yul\":10689:10768   */\n      tag_383\n      tag_193\n      jump\t// in\n    tag_383:\n        /* \"#utility.yul\":10651:10770   */\n    tag_382:\n        /* \"#utility.yul\":10837:10838   */\n      0x00\n        /* \"#utility.yul\":10826:10835   */\n      dup3\n        /* \"#utility.yul\":10822:10839   */\n      add\n        /* \"#utility.yul\":10809:10840   */\n      calldataload\n        /* \"#utility.yul\":10867:10885   */\n      0xffffffffffffffff\n        /* \"#utility.yul\":10859:10865   */\n      dup2\n        /* \"#utility.yul\":10856:10886   */\n      gt\n        /* \"#utility.yul\":10853:10970   */\n      iszero\n      tag_384\n      jumpi\n        /* \"#utility.yul\":10889:10968   */\n      tag_385\n      tag_194\n      jump\t// in\n    tag_385:\n        /* \"#utility.yul\":10853:10970   */\n    tag_384:\n        /* \"#utility.yul\":10994:11072   */\n      tag_386\n        /* \"#utility.yul\":11064:11071   */\n      dup5\n        /* \"#utility.yul\":11055:11061   */\n      dup3\n        /* \"#utility.yul\":11044:11053   */\n      dup6\n        /* \"#utility.yul\":11040:11062   */\n      add\n        /* \"#utility.yul\":10994:11072   */\n      tag_230\n      jump\t// in\n    tag_386:\n        /* \"#utility.yul\":10984:11072   */\n      swap2\n      pop\n        /* \"#utility.yul\":10780:11082   */\n      pop\n        /* \"#utility.yul\":10550:11089   */\n      swap3\n      swap2\n      pop\n      pop\n      jump\t// out\n        /* \"#utility.yul\":11095:11275   */\n    tag_231:\n        /* \"#utility.yul\":11235:11267   */\n      0x596f7520617265206e6f742061207265676973746572656420766f7465720000\n        /* \"#utility.yul\":11231:11232   */\n      0x00\n        /* \"#utility.yul\":11223:11229   */\n      dup3\n        /* \"#utility.yul\":11219:11233   */\n      add\n        /* \"#utility.yul\":11212:11268   */\n      mstore\n        /* \"#utility.yul\":11095:11275   */\n      pop\n      jump\t// out\n        /* \"#utility.yul\":11281:11647   */\n    tag_232:\n        /* \"#utility.yul\":11423:11426   */\n      0x00\n        /* \"#utility.yul\":11444:11511   */\n      tag_389\n        /* \"#utility.yul\":11508:11510   */\n      0x1e\n        /* \"#utility.yul\":11503:11506   */\n      dup4\n        /* \"#utility.yul\":11444:11511   */\n      tag_206\n      jump\t// in\n    tag_389:\n        /* \"#utility.yul\":11437:11511   */\n      swap2\n      pop\n        /* \"#utility.yul\":11520:11613   */\n      tag_390\n        /* \"#utility.yul\":11609:11612   */\n      dup3\n        /* \"#utility.yul\":11520:11613   */\n      tag_231\n      jump\t// in\n    tag_390:\n        /* \"#utility.yul\":11638:11640   */\n      0x20\n        /* \"#utility.yul\":11633:11636   */\n      dup3\n        /* \"#utility.yul\":11629:11641   */\n      add\n        /* \"#utility.yul\":11622:11641   */\n      swap1\n      pop\n        /* \"#utility.yul\":11281:11647   */\n      swap2\n      swap1\n      pop\n      jump\t// out\n        /* \"#utility.yul\":11653:12072   */\n    tag_84:\n        /* \"#utility.yul\":11819:11823   */\n      0x00\n        /* \"#utility.yul\":11857:11859   */\n      0x20\n        /* \"#utility.yul\":11846:11855   */\n      dup3\n        /* \"#utility.yul\":11842:11860   */\n      add\n        /* \"#utility.yul\":11834:11860   */\n      swap1\n      pop\n        /* \"#utility.yul\":11906:11915   */\n      dup2\n        /* \"#utility.yul\":11900:11904   */\n      dup2\n        /* \"#utility.yul\":11896:11916   */\n      sub\n        /* \"#utility.yul\":11892:11893   */\n      0x00\n        /* \"#utility.yul\":11881:11890   */\n      dup4\n        /* \"#utility.yul\":11877:11894   */\n      add\n        /* \"#utility.yul\":11870:11917   */\n      mstore\n        /* \"#utility.yul\":11934:12065   */\n      tag_392\n        /* \"#utility.yul\":12060:12064   */\n      dup2\n        /* \"#utility.yul\":11934:12065   */\n      tag_232\n      jump\t// in\n    tag_392:\n        /* \"#utility.yul\":11926:12065   */\n      swap1\n      pop\n        /* \"#utility.yul\":11653:12072   */\n      swap2\n      swap1\n      pop\n      jump\t// out\n        /* \"#utility.yul\":12078:12250   */\n    tag_233:\n        /* \"#utility.yul\":12218:12242   */\n      0x596f75206861766520616c726561647920766f74656400000000000000000000\n        /* \"#utility.yul\":12214:12215   */\n      0x00\n        /* \"#utility.yul\":12206:12212   */\n      dup3\n        /* \"#utility.yul\":12202:12216   */\n      add\n        /* \"#utility.yul\":12195:12243   */\n      mstore\n        /* \"#utility.yul\":12078:12250   */\n      pop\n      jump\t// out\n        /* \"#utility.yul\":12256:12622   */\n    tag_234:\n        /* \"#utility.yul\":12398:12401   */\n      0x00\n        /* \"#utility.yul\":12419:12486   */\n      tag_395\n        /* \"#utility.yul\":12483:12485   */\n      0x16\n        /* \"#utility.yul\":12478:12481   */\n      dup4\n        /* \"#utility.yul\":12419:12486   */\n      tag_206\n      jump\t// in\n    tag_395:\n        /* \"#utility.yul\":12412:12486   */\n      swap2\n      pop\n        /* \"#utility.yul\":12495:12588   */\n      tag_396\n        /* \"#utility.yul\":12584:12587   */\n      dup3\n        /* \"#utility.yul\":12495:12588   */\n      tag_233\n      jump\t// in\n    tag_396:\n        /* \"#utility.yul\":12613:12615   */\n      0x20\n        /* \"#utility.yul\":12608:12611   */\n      dup3\n        /* \"#utility.yul\":12604:12616   */\n      add\n        /* \"#utility.yul\":12597:12616   */\n      swap1\n      pop\n        /* \"#utility.yul\":12256:12622   */\n      swap2\n      swap1\n      pop\n      jump\t// out\n        /* \"#utility.yul\":12628:13047   */\n    tag_88:\n        /* \"#utility.yul\":12794:12798   */\n      0x00\n        /* \"#utility.yul\":12832:12834   */\n      0x20\n        /* \"#utility.yul\":12821:12830   */\n      dup3\n        /* \"#utility.yul\":12817:12835   */\n      add\n        /* \"#utility.yul\":12809:12835   */\n      swap1\n      pop\n        /* \"#utility.yul\":12881:12890   */\n      dup2\n        /* \"#utility.yul\":12875:12879   */\n      dup2\n        /* \"#utility.yul\":12871:12891   */\n      sub\n        /* \"#utility.yul\":12867:12868   */\n      0x00\n        /* \"#utility.yul\":12856:12865   */\n      dup4\n        /* \"#utility.yul\":12852:12869   */\n      add\n        /* \"#utility.yul\":12845:12892   */\n      mstore\n        /* \"#utility.yul\":12909:13040   */\n      tag_398\n        /* \"#utility.yul\":13035:13039   */\n      dup2\n        /* \"#utility.yul\":12909:13040   */\n      tag_234\n      jump\t// in\n    tag_398:\n        /* \"#utility.yul\":12901:13040   */\n      swap1\n      pop\n        /* \"#utility.yul\":12628:13047   */\n      swap2\n      swap1\n      pop\n      jump\t// out\n        /* \"#utility.yul\":13053:13226   */\n    tag_235:\n        /* \"#utility.yul\":13193:13218   */\n      0x496e76616c69642063616e64696461746520696e646578000000000000000000\n        /* \"#utility.yul\":13189:13190   */\n      0x00\n        /* \"#utility.yul\":13181:13187   */\n      dup3\n        /* \"#utility.yul\":13177:13191   */\n      add\n        /* \"#utility.yul\":13170:13219   */\n      mstore\n        /* \"#utility.yul\":13053:13226   */\n      pop\n      jump\t// out\n        /* \"#utility.yul\":13232:13598   */\n    tag_236:\n        /* \"#utility.yul\":13374:13377   */\n      0x00\n        /* \"#utility.yul\":13395:13462   */\n      tag_401\n        /* \"#utility.yul\":13459:13461   */\n      0x17\n        /* \"#utility.yul\":13454:13457   */\n      dup4\n        /* \"#utility.yul\":13395:13462   */\n      tag_206\n      jump\t// in\n    tag_401:\n        /* \"#utility.yul\":13388:13462   */\n      swap2\n      pop\n        /* \"#utility.yul\":13471:13564   */\n      tag_402\n        /* \"#utility.yul\":13560:13563   */\n      dup3\n        /* \"#utility.yul\":13471:13564   */\n      tag_235\n      jump\t// in\n    tag_402:\n        /* \"#utility.yul\":13589:13591   */\n      0x20\n        /* \"#utility.yul\":13584:13587   */\n      dup3\n        /* \"#utility.yul\":13580:13592   */\n      add\n        /* \"#utility.yul\":13573:13592   */\n      swap1\n      pop\n        /* \"#utility.yul\":13232:13598   */\n      swap2\n      swap1\n      pop\n      jump\t// out\n        /* \"#utility.yul\":13604:14023   */\n    tag_91:\n        /* \"#utility.yul\":13770:13774   */\n      0x00\n        /* \"#utility.yul\":13808:13810   */\n      0x20\n        /* \"#utility.yul\":13797:13806   */\n      dup3\n        /* \"#utility.yul\":13793:13811   */\n      add\n        /* \"#utility.yul\":13785:13811   */\n      swap1\n      pop\n        /* \"#utility.yul\":13857:13866   */\n      dup2\n        /* \"#utility.yul\":13851:13855   */\n      dup2\n        /* \"#utility.yul\":13847:13867   */\n      sub\n        /* \"#utility.yul\":13843:13844   */\n      0x00\n        /* \"#utility.yul\":13832:13841   */\n      dup4\n        /* \"#utility.yul\":13828:13845   */\n      add\n        /* \"#utility.yul\":13821:13868   */\n      mstore\n        /* \"#utility.yul\":13885:14016   */\n      tag_404\n        /* \"#utility.yul\":14011:14015   */\n      dup2\n        /* \"#utility.yul\":13885:14016   */\n      tag_236\n      jump\t// in\n    tag_404:\n        /* \"#utility.yul\":13877:14016   */\n      swap1\n      pop\n        /* \"#utility.yul\":13604:14023   */\n      swap2\n      swap1\n      pop\n      jump\t// out\n        /* \"#utility.yul\":14029:14209   */\n    tag_94:\n        /* \"#utility.yul\":14077:14154   */\n      0x4e487b7100000000000000000000000000000000000000000000000000000000\n        /* \"#utility.yul\":14074:14075   */\n      0x00\n        /* \"#utility.yul\":14067:14155   */\n      mstore\n        /* \"#utility.yul\":14174:14178   */\n      0x32\n        /* \"#utility.yul\":14171:14172   */\n      0x04\n        /* \"#utility.yul\":14164:14179   */\n      mstore\n        /* \"#utility.yul\":14198:14202   */\n      0x24\n        /* \"#utility.yul\":14195:14196   */\n      0x00\n        /* \"#utility.yul\":14188:14203   */\n      revert\n        /* \"#utility.yul\":14215:14395   */\n    tag_237:\n        /* \"#utility.yul\":14263:14340   */\n      0x4e487b7100000000000000000000000000000000000000000000000000000000\n        /* \"#utility.yul\":14260:14261   */\n      0x00\n        /* \"#utility.yul\":14253:14341   */\n      mstore\n        /* \"#utility.yul\":14360:14364   */\n      0x11\n        /* \"#utility.yul\":14357:14358   */\n      0x04\n        /* \"#utility.yul\":14350:14365   */\n      mstore\n        /* \"#utility.yul\":14384:14388   */\n      0x24\n        /* \"#utility.yul\":14381:14382   */\n      0x00\n        /* \"#utility.yul\":14374:14389   */\n      revert\n        /* \"#utility.yul\":14401:14634   */\n    tag_97:\n        /* \"#utility.yul\":14440:14443   */\n      0x00\n        /* \"#utility.yul\":14463:14487   */\n      tag_408\n        /* \"#utility.yul\":14481:14486   */\n      dup3\n        /* \"#utility.yul\":14463:14487   */\n      tag_195\n      jump\t// in\n    tag_408:\n        /* \"#utility.yul\":14454:14487   */\n      swap2\n      pop\n        /* \"#utility.yul\":14509:14575   */\n      0xffffffffffffffffffffffffffffffffffffffffffffffffffffffffffffffff\n        /* \"#utility.yul\":14502:14507   */\n      dup3\n        /* \"#utility.yul\":14499:14576   */\n      sub\n        /* \"#utility.yul\":14496:14599   */\n      tag_409\n      jumpi\n        /* \"#utility.yul\":14579:14597   */\n      tag_410\n      tag_237\n      jump\t// in\n    tag_410:\n        /* \"#utility.yul\":14496:14599   */\n    tag_409:\n        /* \"#utility.yul\":14626:14627   */\n      0x01\n        /* \"#utility.yul\":14619:14624   */\n      dup3\n        /* \"#utility.yul\":14615:14628   */\n      add\n        /* \"#utility.yul\":14608:14628   */\n      swap1\n      pop\n        /* \"#utility.yul\":14401:14634   */\n      swap2\n      swap1\n      pop\n      jump\t// out\n        /* \"#utility.yul\":14640:14820   */\n    tag_238:\n        /* \"#utility.yul\":14688:14765   */\n      0x4e487b7100000000000000000000000000000000000000000000000000000000\n        /* \"#utility.yul\":14685:14686   */\n      0x00\n        /* \"#utility.yul\":14678:14766   */\n      mstore\n        /* \"#utility.yul\":14785:14789   */\n      0x22\n        /* \"#utility.yul\":14782:14783   */\n      0x04\n        /* \"#utility.yul\":14775:14790   */\n      mstore\n        /* \"#utility.yul\":14809:14813   */\n      0x24\n        /* \"#utility.yul\":14806:14807   */\n      0x00\n        /* \"#utility.yul\":14799:14814   */\n      revert\n        /* \"#utility.yul\":14826:15146   */\n    tag_108:\n        /* \"#utility.yul\":14870:14876   */\n      0x00\n        /* \"#utility.yul\":14907:14908   */\n      0x02\n        /* \"#utility.yul\":14901:14905   */\n      dup3\n        /* \"#utility.yul\":14897:14909   */\n      div\n        /* \"#utility.yul\":14887:14909   */\n      swap1\n      pop\n        /* \"#utility.yul\":14954:14955   */\n      0x01\n        /* \"#utility.yul\":14948:14952   */\n      dup3\n        /* \"#utility.yul\":14944:14956   */\n      and\n        /* \"#utility.yul\":14975:14993   */\n      dup1\n        /* \"#utility.yul\":14965:15046   */\n      tag_413\n      jumpi\n        /* \"#utility.yul\":15031:15035   */\n      0x7f\n        /* \"#utility.yul\":15023:15029   */\n      dup3\n        /* \"#utility.yul\":15019:15036   */\n      and\n        /* \"#utility.yul\":15009:15036   */\n      swap2\n      pop\n        /* \"#utility.yul\":14965:15046   */\n    tag_413:\n        /* \"#utility.yul\":15093:15095   */\n      0x20\n        /* \"#utility.yul\":15085:15091   */\n      dup3\n        /* \"#utility.yul\":15082:15096   */\n      lt\n        /* \"#utility.yul\":15062:15080   */\n      dup2\n        /* \"#utility.yul\":15059:15097   */\n      sub\n        /* \"#utility.yul\":15056:15140   */\n      tag_414\n      jumpi\n        /* \"#utility.yul\":15112:15130   */\n      tag_415\n      tag_238\n      jump\t// in\n    tag_415:\n        /* \"#utility.yul\":15056:15140   */\n    tag_414:\n        /* \"#utility.yul\":14877:15146   */\n      pop\n        /* \"#utility.yul\":14826:15146   */\n      swap2\n      swap1\n      pop\n      jump\t// out\n        /* \"#utility.yul\":15152:15293   */\n    tag_239:\n        /* \"#utility.yul\":15201:15205   */\n      0x00\n        /* \"#utility.yul\":15224:15227   */\n      dup2\n        /* \"#utility.yul\":15216:15227   */\n      swap1\n      pop\n        /* \"#utility.yul\":15247:15250   */\n      dup2\n        /* \"#utility.yul\":15244:15245   */\n      0x00\n        /* \"#utility.yul\":15237:15251   */\n      mstore\n        /* \"#utility.yul\":15281:15285   */\n      0x20\n        /* \"#utility.yul\":15278:15279   */\n      0x00\n        /* \"#utility.yul\":15268:15286   */\n      keccak256\n        /* \"#utility.yul\":15260:15286   */\n      swap1\n      pop\n        /* \"#utility.yul\":15152:15293   */\n      swap2\n      swap1\n      pop\n      jump\t// out\n        /* \"#utility.yul\":15323:16154   */\n    tag_240:\n        /* \"#utility.yul\":15408:15411   */\n      0x00\n        /* \"#utility.yul\":15445:15450   */\n      dup2\n        /* \"#utility.yul\":15439:15451   */\n      sload\n        /* \"#utility.yul\":15474:15510   */\n      tag_418\n        /* \"#utility.yul\":15500:15509   */\n      dup2\n        /* \"#utility.yul\":15474:15510   */\n      tag_108\n      jump\t// in\n    tag_418:\n        /* \"#utility.yul\":15526:15597   */\n      tag_419\n        /* \"#utility.yul\":15590:15596   */\n      dup2\n        /* \"#utility.yul\":15585:15588   */\n      dup7\n        /* \"#utility.yul\":15526:15597   */\n      tag_206\n      jump\t// in\n    tag_419:\n        /* \"#utility.yul\":15519:15597   */\n      swap5\n      pop\n        /* \"#utility.yul\":15628:15629   */\n      0x01\n        /* \"#utility.yul\":15617:15626   */\n      dup3\n        /* \"#utility.yul\":15613:15630   */\n      and\n        /* \"#utility.yul\":15644:15645   */\n      0x00\n        /* \"#utility.yul\":15639:15803   */\n      dup2\n      eq\n      tag_421\n      jumpi\n        /* \"#utility.yul\":15817:15818   */\n      0x01\n        /* \"#utility.yul\":15812:16148   */\n      dup2\n      eq\n      tag_422\n      jumpi\n        /* \"#utility.yul\":15606:16148   */\n      jump(tag_420)\n        /* \"#utility.yul\":15639:15803   */\n    tag_421:\n        /* \"#utility.yul\":15723:15727   */\n      0xff\n        /* \"#utility.yul\":15719:15728   */\n      not\n        /* \"#utility.yul\":15708:15717   */\n      dup4\n        /* \"#utility.yul\":15704:15729   */\n      and\n        /* \"#utility.yul\":15699:15702   */\n      dup7\n        /* \"#utility.yul\":15692:15730   */\n      mstore\n        /* \"#utility.yul\":15783:15789   */\n      dup2\n        /* \"#utility.yul\":15776:15790   */\n      iszero\n        /* \"#utility.yul\":15769:15791   */\n      iszero\n        /* \"#utility.yul\":15763:15767   */\n      0x20\n        /* \"#utility.yul\":15759:15792   */\n      mul\n        /* \"#utility.yul\":15754:15757   */\n      dup7\n        /* \"#utility.yul\":15750:15793   */\n      add\n        /* \"#utility.yul\":15743:15793   */\n      swap4\n      pop\n        /* \"#utility.yul\":15639:15803   */\n      jump(tag_420)\n        /* \"#utility.yul\":15812:16148   */\n    tag_422:\n        /* \"#utility.yul\":15879:15917   */\n      tag_423\n        /* \"#utility.yul\":15911:15916   */\n      dup6\n        /* \"#utility.yul\":15879:15917   */\n      tag_239\n      jump\t// in\n    tag_423:\n        /* \"#utility.yul\":15939:15940   */\n      0x00\n        /* \"#utility.yul\":15953:16107   */\n    tag_424:\n        /* \"#utility.yul\":15967:15973   */\n      dup4\n        /* \"#utility.yul\":15964:15965   */\n      dup2\n        /* \"#utility.yul\":15961:15974   */\n      lt\n        /* \"#utility.yul\":15953:16107   */\n      iszero\n      tag_426\n      jumpi\n        /* \"#utility.yul\":16041:16048   */\n      dup2\n        /* \"#utility.yul\":16035:16049   */\n      sload\n        /* \"#utility.yul\":16031:16032   */\n      dup2\n        /* \"#utility.yul\":16026:16029   */\n      dup10\n        /* \"#utility.yul\":16022:16033   */\n      add\n        /* \"#utility.yul\":16015:16050   */\n      mstore\n        /* \"#utility.yul\":16091:16092   */\n      0x01\n        /* \"#utility.yul\":16082:16089   */\n      dup3\n        /* \"#utility.yul\":16078:16093   */\n      add\n        /* \"#utility.yul\":16067:16093   */\n      swap2\n      pop\n        /* \"#utility.yul\":15989:15993   */\n      0x20\n        /* \"#utility.yul\":15986:15987   */\n      dup2\n        /* \"#utility.yul\":15982:15994   */\n      add\n        /* \"#utility.yul\":15977:15994   */\n      swap1\n      pop\n        /* \"#utility.yul\":15953:16107   */\n      jump(tag_424)\n    tag_426:\n        /* \"#utility.yul\":16136:16137   */\n      dup1\n        /* \"#utility.yul\":16131:16134   */\n      dup9\n        /* \"#utility.yul\":16127:16138   */\n      add\n        /* \"#utility.yul\":16120:16138   */\n      swap6\n      pop\n        /* \"#utility.yul\":15819:16148   */\n      pop\n      pop\n        /* \"#utility.yul\":15606:16148   */\n    tag_420:\n      pop\n        /* \"#utility.yul\":15412:16154   */\n      pop\n      pop\n        /* \"#utility.yul\":15323:16154   */\n      swap3\n      swap2\n      pop\n      pop\n      jump\t// out\n        /* \"#utility.yul\":16160:16577   */\n    tag_102:\n        /* \"#utility.yul\":16298:16302   */\n      0x00\n        /* \"#utility.yul\":16336:16338   */\n      0x40\n        /* \"#utility.yul\":16325:16334   */\n      dup3\n        /* \"#utility.yul\":16321:16339   */\n      add\n        /* \"#utility.yul\":16313:16339   */\n      swap1\n      pop\n        /* \"#utility.yul\":16385:16394   */\n      dup2\n        /* \"#utility.yul\":16379:16383   */\n      dup2\n        /* \"#utility.yul\":16375:16395   */\n      sub\n        /* \"#utility.yul\":16371:16372   */\n      0x00\n        /* \"#utility.yul\":16360:16369   */\n      dup4\n        /* \"#utility.yul\":16356:16373   */\n      add\n        /* \"#utility.yul\":16349:16396   */\n      mstore\n        /* \"#utility.yul\":16413:16488   */\n      tag_428\n        /* \"#utility.yul\":16483:16487   */\n      dup2\n        /* \"#utility.yul\":16474:16480   */\n      dup6\n        /* \"#utility.yul\":16413:16488   */\n      tag_240\n      jump\t// in\n    tag_428:\n        /* \"#utility.yul\":16405:16488   */\n      swap1\n      pop\n        /* \"#utility.yul\":16498:16570   */\n      tag_429\n        /* \"#utility.yul\":16566:16568   */\n      0x20\n        /* \"#utility.yul\":16555:16564   */\n      dup4\n        /* \"#utility.yul\":16551:16569   */\n      add\n        /* \"#utility.yul\":16542:16548   */\n      dup5\n        /* \"#utility.yul\":16498:16570   */\n      tag_204\n      jump\t// in\n    tag_429:\n        /* \"#utility.yul\":16160:16577   */\n      swap4\n      swap3\n      pop\n      pop\n      pop\n      jump\t// out\n        /* \"#utility.yul\":16583:16752   */\n    tag_241:\n        /* \"#utility.yul\":16723:16744   */\n      0x496e646578206f7574206f6620626f756e647300000000000000000000000000\n        /* \"#utility.yul\":16719:16720   */\n      0x00\n        /* \"#utility.yul\":16711:16717   */\n      dup3\n        /* \"#utility.yul\":16707:16721   */\n      add\n        /* \"#utility.yul\":16700:16745   */\n      mstore\n        /* \"#utility.yul\":16583:16752   */\n      pop\n      jump\t// out\n        /* \"#utility.yul\":16758:17124   */\n    tag_242:\n        /* \"#utility.yul\":16900:16903   */\n      0x00\n        /* \"#utility.yul\":16921:16988   */\n      tag_432\n        /* \"#utility.yul\":16985:16987   */\n      0x13\n        /* \"#utility.yul\":16980:16983   */\n      dup4\n        /* \"#utility.yul\":16921:16988   */\n      tag_206\n      jump\t// in\n    tag_432:\n        /* \"#utility.yul\":16914:16988   */\n      swap2\n      pop\n        /* \"#utility.yul\":16997:17090   */\n      tag_433\n        /* \"#utility.yul\":17086:17089   */\n      dup3\n        /* \"#utility.yul\":16997:17090   */\n      tag_241\n      jump\t// in\n    tag_433:\n        /* \"#utility.yul\":17115:17117   */\n      0x20\n        /* \"#utility.yul\":17110:17113   */\n      dup3\n        /* \"#utility.yul\":17106:17118   */\n      add\n        /* \"#utility.yul\":17099:17118   */\n      swap1\n      pop\n        /* \"#utility.yul\":16758:17124   */\n      swap2\n      swap1\n      pop\n      jump\t// out\n        /* \"#utility.yul\":17130:17549   */\n    tag_116:\n        /* \"#utility.yul\":17296:17300   */\n      0x00\n        /* \"#utility.yul\":17334:17336   */\n      0x20\n        /* \"#utility.yul\":17323:17332   */\n      dup3\n        /* \"#utility.yul\":17319:17337   */\n      add\n        /* \"#utility.yul\":17311:17337   */\n      swap1\n      pop\n        /* \"#utility.yul\":17383:17392   */\n      dup2\n        /* \"#utility.yul\":17377:17381   */\n      dup2\n        /* \"#utility.yul\":17373:17393   */\n      sub\n        /* \"#utility.yul\":17369:17370   */\n      0x00\n        /* \"#utility.yul\":17358:17367   */\n      dup4\n        /* \"#utility.yul\":17354:17371   */\n      add\n        /* \"#utility.yul\":17347:17394   */\n      mstore\n        /* \"#utility.yul\":17411:17542   */\n      tag_435\n        /* \"#utility.yul\":17537:17541   */\n      dup2\n        /* \"#utility.yul\":17411:17542   */\n      tag_242\n      jump\t// in\n    tag_435:\n        /* \"#utility.yul\":17403:17542   */\n      swap1\n      pop\n        /* \"#utility.yul\":17130:17549   */\n      swap2\n      swap1\n      pop\n      jump\t// out\n        /* \"#utility.yul\":17555:17776   */\n    tag_243:\n        /* \"#utility.yul\":17695:17729   */\n      0x4f6e6c79206f776e65722063616e20706572666f726d20746869732061637469\n        /* \"#utility.yul\":17691:17692   */\n      0x00\n        /* \"#utility.yul\":17683:17689   */\n      dup3\n        /* \"#utility.yul\":17679:17693   */\n      add\n        /* \"#utility.yul\":17672:17730   */\n      mstore\n        /* \"#utility.yul\":17764:17768   */\n      0x6f6e000000000000000000000000000000000000000000000000000000000000\n        /* \"#utility.yul\":17759:17761   */\n      0x20\n        /* \"#utility.yul\":17751:17757   */\n      dup3\n        /* \"#utility.yul\":17747:17762   */\n      add\n        /* \"#utility.yul\":17740:17769   */\n      mstore\n        /* \"#utility.yul\":17555:17776   */\n      pop\n      jump\t// out\n        /* \"#utility.yul\":17782:18148   */\n    tag_244:\n        /* \"#utility.yul\":17924:17927   */\n      0x00\n        /* \"#utility.yul\":17945:18012   */\n      tag_438\n        /* \"#utility.yul\":18009:18011   */\n      0x22\n        /* \"#utility.yul\":18004:18007   */\n      dup4\n        /* \"#utility.yul\":17945:18012   */\n      tag_206\n      jump\t// in\n    tag_438:\n        /* \"#utility.yul\":17938:18012   */\n      swap2\n      pop\n        /* \"#utility.yul\":18021:18114   */\n      tag_439\n        /* \"#utility.yul\":18110:18113   */\n      dup3\n        /* \"#utility.yul\":18021:18114   */\n      tag_243\n      jump\t// in\n    tag_439:\n        /* \"#utility.yul\":18139:18141   */\n      0x40\n        /* \"#utility.yul\":18134:18137   */\n      dup3\n        /* \"#utility.yul\":18130:18142   */\n      add\n        /* \"#utility.yul\":18123:18142   */\n      swap1\n      pop\n        /* \"#utility.yul\":17782:18148   */\n      swap2\n      swap1\n      pop\n      jump\t// out\n        /* \"#utility.yul\":18154:18573   */\n    tag_128:\n        /* \"#utility.yul\":18320:18324   */\n      0x00\n        /* \"#utility.yul\":18358:18360   */\n      0x20\n        /* \"#utility.yul\":18347:18356   */\n      dup3\n        /* \"#utility.yul\":18343:18361   */\n      add\n        /* \"#utility.yul\":18335:18361   */\n      swap1\n      pop\n        /* \"#utility.yul\":18407:18416   */\n      dup2\n        /* \"#utility.yul\":18401:18405   */\n      dup2\n        /* \"#utility.yul\":18397:18417   */\n      sub\n        /* \"#utility.yul\":18393:18394   */\n      0x00\n        /* \"#utility.yul\":18382:18391   */\n      dup4\n        /* \"#utility.yul\":18378:18395   */\n      add\n        /* \"#utility.yul\":18371:18418   */\n      mstore\n        /* \"#utility.yul\":18435:18566   */\n      tag_441\n        /* \"#utility.yul\":18561:18565   */\n      dup2\n        /* \"#utility.yul\":18435:18566   */\n      tag_244\n      jump\t// in\n    tag_441:\n        /* \"#utility.yul\":18427:18566   */\n      swap1\n      pop\n        /* \"#utility.yul\":18154:18573   */\n      swap2\n      swap1\n      pop\n      jump\t// out\n        /* \"#utility.yul\":18579:18753   */\n    tag_245:\n        /* \"#utility.yul\":18719:18745   */\n      0x566f74657220616c726561647920726567697374657265640000000000000000\n        /* \"#utility.yul\":18715:18716   */\n      0x00\n        /* \"#utility.yul\":18707:18713   */\n      dup3\n        /* \"#utility.yul\":18703:18717   */\n      add\n        /* \"#utility.yul\":18696:18746   */\n      mstore\n        /* \"#utility.yul\":18579:18753   */\n      pop\n      jump\t// out\n        /* \"#utility.yul\":18759:19125   */\n    tag_246:\n        /* \"#utility.yul\":18901:18904   */\n      0x00\n        /* \"#utility.yul\":18922:18989   */\n      tag_444\n        /* \"#utility.yul\":18986:18988   */\n      0x18\n        /* \"#utility.yul\":18981:18984   */\n      dup4\n        /* \"#utility.yul\":18922:18989   */\n      tag_206\n      jump\t// in\n    tag_444:\n        /* \"#utility.yul\":18915:18989   */\n      swap2\n      pop\n        /* \"#utility.yul\":18998:19091   */\n      tag_445\n        /* \"#utility.yul\":19087:19090   */\n      dup3\n        /* \"#utility.yul\":18998:19091   */\n      tag_245\n      jump\t// in\n    tag_445:\n        /* \"#utility.yul\":19116:19118   */\n      0x20\n        /* \"#utility.yul\":19111:19114   */\n      dup3\n        /* \"#utility.yul\":19107:19119   */\n      add\n        /* \"#utility.yul\":19100:19119   */\n      swap1\n      pop\n        /* \"#utility.yul\":18759:19125   */\n      swap2\n      swap1\n      pop\n      jump\t// out\n        /* \"#utility.yul\":19131:19550   */\n    tag_132:\n        /* \"#utility.yul\":19297:19301   */\n      0x00\n        /* \"#utility.yul\":19335:19337   */\n      0x20\n        /* \"#utility.yul\":19324:19333   */\n      dup3\n        /* \"#utility.yul\":19320:19338   */\n      add\n        /* \"#utility.yul\":19312:19338   */\n      swap1\n      pop\n        /* \"#utility.yul\":19384:19393   */\n      dup2\n        /* \"#utility.yul\":19378:19382   */\n      dup2\n        /* \"#utility.yul\":19374:19394   */\n      sub\n        /* \"#utility.yul\":19370:19371   */\n      0x00\n        /* \"#utility.yul\":19359:19368   */\n      dup4\n        /* \"#utility.yul\":19355:19372   */\n      add\n        /* \"#utility.yul\":19348:19395   */\n      mstore\n        /* \"#utility.yul\":19412:19543   */\n      tag_447\n        /* \"#utility.yul\":19538:19542   */\n      dup2\n        /* \"#utility.yul\":19412:19543   */\n      tag_246\n      jump\t// in\n    tag_447:\n        /* \"#utility.yul\":19404:19543   */\n      swap1\n      pop\n        /* \"#utility.yul\":19131:19550   */\n      swap2\n      swap1\n      pop\n      jump\t// out\n        /* \"#utility.yul\":19556:19649   */\n    tag_247:\n        /* \"#utility.yul\":19593:19599   */\n      0x00\n        /* \"#utility.yul\":19640:19642   */\n      0x20\n        /* \"#utility.yul\":19635:19637   */\n      0x1f\n        /* \"#utility.yul\":19628:19633   */\n      dup4\n        /* \"#utility.yul\":19624:19638   */\n      add\n        /* \"#utility.yul\":19620:19643   */\n      div\n        /* \"#utility.yul\":19610:19643   */\n      swap1\n      pop\n        /* \"#utility.yul\":19556:19649   */\n      swap2\n      swap1\n      pop\n      jump\t// out\n        /* \"#utility.yul\":19655:19762   */\n    tag_248:\n        /* \"#utility.yul\":19699:19707   */\n      0x00\n        /* \"#utility.yul\":19749:19754   */\n      dup3\n        /* \"#utility.yul\":19743:19747   */\n      dup3\n        /* \"#utility.yul\":19739:19755   */\n      shl\n        /* \"#utility.yul\":19718:19755   */\n      swap1\n      pop\n        /* \"#utility.yul\":19655:19762   */\n      swap3\n      swap2\n      pop\n      pop\n      jump\t// out\n        /* \"#utility.yul\":19768:20161   */\n    tag_249:\n        /* \"#utility.yul\":19837:19843   */\n      0x00\n        /* \"#utility.yul\":19887:19888   */\n      0x08\n        /* \"#utility.yul\":19875:19885   */\n      dup4\n        /* \"#utility.yul\":19871:19889   */\n      mul\n        /* \"#utility.yul\":19910:20007   */\n      tag_451\n        /* \"#utility.yul\":19940:20006   */\n      0xffffffffffffffffffffffffffffffffffffffffffffffffffffffffffffffff\n        /* \"#utility.yul\":19929:19938   */\n      dup3\n        /* \"#utility.yul\":19910:20007   */\n      tag_248\n      jump\t// in\n    tag_451:\n        /* \"#utility.yul\":20028:20067   */\n      tag_452\n        /* \"#utility.yul\":20058:20066   */\n      dup7\n        /* \"#utility.yul\":20047:20056   */\n      dup4\n        /* \"#utility.yul\":20028:20067   */\n      tag_248\n      jump\t// in\n    tag_452:\n        /* \"#utility.yul\":20016:20067   */\n      swap6\n      pop\n        /* \"#utility.yul\":20100:20104   */\n      dup1\n        /* \"#utility.yul\":20096:20105   */\n      not\n        /* \"#utility.yul\":20089:20094   */\n      dup5\n        /* \"#utility.yul\":20085:20106   */\n      and\n        /* \"#utility.yul\":20076:20106   */\n      swap4\n      pop\n        /* \"#utility.yul\":20149:20153   */\n      dup1\n        /* \"#utility.yul\":20139:20147   */\n      dup7\n        /* \"#utility.yul\":20135:20154   */\n      and\n        /* \"#utility.yul\":20128:20133   */\n      dup5\n        /* \"#utility.yul\":20125:20155   */\n      or\n        /* \"#utility.yul\":20115:20155   */\n      swap3\n      pop\n        /* \"#utility.yul\":19844:20161   */\n      pop\n      pop\n        /* \"#utility.yul\":19768:20161   */\n      swap4\n      swap3\n      pop\n      pop\n      pop\n      jump\t// out\n        /* \"#utility.yul\":20167:20227   */\n    tag_250:\n        /* \"#utility.yul\":20195:20198   */\n      0x00\n        /* \"#utility.yul\":20216:20221   */\n      dup2\n        /* \"#utility.yul\":20209:20221   */\n      swap1\n      pop\n        /* \"#utility.yul\":20167:20227   */\n      swap2\n      swap1\n      pop\n      jump\t// out\n        /* \"#utility.yul\":20233:20375   */\n    tag_251:\n        /* \"#utility.yul\":20283:20292   */\n      0x00\n        /* \"#utility.yul\":20316:20369   */\n      tag_455\n        /* \"#utility.yul\":20334:20368   */\n      tag_456\n        /* \"#utility.yul\":20343:20367   */\n      tag_457\n        /* \"#utility.yul\":20361:20366   */\n      dup5\n        /* \"#utility.yul\":20343:20367   */\n      tag_195\n      jump\t// in\n    tag_457:\n        /* \"#utility.yul\":20334:20368   */\n      tag_250\n      jump\t// in\n    tag_456:\n        /* \"#utility.yul\":20316:20369   */\n      tag_195\n      jump\t// in\n    tag_455:\n        /* \"#utility.yul\":20303:20369   */\n      swap1\n      pop\n        /* \"#utility.yul\":20233:20375   */\n      swap2\n      swap1\n      pop\n      jump\t// out\n        /* \"#utility.yul\":20381:20456   */\n    tag_252:\n        /* \"#utility.yul\":20424:20427   */\n      0x00\n        /* \"#utility.yul\":20445:20450   */\n      dup2\n        /* \"#utility.yul\":20438:20450   */\n      swap1\n      pop\n        /* \"#utility.yul\":20381:20456   */\n      swap2\n      swap1\n      pop\n      jump\t// out\n        /* \"#utility.yul\":20462:20731   */\n    tag_253:\n        /* \"#utility.yul\":20572:20611   */\n      tag_460\n        /* \"#utility.yul\":20603:20610   */\n      dup4\n        /* \"#utility.yul\":20572:20611   */\n      tag_251\n      jump\t// in\n    tag_460:\n        /* \"#utility.yul\":20633:20724   */\n      tag_461\n        /* \"#utility.yul\":20682:20723   */\n      tag_462\n        /* \"#utility.yul\":20706:20722   */\n      dup3\n        /* \"#utility.yul\":20682:20723   */\n      tag_252\n      jump\t// in\n    tag_462:\n        /* \"#utility.yul\":20674:20680   */\n      dup5\n        /* \"#utility.yul\":20667:20671   */\n      dup5\n        /* \"#utility.yul\":20661:20672   */\n      sload\n        /* \"#utility.yul\":20633:20724   */\n      tag_249\n      jump\t// in\n    tag_461:\n        /* \"#utility.yul\":20627:20631   */\n      dup3\n        /* \"#utility.yul\":20620:20725   */\n      sstore\n        /* \"#utility.yul\":20538:20731   */\n      pop\n        /* \"#utility.yul\":20462:20731   */\n      pop\n      pop\n      pop\n      jump\t// out\n        /* \"#utility.yul\":20737:20810   */\n    tag_254:\n        /* \"#utility.yul\":20782:20785   */\n      0x00\n        /* \"#utility.yul\":20803:20804   */\n      0x00\n        /* \"#utility.yul\":20796:20804   */\n      swap1\n      pop\n        /* \"#utility.yul\":20737:20810   */\n      swap1\n      jump\t// out\n        /* \"#utility.yul\":20816:21005   */\n    tag_255:\n        /* \"#utility.yul\":20893:20925   */\n      tag_465\n      tag_254\n      jump\t// in\n    tag_465:\n        /* \"#utility.yul\":20934:20999   */\n      tag_466\n        /* \"#utility.yul\":20992:20998   */\n      dup2\n        /* \"#utility.yul\":20984:20990   */\n      dup5\n        /* \"#utility.yul\":20978:20982   */\n      dup5\n        /* \"#utility.yul\":20934:20999   */\n      tag_253\n      jump\t// in\n    tag_466:\n        /* \"#utility.yul\":20869:21005   */\n      pop\n        /* \"#utility.yul\":20816:21005   */\n      pop\n      pop\n      jump\t// out\n        /* \"#utility.yul\":21011:21225   */\n    tag_256:\n        /* \"#utility.yul\":21096:21097   */\n      0x00\n        /* \"#utility.yul\":21081:21219   */\n    tag_468:\n        /* \"#utility.yul\":21106:21115   */\n      dup3\n        /* \"#utility.yul\":21103:21104   */\n      dup2\n        /* \"#utility.yul\":21100:21116   */\n      lt\n        /* \"#utility.yul\":21081:21219   */\n      iszero\n      tag_470\n      jumpi\n        /* \"#utility.yul\":21158:21209   */\n      tag_471\n        /* \"#utility.yul\":21207:21208   */\n      0x00\n        /* \"#utility.yul\":21203:21204   */\n      dup3\n        /* \"#utility.yul\":21192:21201   */\n      dup5\n        /* \"#utility.yul\":21188:21205   */\n      add\n        /* \"#utility.yul\":21158:21209   */\n      tag_255\n      jump\t// in\n    tag_471:\n        /* \"#utility.yul\":21131:21132   */\n      0x01\n        /* \"#utility.yul\":21128:21129   */\n      dup2\n        /* \"#utility.yul\":21124:21133   */\n      add\n        /* \"#utility.yul\":21119:21133   */\n      swap1\n      pop\n        /* \"#utility.yul\":21081:21219   */\n      jump(tag_468)\n    tag_470:\n        /* \"#utility.yul\":21085:21099   */\n      pop\n        /* \"#utility.yul\":21011:21225   */\n      pop\n      pop\n      jump\t// out\n        /* \"#utility.yul\":21231:21977   */\n    tag_257:\n        /* \"#utility.yul\":21332:21334   */\n      0x1f\n        /* \"#utility.yul\":21327:21330   */\n      dup3\n        /* \"#utility.yul\":21324:21335   */\n      gt\n        /* \"#utility.yul\":21321:21970   */\n      iszero\n      tag_473\n      jumpi\n        /* \"#utility.yul\":21361:21371   */\n      dup3\n        /* \"#utility.yul\":21356:21359   */\n      dup3\n        /* \"#utility.yul\":21353:21372   */\n      gt\n        /* \"#utility.yul\":21350:21960   */\n      iszero\n      tag_474\n      jumpi\n        /* \"#utility.yul\":21407:21445   */\n      tag_475\n        /* \"#utility.yul\":21439:21444   */\n      dup2\n        /* \"#utility.yul\":21407:21445   */\n      tag_239\n      jump\t// in\n    tag_475:\n        /* \"#utility.yul\":21482:21504   */\n      tag_476\n        /* \"#utility.yul\":21500:21503   */\n      dup4\n        /* \"#utility.yul\":21482:21504   */\n      tag_247\n      jump\t// in\n    tag_476:\n        /* \"#utility.yul\":21541:21570   */\n      tag_477\n        /* \"#utility.yul\":21559:21569   */\n      dup6\n        /* \"#utility.yul\":21541:21570   */\n      tag_247\n      jump\t// in\n    tag_477:\n        /* \"#utility.yul\":21731:21733   */\n      0x20\n        /* \"#utility.yul\":21719:21729   */\n      dup7\n        /* \"#utility.yul\":21716:21734   */\n      lt\n        /* \"#utility.yul\":21713:21792   */\n      iszero\n      tag_478\n      jumpi\n        /* \"#utility.yul\":21773:21774   */\n      0x00\n        /* \"#utility.yul\":21757:21774   */\n      swap1\n      pop\n        /* \"#utility.yul\":21713:21792   */\n    tag_478:\n        /* \"#utility.yul\":21842:21854   */\n      dup1\n        /* \"#utility.yul\":21832:21840   */\n      dup4\n        /* \"#utility.yul\":21828:21855   */\n      add\n        /* \"#utility.yul\":21872:21946   */\n      tag_479\n        /* \"#utility.yul\":21932:21944   */\n      dup3\n        /* \"#utility.yul\":21918:21930   */\n      dup5\n        /* \"#utility.yul\":21914:21945   */\n      sub\n        /* \"#utility.yul\":21901:21912   */\n      dup3\n        /* \"#utility.yul\":21872:21946   */\n      tag_256\n      jump\t// in\n    tag_479:\n        /* \"#utility.yul\":21373:21960   */\n      pop\n      pop\n      pop\n      pop\n        /* \"#utility.yul\":21350:21960   */\n    tag_474:\n        /* \"#utility.yul\":21321:21970   */\n    tag_473:\n        /* \"#utility.yul\":21231:21977   */\n      pop\n      pop\n      pop\n      jump\t// out\n        /* \"#utility.yul\":21983:22100   */\n    tag_258:\n        /* \"#utility.yul\":22037:22045   */\n      0x00\n        /* \"#utility.yul\":22087:22092   */\n      dup3\n        /* \"#utility.yul\":22081:22085   */\n      dup3\n        /* \"#utility.yul\":22077:22093   */\n      shr\n        /* \"#utility.yul\":22056:22093   */\n      swap1\n      pop\n        /* \"#utility.yul\":21983:22100   */\n      swap3\n      swap2\n      pop\n      pop\n      jump\t// out\n        /* \"#utility.yul\":22106:22275   */\n    tag_259:\n        /* \"#utility.yul\":22150:22156   */\n      0x00\n        /* \"#utility.yul\":22183:22234   */\n      tag_482\n        /* \"#utility.yul\":22231:22232   */\n      0x00\n        /* \"#utility.yul\":22227:22233   */\n      not\n        /* \"#utility.yul\":22219:22224   */\n      dup5\n        /* \"#utility.yul\":22216:22217   */\n      0x08\n        /* \"#utility.yul\":22212:22225   */\n      mul\n        /* \"#utility.yul\":22183:22234   */\n      tag_258\n      jump\t// in\n    tag_482:\n        /* \"#utility.yul\":22179:22235   */\n      not\n        /* \"#utility.yul\":22264:22268   */\n      dup1\n        /* \"#utility.yul\":22258:22262   */\n      dup4\n        /* \"#utility.yul\":22254:22269   */\n      and\n        /* \"#utility.yul\":22244:22269   */\n      swap2\n      pop\n        /* \"#utility.yul\":22157:22275   */\n      pop\n        /* \"#utility.yul\":22106:22275   */\n      swap3\n      swap2\n      pop\n      pop\n      jump\t// out\n        /* \"#utility.yul\":22280:22575   */\n    tag_260:\n        /* \"#utility.yul\":22356:22360   */\n      0x00\n        /* \"#utility.yul\":22502:22531   */\n      tag_484\n        /* \"#utility.yul\":22527:22530   */\n      dup4\n        /* \"#utility.yul\":22521:22525   */\n      dup4\n        /* \"#utility.yul\":22502:22531   */\n      tag_259\n      jump\t// in\n    tag_484:\n        /* \"#utility.yul\":22494:22531   */\n      swap2\n      pop\n        /* \"#utility.yul\":22564:22567   */\n      dup3\n        /* \"#utility.yul\":22561:22562   */\n      0x02\n        /* \"#utility.yul\":22557:22568   */\n      mul\n        /* \"#utility.yul\":22551:22555   */\n      dup3\n        /* \"#utility.yul\":22548:22569   */\n      or\n        /* \"#utility.yul\":22540:22569   */\n      swap1\n      pop\n        /* \"#utility.yul\":22280:22575   */\n      swap3\n      swap2\n      pop\n      pop\n      jump\t// out\n        /* \"#utility.yul\":22580:23975   */\n    tag_140:\n        /* \"#utility.yul\":22697:22734   */\n      tag_486\n        /* \"#utility.yul\":22730:22733   */\n      dup3\n        /* \"#utility.yul\":22697:22734   */\n      tag_205\n      jump\t// in\n    tag_486:\n        /* \"#utility.yul\":22799:22817   */\n      0xffffffffffffffff\n        /* \"#utility.yul\":22791:22797   */\n      dup2\n        /* \"#utility.yul\":22788:22818   */\n      gt\n        /* \"#utility.yul\":22785:22841   */\n      iszero\n      tag_487\n      jumpi\n        /* \"#utility.yul\":22821:22839   */\n      tag_488\n      tag_212\n      jump\t// in\n    tag_488:\n        /* \"#utility.yul\":22785:22841   */\n    tag_487:\n        /* \"#utility.yul\":22865:22903   */\n      tag_489\n        /* \"#utility.yul\":22897:22901   */\n      dup3\n        /* \"#utility.yul\":22891:22902   */\n      sload\n        /* \"#utility.yul\":22865:22903   */\n      tag_108\n      jump\t// in\n    tag_489:\n        /* \"#utility.yul\":22950:23017   */\n      tag_490\n        /* \"#utility.yul\":23010:23016   */\n      dup3\n        /* \"#utility.yul\":23002:23008   */\n      dup3\n        /* \"#utility.yul\":22996:23000   */\n      dup6\n        /* \"#utility.yul\":22950:23017   */\n      tag_257\n      jump\t// in\n    tag_490:\n        /* \"#utility.yul\":23044:23045   */\n      0x00\n        /* \"#utility.yul\":23068:23072   */\n      0x20\n        /* \"#utility.yul\":23055:23072   */\n      swap1\n      pop\n        /* \"#utility.yul\":23100:23102   */\n      0x1f\n        /* \"#utility.yul\":23092:23098   */\n      dup4\n        /* \"#utility.yul\":23089:23103   */\n      gt\n        /* \"#utility.yul\":23117:23118   */\n      0x01\n        /* \"#utility.yul\":23112:23730   */\n      dup2\n      eq\n      tag_492\n      jumpi\n        /* \"#utility.yul\":23774:23775   */\n      0x00\n        /* \"#utility.yul\":23791:23797   */\n      dup5\n        /* \"#utility.yul\":23788:23865   */\n      iszero\n      tag_493\n      jumpi\n        /* \"#utility.yul\":23840:23849   */\n      dup3\n        /* \"#utility.yul\":23835:23838   */\n      dup8\n        /* \"#utility.yul\":23831:23850   */\n      add\n        /* \"#utility.yul\":23825:23851   */\n      mload\n        /* \"#utility.yul\":23816:23851   */\n      swap1\n      pop\n        /* \"#utility.yul\":23788:23865   */\n    tag_493:\n        /* \"#utility.yul\":23891:23958   */\n      tag_494\n        /* \"#utility.yul\":23951:23957   */\n      dup6\n        /* \"#utility.yul\":23944:23949   */\n      dup3\n        /* \"#utility.yul\":23891:23958   */\n      tag_260\n      jump\t// in\n    tag_494:\n        /* \"#utility.yul\":23885:23889   */\n      dup7\n        /* \"#utility.yul\":23878:23959   */\n      sstore\n        /* \"#utility.yul\":23747:23969   */\n      pop\n        /* \"#utility.yul\":23082:23969   */\n      jump(tag_491)\n        /* \"#utility.yul\":23112:23730   */\n    tag_492:\n        /* \"#utility.yul\":23164:23168   */\n      0x1f\n        /* \"#utility.yul\":23160:23169   */\n      not\n        /* \"#utility.yul\":23152:23158   */\n      dup5\n        /* \"#utility.yul\":23148:23170   */\n      and\n        /* \"#utility.yul\":23198:23235   */\n      tag_495\n        /* \"#utility.yul\":23230:23234   */\n      dup7\n        /* \"#utility.yul\":23198:23235   */\n      tag_239\n      jump\t// in\n    tag_495:\n        /* \"#utility.yul\":23257:23258   */\n      0x00\n        /* \"#utility.yul\":23271:23479   */\n    tag_496:\n        /* \"#utility.yul\":23285:23292   */\n      dup3\n        /* \"#utility.yul\":23282:23283   */\n      dup2\n        /* \"#utility.yul\":23279:23293   */\n      lt\n        /* \"#utility.yul\":23271:23479   */\n      iszero\n      tag_498\n      jumpi\n        /* \"#utility.yul\":23364:23373   */\n      dup5\n        /* \"#utility.yul\":23359:23362   */\n      dup10\n        /* \"#utility.yul\":23355:23374   */\n      add\n        /* \"#utility.yul\":23349:23375   */\n      mload\n        /* \"#utility.yul\":23341:23347   */\n      dup3\n        /* \"#utility.yul\":23334:23376   */\n      sstore\n        /* \"#utility.yul\":23415:23416   */\n      0x01\n        /* \"#utility.yul\":23407:23413   */\n      dup3\n        /* \"#utility.yul\":23403:23417   */\n      add\n        /* \"#utility.yul\":23393:23417   */\n      swap2\n      pop\n        /* \"#utility.yul\":23462:23464   */\n      0x20\n        /* \"#utility.yul\":23451:23460   */\n      dup6\n        /* \"#utility.yul\":23447:23465   */\n      add\n        /* \"#utility.yul\":23434:23465   */\n      swap5\n      pop\n        /* \"#utility.yul\":23308:23312   */\n      0x20\n        /* \"#utility.yul\":23305:23306   */\n      dup2\n        /* \"#utility.yul\":23301:23313   */\n      add\n        /* \"#utility.yul\":23296:23313   */\n      swap1\n      pop\n        /* \"#utility.yul\":23271:23479   */\n      jump(tag_496)\n    tag_498:\n        /* \"#utility.yul\":23507:23513   */\n      dup7\n        /* \"#utility.yul\":23498:23505   */\n      dup4\n        /* \"#utility.yul\":23495:23514   */\n      lt\n        /* \"#utility.yul\":23492:23671   */\n      iszero\n      tag_499\n      jumpi\n        /* \"#utility.yul\":23565:23574   */\n      dup5\n        /* \"#utility.yul\":23560:23563   */\n      dup10\n        /* \"#utility.yul\":23556:23575   */\n      add\n        /* \"#utility.yul\":23550:23576   */\n      mload\n        /* \"#utility.yul\":23608:23656   */\n      tag_500\n        /* \"#utility.yul\":23650:23654   */\n      0x1f\n        /* \"#utility.yul\":23642:23648   */\n      dup10\n        /* \"#utility.yul\":23638:23655   */\n      and\n        /* \"#utility.yul\":23627:23636   */\n      dup3\n        /* \"#utility.yul\":23608:23656   */\n      tag_259\n      jump\t// in\n    tag_500:\n        /* \"#utility.yul\":23600:23606   */\n      dup4\n        /* \"#utility.yul\":23593:23657   */\n      sstore\n        /* \"#utility.yul\":23515:23671   */\n      pop\n        /* \"#utility.yul\":23492:23671   */\n    tag_499:\n        /* \"#utility.yul\":23717:23718   */\n      0x01\n        /* \"#utility.yul\":23713:23714   */\n      0x02\n        /* \"#utility.yul\":23705:23711   */\n      dup9\n        /* \"#utility.yul\":23701:23715   */\n      mul\n        /* \"#utility.yul\":23697:23719   */\n      add\n        /* \"#utility.yul\":23691:23695   */\n      dup9\n        /* \"#utility.yul\":23684:23720   */\n      sstore\n        /* \"#utility.yul\":23119:23730   */\n      pop\n      pop\n      pop\n        /* \"#utility.yul\":23082:23969   */\n    tag_491:\n      pop\n        /* \"#utility.yul\":22672:23975   */\n      pop\n      pop\n      pop\n        /* \"#utility.yul\":22580:23975   */\n      pop\n      pop\n      jump\t// out\n        /* \"#utility.yul\":23981:24175   */\n    tag_142:\n        /* \"#utility.yul\":24021:24025   */\n      0x00\n        /* \"#utility.yul\":24041:24061   */\n      tag_502\n        /* \"#utility.yul\":24059:24060   */\n      dup3\n        /* \"#utility.yul\":24041:24061   */\n      tag_195\n      jump\t// in\n    tag_502:\n        /* \"#utility.yul\":24036:24061   */\n      swap2\n      pop\n        /* \"#utility.yul\":24075:24095   */\n      tag_503\n        /* \"#utility.yul\":24093:24094   */\n      dup4\n        /* \"#utility.yul\":24075:24095   */\n      tag_195\n      jump\t// in\n    tag_503:\n        /* \"#utility.yul\":24070:24095   */\n      swap3\n      pop\n        /* \"#utility.yul\":24119:24120   */\n      dup3\n        /* \"#utility.yul\":24116:24117   */\n      dup3\n        /* \"#utility.yul\":24112:24121   */\n      sub\n        /* \"#utility.yul\":24104:24121   */\n      swap1\n      pop\n        /* \"#utility.yul\":24143:24144   */\n      dup2\n        /* \"#utility.yul\":24137:24141   */\n      dup2\n        /* \"#utility.yul\":24134:24145   */\n      gt\n        /* \"#utility.yul\":24131:24168   */\n      iszero\n      tag_504\n      jumpi\n        /* \"#utility.yul\":24148:24166   */\n      tag_505\n      tag_237\n      jump\t// in\n    tag_505:\n        /* \"#utility.yul\":24131:24168   */\n    tag_504:\n        /* \"#utility.yul\":23981:24175   */\n      swap3\n      swap2\n      pop\n      pop\n      jump\t// out\n        /* \"#utility.yul\":24181:24344   */\n    tag_261:\n        /* \"#utility.yul\":24321:24336   */\n      0x4e6f2063616e6469646174657300000000000000000000000000000000000000\n        /* \"#utility.yul\":24317:24318   */\n      0x00\n        /* \"#utility.yul\":24309:24315   */\n      dup3\n        /* \"#utility.yul\":24305:24319   */\n      add\n        /* \"#utility.yul\":24298:24337   */\n      mstore\n        /* \"#utility.yul\":24181:24344   */\n      pop\n      jump\t// out\n        /* \"#utility.yul\":24350:24716   */\n    tag_262:\n        /* \"#utility.yul\":24492:24495   */\n      0x00\n        /* \"#utility.yul\":24513:24580   */\n      tag_508\n        /* \"#utility.yul\":24577:24579   */\n      0x0d\n        /* \"#utility.yul\":24572:24575   */\n      dup4\n        /* \"#utility.yul\":24513:24580   */\n      tag_206\n      jump\t// in\n    tag_508:\n        /* \"#utility.yul\":24506:24580   */\n      swap2\n      pop\n        /* \"#utility.yul\":24589:24682   */\n      tag_509\n        /* \"#utility.yul\":24678:24681   */\n      dup3\n        /* \"#utility.yul\":24589:24682   */\n      tag_261\n      jump\t// in\n    tag_509:\n        /* \"#utility.yul\":24707:24709   */\n      0x20\n        /* \"#utility.yul\":24702:24705   */\n      dup3\n        /* \"#utility.yul\":24698:24710   */\n      add\n        /* \"#utility.yul\":24691:24710   */\n      swap1\n      pop\n        /* \"#utility.yul\":24350:24716   */\n      swap2\n      swap1\n      pop\n      jump\t// out\n        /* \"#utility.yul\":24722:25141   */\n    tag_147:\n        /* \"#utility.yul\":24888:24892   */\n      0x00\n        /* \"#utility.yul\":24926:24928   */\n      0x20\n        /* \"#utility.yul\":24915:24924   */\n      dup3\n        /* \"#utility.yul\":24911:24929   */\n      add\n        /* \"#utility.yul\":24903:24929   */\n      swap1\n      pop\n        /* \"#utility.yul\":24975:24984   */\n      dup2\n        /* \"#utility.yul\":24969:24973   */\n      dup2\n        /* \"#utility.yul\":24965:24985   */\n      sub\n        /* \"#utility.yul\":24961:24962   */\n      0x00\n        /* \"#utility.yul\":24950:24959   */\n      dup4\n        /* \"#utility.yul\":24946:24963   */\n      add\n        /* \"#utility.yul\":24939:24986   */\n      mstore\n        /* \"#utility.yul\":25003:25134   */\n      tag_511\n        /* \"#utility.yul\":25129:25133   */\n      dup2\n        /* \"#utility.yul\":25003:25134   */\n      tag_262\n      jump\t// in\n    tag_511:\n        /* \"#utility.yul\":24995:25134   */\n      swap1\n      pop\n        /* \"#utility.yul\":24722:25141   */\n      swap2\n      swap1\n      pop\n      jump\t// out\n\n    auxdata: 0xa2646970667358221220df815fc1ffbbe07eb4db30203b47734a8536af27f1a5952b21d0f459da47f7c664736f6c63430008220033\n}\n",
				"bytecode": {
					"linkReferences": {},
					"object": "608060405234801561000f575f5ffd5b5060405161248c38038061248c8339818101604052810190610031919061038b565b335f5f6101000a81548173ffffffffffffffffffffffffffffffffffffffff021916908373ffffffffffffffffffffffffffffffffffffffff1602179055505f5f90505b8151811015610155576001604051806040016040528084848151811061009e5761009d6103d2565b5b602002602001015181526020015f815250908060018154018082558091505060019003905f5260205f2090600202015f909190919091505f820151815f0190816100e89190610620565b506020820151816001015550507fa89e28469fa9e15d5149634a9ce8d8dd59ec42c18ba2d281b08c305f2095acef828281518110610129576101286103d2565b5b602002602001015182604051610140929190610746565b60405180910390a18080600101915050610075565b5050610774565b5f604051905090565b5f5ffd5b5f5ffd5b5f5ffd5b5f601f19601f8301169050919050565b7f4e487b71000000000000000000000000000000000000000000000000000000005f52604160045260245ffd5b6101b782610171565b810181811067ffffffffffffffff821117156101d6576101d5610181565b5b80604052505050565b5f6101e861015c565b90506101f482826101ae565b919050565b5f67ffffffffffffffff82111561021357610212610181565b5b602082029050602081019050919050565b5f5ffd5b5f5ffd5b5f67ffffffffffffffff82111561024657610245610181565b5b61024f82610171565b9050602081019050919050565b8281835e5f83830152505050565b5f61027c6102778461022c565b6101df565b90508281526020810184848401111561029857610297610228565b5b6102a384828561025c565b509392505050565b5f82601f8301126102bf576102be61016d565b5b81516102cf84826020860161026a565b91505092915050565b5f6102ea6102e5846101f9565b6101df565b9050808382526020820190506020840283018581111561030d5761030c610224565b5b835b8181101561035457805167ffffffffffffffff8111156103325761033161016d565b5b80860161033f89826102ab565b8552602085019450505060208101905061030f565b5050509392505050565b5f82601f8301126103725761037161016d565b5b81516103828482602086016102d8565b91505092915050565b5f602082840312156103a05761039f610165565b5b5f82015167ffffffffffffffff8111156103bd576103bc610169565b5b6103c98482850161035e565b91505092915050565b7f4e487b71000000000000000000000000000000000000000000000000000000005f52603260045260245ffd5b5f81519050919050565b7f4e487b71000000000000000000000000000000000000000000000000000000005f52602260045260245ffd5b5f600282049050600182168061044d57607f821691505b6020821081036104605761045f610409565b5b50919050565b5f819050815f5260205f209050919050565b5f6020601f8301049050919050565b5f82821b905092915050565b5f600883026104c27fffffffffffffffffffffffffffffffffffffffffffffffffffffffffffffffff82610487565b6104cc8683610487565b95508019841693508086168417925050509392505050565b5f819050919050565b5f819050919050565b5f61051061050b610506846104e4565b6104ed565b6104e4565b9050919050565b5f819050919050565b610529836104f6565b61053d61053582610517565b848454610493565b825550505050565b5f5f905090565b610554610545565b61055f818484610520565b505050565b5f5b828110156105855761057a5f82840161054c565b600181019050610566565b505050565b601f8211156105d857828211156105d7576105a481610466565b6105ad83610478565b6105b685610478565b60208610156105c3575f90505b8083016105d282840382610564565b505050505b5b505050565b5f82821c905092915050565b5f6105f85f19846008026105dd565b1980831691505092915050565b5f61061083836105e9565b9150826002028217905092915050565b610629826103ff565b67ffffffffffffffff81111561064257610641610181565b5b61064c8254610436565b61065782828561058a565b5f60209050601f831160018114610688575f8415610676578287015190505b6106808582610605565b8655506106e7565b601f19841661069686610466565b5f5b828110156106bd57848901518255600182019150602085019450602081019050610698565b868310156106da57848901516106d6601f8916826105e9565b8355505b6001600288020188555050505b505050505050565b5f82825260208201905092915050565b5f610709826103ff565b61071381856106ef565b935061072381856020860161025c565b61072c81610171565b840191505092915050565b610740816104e4565b82525050565b5f6040820190508181035f83015261075e81856106ff565b905061076d6020830184610737565b9392505050565b611d0b806107815f395ff3fe608060405234801561000f575f5ffd5b50600436106100f3575f3560e01c8063462e91ec11610095578063d3a078da11610064578063d3a078da14610286578063d63db98e146102a4578063e2a41283146102d4578063f225c1f814610304576100f3565b8063462e91ec146101fd5780638da5cb5b146102195780638e7ea5b214610237578063c3c5a54714610256576100f3565b806330a56347116100d157806330a56347146101615780633477ee2e1461017f57806335b8e820146101b057806338db6dd3146101e1576100f3565b80630121b93f146100f757806309eef43e146101135780632b8c250414610143575b5f5ffd5b610111600480360381019061010c9190611051565b610320565b005b61012d600480360381019061012891906110d6565b61057a565b60405161013a919061111b565b60405180910390f35b61014b610597565b6040516101589190611143565b60405180910390f35b6101696105a3565b6040516101769190611143565b60405180910390f35b61019960048036038101906101949190611051565b6105af565b6040516101a79291906111cc565b60405180910390f35b6101ca60048036038101906101c59190611051565b610664565b6040516101d89291906111cc565b60405180910390f35b6101fb60048036038101906101f691906110d6565b61076d565b005b61021760048036038101906102129190611326565b610980565b005b610221610ab7565b60405161022e919061137c565b60405180910390f35b61023f610adb565b60405161024d9291906111cc565b60405180910390f35b610270600480360381019061026b91906110d6565b610c7c565b60405161027d919061111b565b60405180910390f35b61028e610c99565b60405161029b919061144c565b60405180910390f35b6102be60048036038101906102b99190611051565b610d24565b6040516102cb919061137c565b60405180910390f35b6102ee60048036038101906102e991906110d6565b610d5f565b6040516102fb919061111b565b60405180910390f35b61031e60048036038101906103199190611530565b610db1565b005b60025f3373ffffffffffffffffffffffffffffffffffffffff1673ffffffffffffffffffffffffffffffffffffffff1681526020019081526020015f205f9054906101000a900460ff166103a9576040517f08c379a00000000000000000000000000000000000000000000000000000000081526004016103a0906115c1565b60405180910390fd5b60035f3373ffffffffffffffffffffffffffffffffffffffff1673ffffffffffffffffffffffffffffffffffffffff1681526020019081526020015f205f9054906101000a900460ff1615610433576040517f08c379a000000000000000000000000000000000000000000000000000000000815260040161042a90611629565b60405180910390fd5b600180549050811061047a576040517f08c379a000000000000000000000000000000000000000000000000000000000815260040161047190611691565b60405180910390fd5b600160035f3373ffffffffffffffffffffffffffffffffffffffff1673ffffffffffffffffffffffffffffffffffffffff1681526020019081526020015f205f6101000a81548160ff021916908315150217905550600181815481106104e3576104e26116af565b5b905f5260205f2090600202016001015f81548092919061050290611709565b91905055503373ffffffffffffffffffffffffffffffffffffffff167e089c14bef1f215ec2a9cac0041a8a539033590f2ac7424e2f5659c48a0850360018381548110610552576105516116af565b5b905f5260205f2090600202015f018360405161056f929190611840565b60405180910390a250565b6003602052805f5260405f205f915054906101000a900460ff1681565b5f600480549050905090565b5f600180549050905090565b600181815481106105be575f80fd5b905f5260205f2090600202015f91509050805f0180546105dd9061177d565b80601f01602080910402602001604051908101604052809291908181526020018280546106099061177d565b80156106545780601f1061062b57610100808354040283529160200191610654565b820191905f5260205f20905b81548152906001019060200180831161063757829003601f168201915b5050505050908060010154905082565b60605f60018054905083106106ae576040517f08c379a00000000000000000000000000000000000000000000000000000000081526004016106a5906118b8565b60405180910390fd5b5f600184815481106106c3576106c26116af565b5b905f5260205f2090600202019050805f0181600101548180546106e59061177d565b80601f01602080910402602001604051908101604052809291908181526020018280546107119061177d565b801561075c5780601f106107335761010080835404028352916020019161075c565b820191905f5260205f20905b81548152906001019060200180831161073f57829003601f168201915b505050505091509250925050915091565b5f5f9054906101000a900473ffffffffffffffffffffffffffffffffffffffff1673ffffffffffffffffffffffffffffffffffffffff163373ffffffffffffffffffffffffffffffffffffffff16146107fb576040517f08c379a00000000000000000000000000000000000000000000000000000000081526004016107f290611946565b60405180910390fd5b60025f8273ffffffffffffffffffffffffffffffffffffffff1673ffffffffffffffffffffffffffffffffffffffff1681526020019081526020015f205f9054906101000a900460ff1615610885576040517f08c379a000000000000000000000000000000000000000000000000000000000815260040161087c906119ae565b60405180910390fd5b600160025f8373ffffffffffffffffffffffffffffffffffffffff1673ffffffffffffffffffffffffffffffffffffffff1681526020019081526020015f205f6101000a81548160ff021916908315150217905550600481908060018154018082558091505060019003905f5260205f20015f9091909190916101000a81548173ffffffffffffffffffffffffffffffffffffffff021916908373ffffffffffffffffffffffffffffffffffffffff1602179055508073ffffffffffffffffffffffffffffffffffffffff167fb6be2187d059cc2a55fe29e0e503b566e1e0f8c8780096e185429350acffd3dd60405160405180910390a250565b5f5f9054906101000a900473ffffffffffffffffffffffffffffffffffffffff1673ffffffffffffffffffffffffffffffffffffffff163373ffffffffffffffffffffffffffffffffffffffff1614610a0e576040517f08c379a0000000000000000000000000000000000000000000000000000000008152600401610a0590611946565b60405180910390fd5b600160405180604001604052808381526020015f815250908060018154018082558091505060019003905f5260205f2090600202015f909190919091505f820151815f019081610a5e9190611b6b565b506020820151816001015550507fa89e28469fa9e15d5149634a9ce8d8dd59ec42c18ba2d281b08c305f2095acef8160018080549050610a9e9190611c3a565b604051610aac9291906111cc565b60405180910390a150565b5f5f9054906101000a900473ffffffffffffffffffffffffffffffffffffffff1681565b60605f5f60018054905011610b25576040517f08c379a0000000000000000000000000000000000000000000000000000000008152600401610b1c90611cb7565b60405180910390fd5b5f5f90505f5f90505f5f90505b600180549050811015610ba1578260018281548110610b5457610b536116af565b5b905f5260205f209060020201600101541115610b945760018181548110610b7e57610b7d6116af565b5b905f5260205f2090600202016001015492508091505b8080600101915050610b32565b5060018181548110610bb657610bb56116af565b5b905f5260205f2090600202015f0160018281548110610bd857610bd76116af565b5b905f5260205f20906002020160010154818054610bf49061177d565b80601f0160208091040260200160405190810160405280929190818152602001828054610c209061177d565b8015610c6b5780601f10610c4257610100808354040283529160200191610c6b565b820191905f5260205f20905b815481529060010190602001808311610c4e57829003601f168201915b505050505091509350935050509091565b6002602052805f5260405f205f915054906101000a900460ff1681565b60606004805480602002602001604051908101604052809291908181526020018280548015610d1a57602002820191905f5260205f20905b815f9054906101000a900473ffffffffffffffffffffffffffffffffffffffff1673ffffffffffffffffffffffffffffffffffffffff1681526020019060010190808311610cd1575b5050505050905090565b60048181548110610d33575f80fd5b905f5260205f20015f915054906101000a900473ffffffffffffffffffffffffffffffffffffffff1681565b5f60025f8373ffffffffffffffffffffffffffffffffffffffff1673ffffffffffffffffffffffffffffffffffffffff1681526020019081526020015f205f9054906101000a900460ff169050919050565b5f5f9054906101000a900473ffffffffffffffffffffffffffffffffffffffff1673ffffffffffffffffffffffffffffffffffffffff163373ffffffffffffffffffffffffffffffffffffffff1614610e3f576040517f08c379a0000000000000000000000000000000000000000000000000000000008152600401610e3690611946565b60405180910390fd5b5f5f90505b81518110156110095760025f838381518110610e6357610e626116af565b5b602002602001015173ffffffffffffffffffffffffffffffffffffffff1673ffffffffffffffffffffffffffffffffffffffff1681526020019081526020015f205f9054906101000a900460ff16610ffc57600160025f848481518110610ecd57610ecc6116af565b5b602002602001015173ffffffffffffffffffffffffffffffffffffffff1673ffffffffffffffffffffffffffffffffffffffff1681526020019081526020015f205f6101000a81548160ff0219169083151502179055506004828281518110610f3957610f386116af565b5b6020026020010151908060018154018082558091505060019003905f5260205f20015f9091909190916101000a81548173ffffffffffffffffffffffffffffffffffffffff021916908373ffffffffffffffffffffffffffffffffffffffff160217905550818181518110610fb157610fb06116af565b5b602002602001015173ffffffffffffffffffffffffffffffffffffffff167fb6be2187d059cc2a55fe29e0e503b566e1e0f8c8780096e185429350acffd3dd60405160405180910390a25b8080600101915050610e44565b5050565b5f604051905090565b5f5ffd5b5f5ffd5b5f819050919050565b6110308161101e565b811461103a575f5ffd5b50565b5f8135905061104b81611027565b92915050565b5f6020828403121561106657611065611016565b5b5f6110738482850161103d565b91505092915050565b5f73ffffffffffffffffffffffffffffffffffffffff82169050919050565b5f6110a58261107c565b9050919050565b6110b58161109b565b81146110bf575f5ffd5b50565b5f813590506110d0816110ac565b92915050565b5f602082840312156110eb576110ea611016565b5b5f6110f8848285016110c2565b91505092915050565b5f8115159050919050565b61111581611101565b82525050565b5f60208201905061112e5f83018461110c565b92915050565b61113d8161101e565b82525050565b5f6020820190506111565f830184611134565b92915050565b5f81519050919050565b5f82825260208201905092915050565b8281835e5f83830152505050565b5f601f19601f8301169050919050565b5f61119e8261115c565b6111a88185611166565b93506111b8818560208601611176565b6111c181611184565b840191505092915050565b5f6040820190508181035f8301526111e48185611194565b90506111f36020830184611134565b9392505050565b5f5ffd5b5f5ffd5b7f4e487b71000000000000000000000000000000000000000000000000000000005f52604160045260245ffd5b61123882611184565b810181811067ffffffffffffffff8211171561125757611256611202565b5b80604052505050565b5f61126961100d565b9050611275828261122f565b919050565b5f67ffffffffffffffff82111561129457611293611202565b5b61129d82611184565b9050602081019050919050565b828183375f83830152505050565b5f6112ca6112c58461127a565b611260565b9050828152602081018484840111156112e6576112e56111fe565b5b6112f18482856112aa565b509392505050565b5f82601f83011261130d5761130c6111fa565b5b813561131d8482602086016112b8565b91505092915050565b5f6020828403121561133b5761133a611016565b5b5f82013567ffffffffffffffff8111156113585761135761101a565b5b611364848285016112f9565b91505092915050565b6113768161109b565b82525050565b5f60208201905061138f5f83018461136d565b92915050565b5f81519050919050565b5f82825260208201905092915050565b5f819050602082019050919050565b6113c78161109b565b82525050565b5f6113d883836113be565b60208301905092915050565b5f602082019050919050565b5f6113fa82611395565b611404818561139f565b935061140f836113af565b805f5b8381101561143f57815161142688826113cd565b9750611431836113e4565b925050600181019050611412565b5085935050505092915050565b5f6020820190508181035f83015261146481846113f0565b905092915050565b5f67ffffffffffffffff82111561148657611485611202565b5b602082029050602081019050919050565b5f5ffd5b5f6114ad6114a88461146c565b611260565b905080838252602082019050602084028301858111156114d0576114cf611497565b5b835b818110156114f957806114e588826110c2565b8452602084019350506020810190506114d2565b5050509392505050565b5f82601f830112611517576115166111fa565b5b813561152784826020860161149b565b91505092915050565b5f6020828403121561154557611544611016565b5b5f82013567ffffffffffffffff8111156115625761156161101a565b5b61156e84828501611503565b91505092915050565b7f596f7520617265206e6f742061207265676973746572656420766f74657200005f82015250565b5f6115ab601e83611166565b91506115b682611577565b602082019050919050565b5f6020820190508181035f8301526115d88161159f565b9050919050565b7f596f75206861766520616c726561647920766f746564000000000000000000005f82015250565b5f611613601683611166565b915061161e826115df565b602082019050919050565b5f6020820190508181035f83015261164081611607565b9050919050565b7f496e76616c69642063616e64696461746520696e6465780000000000000000005f82015250565b5f61167b601783611166565b915061168682611647565b602082019050919050565b5f6020820190508181035f8301526116a88161166f565b9050919050565b7f4e487b71000000000000000000000000000000000000000000000000000000005f52603260045260245ffd5b7f4e487b71000000000000000000000000000000000000000000000000000000005f52601160045260245ffd5b5f6117138261101e565b91507fffffffffffffffffffffffffffffffffffffffffffffffffffffffffffffffff8203611745576117446116dc565b5b600182019050919050565b7f4e487b71000000000000000000000000000000000000000000000000000000005f52602260045260245ffd5b5f600282049050600182168061179457607f821691505b6020821081036117a7576117a6611750565b5b50919050565b5f819050815f5260205f209050919050565b5f81546117cb8161177d565b6117d58186611166565b9450600182165f81146117ef576001811461180557611837565b60ff198316865281151560200286019350611837565b61180e856117ad565b5f5b8381101561182f57815481890152600182019150602081019050611810565b808801955050505b50505092915050565b5f6040820190508181035f83015261185881856117bf565b90506118676020830184611134565b9392505050565b7f496e646578206f7574206f6620626f756e6473000000000000000000000000005f82015250565b5f6118a2601383611166565b91506118ad8261186e565b602082019050919050565b5f6020820190508181035f8301526118cf81611896565b9050919050565b7f4f6e6c79206f776e65722063616e20706572666f726d207468697320616374695f8201527f6f6e000000000000000000000000000000000000000000000000000000000000602082015250565b5f611930602283611166565b915061193b826118d6565b604082019050919050565b5f6020820190508181035f83015261195d81611924565b9050919050565b7f566f74657220616c7265616479207265676973746572656400000000000000005f82015250565b5f611998601883611166565b91506119a382611964565b602082019050919050565b5f6020820190508181035f8301526119c58161198c565b9050919050565b5f6020601f8301049050919050565b5f82821b905092915050565b5f60088302611a167fffffffffffffffffffffffffffffffffffffffffffffffffffffffffffffffff826119db565b611a2086836119db565b95508019841693508086168417925050509392505050565b5f819050919050565b5f611a5b611a56611a518461101e565b611a38565b61101e565b9050919050565b5f819050919050565b611a7483611a41565b611a88611a8082611a62565b8484546119e7565b825550505050565b5f5f905090565b611a9f611a90565b611aaa818484611a6b565b505050565b5f5b82811015611ad057611ac55f828401611a97565b600181019050611ab1565b505050565b601f821115611b235782821115611b2257611aef816117ad565b611af8836119cc565b611b01856119cc565b6020861015611b0e575f90505b808301611b1d82840382611aaf565b505050505b5b505050565b5f82821c905092915050565b5f611b435f1984600802611b28565b1980831691505092915050565b5f611b5b8383611b34565b9150826002028217905092915050565b611b748261115c565b67ffffffffffffffff811115611b8d57611b8c611202565b5b611b97825461177d565b611ba2828285611ad5565b5f60209050601f831160018114611bd3575f8415611bc1578287015190505b611bcb8582611b50565b865550611c32565b601f198416611be1866117ad565b5f5b82811015611c0857848901518255600182019150602085019450602081019050611be3565b86831015611c255784890151611c21601f891682611b34565b8355505b6001600288020188555050505b505050505050565b5f611c448261101e565b9150611c4f8361101e565b9250828203905081811115611c6757611c666116dc565b5b92915050565b7f4e6f2063616e64696461746573000000000000000000000000000000000000005f82015250565b5f611ca1600d83611166565b9150611cac82611c6d565b602082019050919050565b5f6020820190508181035f830152611cce81611c95565b905091905056fea2646970667358221220df815fc1ffbbe07eb4db30203b47734a8536af27f1a5952b21d0f459da47f7c664736f6c63430008220033",
					"opcodes": "PUSH1 0x80 PUSH1 0x40 MSTORE CALLVALUE DUP1 ISZERO PUSH2 0xF JUMPI PUSH0 PUSH0 REVERT JUMPDEST POP PUSH1 0x40 MLOAD PUSH2 0x248C CODESIZE SUB DUP1 PUSH2 0x248C DUP4 CODECOPY DUP2 DUP2 ADD PUSH1 0x40 MSTORE DUP2 ADD SWAP1 PUSH2 0x31 SWAP2 SWAP1 PUSH2 0x38B JUMP JUMPDEST CALLER PUSH0 PUSH0 PUSH2 0x100 EXP DUP2 SLOAD DUP2 PUSH20 0xFFFFFFFFFFFFFFFFFFFFFFFFFFFFFFFFFFFFFFFF MUL NOT AND SWAP1 DUP4 PUSH20 0xFFFFFFFFFFFFFFFFFFFFFFFFFFFFFFFFFFFFFFFF AND MUL OR SWAP1 SSTORE POP PUSH0 PUSH0 SWAP1 POP JUMPDEST DUP2 MLOAD DUP2 LT ISZERO PUSH2 0x155 JUMPI PUSH1 0x1 PUSH1 0x40 MLOAD DUP1 PUSH1 0x40 ADD PUSH1 0x40 MSTORE DUP1 DUP5 DUP5 DUP2 MLOAD DUP2 LT PUSH2 0x9E JUMPI PUSH2 0x9D PUSH2 0x3D2 JUMP JUMPDEST JUMPDEST PUSH1 0x20 MUL PUSH1 0x20 ADD ADD MLOAD DUP2 MSTORE PUSH1 0x20 ADD PUSH0 DUP2 MSTORE POP SWAP1 DUP1 PUSH1 0x1 DUP2 SLOAD ADD DUP1 DUP3 SSTORE DUP1 SWAP2 POP POP PUSH1 0x1 SWAP1 SUB SWAP1 PUSH0 MSTORE PUSH1 0x20 PUSH0 KECCAK256 SWAP1 PUSH1 0x2 MUL ADD PUSH0 SWAP1 SWAP2 SWAP1 SWAP2 SWAP1 SWAP2 POP PUSH0 DUP3 ADD MLOAD DUP2 PUSH0 ADD SWAP1 DUP2 PUSH2 0xE8 SWAP2 SWAP1 PUSH2 0x620 JUMP JUMPDEST POP PUSH1 0x20 DUP3 ADD MLOAD DUP2 PUSH1 0x1 ADD SSTORE POP POP PUSH32 0xA89E28469FA9E15D5149634A9CE8D8DD59EC42C18BA2D281B08C305F2095ACEF DUP3 DUP3 DUP2 MLOAD DUP2 LT PUSH2 0x129 JUMPI PUSH2 0x128 PUSH2 0x3D2 JUMP JUMPDEST JUMPDEST PUSH1 0x20 MUL PUSH1 0x20 ADD ADD MLOAD DUP3 PUSH1 0x40 MLOAD PUSH2 0x140 SWAP3 SWAP2 SWAP1 PUSH2 0x746 JUMP JUMPDEST PUSH1 0x40 MLOAD DUP1 SWAP2 SUB SWAP1 LOG1 DUP1 DUP1 PUSH1 0x1 ADD SWAP2 POP POP PUSH2 0x75 JUMP JUMPDEST POP POP PUSH2 0x774 JUMP JUMPDEST PUSH0 PUSH1 0x40 MLOAD SWAP1 POP SWAP1 JUMP JUMPDEST PUSH0 PUSH0 REVERT JUMPDEST PUSH0 PUSH0 REVERT JUMPDEST PUSH0 PUSH0 REVERT JUMPDEST PUSH0 PUSH1 0x1F NOT PUSH1 0x1F DUP4 ADD AND SWAP1 POP SWAP2 SWAP1 POP JUMP JUMPDEST PUSH32 0x4E487B7100000000000000000000000000000000000000000000000000000000 PUSH0 MSTORE PUSH1 0x41 PUSH1 0x4 MSTORE PUSH1 0x24 PUSH0 REVERT JUMPDEST PUSH2 0x1B7 DUP3 PUSH2 0x171 JUMP JUMPDEST DUP2 ADD DUP2 DUP2 LT PUSH8 0xFFFFFFFFFFFFFFFF DUP3 GT OR ISZERO PUSH2 0x1D6 JUMPI PUSH2 0x1D5 PUSH2 0x181 JUMP JUMPDEST JUMPDEST DUP1 PUSH1 0x40 MSTORE POP POP POP JUMP JUMPDEST PUSH0 PUSH2 0x1E8 PUSH2 0x15C JUMP JUMPDEST SWAP1 POP PUSH2 0x1F4 DUP3 DUP3 PUSH2 0x1AE JUMP JUMPDEST SWAP2 SWAP1 POP JUMP JUMPDEST PUSH0 PUSH8 0xFFFFFFFFFFFFFFFF DUP3 GT ISZERO PUSH2 0x213 JUMPI PUSH2 0x212 PUSH2 0x181 JUMP JUMPDEST JUMPDEST PUSH1 0x20 DUP3 MUL SWAP1 POP PUSH1 0x20 DUP2 ADD SWAP1 POP SWAP2 SWAP1 POP JUMP JUMPDEST PUSH0 PUSH0 REVERT JUMPDEST PUSH0 PUSH0 REVERT JUMPDEST PUSH0 PUSH8 0xFFFFFFFFFFFFFFFF DUP3 GT ISZERO PUSH2 0x246 JUMPI PUSH2 0x245 PUSH2 0x181 JUMP JUMPDEST JUMPDEST PUSH2 0x24F DUP3 PUSH2 0x171 JUMP JUMPDEST SWAP1 POP PUSH1 0x20 DUP2 ADD SWAP1 POP SWAP2 SWAP1 POP JUMP JUMPDEST DUP3 DUP2 DUP4 MCOPY PUSH0 DUP4 DUP4 ADD MSTORE POP POP POP JUMP JUMPDEST PUSH0 PUSH2 0x27C PUSH2 0x277 DUP5 PUSH2 0x22C JUMP JUMPDEST PUSH2 0x1DF JUMP JUMPDEST SWAP1 POP DUP3 DUP2 MSTORE PUSH1 0x20 DUP2 ADD DUP5 DUP5 DUP5 ADD GT ISZERO PUSH2 0x298 JUMPI PUSH2 0x297 PUSH2 0x228 JUMP JUMPDEST JUMPDEST PUSH2 0x2A3 DUP5 DUP3 DUP6 PUSH2 0x25C JUMP JUMPDEST POP SWAP4 SWAP3 POP POP POP JUMP JUMPDEST PUSH0 DUP3 PUSH1 0x1F DUP4 ADD SLT PUSH2 0x2BF JUMPI PUSH2 0x2BE PUSH2 0x16D JUMP JUMPDEST JUMPDEST DUP2 MLOAD PUSH2 0x2CF DUP5 DUP3 PUSH1 0x20 DUP7 ADD PUSH2 0x26A JUMP JUMPDEST SWAP2 POP POP SWAP3 SWAP2 POP POP JUMP JUMPDEST PUSH0 PUSH2 0x2EA PUSH2 0x2E5 DUP5 PUSH2 0x1F9 JUMP JUMPDEST PUSH2 0x1DF JUMP JUMPDEST SWAP1 POP DUP1 DUP4 DUP3 MSTORE PUSH1 0x20 DUP3 ADD SWAP1 POP PUSH1 0x20 DUP5 MUL DUP4 ADD DUP6 DUP2 GT ISZERO PUSH2 0x30D JUMPI PUSH2 0x30C PUSH2 0x224 JUMP JUMPDEST JUMPDEST DUP4 JUMPDEST DUP2 DUP2 LT ISZERO PUSH2 0x354 JUMPI DUP1 MLOAD PUSH8 0xFFFFFFFFFFFFFFFF DUP2 GT ISZERO PUSH2 0x332 JUMPI PUSH2 0x331 PUSH2 0x16D JUMP JUMPDEST JUMPDEST DUP1 DUP7 ADD PUSH2 0x33F DUP10 DUP3 PUSH2 0x2AB JUMP JUMPDEST DUP6 MSTORE PUSH1 0x20 DUP6 ADD SWAP5 POP POP POP PUSH1 0x20 DUP2 ADD SWAP1 POP PUSH2 0x30F JUMP JUMPDEST POP POP POP SWAP4 SWAP3 POP POP POP JUMP JUMPDEST PUSH0 DUP3 PUSH1 0x1F DUP4 ADD SLT PUSH2 0x372 JUMPI PUSH2 0x371 PUSH2 0x16D JUMP JUMPDEST JUMPDEST DUP2 MLOAD PUSH2 0x382 DUP5 DUP3 PUSH1 0x20 DUP7 ADD PUSH2 0x2D8 JUMP JUMPDEST SWAP2 POP POP SWAP3 SWAP2 POP POP JUMP JUMPDEST PUSH0 PUSH1 0x20 DUP3 DUP5 SUB SLT ISZERO PUSH2 0x3A0 JUMPI PUSH2 0x39F PUSH2 0x165 JUMP JUMPDEST JUMPDEST PUSH0 DUP3 ADD MLOAD PUSH8 0xFFFFFFFFFFFFFFFF DUP2 GT ISZERO PUSH2 0x3BD JUMPI PUSH2 0x3BC PUSH2 0x169 JUMP JUMPDEST JUMPDEST PUSH2 0x3C9 DUP5 DUP3 DUP6 ADD PUSH2 0x35E JUMP JUMPDEST SWAP2 POP POP SWAP3 SWAP2 POP POP JUMP JUMPDEST PUSH32 0x4E487B7100000000000000000000000000000000000000000000000000000000 PUSH0 MSTORE PUSH1 0x32 PUSH1 0x4 MSTORE PUSH1 0x24 PUSH0 REVERT JUMPDEST PUSH0 DUP2 MLOAD SWAP1 POP SWAP2 SWAP1 POP JUMP JUMPDEST PUSH32 0x4E487B7100000000000000000000000000000000000000000000000000000000 PUSH0 MSTORE PUSH1 0x22 PUSH1 0x4 MSTORE PUSH1 0x24 PUSH0 REVERT JUMPDEST PUSH0 PUSH1 0x2 DUP3 DIV SWAP1 POP PUSH1 0x1 DUP3 AND DUP1 PUSH2 0x44D JUMPI PUSH1 0x7F DUP3 AND SWAP2 POP JUMPDEST PUSH1 0x20 DUP3 LT DUP2 SUB PUSH2 0x460 JUMPI PUSH2 0x45F PUSH2 0x409 JUMP JUMPDEST JUMPDEST POP SWAP2 SWAP1 POP JUMP JUMPDEST PUSH0 DUP2 SWAP1 POP DUP2 PUSH0 MSTORE PUSH1 0x20 PUSH0 KECCAK256 SWAP1 POP SWAP2 SWAP1 POP JUMP JUMPDEST PUSH0 PUSH1 0x20 PUSH1 0x1F DUP4 ADD DIV SWAP1 POP SWAP2 SWAP1 POP JUMP JUMPDEST PUSH0 DUP3 DUP3 SHL SWAP1 POP SWAP3 SWAP2 POP POP JUMP JUMPDEST PUSH0 PUSH1 0x8 DUP4 MUL PUSH2 0x4C2 PUSH32 0xFFFFFFFFFFFFFFFFFFFFFFFFFFFFFFFFFFFFFFFFFFFFFFFFFFFFFFFFFFFFFFFF DUP3 PUSH2 0x487 JUMP JUMPDEST PUSH2 0x4CC DUP7 DUP4 PUSH2 0x487 JUMP JUMPDEST SWAP6 POP DUP1 NOT DUP5 AND SWAP4 POP DUP1 DUP7 AND DUP5 OR SWAP3 POP POP POP SWAP4 SWAP3 POP POP POP JUMP JUMPDEST PUSH0 DUP2 SWAP1 POP SWAP2 SWAP1 POP JUMP JUMPDEST PUSH0 DUP2 SWAP1 POP SWAP2 SWAP1 POP JUMP JUMPDEST PUSH0 PUSH2 0x510 PUSH2 0x50B PUSH2 0x506 DUP5 PUSH2 0x4E4 JUMP JUMPDEST PUSH2 0x4ED JUMP JUMPDEST PUSH2 0x4E4 JUMP JUMPDEST SWAP1 POP SWAP2 SWAP1 POP JUMP JUMPDEST PUSH0 DUP2 SWAP1 POP SWAP2 SWAP1 POP JUMP JUMPDEST PUSH2 0x529 DUP4 PUSH2 0x4F6 JUMP JUMPDEST PUSH2 0x53D PUSH2 0x535 DUP3 PUSH2 0x517 JUMP JUMPDEST DUP5 DUP5 SLOAD PUSH2 0x493 JUMP JUMPDEST DUP3 SSTORE POP POP POP POP JUMP JUMPDEST PUSH0 PUSH0 SWAP1 POP SWAP1 JUMP JUMPDEST PUSH2 0x554 PUSH2 0x545 JUMP JUMPDEST PUSH2 0x55F DUP2 DUP5 DUP5 PUSH2 0x520 JUMP JUMPDEST POP POP POP JUMP JUMPDEST PUSH0 JUMPDEST DUP3 DUP2 LT ISZERO PUSH2 0x585 JUMPI PUSH2 0x57A PUSH0 DUP3 DUP5 ADD PUSH2 0x54C JUMP JUMPDEST PUSH1 0x1 DUP2 ADD SWAP1 POP PUSH2 0x566 JUMP JUMPDEST POP POP POP JUMP JUMPDEST PUSH1 0x1F DUP3 GT ISZERO PUSH2 0x5D8 JUMPI DUP3 DUP3 GT ISZERO PUSH2 0x5D7 JUMPI PUSH2 0x5A4 DUP2 PUSH2 0x466 JUMP JUMPDEST PUSH2 0x5AD DUP4 PUSH2 0x478 JUMP JUMPDEST PUSH2 0x5B6 DUP6 PUSH2 0x478 JUMP JUMPDEST PUSH1 0x20 DUP7 LT ISZERO PUSH2 0x5C3 JUMPI PUSH0 SWAP1 POP JUMPDEST DUP1 DUP4 ADD PUSH2 0x5D2 DUP3 DUP5 SUB DUP3 PUSH2 0x564 JUMP JUMPDEST POP POP POP POP JUMPDEST JUMPDEST POP POP POP JUMP JUMPDEST PUSH0 DUP3 DUP3 SHR SWAP1 POP SWAP3 SWAP2 POP POP JUMP JUMPDEST PUSH0 PUSH2 0x5F8 PUSH0 NOT DUP5 PUSH1 0x8 MUL PUSH2 0x5DD JUMP JUMPDEST NOT DUP1 DUP4 AND SWAP2 POP POP SWAP3 SWAP2 POP POP JUMP JUMPDEST PUSH0 PUSH2 0x610 DUP4 DUP4 PUSH2 0x5E9 JUMP JUMPDEST SWAP2 POP DUP3 PUSH1 0x2 MUL DUP3 OR SWAP1 POP SWAP3 SWAP2 POP POP JUMP JUMPDEST PUSH2 0x629 DUP3 PUSH2 0x3FF JUMP JUMPDEST PUSH8 0xFFFFFFFFFFFFFFFF DUP2 GT ISZERO PUSH2 0x642 JUMPI PUSH2 0x641 PUSH2 0x181 JUMP JUMPDEST JUMPDEST PUSH2 0x64C DUP3 SLOAD PUSH2 0x436 JUMP JUMPDEST PUSH2 0x657 DUP3 DUP3 DUP6 PUSH2 0x58A JUMP JUMPDEST PUSH0 PUSH1 0x20 SWAP1 POP PUSH1 0x1F DUP4 GT PUSH1 0x1 DUP2 EQ PUSH2 0x688 JUMPI PUSH0 DUP5 ISZERO PUSH2 0x676 JUMPI DUP3 DUP8 ADD MLOAD SWAP1 POP JUMPDEST PUSH2 0x680 DUP6 DUP3 PUSH2 0x605 JUMP JUMPDEST DUP7 SSTORE POP PUSH2 0x6E7 JUMP JUMPDEST PUSH1 0x1F NOT DUP5 AND PUSH2 0x696 DUP7 PUSH2 0x466 JUMP JUMPDEST PUSH0 JUMPDEST DUP3 DUP2 LT ISZERO PUSH2 0x6BD JUMPI DUP5 DUP10 ADD MLOAD DUP3 SSTORE PUSH1 0x1 DUP3 ADD SWAP2 POP PUSH1 0x20 DUP6 ADD SWAP5 POP PUSH1 0x20 DUP2 ADD SWAP1 POP PUSH2 0x698 JUMP JUMPDEST DUP7 DUP4 LT ISZERO PUSH2 0x6DA JUMPI DUP5 DUP10 ADD MLOAD PUSH2 0x6D6 PUSH1 0x1F DUP10 AND DUP3 PUSH2 0x5E9 JUMP JUMPDEST DUP4 SSTORE POP JUMPDEST PUSH1 0x1 PUSH1 0x2 DUP9 MUL ADD DUP9 SSTORE POP POP POP JUMPDEST POP POP POP POP POP POP JUMP JUMPDEST PUSH0 DUP3 DUP3 MSTORE PUSH1 0x20 DUP3 ADD SWAP1 POP SWAP3 SWAP2 POP POP JUMP JUMPDEST PUSH0 PUSH2 0x709 DUP3 PUSH2 0x3FF JUMP JUMPDEST PUSH2 0x713 DUP2 DUP6 PUSH2 0x6EF JUMP JUMPDEST SWAP4 POP PUSH2 0x723 DUP2 DUP6 PUSH1 0x20 DUP7 ADD PUSH2 0x25C JUMP JUMPDEST PUSH2 0x72C DUP2 PUSH2 0x171 JUMP JUMPDEST DUP5 ADD SWAP2 POP POP SWAP3 SWAP2 POP POP JUMP JUMPDEST PUSH2 0x740 DUP2 PUSH2 0x4E4 JUMP JUMPDEST DUP3 MSTORE POP POP JUMP JUMPDEST PUSH0 PUSH1 0x40 DUP3 ADD SWAP1 POP DUP2 DUP2 SUB PUSH0 DUP4 ADD MSTORE PUSH2 0x75E DUP2 DUP6 PUSH2 0x6FF JUMP JUMPDEST SWAP1 POP PUSH2 0x76D PUSH1 0x20 DUP4 ADD DUP5 PUSH2 0x737 JUMP JUMPDEST SWAP4 SWAP3 POP POP POP JUMP JUMPDEST PUSH2 0x1D0B DUP1 PUSH2 0x781 PUSH0 CODECOPY PUSH0 RETURN INVALID PUSH1 0x80 PUSH1 0x40 MSTORE CALLVALUE DUP1 ISZERO PUSH2 0xF JUMPI PUSH0 PUSH0 REVERT JUMPDEST POP PUSH1 0x4 CALLDATASIZE LT PUSH2 0xF3 JUMPI PUSH0 CALLDATALOAD PUSH1 0xE0 SHR DUP1 PUSH4 0x462E91EC GT PUSH2 0x95 JUMPI DUP1 PUSH4 0xD3A078DA GT PUSH2 0x64 JUMPI DUP1 PUSH4 0xD3A078DA EQ PUSH2 0x286 JUMPI DUP1 PUSH4 0xD63DB98E EQ PUSH2 0x2A4 JUMPI DUP1 PUSH4 0xE2A41283 EQ PUSH2 0x2D4 JUMPI DUP1 PUSH4 0xF225C1F8 EQ PUSH2 0x304 JUMPI PUSH2 0xF3 JUMP JUMPDEST DUP1 PUSH4 0x462E91EC EQ PUSH2 0x1FD JUMPI DUP1 PUSH4 0x8DA5CB5B EQ PUSH2 0x219 JUMPI DUP1 PUSH4 0x8E7EA5B2 EQ PUSH2 0x237 JUMPI DUP1 PUSH4 0xC3C5A547 EQ PUSH2 0x256 JUMPI PUSH2 0xF3 JUMP JUMPDEST DUP1 PUSH4 0x30A56347 GT PUSH2 0xD1 JUMPI DUP1 PUSH4 0x30A56347 EQ PUSH2 0x161 JUMPI DUP1 PUSH4 0x3477EE2E EQ PUSH2 0x17F JUMPI DUP1 PUSH4 0x35B8E820 EQ PUSH2 0x1B0 JUMPI DUP1 PUSH4 0x38DB6DD3 EQ PUSH2 0x1E1 JUMPI PUSH2 0xF3 JUMP JUMPDEST DUP1 PUSH4 0x121B93F EQ PUSH2 0xF7 JUMPI DUP1 PUSH4 0x9EEF43E EQ PUSH2 0x113 JUMPI DUP1 PUSH4 0x2B8C2504 EQ PUSH2 0x143 JUMPI JUMPDEST PUSH0 PUSH0 REVERT JUMPDEST PUSH2 0x111 PUSH1 0x4 DUP1 CALLDATASIZE SUB DUP2 ADD SWAP1 PUSH2 0x10C SWAP2 SWAP1 PUSH2 0x1051 JUMP JUMPDEST PUSH2 0x320 JUMP JUMPDEST STOP JUMPDEST PUSH2 0x12D PUSH1 0x4 DUP1 CALLDATASIZE SUB DUP2 ADD SWAP1 PUSH2 0x128 SWAP2 SWAP1 PUSH2 0x10D6 JUMP JUMPDEST PUSH2 0x57A JUMP JUMPDEST PUSH1 0x40 MLOAD PUSH2 0x13A SWAP2 SWAP1 PUSH2 0x111B JUMP JUMPDEST PUSH1 0x40 MLOAD DUP1 SWAP2 SUB SWAP1 RETURN JUMPDEST PUSH2 0x14B PUSH2 0x597 JUMP JUMPDEST PUSH1 0x40 MLOAD PUSH2 0x158 SWAP2 SWAP1 PUSH2 0x1143 JUMP JUMPDEST PUSH1 0x40 MLOAD DUP1 SWAP2 SUB SWAP1 RETURN JUMPDEST PUSH2 0x169 PUSH2 0x5A3 JUMP JUMPDEST PUSH1 0x40 MLOAD PUSH2 0x176 SWAP2 SWAP1 PUSH2 0x1143 JUMP JUMPDEST PUSH1 0x40 MLOAD DUP1 SWAP2 SUB SWAP1 RETURN JUMPDEST PUSH2 0x199 PUSH1 0x4 DUP1 CALLDATASIZE SUB DUP2 ADD SWAP1 PUSH2 0x194 SWAP2 SWAP1 PUSH2 0x1051 JUMP JUMPDEST PUSH2 0x5AF JUMP JUMPDEST PUSH1 0x40 MLOAD PUSH2 0x1A7 SWAP3 SWAP2 SWAP1 PUSH2 0x11CC JUMP JUMPDEST PUSH1 0x40 MLOAD DUP1 SWAP2 SUB SWAP1 RETURN JUMPDEST PUSH2 0x1CA PUSH1 0x4 DUP1 CALLDATASIZE SUB DUP2 ADD SWAP1 PUSH2 0x1C5 SWAP2 SWAP1 PUSH2 0x1051 JUMP JUMPDEST PUSH2 0x664 JUMP JUMPDEST PUSH1 0x40 MLOAD PUSH2 0x1D8 SWAP3 SWAP2 SWAP1 PUSH2 0x11CC JUMP JUMPDEST PUSH1 0x40 MLOAD DUP1 SWAP2 SUB SWAP1 RETURN JUMPDEST PUSH2 0x1FB PUSH1 0x4 DUP1 CALLDATASIZE SUB DUP2 ADD SWAP1 PUSH2 0x1F6 SWAP2 SWAP1 PUSH2 0x10D6 JUMP JUMPDEST PUSH2 0x76D JUMP JUMPDEST STOP JUMPDEST PUSH2 0x217 PUSH1 0x4 DUP1 CALLDATASIZE SUB DUP2 ADD SWAP1 PUSH2 0x212 SWAP2 SWAP1 PUSH2 0x1326 JUMP JUMPDEST PUSH2 0x980 JUMP JUMPDEST STOP JUMPDEST PUSH2 0x221 PUSH2 0xAB7 JUMP JUMPDEST PUSH1 0x40 MLOAD PUSH2 0x22E SWAP2 SWAP1 PUSH2 0x137C JUMP JUMPDEST PUSH1 0x40 MLOAD DUP1 SWAP2 SUB SWAP1 RETURN JUMPDEST PUSH2 0x23F PUSH2 0xADB JUMP JUMPDEST PUSH1 0x40 MLOAD PUSH2 0x24D SWAP3 SWAP2 SWAP1 PUSH2 0x11CC JUMP JUMPDEST PUSH1 0x40 MLOAD DUP1 SWAP2 SUB SWAP1 RETURN JUMPDEST PUSH2 0x270 PUSH1 0x4 DUP1 CALLDATASIZE SUB DUP2 ADD SWAP1 PUSH2 0x26B SWAP2 SWAP1 PUSH2 0x10D6 JUMP JUMPDEST PUSH2 0xC7C JUMP JUMPDEST PUSH1 0x40 MLOAD PUSH2 0x27D SWAP2 SWAP1 PUSH2 0x111B JUMP JUMPDEST PUSH1 0x40 MLOAD DUP1 SWAP2 SUB SWAP1 RETURN JUMPDEST PUSH2 0x28E PUSH2 0xC99 JUMP JUMPDEST PUSH1 0x40 MLOAD PUSH2 0x29B SWAP2 SWAP1 PUSH2 0x144C JUMP JUMPDEST PUSH1 0x40 MLOAD DUP1 SWAP2 SUB SWAP1 RETURN JUMPDEST PUSH2 0x2BE PUSH1 0x4 DUP1 CALLDATASIZE SUB DUP2 ADD SWAP1 PUSH2 0x2B9 SWAP2 SWAP1 PUSH2 0x1051 JUMP JUMPDEST PUSH2 0xD24 JUMP JUMPDEST PUSH1 0x40 MLOAD PUSH2 0x2CB SWAP2 SWAP1 PUSH2 0x137C JUMP JUMPDEST PUSH1 0x40 MLOAD DUP1 SWAP2 SUB SWAP1 RETURN JUMPDEST PUSH2 0x2EE PUSH1 0x4 DUP1 CALLDATASIZE SUB DUP2 ADD SWAP1 PUSH2 0x2E9 SWAP2 SWAP1 PUSH2 0x10D6 JUMP JUMPDEST PUSH2 0xD5F JUMP JUMPDEST PUSH1 0x40 MLOAD PUSH2 0x2FB SWAP2 SWAP1 PUSH2 0x111B JUMP JUMPDEST PUSH1 0x40 MLOAD DUP1 SWAP2 SUB SWAP1 RETURN JUMPDEST PUSH2 0x31E PUSH1 0x4 DUP1 CALLDATASIZE SUB DUP2 ADD SWAP1 PUSH2 0x319 SWAP2 SWAP1 PUSH2 0x1530 JUMP JUMPDEST PUSH2 0xDB1 JUMP JUMPDEST STOP JUMPDEST PUSH1 0x2 PUSH0 CALLER PUSH20 0xFFFFFFFFFFFFFFFFFFFFFFFFFFFFFFFFFFFFFFFF AND PUSH20 0xFFFFFFFFFFFFFFFFFFFFFFFFFFFFFFFFFFFFFFFF AND DUP2 MSTORE PUSH1 0x20 ADD SWAP1 DUP2 MSTORE PUSH1 0x20 ADD PUSH0 KECCAK256 PUSH0 SWAP1 SLOAD SWAP1 PUSH2 0x100 EXP SWAP1 DIV PUSH1 0xFF AND PUSH2 0x3A9 JUMPI PUSH1 0x40 MLOAD PUSH32 0x8C379A000000000000000000000000000000000000000000000000000000000 DUP2 MSTORE PUSH1 0x4 ADD PUSH2 0x3A0 SWAP1 PUSH2 0x15C1 JUMP JUMPDEST PUSH1 0x40 MLOAD DUP1 SWAP2 SUB SWAP1 REVERT JUMPDEST PUSH1 0x3 PUSH0 CALLER PUSH20 0xFFFFFFFFFFFFFFFFFFFFFFFFFFFFFFFFFFFFFFFF AND PUSH20 0xFFFFFFFFFFFFFFFFFFFFFFFFFFFFFFFFFFFFFFFF AND DUP2 MSTORE PUSH1 0x20 ADD SWAP1 DUP2 MSTORE PUSH1 0x20 ADD PUSH0 KECCAK256 PUSH0 SWAP1 SLOAD SWAP1 PUSH2 0x100 EXP SWAP1 DIV PUSH1 0xFF AND ISZERO PUSH2 0x433 JUMPI PUSH1 0x40 MLOAD PUSH32 0x8C379A000000000000000000000000000000000000000000000000000000000 DUP2 MSTORE PUSH1 0x4 ADD PUSH2 0x42A SWAP1 PUSH2 0x1629 JUMP JUMPDEST PUSH1 0x40 MLOAD DUP1 SWAP2 SUB SWAP1 REVERT JUMPDEST PUSH1 0x1 DUP1 SLOAD SWAP1 POP DUP2 LT PUSH2 0x47A JUMPI PUSH1 0x40 MLOAD PUSH32 0x8C379A000000000000000000000000000000000000000000000000000000000 DUP2 MSTORE PUSH1 0x4 ADD PUSH2 0x471 SWAP1 PUSH2 0x1691 JUMP JUMPDEST PUSH1 0x40 MLOAD DUP1 SWAP2 SUB SWAP1 REVERT JUMPDEST PUSH1 0x1 PUSH1 0x3 PUSH0 CALLER PUSH20 0xFFFFFFFFFFFFFFFFFFFFFFFFFFFFFFFFFFFFFFFF AND PUSH20 0xFFFFFFFFFFFFFFFFFFFFFFFFFFFFFFFFFFFFFFFF AND DUP2 MSTORE PUSH1 0x20 ADD SWAP1 DUP2 MSTORE PUSH1 0x20 ADD PUSH0 KECCAK256 PUSH0 PUSH2 0x100 EXP DUP2 SLOAD DUP2 PUSH1 0xFF MUL NOT AND SWAP1 DUP4 ISZERO ISZERO MUL OR SWAP1 SSTORE POP PUSH1 0x1 DUP2 DUP2 SLOAD DUP2 LT PUSH2 0x4E3 JUMPI PUSH2 0x4E2 PUSH2 0x16AF JUMP JUMPDEST JUMPDEST SWAP1 PUSH0 MSTORE PUSH1 0x20 PUSH0 KECCAK256 SWAP1 PUSH1 0x2 MUL ADD PUSH1 0x1 ADD PUSH0 DUP2 SLOAD DUP1 SWAP3 SWAP2 SWAP1 PUSH2 0x502 SWAP1 PUSH2 0x1709 JUMP JUMPDEST SWAP2 SWAP1 POP SSTORE POP CALLER PUSH20 0xFFFFFFFFFFFFFFFFFFFFFFFFFFFFFFFFFFFFFFFF AND PUSH31 0x89C14BEF1F215EC2A9CAC0041A8A539033590F2AC7424E2F5659C48A08503 PUSH1 0x1 DUP4 DUP2 SLOAD DUP2 LT PUSH2 0x552 JUMPI PUSH2 0x551 PUSH2 0x16AF JUMP JUMPDEST JUMPDEST SWAP1 PUSH0 MSTORE PUSH1 0x20 PUSH0 KECCAK256 SWAP1 PUSH1 0x2 MUL ADD PUSH0 ADD DUP4 PUSH1 0x40 MLOAD PUSH2 0x56F SWAP3 SWAP2 SWAP1 PUSH2 0x1840 JUMP JUMPDEST PUSH1 0x40 MLOAD DUP1 SWAP2 SUB SWAP1 LOG2 POP JUMP JUMPDEST PUSH1 0x3 PUSH1 0x20 MSTORE DUP1 PUSH0 MSTORE PUSH1 0x40 PUSH0 KECCAK256 PUSH0 SWAP2 POP SLOAD SWAP1 PUSH2 0x100 EXP SWAP1 DIV PUSH1 0xFF AND DUP2 JUMP JUMPDEST PUSH0 PUSH1 0x4 DUP1 SLOAD SWAP1 POP SWAP1 POP SWAP1 JUMP JUMPDEST PUSH0 PUSH1 0x1 DUP1 SLOAD SWAP1 POP SWAP1 POP SWAP1 JUMP JUMPDEST PUSH1 0x1 DUP2 DUP2 SLOAD DUP2 LT PUSH2 0x5BE JUMPI PUSH0 DUP1 REVERT JUMPDEST SWAP1 PUSH0 MSTORE PUSH1 0x20 PUSH0 KECCAK256 SWAP1 PUSH1 0x2 MUL ADD PUSH0 SWAP2 POP SWAP1 POP DUP1 PUSH0 ADD DUP1 SLOAD PUSH2 0x5DD SWAP1 PUSH2 0x177D JUMP JUMPDEST DUP1 PUSH1 0x1F ADD PUSH1 0x20 DUP1 SWAP2 DIV MUL PUSH1 0x20 ADD PUSH1 0x40 MLOAD SWAP1 DUP2 ADD PUSH1 0x40 MSTORE DUP1 SWAP3 SWAP2 SWAP1 DUP2 DUP2 MSTORE PUSH1 0x20 ADD DUP3 DUP1 SLOAD PUSH2 0x609 SWAP1 PUSH2 0x177D JUMP JUMPDEST DUP1 ISZERO PUSH2 0x654 JUMPI DUP1 PUSH1 0x1F LT PUSH2 0x62B JUMPI PUSH2 0x100 DUP1 DUP4 SLOAD DIV MUL DUP4 MSTORE SWAP2 PUSH1 0x20 ADD SWAP2 PUSH2 0x654 JUMP JUMPDEST DUP3 ADD SWAP2 SWAP1 PUSH0 MSTORE PUSH1 0x20 PUSH0 KECCAK256 SWAP1 JUMPDEST DUP2 SLOAD DUP2 MSTORE SWAP1 PUSH1 0x1 ADD SWAP1 PUSH1 0x20 ADD DUP1 DUP4 GT PUSH2 0x637 JUMPI DUP3 SWAP1 SUB PUSH1 0x1F AND DUP3 ADD SWAP2 JUMPDEST POP POP POP POP POP SWAP1 DUP1 PUSH1 0x1 ADD SLOAD SWAP1 POP DUP3 JUMP JUMPDEST PUSH1 0x60 PUSH0 PUSH1 0x1 DUP1 SLOAD SWAP1 POP DUP4 LT PUSH2 0x6AE JUMPI PUSH1 0x40 MLOAD PUSH32 0x8C379A000000000000000000000000000000000000000000000000000000000 DUP2 MSTORE PUSH1 0x4 ADD PUSH2 0x6A5 SWAP1 PUSH2 0x18B8 JUMP JUMPDEST PUSH1 0x40 MLOAD DUP1 SWAP2 SUB SWAP1 REVERT JUMPDEST PUSH0 PUSH1 0x1 DUP5 DUP2 SLOAD DUP2 LT PUSH2 0x6C3 JUMPI PUSH2 0x6C2 PUSH2 0x16AF JUMP JUMPDEST JUMPDEST SWAP1 PUSH0 MSTORE PUSH1 0x20 PUSH0 KECCAK256 SWAP1 PUSH1 0x2 MUL ADD SWAP1 POP DUP1 PUSH0 ADD DUP2 PUSH1 0x1 ADD SLOAD DUP2 DUP1 SLOAD PUSH2 0x6E5 SWAP1 PUSH2 0x177D JUMP JUMPDEST DUP1 PUSH1 0x1F ADD PUSH1 0x20 DUP1 SWAP2 DIV MUL PUSH1 0x20 ADD PUSH1 0x40 MLOAD SWAP1 DUP2 ADD PUSH1 0x40 MSTORE DUP1 SWAP3 SWAP2 SWAP1 DUP2 DUP2 MSTORE PUSH1 0x20 ADD DUP3 DUP1 SLOAD PUSH2 0x711 SWAP1 PUSH2 0x177D JUMP JUMPDEST DUP1 ISZERO PUSH2 0x75C JUMPI DUP1 PUSH1 0x1F LT PUSH2 0x733 JUMPI PUSH2 0x100 DUP1 DUP4 SLOAD DIV MUL DUP4 MSTORE SWAP2 PUSH1 0x20 ADD SWAP2 PUSH2 0x75C JUMP JUMPDEST DUP3 ADD SWAP2 SWAP1 PUSH0 MSTORE PUSH1 0x20 PUSH0 KECCAK256 SWAP1 JUMPDEST DUP2 SLOAD DUP2 MSTORE SWAP1 PUSH1 0x1 ADD SWAP1 PUSH1 0x20 ADD DUP1 DUP4 GT PUSH2 0x73F JUMPI DUP3 SWAP1 SUB PUSH1 0x1F AND DUP3 ADD SWAP2 JUMPDEST POP POP POP POP POP SWAP2 POP SWAP3 POP SWAP3 POP POP SWAP2 POP SWAP2 JUMP JUMPDEST PUSH0 PUSH0 SWAP1 SLOAD SWAP1 PUSH2 0x100 EXP SWAP1 DIV PUSH20 0xFFFFFFFFFFFFFFFFFFFFFFFFFFFFFFFFFFFFFFFF AND PUSH20 0xFFFFFFFFFFFFFFFFFFFFFFFFFFFFFFFFFFFFFFFF AND CALLER PUSH20 0xFFFFFFFFFFFFFFFFFFFFFFFFFFFFFFFFFFFFFFFF AND EQ PUSH2 0x7FB JUMPI PUSH1 0x40 MLOAD PUSH32 0x8C379A000000000000000000000000000000000000000000000000000000000 DUP2 MSTORE PUSH1 0x4 ADD PUSH2 0x7F2 SWAP1 PUSH2 0x1946 JUMP JUMPDEST PUSH1 0x40 MLOAD DUP1 SWAP2 SUB SWAP1 REVERT JUMPDEST PUSH1 0x2 PUSH0 DUP3 PUSH20 0xFFFFFFFFFFFFFFFFFFFFFFFFFFFFFFFFFFFFFFFF AND PUSH20 0xFFFFFFFFFFFFFFFFFFFFFFFFFFFFFFFFFFFFFFFF AND DUP2 MSTORE PUSH1 0x20 ADD SWAP1 DUP2 MSTORE PUSH1 0x20 ADD PUSH0 KECCAK256 PUSH0 SWAP1 SLOAD SWAP1 PUSH2 0x100 EXP SWAP1 DIV PUSH1 0xFF AND ISZERO PUSH2 0x885 JUMPI PUSH1 0x40 MLOAD PUSH32 0x8C379A000000000000000000000000000000000000000000000000000000000 DUP2 MSTORE PUSH1 0x4 ADD PUSH2 0x87C SWAP1 PUSH2 0x19AE JUMP JUMPDEST PUSH1 0x40 MLOAD DUP1 SWAP2 SUB SWAP1 REVERT JUMPDEST PUSH1 0x1 PUSH1 0x2 PUSH0 DUP4 PUSH20 0xFFFFFFFFFFFFFFFFFFFFFFFFFFFFFFFFFFFFFFFF AND PUSH20 0xFFFFFFFFFFFFFFFFFFFFFFFFFFFFFFFFFFFFFFFF AND DUP2 MSTORE PUSH1 0x20 ADD SWAP1 DUP2 MSTORE PUSH1 0x20 ADD PUSH0 KECCAK256 PUSH0 PUSH2 0x100 EXP DUP2 SLOAD DUP2 PUSH1 0xFF MUL NOT AND SWAP1 DUP4 ISZERO ISZERO MUL OR SWAP1 SSTORE POP PUSH1 0x4 DUP2 SWAP1 DUP1 PUSH1 0x1 DUP2 SLOAD ADD DUP1 DUP3 SSTORE DUP1 SWAP2 POP POP PUSH1 0x1 SWAP1 SUB SWAP1 PUSH0 MSTORE PUSH1 0x20 PUSH0 KECCAK256 ADD PUSH0 SWAP1 SWAP2 SWAP1 SWAP2 SWAP1 SWAP2 PUSH2 0x100 EXP DUP2 SLOAD DUP2 PUSH20 0xFFFFFFFFFFFFFFFFFFFFFFFFFFFFFFFFFFFFFFFF MUL NOT AND SWAP1 DUP4 PUSH20 0xFFFFFFFFFFFFFFFFFFFFFFFFFFFFFFFFFFFFFFFF AND MUL OR SWAP1 SSTORE POP DUP1 PUSH20 0xFFFFFFFFFFFFFFFFFFFFFFFFFFFFFFFFFFFFFFFF AND PUSH32 0xB6BE2187D059CC2A55FE29E0E503B566E1E0F8C8780096E185429350ACFFD3DD PUSH1 0x40 MLOAD PUSH1 0x40 MLOAD DUP1 SWAP2 SUB SWAP1 LOG2 POP JUMP JUMPDEST PUSH0 PUSH0 SWAP1 SLOAD SWAP1 PUSH2 0x100 EXP SWAP1 DIV PUSH20 0xFFFFFFFFFFFFFFFFFFFFFFFFFFFFFFFFFFFFFFFF AND PUSH20 0xFFFFFFFFFFFFFFFFFFFFFFFFFFFFFFFFFFFFFFFF AND CALLER PUSH20 0xFFFFFFFFFFFFFFFFFFFFFFFFFFFFFFFFFFFFFFFF AND EQ PUSH2 0xA0E JUMPI PUSH1 0x40 MLOAD PUSH32 0x8C379A000000000000000000000000000000000000000000000000000000000 DUP2 MSTORE PUSH1 0x4 ADD PUSH2 0xA05 SWAP1 PUSH2 0x1946 JUMP JUMPDEST PUSH1 0x40 MLOAD DUP1 SWAP2 SUB SWAP1 REVERT JUMPDEST PUSH1 0x1 PUSH1 0x40 MLOAD DUP1 PUSH1 0x40 ADD PUSH1 0x40 MSTORE DUP1 DUP4 DUP2 MSTORE PUSH1 0x20 ADD PUSH0 DUP2 MSTORE POP SWAP1 DUP1 PUSH1 0x1 DUP2 SLOAD ADD DUP1 DUP3 SSTORE DUP1 SWAP2 POP POP PUSH1 0x1 SWAP1 SUB SWAP1 PUSH0 MSTORE PUSH1 0x20 PUSH0 KECCAK256 SWAP1 PUSH1 0x2 MUL ADD PUSH0 SWAP1 SWAP2 SWAP1 SWAP2 SWAP1 SWAP2 POP PUSH0 DUP3 ADD MLOAD DUP2 PUSH0 ADD SWAP1 DUP2 PUSH2 0xA5E SWAP2 SWAP1 PUSH2 0x1B6B JUMP JUMPDEST POP PUSH1 0x20 DUP3 ADD MLOAD DUP2 PUSH1 0x1 ADD SSTORE POP POP PUSH32 0xA89E28469FA9E15D5149634A9CE8D8DD59EC42C18BA2D281B08C305F2095ACEF DUP2 PUSH1 0x1 DUP1 DUP1 SLOAD SWAP1 POP PUSH2 0xA9E SWAP2 SWAP1 PUSH2 0x1C3A JUMP JUMPDEST PUSH1 0x40 MLOAD PUSH2 0xAAC SWAP3 SWAP2 SWAP1 PUSH2 0x11CC JUMP JUMPDEST PUSH1 0x40 MLOAD DUP1 SWAP2 SUB SWAP1 LOG1 POP JUMP JUMPDEST PUSH0 PUSH0 SWAP1 SLOAD SWAP1 PUSH2 0x100 EXP SWAP1 DIV PUSH20 0xFFFFFFFFFFFFFFFFFFFFFFFFFFFFFFFFFFFFFFFF AND DUP2 JUMP JUMPDEST PUSH1 0x60 PUSH0 PUSH0 PUSH1 0x1 DUP1 SLOAD SWAP1 POP GT PUSH2 0xB25 JUMPI PUSH1 0x40 MLOAD PUSH32 0x8C379A000000000000000000000000000000000000000000000000000000000 DUP2 MSTORE PUSH1 0x4 ADD PUSH2 0xB1C SWAP1 PUSH2 0x1CB7 JUMP JUMPDEST PUSH1 0x40 MLOAD DUP1 SWAP2 SUB SWAP1 REVERT JUMPDEST PUSH0 PUSH0 SWAP1 POP PUSH0 PUSH0 SWAP1 POP PUSH0 PUSH0 SWAP1 POP JUMPDEST PUSH1 0x1 DUP1 SLOAD SWAP1 POP DUP2 LT ISZERO PUSH2 0xBA1 JUMPI DUP3 PUSH1 0x1 DUP3 DUP2 SLOAD DUP2 LT PUSH2 0xB54 JUMPI PUSH2 0xB53 PUSH2 0x16AF JUMP JUMPDEST JUMPDEST SWAP1 PUSH0 MSTORE PUSH1 0x20 PUSH0 KECCAK256 SWAP1 PUSH1 0x2 MUL ADD PUSH1 0x1 ADD SLOAD GT ISZERO PUSH2 0xB94 JUMPI PUSH1 0x1 DUP2 DUP2 SLOAD DUP2 LT PUSH2 0xB7E JUMPI PUSH2 0xB7D PUSH2 0x16AF JUMP JUMPDEST JUMPDEST SWAP1 PUSH0 MSTORE PUSH1 0x20 PUSH0 KECCAK256 SWAP1 PUSH1 0x2 MUL ADD PUSH1 0x1 ADD SLOAD SWAP3 POP DUP1 SWAP2 POP JUMPDEST DUP1 DUP1 PUSH1 0x1 ADD SWAP2 POP POP PUSH2 0xB32 JUMP JUMPDEST POP PUSH1 0x1 DUP2 DUP2 SLOAD DUP2 LT PUSH2 0xBB6 JUMPI PUSH2 0xBB5 PUSH2 0x16AF JUMP JUMPDEST JUMPDEST SWAP1 PUSH0 MSTORE PUSH1 0x20 PUSH0 KECCAK256 SWAP1 PUSH1 0x2 MUL ADD PUSH0 ADD PUSH1 0x1 DUP3 DUP2 SLOAD DUP2 LT PUSH2 0xBD8 JUMPI PUSH2 0xBD7 PUSH2 0x16AF JUMP JUMPDEST JUMPDEST SWAP1 PUSH0 MSTORE PUSH1 0x20 PUSH0 KECCAK256 SWAP1 PUSH1 0x2 MUL ADD PUSH1 0x1 ADD SLOAD DUP2 DUP1 SLOAD PUSH2 0xBF4 SWAP1 PUSH2 0x177D JUMP JUMPDEST DUP1 PUSH1 0x1F ADD PUSH1 0x20 DUP1 SWAP2 DIV MUL PUSH1 0x20 ADD PUSH1 0x40 MLOAD SWAP1 DUP2 ADD PUSH1 0x40 MSTORE DUP1 SWAP3 SWAP2 SWAP1 DUP2 DUP2 MSTORE PUSH1 0x20 ADD DUP3 DUP1 SLOAD PUSH2 0xC20 SWAP1 PUSH2 0x177D JUMP JUMPDEST DUP1 ISZERO PUSH2 0xC6B JUMPI DUP1 PUSH1 0x1F LT PUSH2 0xC42 JUMPI PUSH2 0x100 DUP1 DUP4 SLOAD DIV MUL DUP4 MSTORE SWAP2 PUSH1 0x20 ADD SWAP2 PUSH2 0xC6B JUMP JUMPDEST DUP3 ADD SWAP2 SWAP1 PUSH0 MSTORE PUSH1 0x20 PUSH0 KECCAK256 SWAP1 JUMPDEST DUP2 SLOAD DUP2 MSTORE SWAP1 PUSH1 0x1 ADD SWAP1 PUSH1 0x20 ADD DUP1 DUP4 GT PUSH2 0xC4E JUMPI DUP3 SWAP1 SUB PUSH1 0x1F AND DUP3 ADD SWAP2 JUMPDEST POP POP POP POP POP SWAP2 POP SWAP4 POP SWAP4 POP POP POP SWAP1 SWAP2 JUMP JUMPDEST PUSH1 0x2 PUSH1 0x20 MSTORE DUP1 PUSH0 MSTORE PUSH1 0x40 PUSH0 KECCAK256 PUSH0 SWAP2 POP SLOAD SWAP1 PUSH2 0x100 EXP SWAP1 DIV PUSH1 0xFF AND DUP2 JUMP JUMPDEST PUSH1 0x60 PUSH1 0x4 DUP1 SLOAD DUP1 PUSH1 0x20 MUL PUSH1 0x20 ADD PUSH1 0x40 MLOAD SWAP1 DUP2 ADD PUSH1 0x40 MSTORE DUP1 SWAP3 SWAP2 SWAP1 DUP2 DUP2 MSTORE PUSH1 0x20 ADD DUP3 DUP1 SLOAD DUP1 ISZERO PUSH2 0xD1A JUMPI PUSH1 0x20 MUL DUP3 ADD SWAP2 SWAP1 PUSH0 MSTORE PUSH1 0x20 PUSH0 KECCAK256 SWAP1 JUMPDEST DUP2 PUSH0 SWAP1 SLOAD SWAP1 PUSH2 0x100 EXP SWAP1 DIV PUSH20 0xFFFFFFFFFFFFFFFFFFFFFFFFFFFFFFFFFFFFFFFF AND PUSH20 0xFFFFFFFFFFFFFFFFFFFFFFFFFFFFFFFFFFFFFFFF AND DUP2 MSTORE PUSH1 0x20 ADD SWAP1 PUSH1 0x1 ADD SWAP1 DUP1 DUP4 GT PUSH2 0xCD1 JUMPI JUMPDEST POP POP POP POP POP SWAP1 POP SWAP1 JUMP JUMPDEST PUSH1 0x4 DUP2 DUP2 SLOAD DUP2 LT PUSH2 0xD33 JUMPI PUSH0 DUP1 REVERT JUMPDEST SWAP1 PUSH0 MSTORE PUSH1 0x20 PUSH0 KECCAK256 ADD PUSH0 SWAP2 POP SLOAD SWAP1 PUSH2 0x100 EXP SWAP1 DIV PUSH20 0xFFFFFFFFFFFFFFFFFFFFFFFFFFFFFFFFFFFFFFFF AND DUP2 JUMP JUMPDEST PUSH0 PUSH1 0x2 PUSH0 DUP4 PUSH20 0xFFFFFFFFFFFFFFFFFFFFFFFFFFFFFFFFFFFFFFFF AND PUSH20 0xFFFFFFFFFFFFFFFFFFFFFFFFFFFFFFFFFFFFFFFF AND DUP2 MSTORE PUSH1 0x20 ADD SWAP1 DUP2 MSTORE PUSH1 0x20 ADD PUSH0 KECCAK256 PUSH0 SWAP1 SLOAD SWAP1 PUSH2 0x100 EXP SWAP1 DIV PUSH1 0xFF AND SWAP1 POP SWAP2 SWAP1 POP JUMP JUMPDEST PUSH0 PUSH0 SWAP1 SLOAD SWAP1 PUSH2 0x100 EXP SWAP1 DIV PUSH20 0xFFFFFFFFFFFFFFFFFFFFFFFFFFFFFFFFFFFFFFFF AND PUSH20 0xFFFFFFFFFFFFFFFFFFFFFFFFFFFFFFFFFFFFFFFF AND CALLER PUSH20 0xFFFFFFFFFFFFFFFFFFFFFFFFFFFFFFFFFFFFFFFF AND EQ PUSH2 0xE3F JUMPI PUSH1 0x40 MLOAD PUSH32 0x8C379A000000000000000000000000000000000000000000000000000000000 DUP2 MSTORE PUSH1 0x4 ADD PUSH2 0xE36 SWAP1 PUSH2 0x1946 JUMP JUMPDEST PUSH1 0x40 MLOAD DUP1 SWAP2 SUB SWAP1 REVERT JUMPDEST PUSH0 PUSH0 SWAP1 POP JUMPDEST DUP2 MLOAD DUP2 LT ISZERO PUSH2 0x1009 JUMPI PUSH1 0x2 PUSH0 DUP4 DUP4 DUP2 MLOAD DUP2 LT PUSH2 0xE63 JUMPI PUSH2 0xE62 PUSH2 0x16AF JUMP JUMPDEST JUMPDEST PUSH1 0x20 MUL PUSH1 0x20 ADD ADD MLOAD PUSH20 0xFFFFFFFFFFFFFFFFFFFFFFFFFFFFFFFFFFFFFFFF AND PUSH20 0xFFFFFFFFFFFFFFFFFFFFFFFFFFFFFFFFFFFFFFFF AND DUP2 MSTORE PUSH1 0x20 ADD SWAP1 DUP2 MSTORE PUSH1 0x20 ADD PUSH0 KECCAK256 PUSH0 SWAP1 SLOAD SWAP1 PUSH2 0x100 EXP SWAP1 DIV PUSH1 0xFF AND PUSH2 0xFFC JUMPI PUSH1 0x1 PUSH1 0x2 PUSH0 DUP5 DUP5 DUP2 MLOAD DUP2 LT PUSH2 0xECD JUMPI PUSH2 0xECC PUSH2 0x16AF JUMP JUMPDEST JUMPDEST PUSH1 0x20 MUL PUSH1 0x20 ADD ADD MLOAD PUSH20 0xFFFFFFFFFFFFFFFFFFFFFFFFFFFFFFFFFFFFFFFF AND PUSH20 0xFFFFFFFFFFFFFFFFFFFFFFFFFFFFFFFFFFFFFFFF AND DUP2 MSTORE PUSH1 0x20 ADD SWAP1 DUP2 MSTORE PUSH1 0x20 ADD PUSH0 KECCAK256 PUSH0 PUSH2 0x100 EXP DUP2 SLOAD DUP2 PUSH1 0xFF MUL NOT AND SWAP1 DUP4 ISZERO ISZERO MUL OR SWAP1 SSTORE POP PUSH1 0x4 DUP3 DUP3 DUP2 MLOAD DUP2 LT PUSH2 0xF39 JUMPI PUSH2 0xF38 PUSH2 0x16AF JUMP JUMPDEST JUMPDEST PUSH1 0x20 MUL PUSH1 0x20 ADD ADD MLOAD SWAP1 DUP1 PUSH1 0x1 DUP2 SLOAD ADD DUP1 DUP3 SSTORE DUP1 SWAP2 POP POP PUSH1 0x1 SWAP1 SUB SWAP1 PUSH0 MSTORE PUSH1 0x20 PUSH0 KECCAK256 ADD PUSH0 SWAP1 SWAP2 SWAP1 SWAP2 SWAP1 SWAP2 PUSH2 0x100 EXP DUP2 SLOAD DUP2 PUSH20 0xFFFFFFFFFFFFFFFFFFFFFFFFFFFFFFFFFFFFFFFF MUL NOT AND SWAP1 DUP4 PUSH20 0xFFFFFFFFFFFFFFFFFFFFFFFFFFFFFFFFFFFFFFFF AND MUL OR SWAP1 SSTORE POP DUP2 DUP2 DUP2 MLOAD DUP2 LT PUSH2 0xFB1 JUMPI PUSH2 0xFB0 PUSH2 0x16AF JUMP JUMPDEST JUMPDEST PUSH1 0x20 MUL PUSH1 0x20 ADD ADD MLOAD PUSH20 0xFFFFFFFFFFFFFFFFFFFFFFFFFFFFFFFFFFFFFFFF AND PUSH32 0xB6BE2187D059CC2A55FE29E0E503B566E1E0F8C8780096E185429350ACFFD3DD PUSH1 0x40 MLOAD PUSH1 0x40 MLOAD DUP1 SWAP2 SUB SWAP1 LOG2 JUMPDEST DUP1 DUP1 PUSH1 0x1 ADD SWAP2 POP POP PUSH2 0xE44 JUMP JUMPDEST POP POP JUMP JUMPDEST PUSH0 PUSH1 0x40 MLOAD SWAP1 POP SWAP1 JUMP JUMPDEST PUSH0 PUSH0 REVERT JUMPDEST PUSH0 PUSH0 REVERT JUMPDEST PUSH0 DUP2 SWAP1 POP SWAP2 SWAP1 POP JUMP JUMPDEST PUSH2 0x1030 DUP2 PUSH2 0x101E JUMP JUMPDEST DUP2 EQ PUSH2 0x103A JUMPI PUSH0 PUSH0 REVERT JUMPDEST POP JUMP JUMPDEST PUSH0 DUP2 CALLDATALOAD SWAP1 POP PUSH2 0x104B DUP2 PUSH2 0x1027 JUMP JUMPDEST SWAP3 SWAP2 POP POP JUMP JUMPDEST PUSH0 PUSH1 0x20 DUP3 DUP5 SUB SLT ISZERO PUSH2 0x1066 JUMPI PUSH2 0x1065 PUSH2 0x1016 JUMP JUMPDEST JUMPDEST PUSH0 PUSH2 0x1073 DUP5 DUP3 DUP6 ADD PUSH2 0x103D JUMP JUMPDEST SWAP2 POP POP SWAP3 SWAP2 POP POP JUMP JUMPDEST PUSH0 PUSH20 0xFFFFFFFFFFFFFFFFFFFFFFFFFFFFFFFFFFFFFFFF DUP3 AND SWAP1 POP SWAP2 SWAP1 POP JUMP JUMPDEST PUSH0 PUSH2 0x10A5 DUP3 PUSH2 0x107C JUMP JUMPDEST SWAP1 POP SWAP2 SWAP1 POP JUMP JUMPDEST PUSH2 0x10B5 DUP2 PUSH2 0x109B JUMP JUMPDEST DUP2 EQ PUSH2 0x10BF JUMPI PUSH0 PUSH0 REVERT JUMPDEST POP JUMP JUMPDEST PUSH0 DUP2 CALLDATALOAD SWAP1 POP PUSH2 0x10D0 DUP2 PUSH2 0x10AC JUMP JUMPDEST SWAP3 SWAP2 POP POP JUMP JUMPDEST PUSH0 PUSH1 0x20 DUP3 DUP5 SUB SLT ISZERO PUSH2 0x10EB JUMPI PUSH2 0x10EA PUSH2 0x1016 JUMP JUMPDEST JUMPDEST PUSH0 PUSH2 0x10F8 DUP5 DUP3 DUP6 ADD PUSH2 0x10C2 JUMP JUMPDEST SWAP2 POP POP SWAP3 SWAP2 POP POP JUMP JUMPDEST PUSH0 DUP2 ISZERO ISZERO SWAP1 POP SWAP2 SWAP1 POP JUMP JUMPDEST PUSH2 0x1115 DUP2 PUSH2 0x1101 JUMP JUMPDEST DUP3 MSTORE POP POP JUMP JUMPDEST PUSH0 PUSH1 0x20 DUP3 ADD SWAP1 POP PUSH2 0x112E PUSH0 DUP4 ADD DUP5 PUSH2 0x110C JUMP JUMPDEST SWAP3 SWAP2 POP POP JUMP JUMPDEST PUSH2 0x113D DUP2 PUSH2 0x101E JUMP JUMPDEST DUP3 MSTORE POP POP JUMP JUMPDEST PUSH0 PUSH1 0x20 DUP3 ADD SWAP1 POP PUSH2 0x1156 PUSH0 DUP4 ADD DUP5 PUSH2 0x1134 JUMP JUMPDEST SWAP3 SWAP2 POP POP JUMP JUMPDEST PUSH0 DUP2 MLOAD SWAP1 POP SWAP2 SWAP1 POP JUMP JUMPDEST PUSH0 DUP3 DUP3 MSTORE PUSH1 0x20 DUP3 ADD SWAP1 POP SWAP3 SWAP2 POP POP JUMP JUMPDEST DUP3 DUP2 DUP4 MCOPY PUSH0 DUP4 DUP4 ADD MSTORE POP POP POP JUMP JUMPDEST PUSH0 PUSH1 0x1F NOT PUSH1 0x1F DUP4 ADD AND SWAP1 POP SWAP2 SWAP1 POP JUMP JUMPDEST PUSH0 PUSH2 0x119E DUP3 PUSH2 0x115C JUMP JUMPDEST PUSH2 0x11A8 DUP2 DUP6 PUSH2 0x1166 JUMP JUMPDEST SWAP4 POP PUSH2 0x11B8 DUP2 DUP6 PUSH1 0x20 DUP7 ADD PUSH2 0x1176 JUMP JUMPDEST PUSH2 0x11C1 DUP2 PUSH2 0x1184 JUMP JUMPDEST DUP5 ADD SWAP2 POP POP SWAP3 SWAP2 POP POP JUMP JUMPDEST PUSH0 PUSH1 0x40 DUP3 ADD SWAP1 POP DUP2 DUP2 SUB PUSH0 DUP4 ADD MSTORE PUSH2 0x11E4 DUP2 DUP6 PUSH2 0x1194 JUMP JUMPDEST SWAP1 POP PUSH2 0x11F3 PUSH1 0x20 DUP4 ADD DUP5 PUSH2 0x1134 JUMP JUMPDEST SWAP4 SWAP3 POP POP POP JUMP JUMPDEST PUSH0 PUSH0 REVERT JUMPDEST PUSH0 PUSH0 REVERT JUMPDEST PUSH32 0x4E487B7100000000000000000000000000000000000000000000000000000000 PUSH0 MSTORE PUSH1 0x41 PUSH1 0x4 MSTORE PUSH1 0x24 PUSH0 REVERT JUMPDEST PUSH2 0x1238 DUP3 PUSH2 0x1184 JUMP JUMPDEST DUP2 ADD DUP2 DUP2 LT PUSH8 0xFFFFFFFFFFFFFFFF DUP3 GT OR ISZERO PUSH2 0x1257 JUMPI PUSH2 0x1256 PUSH2 0x1202 JUMP JUMPDEST JUMPDEST DUP1 PUSH1 0x40 MSTORE POP POP POP JUMP JUMPDEST PUSH0 PUSH2 0x1269 PUSH2 0x100D JUMP JUMPDEST SWAP1 POP PUSH2 0x1275 DUP3 DUP3 PUSH2 0x122F JUMP JUMPDEST SWAP2 SWAP1 POP JUMP JUMPDEST PUSH0 PUSH8 0xFFFFFFFFFFFFFFFF DUP3 GT ISZERO PUSH2 0x1294 JUMPI PUSH2 0x1293 PUSH2 0x1202 JUMP JUMPDEST JUMPDEST PUSH2 0x129D DUP3 PUSH2 0x1184 JUMP JUMPDEST SWAP1 POP PUSH1 0x20 DUP2 ADD SWAP1 POP SWAP2 SWAP1 POP JUMP JUMPDEST DUP3 DUP2 DUP4 CALLDATACOPY PUSH0 DUP4 DUP4 ADD MSTORE POP POP POP JUMP JUMPDEST PUSH0 PUSH2 0x12CA PUSH2 0x12C5 DUP5 PUSH2 0x127A JUMP JUMPDEST PUSH2 0x1260 JUMP JUMPDEST SWAP1 POP DUP3 DUP2 MSTORE PUSH1 0x20 DUP2 ADD DUP5 DUP5 DUP5 ADD GT ISZERO PUSH2 0x12E6 JUMPI PUSH2 0x12E5 PUSH2 0x11FE JUMP JUMPDEST JUMPDEST PUSH2 0x12F1 DUP5 DUP3 DUP6 PUSH2 0x12AA JUMP JUMPDEST POP SWAP4 SWAP3 POP POP POP JUMP JUMPDEST PUSH0 DUP3 PUSH1 0x1F DUP4 ADD SLT PUSH2 0x130D JUMPI PUSH2 0x130C PUSH2 0x11FA JUMP JUMPDEST JUMPDEST DUP2 CALLDATALOAD PUSH2 0x131D DUP5 DUP3 PUSH1 0x20 DUP7 ADD PUSH2 0x12B8 JUMP JUMPDEST SWAP2 POP POP SWAP3 SWAP2 POP POP JUMP JUMPDEST PUSH0 PUSH1 0x20 DUP3 DUP5 SUB SLT ISZERO PUSH2 0x133B JUMPI PUSH2 0x133A PUSH2 0x1016 JUMP JUMPDEST JUMPDEST PUSH0 DUP3 ADD CALLDATALOAD PUSH8 0xFFFFFFFFFFFFFFFF DUP2 GT ISZERO PUSH2 0x1358 JUMPI PUSH2 0x1357 PUSH2 0x101A JUMP JUMPDEST JUMPDEST PUSH2 0x1364 DUP5 DUP3 DUP6 ADD PUSH2 0x12F9 JUMP JUMPDEST SWAP2 POP POP SWAP3 SWAP2 POP POP JUMP JUMPDEST PUSH2 0x1376 DUP2 PUSH2 0x109B JUMP JUMPDEST DUP3 MSTORE POP POP JUMP JUMPDEST PUSH0 PUSH1 0x20 DUP3 ADD SWAP1 POP PUSH2 0x138F PUSH0 DUP4 ADD DUP5 PUSH2 0x136D JUMP JUMPDEST SWAP3 SWAP2 POP POP JUMP JUMPDEST PUSH0 DUP2 MLOAD SWAP1 POP SWAP2 SWAP1 POP JUMP JUMPDEST PUSH0 DUP3 DUP3 MSTORE PUSH1 0x20 DUP3 ADD SWAP1 POP SWAP3 SWAP2 POP POP JUMP JUMPDEST PUSH0 DUP2 SWAP1 POP PUSH1 0x20 DUP3 ADD SWAP1 POP SWAP2 SWAP1 POP JUMP JUMPDEST PUSH2 0x13C7 DUP2 PUSH2 0x109B JUMP JUMPDEST DUP3 MSTORE POP POP JUMP JUMPDEST PUSH0 PUSH2 0x13D8 DUP4 DUP4 PUSH2 0x13BE JUMP JUMPDEST PUSH1 0x20 DUP4 ADD SWAP1 POP SWAP3 SWAP2 POP POP JUMP JUMPDEST PUSH0 PUSH1 0x20 DUP3 ADD SWAP1 POP SWAP2 SWAP1 POP JUMP JUMPDEST PUSH0 PUSH2 0x13FA DUP3 PUSH2 0x1395 JUMP JUMPDEST PUSH2 0x1404 DUP2 DUP6 PUSH2 0x139F JUMP JUMPDEST SWAP4 POP PUSH2 0x140F DUP4 PUSH2 0x13AF JUMP JUMPDEST DUP1 PUSH0 JUMPDEST DUP4 DUP2 LT ISZERO PUSH2 0x143F JUMPI DUP2 MLOAD PUSH2 0x1426 DUP9 DUP3 PUSH2 0x13CD JUMP JUMPDEST SWAP8 POP PUSH2 0x1431 DUP4 PUSH2 0x13E4 JUMP JUMPDEST SWAP3 POP POP PUSH1 0x1 DUP2 ADD SWAP1 POP PUSH2 0x1412 JUMP JUMPDEST POP DUP6 SWAP4 POP POP POP POP SWAP3 SWAP2 POP POP JUMP JUMPDEST PUSH0 PUSH1 0x20 DUP3 ADD SWAP1 POP DUP2 DUP2 SUB PUSH0 DUP4 ADD MSTORE PUSH2 0x1464 DUP2 DUP5 PUSH2 0x13F0 JUMP JUMPDEST SWAP1 POP SWAP3 SWAP2 POP POP JUMP JUMPDEST PUSH0 PUSH8 0xFFFFFFFFFFFFFFFF DUP3 GT ISZERO PUSH2 0x1486 JUMPI PUSH2 0x1485 PUSH2 0x1202 JUMP JUMPDEST JUMPDEST PUSH1 0x20 DUP3 MUL SWAP1 POP PUSH1 0x20 DUP2 ADD SWAP1 POP SWAP2 SWAP1 POP JUMP JUMPDEST PUSH0 PUSH0 REVERT JUMPDEST PUSH0 PUSH2 0x14AD PUSH2 0x14A8 DUP5 PUSH2 0x146C JUMP JUMPDEST PUSH2 0x1260 JUMP JUMPDEST SWAP1 POP DUP1 DUP4 DUP3 MSTORE PUSH1 0x20 DUP3 ADD SWAP1 POP PUSH1 0x20 DUP5 MUL DUP4 ADD DUP6 DUP2 GT ISZERO PUSH2 0x14D0 JUMPI PUSH2 0x14CF PUSH2 0x1497 JUMP JUMPDEST JUMPDEST DUP4 JUMPDEST DUP2 DUP2 LT ISZERO PUSH2 0x14F9 JUMPI DUP1 PUSH2 0x14E5 DUP9 DUP3 PUSH2 0x10C2 JUMP JUMPDEST DUP5 MSTORE PUSH1 0x20 DUP5 ADD SWAP4 POP POP PUSH1 0x20 DUP2 ADD SWAP1 POP PUSH2 0x14D2 JUMP JUMPDEST POP POP POP SWAP4 SWAP3 POP POP POP JUMP JUMPDEST PUSH0 DUP3 PUSH1 0x1F DUP4 ADD SLT PUSH2 0x1517 JUMPI PUSH2 0x1516 PUSH2 0x11FA JUMP JUMPDEST JUMPDEST DUP2 CALLDATALOAD PUSH2 0x1527 DUP5 DUP3 PUSH1 0x20 DUP7 ADD PUSH2 0x149B JUMP JUMPDEST SWAP2 POP POP SWAP3 SWAP2 POP POP JUMP JUMPDEST PUSH0 PUSH1 0x20 DUP3 DUP5 SUB SLT ISZERO PUSH2 0x1545 JUMPI PUSH2 0x1544 PUSH2 0x1016 JUMP JUMPDEST JUMPDEST PUSH0 DUP3 ADD CALLDATALOAD PUSH8 0xFFFFFFFFFFFFFFFF DUP2 GT ISZERO PUSH2 0x1562 JUMPI PUSH2 0x1561 PUSH2 0x101A JUMP JUMPDEST JUMPDEST PUSH2 0x156E DUP5 DUP3 DUP6 ADD PUSH2 0x1503 JUMP JUMPDEST SWAP2 POP POP SWAP3 SWAP2 POP POP JUMP JUMPDEST PUSH32 0x596F7520617265206E6F742061207265676973746572656420766F7465720000 PUSH0 DUP3 ADD MSTORE POP JUMP JUMPDEST PUSH0 PUSH2 0x15AB PUSH1 0x1E DUP4 PUSH2 0x1166 JUMP JUMPDEST SWAP2 POP PUSH2 0x15B6 DUP3 PUSH2 0x1577 JUMP JUMPDEST PUSH1 0x20 DUP3 ADD SWAP1 POP SWAP2 SWAP1 POP JUMP JUMPDEST PUSH0 PUSH1 0x20 DUP3 ADD SWAP1 POP DUP2 DUP2 SUB PUSH0 DUP4 ADD MSTORE PUSH2 0x15D8 DUP2 PUSH2 0x159F JUMP JUMPDEST SWAP1 POP SWAP2 SWAP1 POP JUMP JUMPDEST PUSH32 0x596F75206861766520616C726561647920766F74656400000000000000000000 PUSH0 DUP3 ADD MSTORE POP JUMP JUMPDEST PUSH0 PUSH2 0x1613 PUSH1 0x16 DUP4 PUSH2 0x1166 JUMP JUMPDEST SWAP2 POP PUSH2 0x161E DUP3 PUSH2 0x15DF JUMP JUMPDEST PUSH1 0x20 DUP3 ADD SWAP1 POP SWAP2 SWAP1 POP JUMP JUMPDEST PUSH0 PUSH1 0x20 DUP3 ADD SWAP1 POP DUP2 DUP2 SUB PUSH0 DUP4 ADD MSTORE PUSH2 0x1640 DUP2 PUSH2 0x1607 JUMP JUMPDEST SWAP1 POP SWAP2 SWAP1 POP JUMP JUMPDEST PUSH32 0x496E76616C69642063616E64696461746520696E646578000000000000000000 PUSH0 DUP3 ADD MSTORE POP JUMP JUMPDEST PUSH0 PUSH2 0x167B PUSH1 0x17 DUP4 PUSH2 0x1166 JUMP JUMPDEST SWAP2 POP PUSH2 0x1686 DUP3 PUSH2 0x1647 JUMP JUMPDEST PUSH1 0x20 DUP3 ADD SWAP1 POP SWAP2 SWAP1 POP JUMP JUMPDEST PUSH0 PUSH1 0x20 DUP3 ADD SWAP1 POP DUP2 DUP2 SUB PUSH0 DUP4 ADD MSTORE PUSH2 0x16A8 DUP2 PUSH2 0x166F JUMP JUMPDEST SWAP1 POP SWAP2 SWAP1 POP JUMP JUMPDEST PUSH32 0x4E487B7100000000000000000000000000000000000000000000000000000000 PUSH0 MSTORE PUSH1 0x32 PUSH1 0x4 MSTORE PUSH1 0x24 PUSH0 REVERT JUMPDEST PUSH32 0x4E487B7100000000000000000000000000000000000000000000000000000000 PUSH0 MSTORE PUSH1 0x11 PUSH1 0x4 MSTORE PUSH1 0x24 PUSH0 REVERT JUMPDEST PUSH0 PUSH2 0x1713 DUP3 PUSH2 0x101E JUMP JUMPDEST SWAP2 POP PUSH32 0xFFFFFFFFFFFFFFFFFFFFFFFFFFFFFFFFFFFFFFFFFFFFFFFFFFFFFFFFFFFFFFFF DUP3 SUB PUSH2 0x1745 JUMPI PUSH2 0x1744 PUSH2 0x16DC JUMP JUMPDEST JUMPDEST PUSH1 0x1 DUP3 ADD SWAP1 POP SWAP2 SWAP1 POP JUMP JUMPDEST PUSH32 0x4E487B7100000000000000000000000000000000000000000000000000000000 PUSH0 MSTORE PUSH1 0x22 PUSH1 0x4 MSTORE PUSH1 0x24 PUSH0 REVERT JUMPDEST PUSH0 PUSH1 0x2 DUP3 DIV SWAP1 POP PUSH1 0x1 DUP3 AND DUP1 PUSH2 0x1794 JUMPI PUSH1 0x7F DUP3 AND SWAP2 POP JUMPDEST PUSH1 0x20 DUP3 LT DUP2 SUB PUSH2 0x17A7 JUMPI PUSH2 0x17A6 PUSH2 0x1750 JUMP JUMPDEST JUMPDEST POP SWAP2 SWAP1 POP JUMP JUMPDEST PUSH0 DUP2 SWAP1 POP DUP2 PUSH0 MSTORE PUSH1 0x20 PUSH0 KECCAK256 SWAP1 POP SWAP2 SWAP1 POP JUMP JUMPDEST PUSH0 DUP2 SLOAD PUSH2 0x17CB DUP2 PUSH2 0x177D JUMP JUMPDEST PUSH2 0x17D5 DUP2 DUP7 PUSH2 0x1166 JUMP JUMPDEST SWAP5 POP PUSH1 0x1 DUP3 AND PUSH0 DUP2 EQ PUSH2 0x17EF JUMPI PUSH1 0x1 DUP2 EQ PUSH2 0x1805 JUMPI PUSH2 0x1837 JUMP JUMPDEST PUSH1 0xFF NOT DUP4 AND DUP7 MSTORE DUP2 ISZERO ISZERO PUSH1 0x20 MUL DUP7 ADD SWAP4 POP PUSH2 0x1837 JUMP JUMPDEST PUSH2 0x180E DUP6 PUSH2 0x17AD JUMP JUMPDEST PUSH0 JUMPDEST DUP4 DUP2 LT ISZERO PUSH2 0x182F JUMPI DUP2 SLOAD DUP2 DUP10 ADD MSTORE PUSH1 0x1 DUP3 ADD SWAP2 POP PUSH1 0x20 DUP2 ADD SWAP1 POP PUSH2 0x1810 JUMP JUMPDEST DUP1 DUP9 ADD SWAP6 POP POP POP JUMPDEST POP POP POP SWAP3 SWAP2 POP POP JUMP JUMPDEST PUSH0 PUSH1 0x40 DUP3 ADD SWAP1 POP DUP2 DUP2 SUB PUSH0 DUP4 ADD MSTORE PUSH2 0x1858 DUP2 DUP6 PUSH2 0x17BF JUMP JUMPDEST SWAP1 POP PUSH2 0x1867 PUSH1 0x20 DUP4 ADD DUP5 PUSH2 0x1134 JUMP JUMPDEST SWAP4 SWAP3 POP POP POP JUMP JUMPDEST PUSH32 0x496E646578206F7574206F6620626F756E647300000000000000000000000000 PUSH0 DUP3 ADD MSTORE POP JUMP JUMPDEST PUSH0 PUSH2 0x18A2 PUSH1 0x13 DUP4 PUSH2 0x1166 JUMP JUMPDEST SWAP2 POP PUSH2 0x18AD DUP3 PUSH2 0x186E JUMP JUMPDEST PUSH1 0x20 DUP3 ADD SWAP1 POP SWAP2 SWAP1 POP JUMP JUMPDEST PUSH0 PUSH1 0x20 DUP3 ADD SWAP1 POP DUP2 DUP2 SUB PUSH0 DUP4 ADD MSTORE PUSH2 0x18CF DUP2 PUSH2 0x1896 JUMP JUMPDEST SWAP1 POP SWAP2 SWAP1 POP JUMP JUMPDEST PUSH32 0x4F6E6C79206F776E65722063616E20706572666F726D20746869732061637469 PUSH0 DUP3 ADD MSTORE PUSH32 0x6F6E000000000000000000000000000000000000000000000000000000000000 PUSH1 0x20 DUP3 ADD MSTORE POP JUMP JUMPDEST PUSH0 PUSH2 0x1930 PUSH1 0x22 DUP4 PUSH2 0x1166 JUMP JUMPDEST SWAP2 POP PUSH2 0x193B DUP3 PUSH2 0x18D6 JUMP JUMPDEST PUSH1 0x40 DUP3 ADD SWAP1 POP SWAP2 SWAP1 POP JUMP JUMPDEST PUSH0 PUSH1 0x20 DUP3 ADD SWAP1 POP DUP2 DUP2 SUB PUSH0 DUP4 ADD MSTORE PUSH2 0x195D DUP2 PUSH2 0x1924 JUMP JUMPDEST SWAP1 POP SWAP2 SWAP1 POP JUMP JUMPDEST PUSH32 0x566F74657220616C726561647920726567697374657265640000000000000000 PUSH0 DUP3 ADD MSTORE POP JUMP JUMPDEST PUSH0 PUSH2 0x1998 PUSH1 0x18 DUP4 PUSH2 0x1166 JUMP JUMPDEST SWAP2 POP PUSH2 0x19A3 DUP3 PUSH2 0x1964 JUMP JUMPDEST PUSH1 0x20 DUP3 ADD SWAP1 POP SWAP2 SWAP1 POP JUMP JUMPDEST PUSH0 PUSH1 0x20 DUP3 ADD SWAP1 POP DUP2 DUP2 SUB PUSH0 DUP4 ADD MSTORE PUSH2 0x19C5 DUP2 PUSH2 0x198C JUMP JUMPDEST SWAP1 POP SWAP2 SWAP1 POP JUMP JUMPDEST PUSH0 PUSH1 0x20 PUSH1 0x1F DUP4 ADD DIV SWAP1 POP SWAP2 SWAP1 POP JUMP JUMPDEST PUSH0 DUP3 DUP3 SHL SWAP1 POP SWAP3 SWAP2 POP POP JUMP JUMPDEST PUSH0 PUSH1 0x8 DUP4 MUL PUSH2 0x1A16 PUSH32 0xFFFFFFFFFFFFFFFFFFFFFFFFFFFFFFFFFFFFFFFFFFFFFFFFFFFFFFFFFFFFFFFF DUP3 PUSH2 0x19DB JUMP JUMPDEST PUSH2 0x1A20 DUP7 DUP4 PUSH2 0x19DB JUMP JUMPDEST SWAP6 POP DUP1 NOT DUP5 AND SWAP4 POP DUP1 DUP7 AND DUP5 OR SWAP3 POP POP POP SWAP4 SWAP3 POP POP POP JUMP JUMPDEST PUSH0 DUP2 SWAP1 POP SWAP2 SWAP1 POP JUMP JUMPDEST PUSH0 PUSH2 0x1A5B PUSH2 0x1A56 PUSH2 0x1A51 DUP5 PUSH2 0x101E JUMP JUMPDEST PUSH2 0x1A38 JUMP JUMPDEST PUSH2 0x101E JUMP JUMPDEST SWAP1 POP SWAP2 SWAP1 POP JUMP JUMPDEST PUSH0 DUP2 SWAP1 POP SWAP2 SWAP1 POP JUMP JUMPDEST PUSH2 0x1A74 DUP4 PUSH2 0x1A41 JUMP JUMPDEST PUSH2 0x1A88 PUSH2 0x1A80 DUP3 PUSH2 0x1A62 JUMP JUMPDEST DUP5 DUP5 SLOAD PUSH2 0x19E7 JUMP JUMPDEST DUP3 SSTORE POP POP POP POP JUMP JUMPDEST PUSH0 PUSH0 SWAP1 POP SWAP1 JUMP JUMPDEST PUSH2 0x1A9F PUSH2 0x1A90 JUMP JUMPDEST PUSH2 0x1AAA DUP2 DUP5 DUP5 PUSH2 0x1A6B JUMP JUMPDEST POP POP POP JUMP JUMPDEST PUSH0 JUMPDEST DUP3 DUP2 LT ISZERO PUSH2 0x1AD0 JUMPI PUSH2 0x1AC5 PUSH0 DUP3 DUP5 ADD PUSH2 0x1A97 JUMP JUMPDEST PUSH1 0x1 DUP2 ADD SWAP1 POP PUSH2 0x1AB1 JUMP JUMPDEST POP POP POP JUMP JUMPDEST PUSH1 0x1F DUP3 GT ISZERO PUSH2 0x1B23 JUMPI DUP3 DUP3 GT ISZERO PUSH2 0x1B22 JUMPI PUSH2 0x1AEF DUP2 PUSH2 0x17AD JUMP JUMPDEST PUSH2 0x1AF8 DUP4 PUSH2 0x19CC JUMP JUMPDEST PUSH2 0x1B01 DUP6 PUSH2 0x19CC JUMP JUMPDEST PUSH1 0x20 DUP7 LT ISZERO PUSH2 0x1B0E JUMPI PUSH0 SWAP1 POP JUMPDEST DUP1 DUP4 ADD PUSH2 0x1B1D DUP3 DUP5 SUB DUP3 PUSH2 0x1AAF JUMP JUMPDEST POP POP POP POP JUMPDEST JUMPDEST POP POP POP JUMP JUMPDEST PUSH0 DUP3 DUP3 SHR SWAP1 POP SWAP3 SWAP2 POP POP JUMP JUMPDEST PUSH0 PUSH2 0x1B43 PUSH0 NOT DUP5 PUSH1 0x8 MUL PUSH2 0x1B28 JUMP JUMPDEST NOT DUP1 DUP4 AND SWAP2 POP POP SWAP3 SWAP2 POP POP JUMP JUMPDEST PUSH0 PUSH2 0x1B5B DUP4 DUP4 PUSH2 0x1B34 JUMP JUMPDEST SWAP2 POP DUP3 PUSH1 0x2 MUL DUP3 OR SWAP1 POP SWAP3 SWAP2 POP POP JUMP JUMPDEST PUSH2 0x1B74 DUP3 PUSH2 0x115C JUMP JUMPDEST PUSH8 0xFFFFFFFFFFFFFFFF DUP2 GT ISZERO PUSH2 0x1B8D JUMPI PUSH2 0x1B8C PUSH2 0x1202 JUMP JUMPDEST JUMPDEST PUSH2 0x1B97 DUP3 SLOAD PUSH2 0x177D JUMP JUMPDEST PUSH2 0x1BA2 DUP3 DUP3 DUP6 PUSH2 0x1AD5 JUMP JUMPDEST PUSH0 PUSH1 0x20 SWAP1 POP PUSH1 0x1F DUP4 GT PUSH1 0x1 DUP2 EQ PUSH2 0x1BD3 JUMPI PUSH0 DUP5 ISZERO PUSH2 0x1BC1 JUMPI DUP3 DUP8 ADD MLOAD SWAP1 POP JUMPDEST PUSH2 0x1BCB DUP6 DUP3 PUSH2 0x1B50 JUMP JUMPDEST DUP7 SSTORE POP PUSH2 0x1C32 JUMP JUMPDEST PUSH1 0x1F NOT DUP5 AND PUSH2 0x1BE1 DUP7 PUSH2 0x17AD JUMP JUMPDEST PUSH0 JUMPDEST DUP3 DUP2 LT ISZERO PUSH2 0x1C08 JUMPI DUP5 DUP10 ADD MLOAD DUP3 SSTORE PUSH1 0x1 DUP3 ADD SWAP2 POP PUSH1 0x20 DUP6 ADD SWAP5 POP PUSH1 0x20 DUP2 ADD SWAP1 POP PUSH2 0x1BE3 JUMP JUMPDEST DUP7 DUP4 LT ISZERO PUSH2 0x1C25 JUMPI DUP5 DUP10 ADD MLOAD PUSH2 0x1C21 PUSH1 0x1F DUP10 AND DUP3 PUSH2 0x1B34 JUMP JUMPDEST DUP4 SSTORE POP JUMPDEST PUSH1 0x1 PUSH1 0x2 DUP9 MUL ADD DUP9 SSTORE POP POP POP JUMPDEST POP POP POP POP POP POP JUMP JUMPDEST PUSH0 PUSH2 0x1C44 DUP3 PUSH2 0x101E JUMP JUMPDEST SWAP2 POP PUSH2 0x1C4F DUP4 PUSH2 0x101E JUMP JUMPDEST SWAP3 POP DUP3 DUP3 SUB SWAP1 POP DUP2 DUP2 GT ISZERO PUSH2 0x1C67 JUMPI PUSH2 0x1C66 PUSH2 0x16DC JUMP JUMPDEST JUMPDEST SWAP3 SWAP2 POP POP JUMP JUMPDEST PUSH32 0x4E6F2063616E6469646174657300000000000000000000000000000000000000 PUSH0 DUP3 ADD MSTORE POP JUMP JUMPDEST PUSH0 PUSH2 0x1CA1 PUSH1 0xD DUP4 PUSH2 0x1166 JUMP JUMPDEST SWAP2 POP PUSH2 0x1CAC DUP3 PUSH2 0x1C6D JUMP JUMPDEST PUSH1 0x20 DUP3 ADD SWAP1 POP SWAP2 SWAP1 POP JUMP JUMPDEST PUSH0 PUSH1 0x20 DUP3 ADD SWAP1 POP DUP2 DUP2 SUB PUSH0 DUP4 ADD MSTORE PUSH2 0x1CCE DUP2 PUSH2 0x1C95 JUMP JUMPDEST SWAP1 POP SWAP2 SWAP1 POP JUMP INVALID LOG2 PUSH5 0x6970667358 0x22 SLT KECCAK256 0xDF DUP2 PUSH0 0xC1 SELFDESTRUCT 0xBB RJUMP 0x7EB4 0xDB ADDRESS KECCAK256 EXTCODESIZE SELFBALANCE PUSH20 0x4A8536AF27F1A5952B21D0F459DA47F7C664736F PUSH13 0x63430008220033000000000000 "
				},
				"gasEstimates": {
					"creation": {
						"codeDepositCost": "1487000",
						"executionCost": "infinite",
						"totalCost": "infinite"
					},
					"external": {
						"addCandidate(string)": "infinite",
						"candidates(uint256)": "infinite",
						"checkRegistration(address)": "2936",
						"getAllRegisteredVoters()": "infinite",
						"getCandidate(uint256)": "infinite",
						"getCandidateCount()": "2463",
						"getRegisteredVoterCount()": "2508",
						"getWinner()": "infinite",
						"hasVoted(address)": "2879",
						"isRegistered(address)": "2922",
						"owner()": "2552",
						"registerMultipleVoters(address[])": "infinite",
						"registerVoter(address)": "79040",
						"registeredVotersList(uint256)": "4988",
						"vote(uint256)": "infinite"
					}
				},
				"methodIdentifiers": {
					"addCandidate(string)": "462e91ec",
					"candidates(uint256)": "3477ee2e",
					"checkRegistration(address)": "e2a41283",
					"getAllRegisteredVoters()": "d3a078da",
					"getCandidate(uint256)": "35b8e820",
					"getCandidateCount()": "30a56347",
					"getRegisteredVoterCount()": "2b8c2504",
					"getWinner()": "8e7ea5b2",
					"hasVoted(address)": "09eef43e",
					"isRegistered(address)": "c3c5a547",
					"owner()": "8da5cb5b",
					"registerMultipleVoters(address[])": "f225c1f8",
					"registerVoter(address)": "38db6dd3",
					"registeredVotersList(uint256)": "d63db98e",
					"vote(uint256)": "0121b93f"
				}
			},
			"storageLayout": {
				"storage": [
					{
						"astId": 9,
						"contract": "contracts/ballot.sol:VotingWithRegistration",
						"label": "owner",
						"offset": 0,
						"slot": "0",
						"type": "t_address"
					},
					{
						"astId": 13,
						"contract": "contracts/ballot.sol:VotingWithRegistration",
						"label": "candidates",
						"offset": 0,
						"slot": "1",
						"type": "t_array(t_struct(Candidate)7_storage)dyn_storage"
					},
					{
						"astId": 17,
						"contract": "contracts/ballot.sol:VotingWithRegistration",
						"label": "isRegistered",
						"offset": 0,
						"slot": "2",
						"type": "t_mapping(t_address,t_bool)"
					},
					{
						"astId": 21,
						"contract": "contracts/ballot.sol:VotingWithRegistration",
						"label": "hasVoted",
						"offset": 0,
						"slot": "3",
						"type": "t_mapping(t_address,t_bool)"
					},
					{
						"astId": 24,
						"contract": "contracts/ballot.sol:VotingWithRegistration",
						"label": "registeredVotersList",
						"offset": 0,
						"slot": "4",
						"type": "t_array(t_address)dyn_storage"
					}
				],
				"types": {
					"t_address": {
						"encoding": "inplace",
						"label": "address",
						"numberOfBytes": "20"
					},
					"t_array(t_address)dyn_storage": {
						"base": "t_address",
						"encoding": "dynamic_array",
						"label": "address[]",
						"numberOfBytes": "32"
					},
					"t_array(t_struct(Candidate)7_storage)dyn_storage": {
						"base": "t_struct(Candidate)7_storage",
						"encoding": "dynamic_array",
						"label": "struct VotingWithRegistration.Candidate[]",
						"numberOfBytes": "32"
					},
					"t_bool": {
						"encoding": "inplace",
						"label": "bool",
						"numberOfBytes": "1"
					},
					"t_mapping(t_address,t_bool)": {
						"encoding": "mapping",
						"key": "t_address",
						"label": "mapping(address => bool)",
						"numberOfBytes": "32",
						"value": "t_bool"
					},
					"t_string_storage": {
						"encoding": "bytes",
						"label": "string",
						"numberOfBytes": "32"
					},
					"t_struct(Candidate)7_storage": {
						"encoding": "inplace",
						"label": "struct VotingWithRegistration.Candidate",
						"members": [
							{
								"astId": 4,
								"contract": "contracts/ballot.sol:VotingWithRegistration",
								"label": "name",
								"offset": 0,
								"slot": "0",
								"type": "t_string_storage"
							},
							{
								"astId": 6,
								"contract": "contracts/ballot.sol:VotingWithRegistration",
								"label": "voteCount",
								"offset": 0,
								"slot": "1",
								"type": "t_uint256"
							}
						],
						"numberOfBytes": "64"
					},
					"t_uint256": {
						"encoding": "inplace",
						"label": "uint256",
						"numberOfBytes": "32"
					}
				}
			},
			"userdoc": {
				"kind": "user",
				"methods": {
					"addCandidate(string)": {
						"notice": "Allows the owner to add a new candidate after deployment."
					},
					"checkRegistration(address)": {
						"notice": "Checks if a specific address is registered."
					},
					"constructor": {
						"notice": "Constructor sets the contract owner and adds initial candidates."
					},
					"getAllRegisteredVoters()": {
						"notice": "Returns a list of all registered voter addresses."
					},
					"getCandidate(uint256)": {
						"notice": "Returns candidate details by index."
					},
					"getCandidateCount()": {
						"notice": "Returns the total number of candidates."
					},
					"getRegisteredVoterCount()": {
						"notice": "Returns the total number of registered voters."
					},
					"getWinner()": {
						"notice": "Returns the current winner (candidate with most votes)."
					},
					"registerMultipleVoters(address[])": {
						"notice": "Owner can register multiple voters at once."
					},
					"registerVoter(address)": {
						"notice": "Owner registers a voter by their Ethereum address."
					},
					"vote(uint256)": {
						"notice": "Cast a vote for a specific candidate. Only registered voters can vote."
					}
				},
				"version": 1
			}
		}
	}
}