{
	"data": {
		"bytecode": {
			"linkReferences": {},
			"object": "608060405234801561000f575f5ffd5b50604051611a30380380611a308339818101604052810190610031919061038b565b335f5f6101000a81548173ffffffffffffffffffffffffffffffffffffffff021916908373ffffffffffffffffffffffffffffffffffffffff1602179055505f5f90505b8151811015610155576001604051806040016040528084848151811061009e5761009d6103d2565b5b602002602001015181526020015f815250908060018154018082558091505060019003905f5260205f2090600202015f909190919091505f820151815f0190816100e89190610620565b506020820151816001015550507fa89e28469fa9e15d5149634a9ce8d8dd59ec42c18ba2d281b08c305f2095acef828281518110610129576101286103d2565b5b602002602001015182604051610140929190610746565b60405180910390a18080600101915050610075565b5050610774565b5f604051905090565b5f5ffd5b5f5ffd5b5f5ffd5b5f601f19601f8301169050919050565b7f4e487b71000000000000000000000000000000000000000000000000000000005f52604160045260245ffd5b6101b782610171565b810181811067ffffffffffffffff821117156101d6576101d5610181565b5b80604052505050565b5f6101e861015c565b90506101f482826101ae565b919050565b5f67ffffffffffffffff82111561021357610212610181565b5b602082029050602081019050919050565b5f5ffd5b5f5ffd5b5f67ffffffffffffffff82111561024657610245610181565b5b61024f82610171565b9050602081019050919050565b8281835e5f83830152505050565b5f61027c6102778461022c565b6101df565b90508281526020810184848401111561029857610297610228565b5b6102a384828561025c565b509392505050565b5f82601f8301126102bf576102be61016d565b5b81516102cf84826020860161026a565b91505092915050565b5f6102ea6102e5846101f9565b6101df565b9050808382526020820190506020840283018581111561030d5761030c610224565b5b835b8181101561035457805167ffffffffffffffff8111156103325761033161016d565b5b80860161033f89826102ab565b8552602085019450505060208101905061030f565b5050509392505050565b5f82601f8301126103725761037161016d565b5b81516103828482602086016102d8565b91505092915050565b5f602082840312156103a05761039f610165565b5b5f82015167ffffffffffffffff8111156103bd576103bc610169565b5b6103c98482850161035e565b91505092915050565b7f4e487b71000000000000000000000000000000000000000000000000000000005f52603260045260245ffd5b5f81519050919050565b7f4e487b71000000000000000000000000000000000000000000000000000000005f52602260045260245ffd5b5f600282049050600182168061044d57607f821691505b6020821081036104605761045f610409565b5b50919050565b5f819050815f5260205f209050919050565b5f6020601f8301049050919050565b5f82821b905092915050565b5f600883026104c27fffffffffffffffffffffffffffffffffffffffffffffffffffffffffffffffff82610487565b6104cc8683610487565b95508019841693508086168417925050509392505050565b5f819050919050565b5f819050919050565b5f61051061050b610506846104e4565b6104ed565b6104e4565b9050919050565b5f819050919050565b610529836104f6565b61053d61053582610517565b848454610493565b825550505050565b5f5f905090565b610554610545565b61055f818484610520565b505050565b5f5b828110156105855761057a5f82840161054c565b600181019050610566565b505050565b601f8211156105d857828211156105d7576105a481610466565b6105ad83610478565b6105b685610478565b60208610156105c3575f90505b8083016105d282840382610564565b505050505b5b505050565b5f82821c905092915050565b5f6105f85f19846008026105dd565b1980831691505092915050565b5f61061083836105e9565b9150826002028217905092915050565b610629826103ff565b67ffffffffffffffff81111561064257610641610181565b5b61064c8254610436565b61065782828561058a565b5f60209050601f831160018114610688575f8415610676578287015190505b6106808582610605565b8655506106e7565b601f19841661069686610466565b5f5b828110156106bd57848901518255600182019150602085019450602081019050610698565b868310156106da57848901516106d6601f8916826105e9565b8355505b6001600288020188555050505b505050505050565b5f82825260208201905092915050565b5f610709826103ff565b61071381856106ef565b935061072381856020860161025c565b61072c81610171565b840191505092915050565b610740816104e4565b82525050565b5f6040820190508181035f83015261075e81856106ff565b905061076d6020830184610737565b9392505050565b6112af806107815f395ff3fe608060405234801561000f575f5ffd5b5060043610610086575f3560e01c806335b8e8201161005957806335b8e82014610125578063462e91ec146101565780638da5cb5b146101725780638e7ea5b21461019057610086565b80630121b93f1461008a57806309eef43e146100a657806330a56347146100d65780633477ee2e146100f4575b5f5ffd5b6100a4600480360381019061009f91906108a7565b6101af565b005b6100c060048036038101906100bb919061092c565b610380565b6040516100cd9190610971565b60405180910390f35b6100de61039d565b6040516100eb9190610999565b60405180910390f35b61010e600480360381019061010991906108a7565b6103a9565b60405161011c929190610a22565b60405180910390f35b61013f600480360381019061013a91906108a7565b61045e565b60405161014d929190610a22565b60405180910390f35b610170600480360381019061016b9190610b7c565b610567565b005b61017a61069e565b6040516101879190610bd2565b60405180910390f35b6101986106c2565b6040516101a6929190610a22565b60405180910390f35b60025f3373ffffffffffffffffffffffffffffffffffffffff1673ffffffffffffffffffffffffffffffffffffffff1681526020019081526020015f205f9054906101000a900460ff1615610239576040517f08c379a000000000000000000000000000000000000000000000000000000000815260040161023090610c35565b60405180910390fd5b6001805490508110610280576040517f08c379a000000000000000000000000000000000000000000000000000000000815260040161027790610c9d565b60405180910390fd5b600160025f3373ffffffffffffffffffffffffffffffffffffffff1673ffffffffffffffffffffffffffffffffffffffff1681526020019081526020015f205f6101000a81548160ff021916908315150217905550600181815481106102e9576102e8610cbb565b5b905f5260205f2090600202016001015f81548092919061030890610d15565b91905055503373ffffffffffffffffffffffffffffffffffffffff167e089c14bef1f215ec2a9cac0041a8a539033590f2ac7424e2f5659c48a085036001838154811061035857610357610cbb565b5b905f5260205f2090600202015f0183604051610375929190610e4c565b60405180910390a250565b6002602052805f5260405f205f915054906101000a900460ff1681565b5f600180549050905090565b600181815481106103b8575f80fd5b905f5260205f2090600202015f91509050805f0180546103d790610d89565b80601f016020809104026020016040519081016040528092919081815260200182805461040390610d89565b801561044e5780601f106104255761010080835404028352916020019161044e565b820191905f5260205f20905b81548152906001019060200180831161043157829003601f168201915b5050505050908060010154905082565b60605f60018054905083106104a8576040517f08c379a000000000000000000000000000000000000000000000000000000000815260040161049f90610ec4565b60405180910390fd5b5f600184815481106104bd576104bc610cbb565b5b905f5260205f2090600202019050805f0181600101548180546104df90610d89565b80601f016020809104026020016040519081016040528092919081815260200182805461050b90610d89565b80156105565780601f1061052d57610100808354040283529160200191610556565b820191905f5260205f20905b81548152906001019060200180831161053957829003601f168201915b505050505091509250925050915091565b5f5f9054906101000a900473ffffffffffffffffffffffffffffffffffffffff1673ffffffffffffffffffffffffffffffffffffffff163373ffffffffffffffffffffffffffffffffffffffff16146105f5576040517f08c379a00000000000000000000000000000000000000000000000000000000081526004016105ec90610f52565b60405180910390fd5b600160405180604001604052808381526020015f815250908060018154018082558091505060019003905f5260205f2090600202015f909190919091505f820151815f019081610645919061110f565b506020820151816001015550507fa89e28469fa9e15d5149634a9ce8d8dd59ec42c18ba2d281b08c305f2095acef816001808054905061068591906111de565b604051610693929190610a22565b60405180910390a150565b5f5f9054906101000a900473ffffffffffffffffffffffffffffffffffffffff1681565b60605f5f6001805490501161070c576040517f08c379a00000000000000000000000000000000000000000000000000000000081526004016107039061125b565b60405180910390fd5b5f5f90505f5f90505f5f90505b60018054905081101561078857826001828154811061073b5761073a610cbb565b5b905f5260205f20906002020160010154111561077b576001818154811061076557610764610cbb565b5b905f5260205f2090600202016001015492508091505b8080600101915050610719565b506001818154811061079d5761079c610cbb565b5b905f5260205f2090600202015f01600182815481106107bf576107be610cbb565b5b905f5260205f209060020201600101548180546107db90610d89565b80601f016020809104026020016040519081016040528092919081815260200182805461080790610d89565b80156108525780601f1061082957610100808354040283529160200191610852565b820191905f5260205f20905b81548152906001019060200180831161083557829003601f168201915b505050505091509350935050509091565b5f604051905090565b5f5ffd5b5f5ffd5b5f819050919050565b61088681610874565b8114610890575f5ffd5b50565b5f813590506108a18161087d565b92915050565b5f602082840312156108bc576108bb61086c565b5b5f6108c984828501610893565b91505092915050565b5f73ffffffffffffffffffffffffffffffffffffffff82169050919050565b5f6108fb826108d2565b9050919050565b61090b816108f1565b8114610915575f5ffd5b50565b5f8135905061092681610902565b92915050565b5f602082840312156109415761094061086c565b5b5f61094e84828501610918565b91505092915050565b5f8115159050919050565b61096b81610957565b82525050565b5f6020820190506109845f830184610962565b92915050565b61099381610874565b82525050565b5f6020820190506109ac5f83018461098a565b92915050565b5f81519050919050565b5f82825260208201905092915050565b8281835e5f83830152505050565b5f601f19601f8301169050919050565b5f6109f4826109b2565b6109fe81856109bc565b9350610a0e8185602086016109cc565b610a17816109da565b840191505092915050565b5f6040820190508181035f830152610a3a81856109ea565b9050610a49602083018461098a565b9392505050565b5f5ffd5b5f5ffd5b7f4e487b71000000000000000000000000000000000000000000000000000000005f52604160045260245ffd5b610a8e826109da565b810181811067ffffffffffffffff82111715610aad57610aac610a58565b5b80604052505050565b5f610abf610863565b9050610acb8282610a85565b919050565b5f67ffffffffffffffff821115610aea57610ae9610a58565b5b610af3826109da565b9050602081019050919050565b828183375f83830152505050565b5f610b20610b1b84610ad0565b610ab6565b905082815260208101848484011115610b3c57610b3b610a54565b5b610b47848285610b00565b509392505050565b5f82601f830112610b6357610b62610a50565b5b8135610b73848260208601610b0e565b91505092915050565b5f60208284031215610b9157610b9061086c565b5b5f82013567ffffffffffffffff811115610bae57610bad610870565b5b610bba84828501610b4f565b91505092915050565b610bcc816108f1565b82525050565b5f602082019050610be55f830184610bc3565b92915050565b7f596f75206861766520616c726561647920766f746564000000000000000000005f82015250565b5f610c1f6016836109bc565b9150610c2a82610beb565b602082019050919050565b5f6020820190508181035f830152610c4c81610c13565b9050919050565b7f496e76616c69642063616e64696461746520696e6465780000000000000000005f82015250565b5f610c876017836109bc565b9150610c9282610c53565b602082019050919050565b5f6020820190508181035f830152610cb481610c7b565b9050919050565b7f4e487b71000000000000000000000000000000000000000000000000000000005f52603260045260245ffd5b7f4e487b71000000000000000000000000000000000000000000000000000000005f52601160045260245ffd5b5f610d1f82610874565b91507fffffffffffffffffffffffffffffffffffffffffffffffffffffffffffffffff8203610d5157610d50610ce8565b5b600182019050919050565b7f4e487b71000000000000000000000000000000000000000000000000000000005f52602260045260245ffd5b5f6002820490506001821680610da057607f821691505b602082108103610db357610db2610d5c565b5b50919050565b5f819050815f5260205f209050919050565b5f8154610dd781610d89565b610de181866109bc565b9450600182165f8114610dfb5760018114610e1157610e43565b60ff198316865281151560200286019350610e43565b610e1a85610db9565b5f5b83811015610e3b57815481890152600182019150602081019050610e1c565b808801955050505b50505092915050565b5f6040820190508181035f830152610e648185610dcb565b9050610e73602083018461098a565b9392505050565b7f496e646578206f7574206f6620626f756e6473000000000000000000000000005f82015250565b5f610eae6013836109bc565b9150610eb982610e7a565b602082019050919050565b5f6020820190508181035f830152610edb81610ea2565b9050919050565b7f4f6e6c79206f776e65722063616e20706572666f726d207468697320616374695f8201527f6f6e000000000000000000000000000000000000000000000000000000000000602082015250565b5f610f3c6022836109bc565b9150610f4782610ee2565b604082019050919050565b5f6020820190508181035f830152610f6981610f30565b9050919050565b5f6020601f8301049050919050565b5f82821b905092915050565b5f60088302610fba7fffffffffffffffffffffffffffffffffffffffffffffffffffffffffffffffff82610f7f565b610fc48683610f7f565b95508019841693508086168417925050509392505050565b5f819050919050565b5f610fff610ffa610ff584610874565b610fdc565b610874565b9050919050565b5f819050919050565b61101883610fe5565b61102c61102482611006565b848454610f8b565b825550505050565b5f5f905090565b611043611034565b61104e81848461100f565b505050565b5f5b82811015611074576110695f82840161103b565b600181019050611055565b505050565b601f8211156110c757828211156110c65761109381610db9565b61109c83610f70565b6110a585610f70565b60208610156110b2575f90505b8083016110c182840382611053565b505050505b5b505050565b5f82821c905092915050565b5f6110e75f19846008026110cc565b1980831691505092915050565b5f6110ff83836110d8565b9150826002028217905092915050565b611118826109b2565b67ffffffffffffffff81111561113157611130610a58565b5b61113b8254610d89565b611146828285611079565b5f60209050601f831160018114611177575f8415611165578287015190505b61116f85826110f4565b8655506111d6565b601f19841661118586610db9565b5f5b828110156111ac57848901518255600182019150602085019450602081019050611187565b868310156111c957848901516111c5601f8916826110d8565b8355505b6001600288020188555050505b505050505050565b5f6111e882610874565b91506111f383610874565b925082820390508181111561120b5761120a610ce8565b5b92915050565b7f4e6f2063616e64696461746573000000000000000000000000000000000000005f82015250565b5f611245600d836109bc565b915061125082611211565b602082019050919050565b5f6020820190508181035f83015261127281611239565b905091905056fea26469706673582212203e6f3fc8ab22909e7043799c2b9f8b3707d07a151e2172f50f5e1994466a7c0764736f6c63430008220033",
			"opcodes": "PUSH1 0x80 PUSH1 0x40 MSTORE CALLVALUE DUP1 ISZERO PUSH2 0xF JUMPI PUSH0 PUSH0 REVERT JUMPDEST POP PUSH1 0x40 MLOAD PUSH2 0x1A30 CODESIZE SUB DUP1 PUSH2 0x1A30 DUP4 CODECOPY DUP2 DUP2 ADD PUSH1 0x40 MSTORE DUP2 ADD SWAP1 PUSH2 0x31 SWAP2 SWAP1 PUSH2 0x38B JUMP JUMPDEST CALLER PUSH0 PUSH0 PUSH2 0x100 EXP DUP2 SLOAD DUP2 PUSH20 0xFFFFFFFFFFFFFFFFFFFFFFFFFFFFFFFFFFFFFFFF MUL NOT AND SWAP1 DUP4 PUSH20 0xFFFFFFFFFFFFFFFFFFFFFFFFFFFFFFFFFFFFFFFF AND MUL OR SWAP1 SSTORE POP PUSH0 PUSH0 SWAP1 POP JUMPDEST DUP2 MLOAD DUP2 LT ISZERO PUSH2 0x155 JUMPI PUSH1 0x1 PUSH1 0x40 MLOAD DUP1 PUSH1 0x40 ADD PUSH1 0x40 MSTORE DUP1 DUP5 DUP5 DUP2 MLOAD DUP2 LT PUSH2 0x9E JUMPI PUSH2 0x9D PUSH2 0x3D2 JUMP JUMPDEST JUMPDEST PUSH1 0x20 MUL PUSH1 0x20 ADD ADD MLOAD DUP2 MSTORE PUSH1 0x20 ADD PUSH0 DUP2 MSTORE POP SWAP1 DUP1 PUSH1 0x1 DUP2 SLOAD ADD DUP1 DUP3 SSTORE DUP1 SWAP2 POP POP PUSH1 0x1 SWAP1 SUB SWAP1 PUSH0 MSTORE PUSH1 0x20 PUSH0 KECCAK256 SWAP1 PUSH1 0x2 MUL ADD PUSH0 SWAP1 SWAP2 SWAP1 SWAP2 SWAP1 SWAP2 POP PUSH0 DUP3 ADD MLOAD DUP2 PUSH0 ADD SWAP1 DUP2 PUSH2 0xE8 SWAP2 SWAP1 PUSH2 0x620 JUMP JUMPDEST POP PUSH1 0x20 DUP3 ADD MLOAD DUP2 PUSH1 0x1 ADD SSTORE POP POP PUSH32 0xA89E28469FA9E15D5149634A9CE8D8DD59EC42C18BA2D281B08C305F2095ACEF DUP3 DUP3 DUP2 MLOAD DUP2 LT PUSH2 0x129 JUMPI PUSH2 0x128 PUSH2 0x3D2 JUMP JUMPDEST JUMPDEST PUSH1 0x20 MUL PUSH1 0x20 ADD ADD MLOAD DUP3 PUSH1 0x40 MLOAD PUSH2 0x140 SWAP3 SWAP2 SWAP1 PUSH2 0x746 JUMP JUMPDEST PUSH1 0x40 MLOAD DUP1 SWAP2 SUB SWAP1 LOG1 DUP1 DUP1 PUSH1 0x1 ADD SWAP2 POP POP PUSH2 0x75 JUMP JUMPDEST POP POP PUSH2 0x774 JUMP JUMPDEST PUSH0 PUSH1 0x40 MLOAD SWAP1 POP SWAP1 JUMP JUMPDEST PUSH0 PUSH0 REVERT JUMPDEST PUSH0 PUSH0 REVERT JUMPDEST PUSH0 PUSH0 REVERT JUMPDEST PUSH0 PUSH1 0x1F NOT PUSH1 0x1F DUP4 ADD AND SWAP1 POP SWAP2 SWAP1 POP JUMP JUMPDEST PUSH32 0x4E487B7100000000000000000000000000000000000000000000000000000000 PUSH0 MSTORE PUSH1 0x41 PUSH1 0x4 MSTORE PUSH1 0x24 PUSH0 REVERT JUMPDEST PUSH2 0x1B7 DUP3 PUSH2 0x171 JUMP JUMPDEST DUP2 ADD DUP2 DUP2 LT PUSH8 0xFFFFFFFFFFFFFFFF DUP3 GT OR ISZERO PUSH2 0x1D6 JUMPI PUSH2 0x1D5 PUSH2 0x181 JUMP JUMPDEST JUMPDEST DUP1 PUSH1 0x40 MSTORE POP POP POP JUMP JUMPDEST PUSH0 PUSH2 0x1E8 PUSH2 0x15C JUMP JUMPDEST SWAP1 POP PUSH2 0x1F4 DUP3 DUP3 PUSH2 0x1AE JUMP JUMPDEST SWAP2 SWAP1 POP JUMP JUMPDEST PUSH0 PUSH8 0xFFFFFFFFFFFFFFFF DUP3 GT ISZERO PUSH2 0x213 JUMPI PUSH2 0x212 PUSH2 0x181 JUMP JUMPDEST JUMPDEST PUSH1 0x20 DUP3 MUL SWAP1 POP PUSH1 0x20 DUP2 ADD SWAP1 POP SWAP2 SWAP1 POP JUMP JUMPDEST PUSH0 PUSH0 REVERT JUMPDEST PUSH0 PUSH0 REVERT JUMPDEST PUSH0 PUSH8 0xFFFFFFFFFFFFFFFF DUP3 GT ISZERO PUSH2 0x246 JUMPI PUSH2 0x245 PUSH2 0x181 JUMP JUMPDEST JUMPDEST PUSH2 0x24F DUP3 PUSH2 0x171 JUMP JUMPDEST SWAP1 POP PUSH1 0x20 DUP2 ADD SWAP1 POP SWAP2 SWAP1 POP JUMP JUMPDEST DUP3 DUP2 DUP4 MCOPY PUSH0 DUP4 DUP4 ADD MSTORE POP POP POP JUMP JUMPDEST PUSH0 PUSH2 0x27C PUSH2 0x277 DUP5 PUSH2 0x22C JUMP JUMPDEST PUSH2 0x1DF JUMP JUMPDEST SWAP1 POP DUP3 DUP2 MSTORE PUSH1 0x20 DUP2 ADD DUP5 DUP5 DUP5 ADD GT ISZERO PUSH2 0x298 JUMPI PUSH2 0x297 PUSH2 0x228 JUMP JUMPDEST JUMPDEST PUSH2 0x2A3 DUP5 DUP3 DUP6 PUSH2 0x25C JUMP JUMPDEST POP SWAP4 SWAP3 POP POP POP JUMP JUMPDEST PUSH0 DUP3 PUSH1 0x1F DUP4 ADD SLT PUSH2 0x2BF JUMPI PUSH2 0x2BE PUSH2 0x16D JUMP JUMPDEST JUMPDEST DUP2 MLOAD PUSH2 0x2CF DUP5 DUP3 PUSH1 0x20 DUP7 ADD PUSH2 0x26A JUMP JUMPDEST SWAP2 POP POP SWAP3 SWAP2 POP POP JUMP JUMPDEST PUSH0 PUSH2 0x2EA PUSH2 0x2E5 DUP5 PUSH2 0x1F9 JUMP JUMPDEST PUSH2 0x1DF JUMP JUMPDEST SWAP1 POP DUP1 DUP4 DUP3 MSTORE PUSH1 0x20 DUP3 ADD SWAP1 POP PUSH1 0x20 DUP5 MUL DUP4 ADD DUP6 DUP2 GT ISZERO PUSH2 0x30D JUMPI PUSH2 0x30C PUSH2 0x224 JUMP JUMPDEST JUMPDEST DUP4 JUMPDEST DUP2 DUP2 LT ISZERO PUSH2 0x354 JUMPI DUP1 MLOAD PUSH8 0xFFFFFFFFFFFFFFFF DUP2 GT ISZERO PUSH2 0x332 JUMPI PUSH2 0x331 PUSH2 0x16D JUMP JUMPDEST JUMPDEST DUP1 DUP7 ADD PUSH2 0x33F DUP10 DUP3 PUSH2 0x2AB JUMP JUMPDEST DUP6 MSTORE PUSH1 0x20 DUP6 ADD SWAP5 POP POP POP PUSH1 0x20 DUP2 ADD SWAP1 POP PUSH2 0x30F JUMP JUMPDEST POP POP POP SWAP4 SWAP3 POP POP POP JUMP JUMPDEST PUSH0 DUP3 PUSH1 0x1F DUP4 ADD SLT PUSH2 0x372 JUMPI PUSH2 0x371 PUSH2 0x16D JUMP JUMPDEST JUMPDEST DUP2 MLOAD PUSH2 0x382 DUP5 DUP3 PUSH1 0x20 DUP7 ADD PUSH2 0x2D8 JUMP JUMPDEST SWAP2 POP POP SWAP3 SWAP2 POP POP JUMP JUMPDEST PUSH0 PUSH1 0x20 DUP3 DUP5 SUB SLT ISZERO PUSH2 0x3A0 JUMPI PUSH2 0x39F PUSH2 0x165 JUMP JUMPDEST JUMPDEST PUSH0 DUP3 ADD MLOAD PUSH8 0xFFFFFFFFFFFFFFFF DUP2 GT ISZERO PUSH2 0x3BD JUMPI PUSH2 0x3BC PUSH2 0x169 JUMP JUMPDEST JUMPDEST PUSH2 0x3C9 DUP5 DUP3 DUP6 ADD PUSH2 0x35E JUMP JUMPDEST SWAP2 POP POP SWAP3 SWAP2 POP POP JUMP JUMPDEST PUSH32 0x4E487B7100000000000000000000000000000000000000000000000000000000 PUSH0 MSTORE PUSH1 0x32 PUSH1 0x4 MSTORE PUSH1 0x24 PUSH0 REVERT JUMPDEST PUSH0 DUP2 MLOAD SWAP1 POP SWAP2 SWAP1 POP JUMP JUMPDEST PUSH32 0x4E487B7100000000000000000000000000000000000000000000000000000000 PUSH0 MSTORE PUSH1 0x22 PUSH1 0x4 MSTORE PUSH1 0x24 PUSH0 REVERT JUMPDEST PUSH0 PUSH1 0x2 DUP3 DIV SWAP1 POP PUSH1 0x1 DUP3 AND DUP1 PUSH2 0x44D JUMPI PUSH1 0x7F DUP3 AND SWAP2 POP JUMPDEST PUSH1 0x20 DUP3 LT DUP2 SUB PUSH2 0x460 JUMPI PUSH2 0x45F PUSH2 0x409 JUMP JUMPDEST JUMPDEST POP SWAP2 SWAP1 POP JUMP JUMPDEST PUSH0 DUP2 SWAP1 POP DUP2 PUSH0 MSTORE PUSH1 0x20 PUSH0 KECCAK256 SWAP1 POP SWAP2 SWAP1 POP JUMP JUMPDEST PUSH0 PUSH1 0x20 PUSH1 0x1F DUP4 ADD DIV SWAP1 POP SWAP2 SWAP1 POP JUMP JUMPDEST PUSH0 DUP3 DUP3 SHL SWAP1 POP SWAP3 SWAP2 POP POP JUMP JUMPDEST PUSH0 PUSH1 0x8 DUP4 MUL PUSH2 0x4C2 PUSH32 0xFFFFFFFFFFFFFFFFFFFFFFFFFFFFFFFFFFFFFFFFFFFFFFFFFFFFFFFFFFFFFFFF DUP3 PUSH2 0x487 JUMP JUMPDEST PUSH2 0x4CC DUP7 DUP4 PUSH2 0x487 JUMP JUMPDEST SWAP6 POP DUP1 NOT DUP5 AND SWAP4 POP DUP1 DUP7 AND DUP5 OR SWAP3 POP POP POP SWAP4 SWAP3 POP POP POP JUMP JUMPDEST PUSH0 DUP2 SWAP1 POP SWAP2 SWAP1 POP JUMP JUMPDEST PUSH0 DUP2 SWAP1 POP SWAP2 SWAP1 POP JUMP JUMPDEST PUSH0 PUSH2 0x510 PUSH2 0x50B PUSH2 0x506 DUP5 PUSH2 0x4E4 JUMP JUMPDEST PUSH2 0x4ED JUMP JUMPDEST PUSH2 0x4E4 JUMP JUMPDEST SWAP1 POP SWAP2 SWAP1 POP JUMP JUMPDEST PUSH0 DUP2 SWAP1 POP SWAP2 SWAP1 POP JUMP JUMPDEST PUSH2 0x529 DUP4 PUSH2 0x4F6 JUMP JUMPDEST PUSH2 0x53D PUSH2 0x535 DUP3 PUSH2 0x517 JUMP JUMPDEST DUP5 DUP5 SLOAD PUSH2 0x493 JUMP JUMPDEST DUP3 SSTORE POP POP POP POP JUMP JUMPDEST PUSH0 PUSH0 SWAP1 POP SWAP1 JUMP JUMPDEST PUSH2 0x554 PUSH2 0x545 JUMP JUMPDEST PUSH2 0x55F DUP2 DUP5 DUP5 PUSH2 0x520 JUMP JUMPDEST POP POP POP JUMP JUMPDEST PUSH0 JUMPDEST DUP3 DUP2 LT ISZERO PUSH2 0x585 JUMPI PUSH2 0x57A PUSH0 DUP3 DUP5 ADD PUSH2 0x54C JUMP JUMPDEST PUSH1 0x1 DUP2 ADD SWAP1 POP PUSH2 0x566 JUMP JUMPDEST POP POP POP JUMP JUMPDEST PUSH1 0x1F DUP3 GT ISZERO PUSH2 0x5D8 JUMPI DUP3 DUP3 GT ISZERO PUSH2 0x5D7 JUMPI PUSH2 0x5A4 DUP2 PUSH2 0x466 JUMP JUMPDEST PUSH2 0x5AD DUP4 PUSH2 0x478 JUMP JUMPDEST PUSH2 0x5B6 DUP6 PUSH2 0x478 JUMP JUMPDEST PUSH1 0x20 DUP7 LT ISZERO PUSH2 0x5C3 JUMPI PUSH0 SWAP1 POP JUMPDEST DUP1 DUP4 ADD PUSH2 0x5D2 DUP3 DUP5 SUB DUP3 PUSH2 0x564 JUMP JUMPDEST POP POP POP POP JUMPDEST JUMPDEST POP POP POP JUMP JUMPDEST PUSH0 DUP3 DUP3 SHR SWAP1 POP SWAP3 SWAP2 POP POP JUMP JUMPDEST PUSH0 PUSH2 0x5F8 PUSH0 NOT DUP5 PUSH1 0x8 MUL PUSH2 0x5DD JUMP JUMPDEST NOT DUP1 DUP4 AND SWAP2 POP POP SWAP3 SWAP2 POP POP JUMP JUMPDEST PUSH0 PUSH2 0x610 DUP4 DUP4 PUSH2 0x5E9 JUMP JUMPDEST SWAP2 POP DUP3 PUSH1 0x2 MUL DUP3 OR SWAP1 POP SWAP3 SWAP2 POP POP JUMP JUMPDEST PUSH2 0x629 DUP3 PUSH2 0x3FF JUMP JUMPDEST PUSH8 0xFFFFFFFFFFFFFFFF DUP2 GT ISZERO PUSH2 0x642 JUMPI PUSH2 0x641 PUSH2 0x181 JUMP JUMPDEST JUMPDEST PUSH2 0x64C DUP3 SLOAD PUSH2 0x436 JUMP JUMPDEST PUSH2 0x657 DUP3 DUP3 DUP6 PUSH2 0x58A JUMP JUMPDEST PUSH0 PUSH1 0x20 SWAP1 POP PUSH1 0x1F DUP4 GT PUSH1 0x1 DUP2 EQ PUSH2 0x688 JUMPI PUSH0 DUP5 ISZERO PUSH2 0x676 JUMPI DUP3 DUP8 ADD MLOAD SWAP1 POP JUMPDEST PUSH2 0x680 DUP6 DUP3 PUSH2 0x605 JUMP JUMPDEST DUP7 SSTORE POP PUSH2 0x6E7 JUMP JUMPDEST PUSH1 0x1F NOT DUP5 AND PUSH2 0x696 DUP7 PUSH2 0x466 JUMP JUMPDEST PUSH0 JUMPDEST DUP3 DUP2 LT ISZERO PUSH2 0x6BD JUMPI DUP5 DUP10 ADD MLOAD DUP3 SSTORE PUSH1 0x1 DUP3 ADD SWAP2 POP PUSH1 0x20 DUP6 ADD SWAP5 POP PUSH1 0x20 DUP2 ADD SWAP1 POP PUSH2 0x698 JUMP JUMPDEST DUP7 DUP4 LT ISZERO PUSH2 0x6DA JUMPI DUP5 DUP10 ADD MLOAD PUSH2 0x6D6 PUSH1 0x1F DUP10 AND DUP3 PUSH2 0x5E9 JUMP JUMPDEST DUP4 SSTORE POP JUMPDEST PUSH1 0x1 PUSH1 0x2 DUP9 MUL ADD DUP9 SSTORE POP POP POP JUMPDEST POP POP POP POP POP POP JUMP JUMPDEST PUSH0 DUP3 DUP3 MSTORE PUSH1 0x20 DUP3 ADD SWAP1 POP SWAP3 SWAP2 POP POP JUMP JUMPDEST PUSH0 PUSH2 0x709 DUP3 PUSH2 0x3FF JUMP JUMPDEST PUSH2 0x713 DUP2 DUP6 PUSH2 0x6EF JUMP JUMPDEST SWAP4 POP PUSH2 0x723 DUP2 DUP6 PUSH1 0x20 DUP7 ADD PUSH2 0x25C JUMP JUMPDEST PUSH2 0x72C DUP2 PUSH2 0x171 JUMP JUMPDEST DUP5 ADD SWAP2 POP POP SWAP3 SWAP2 POP POP JUMP JUMPDEST PUSH2 0x740 DUP2 PUSH2 0x4E4 JUMP JUMPDEST DUP3 MSTORE POP POP JUMP JUMPDEST PUSH0 PUSH1 0x40 DUP3 ADD SWAP1 POP DUP2 DUP2 SUB PUSH0 DUP4 ADD MSTORE PUSH2 0x75E DUP2 DUP6 PUSH2 0x6FF JUMP JUMPDEST SWAP1 POP PUSH2 0x76D PUSH1 0x20 DUP4 ADD DUP5 PUSH2 0x737 JUMP JUMPDEST SWAP4 SWAP3 POP POP POP JUMP JUMPDEST PUSH2 0x12AF DUP1 PUSH2 0x781 PUSH0 CODECOPY PUSH0 RETURN INVALID PUSH1 0x80 PUSH1 0x40 MSTORE CALLVALUE DUP1 ISZERO PUSH2 0xF JUMPI PUSH0 PUSH0 REVERT JUMPDEST POP PUSH1 0x4 CALLDATASIZE LT PUSH2 0x86 JUMPI PUSH0 CALLDATALOAD PUSH1 0xE0 SHR DUP1 PUSH4 0x35B8E820 GT PUSH2 0x59 JUMPI DUP1 PUSH4 0x35B8E820 EQ PUSH2 0x125 JUMPI DUP1 PUSH4 0x462E91EC EQ PUSH2 0x156 JUMPI DUP1 PUSH4 0x8DA5CB5B EQ PUSH2 0x172 JUMPI DUP1 PUSH4 0x8E7EA5B2 EQ PUSH2 0x190 JUMPI PUSH2 0x86 JUMP JUMPDEST DUP1 PUSH4 0x121B93F EQ PUSH2 0x8A JUMPI DUP1 PUSH4 0x9EEF43E EQ PUSH2 0xA6 JUMPI DUP1 PUSH4 0x30A56347 EQ PUSH2 0xD6 JUMPI DUP1 PUSH4 0x3477EE2E EQ PUSH2 0xF4 JUMPI JUMPDEST PUSH0 PUSH0 REVERT JUMPDEST PUSH2 0xA4 PUSH1 0x4 DUP1 CALLDATASIZE SUB DUP2 ADD SWAP1 PUSH2 0x9F SWAP2 SWAP1 PUSH2 0x8A7 JUMP JUMPDEST PUSH2 0x1AF JUMP JUMPDEST STOP JUMPDEST PUSH2 0xC0 PUSH1 0x4 DUP1 CALLDATASIZE SUB DUP2 ADD SWAP1 PUSH2 0xBB SWAP2 SWAP1 PUSH2 0x92C JUMP JUMPDEST PUSH2 0x380 JUMP JUMPDEST PUSH1 0x40 MLOAD PUSH2 0xCD SWAP2 SWAP1 PUSH2 0x971 JUMP JUMPDEST PUSH1 0x40 MLOAD DUP1 SWAP2 SUB SWAP1 RETURN JUMPDEST PUSH2 0xDE PUSH2 0x39D JUMP JUMPDEST PUSH1 0x40 MLOAD PUSH2 0xEB SWAP2 SWAP1 PUSH2 0x999 JUMP JUMPDEST PUSH1 0x40 MLOAD DUP1 SWAP2 SUB SWAP1 RETURN JUMPDEST PUSH2 0x10E PUSH1 0x4 DUP1 CALLDATASIZE SUB DUP2 ADD SWAP1 PUSH2 0x109 SWAP2 SWAP1 PUSH2 0x8A7 JUMP JUMPDEST PUSH2 0x3A9 JUMP JUMPDEST PUSH1 0x40 MLOAD PUSH2 0x11C SWAP3 SWAP2 SWAP1 PUSH2 0xA22 JUMP JUMPDEST PUSH1 0x40 MLOAD DUP1 SWAP2 SUB SWAP1 RETURN JUMPDEST PUSH2 0x13F PUSH1 0x4 DUP1 CALLDATASIZE SUB DUP2 ADD SWAP1 PUSH2 0x13A SWAP2 SWAP1 PUSH2 0x8A7 JUMP JUMPDEST PUSH2 0x45E JUMP JUMPDEST PUSH1 0x40 MLOAD PUSH2 0x14D SWAP3 SWAP2 SWAP1 PUSH2 0xA22 JUMP JUMPDEST PUSH1 0x40 MLOAD DUP1 SWAP2 SUB SWAP1 RETURN JUMPDEST PUSH2 0x170 PUSH1 0x4 DUP1 CALLDATASIZE SUB DUP2 ADD SWAP1 PUSH2 0x16B SWAP2 SWAP1 PUSH2 0xB7C JUMP JUMPDEST PUSH2 0x567 JUMP JUMPDEST STOP JUMPDEST PUSH2 0x17A PUSH2 0x69E JUMP JUMPDEST PUSH1 0x40 MLOAD PUSH2 0x187 SWAP2 SWAP1 PUSH2 0xBD2 JUMP JUMPDEST PUSH1 0x40 MLOAD DUP1 SWAP2 SUB SWAP1 RETURN JUMPDEST PUSH2 0x198 PUSH2 0x6C2 JUMP JUMPDEST PUSH1 0x40 MLOAD PUSH2 0x1A6 SWAP3 SWAP2 SWAP1 PUSH2 0xA22 JUMP JUMPDEST PUSH1 0x40 MLOAD DUP1 SWAP2 SUB SWAP1 RETURN JUMPDEST PUSH1 0x2 PUSH0 CALLER PUSH20 0xFFFFFFFFFFFFFFFFFFFFFFFFFFFFFFFFFFFFFFFF AND PUSH20 0xFFFFFFFFFFFFFFFFFFFFFFFFFFFFFFFFFFFFFFFF AND DUP2 MSTORE PUSH1 0x20 ADD SWAP1 DUP2 MSTORE PUSH1 0x20 ADD PUSH0 KECCAK256 PUSH0 SWAP1 SLOAD SWAP1 PUSH2 0x100 EXP SWAP1 DIV PUSH1 0xFF AND ISZERO PUSH2 0x239 JUMPI PUSH1 0x40 MLOAD PUSH32 0x8C379A000000000000000000000000000000000000000000000000000000000 DUP2 MSTORE PUSH1 0x4 ADD PUSH2 0x230 SWAP1 PUSH2 0xC35 JUMP JUMPDEST PUSH1 0x40 MLOAD DUP1 SWAP2 SUB SWAP1 REVERT JUMPDEST PUSH1 0x1 DUP1 SLOAD SWAP1 POP DUP2 LT PUSH2 0x280 JUMPI PUSH1 0x40 MLOAD PUSH32 0x8C379A000000000000000000000000000000000000000000000000000000000 DUP2 MSTORE PUSH1 0x4 ADD PUSH2 0x277 SWAP1 PUSH2 0xC9D JUMP JUMPDEST PUSH1 0x40 MLOAD DUP1 SWAP2 SUB SWAP1 REVERT JUMPDEST PUSH1 0x1 PUSH1 0x2 PUSH0 CALLER PUSH20 0xFFFFFFFFFFFFFFFFFFFFFFFFFFFFFFFFFFFFFFFF AND PUSH20 0xFFFFFFFFFFFFFFFFFFFFFFFFFFFFFFFFFFFFFFFF AND DUP2 MSTORE PUSH1 0x20 ADD SWAP1 DUP2 MSTORE PUSH1 0x20 ADD PUSH0 KECCAK256 PUSH0 PUSH2 0x100 EXP DUP2 SLOAD DUP2 PUSH1 0xFF MUL NOT AND SWAP1 DUP4 ISZERO ISZERO MUL OR SWAP1 SSTORE POP PUSH1 0x1 DUP2 DUP2 SLOAD DUP2 LT PUSH2 0x2E9 JUMPI PUSH2 0x2E8 PUSH2 0xCBB JUMP JUMPDEST JUMPDEST SWAP1 PUSH0 MSTORE PUSH1 0x20 PUSH0 KECCAK256 SWAP1 PUSH1 0x2 MUL ADD PUSH1 0x1 ADD PUSH0 DUP2 SLOAD DUP1 SWAP3 SWAP2 SWAP1 PUSH2 0x308 SWAP1 PUSH2 0xD15 JUMP JUMPDEST SWAP2 SWAP1 POP SSTORE POP CALLER PUSH20 0xFFFFFFFFFFFFFFFFFFFFFFFFFFFFFFFFFFFFFFFF AND PUSH31 0x89C14BEF1F215EC2A9CAC0041A8A539033590F2AC7424E2F5659C48A08503 PUSH1 0x1 DUP4 DUP2 SLOAD DUP2 LT PUSH2 0x358 JUMPI PUSH2 0x357 PUSH2 0xCBB JUMP JUMPDEST JUMPDEST SWAP1 PUSH0 MSTORE PUSH1 0x20 PUSH0 KECCAK256 SWAP1 PUSH1 0x2 MUL ADD PUSH0 ADD DUP4 PUSH1 0x40 MLOAD PUSH2 0x375 SWAP3 SWAP2 SWAP1 PUSH2 0xE4C JUMP JUMPDEST PUSH1 0x40 MLOAD DUP1 SWAP2 SUB SWAP1 LOG2 POP JUMP JUMPDEST PUSH1 0x2 PUSH1 0x20 MSTORE DUP1 PUSH0 MSTORE PUSH1 0x40 PUSH0 KECCAK256 PUSH0 SWAP2 POP SLOAD SWAP1 PUSH2 0x100 EXP SWAP1 DIV PUSH1 0xFF AND DUP2 JUMP JUMPDEST PUSH0 PUSH1 0x1 DUP1 SLOAD SWAP1 POP SWAP1 POP SWAP1 JUMP JUMPDEST PUSH1 0x1 DUP2 DUP2 SLOAD DUP2 LT PUSH2 0x3B8 JUMPI PUSH0 DUP1 REVERT JUMPDEST SWAP1 PUSH0 MSTORE PUSH1 0x20 PUSH0 KECCAK256 SWAP1 PUSH1 0x2 MUL ADD PUSH0 SWAP2 POP SWAP1 POP DUP1 PUSH0 ADD DUP1 SLOAD PUSH2 0x3D7 SWAP1 PUSH2 0xD89 JUMP JUMPDEST DUP1 PUSH1 0x1F ADD PUSH1 0x20 DUP1 SWAP2 DIV MUL PUSH1 0x20 ADD PUSH1 0x40 MLOAD SWAP1 DUP2 ADD PUSH1 0x40 MSTORE DUP1 SWAP3 SWAP2 SWAP1 DUP2 DUP2 MSTORE PUSH1 0x20 ADD DUP3 DUP1 SLOAD PUSH2 0x403 SWAP1 PUSH2 0xD89 JUMP JUMPDEST DUP1 ISZERO PUSH2 0x44E JUMPI DUP1 PUSH1 0x1F LT PUSH2 0x425 JUMPI PUSH2 0x100 DUP1 DUP4 SLOAD DIV MUL DUP4 MSTORE SWAP2 PUSH1 0x20 ADD SWAP2 PUSH2 0x44E JUMP JUMPDEST DUP3 ADD SWAP2 SWAP1 PUSH0 MSTORE PUSH1 0x20 PUSH0 KECCAK256 SWAP1 JUMPDEST DUP2 SLOAD DUP2 MSTORE SWAP1 PUSH1 0x1 ADD SWAP1 PUSH1 0x20 ADD DUP1 DUP4 GT PUSH2 0x431 JUMPI DUP3 SWAP1 SUB PUSH1 0x1F AND DUP3 ADD SWAP2 JUMPDEST POP POP POP POP POP SWAP1 DUP1 PUSH1 0x1 ADD SLOAD SWAP1 POP DUP3 JUMP JUMPDEST PUSH1 0x60 PUSH0 PUSH1 0x1 DUP1 SLOAD SWAP1 POP DUP4 LT PUSH2 0x4A8 JUMPI PUSH1 0x40 MLOAD PUSH32 0x8C379A000000000000000000000000000000000000000000000000000000000 DUP2 MSTORE PUSH1 0x4 ADD PUSH2 0x49F SWAP1 PUSH2 0xEC4 JUMP JUMPDEST PUSH1 0x40 MLOAD DUP1 SWAP2 SUB SWAP1 REVERT JUMPDEST PUSH0 PUSH1 0x1 DUP5 DUP2 SLOAD DUP2 LT PUSH2 0x4BD JUMPI PUSH2 0x4BC PUSH2 0xCBB JUMP JUMPDEST JUMPDEST SWAP1 PUSH0 MSTORE PUSH1 0x20 PUSH0 KECCAK256 SWAP1 PUSH1 0x2 MUL ADD SWAP1 POP DUP1 PUSH0 ADD DUP2 PUSH1 0x1 ADD SLOAD DUP2 DUP1 SLOAD PUSH2 0x4DF SWAP1 PUSH2 0xD89 JUMP JUMPDEST DUP1 PUSH1 0x1F ADD PUSH1 0x20 DUP1 SWAP2 DIV MUL PUSH1 0x20 ADD PUSH1 0x40 MLOAD SWAP1 DUP2 ADD PUSH1 0x40 MSTORE DUP1 SWAP3 SWAP2 SWAP1 DUP2 DUP2 MSTORE PUSH1 0x20 ADD DUP3 DUP1 SLOAD PUSH2 0x50B SWAP1 PUSH2 0xD89 JUMP JUMPDEST DUP1 ISZERO PUSH2 0x556 JUMPI DUP1 PUSH1 0x1F LT PUSH2 0x52D JUMPI PUSH2 0x100 DUP1 DUP4 SLOAD DIV MUL DUP4 MSTORE SWAP2 PUSH1 0x20 ADD SWAP2 PUSH2 0x556 JUMP JUMPDEST DUP3 ADD SWAP2 SWAP1 PUSH0 MSTORE PUSH1 0x20 PUSH0 KECCAK256 SWAP1 JUMPDEST DUP2 SLOAD DUP2 MSTORE SWAP1 PUSH1 0x1 ADD SWAP1 PUSH1 0x20 ADD DUP1 DUP4 GT PUSH2 0x539 JUMPI DUP3 SWAP1 SUB PUSH1 0x1F AND DUP3 ADD SWAP2 JUMPDEST POP POP POP POP POP SWAP2 POP SWAP3 POP SWAP3 POP POP SWAP2 POP SWAP2 JUMP JUMPDEST PUSH0 PUSH0 SWAP1 SLOAD SWAP1 PUSH2 0x100 EXP SWAP1 DIV PUSH20 0xFFFFFFFFFFFFFFFFFFFFFFFFFFFFFFFFFFFFFFFF AND PUSH20 0xFFFFFFFFFFFFFFFFFFFFFFFFFFFFFFFFFFFFFFFF AND CALLER PUSH20 0xFFFFFFFFFFFFFFFFFFFFFFFFFFFFFFFFFFFFFFFF AND EQ PUSH2 0x5F5 JUMPI PUSH1 0x40 MLOAD PUSH32 0x8C379A000000000000000000000000000000000000000000000000000000000 DUP2 MSTORE PUSH1 0x4 ADD PUSH2 0x5EC SWAP1 PUSH2 0xF52 JUMP JUMPDEST PUSH1 0x40 MLOAD DUP1 SWAP2 SUB SWAP1 REVERT JUMPDEST PUSH1 0x1 PUSH1 0x40 MLOAD DUP1 PUSH1 0x40 ADD PUSH1 0x40 MSTORE DUP1 DUP4 DUP2 MSTORE PUSH1 0x20 ADD PUSH0 DUP2 MSTORE POP SWAP1 DUP1 PUSH1 0x1 DUP2 SLOAD ADD DUP1 DUP3 SSTORE DUP1 SWAP2 POP POP PUSH1 0x1 SWAP1 SUB SWAP1 PUSH0 MSTORE PUSH1 0x20 PUSH0 KECCAK256 SWAP1 PUSH1 0x2 MUL ADD PUSH0 SWAP1 SWAP2 SWAP1 SWAP2 SWAP1 SWAP2 POP PUSH0 DUP3 ADD MLOAD DUP2 PUSH0 ADD SWAP1 DUP2 PUSH2 0x645 SWAP2 SWAP1 PUSH2 0x110F JUMP JUMPDEST POP PUSH1 0x20 DUP3 ADD MLOAD DUP2 PUSH1 0x1 ADD SSTORE POP POP PUSH32 0xA89E28469FA9E15D5149634A9CE8D8DD59EC42C18BA2D281B08C305F2095ACEF DUP2 PUSH1 0x1 DUP1 DUP1 SLOAD SWAP1 POP PUSH2 0x685 SWAP2 SWAP1 PUSH2 0x11DE JUMP JUMPDEST PUSH1 0x40 MLOAD PUSH2 0x693 SWAP3 SWAP2 SWAP1 PUSH2 0xA22 JUMP JUMPDEST PUSH1 0x40 MLOAD DUP1 SWAP2 SUB SWAP1 LOG1 POP JUMP JUMPDEST PUSH0 PUSH0 SWAP1 SLOAD SWAP1 PUSH2 0x100 EXP SWAP1 DIV PUSH20 0xFFFFFFFFFFFFFFFFFFFFFFFFFFFFFFFFFFFFFFFF AND DUP2 JUMP JUMPDEST PUSH1 0x60 PUSH0 PUSH0 PUSH1 0x1 DUP1 SLOAD SWAP1 POP GT PUSH2 0x70C JUMPI PUSH1 0x40 MLOAD PUSH32 0x8C379A000000000000000000000000000000000000000000000000000000000 DUP2 MSTORE PUSH1 0x4 ADD PUSH2 0x703 SWAP1 PUSH2 0x125B JUMP JUMPDEST PUSH1 0x40 MLOAD DUP1 SWAP2 SUB SWAP1 REVERT JUMPDEST PUSH0 PUSH0 SWAP1 POP PUSH0 PUSH0 SWAP1 POP PUSH0 PUSH0 SWAP1 POP JUMPDEST PUSH1 0x1 DUP1 SLOAD SWAP1 POP DUP2 LT ISZERO PUSH2 0x788 JUMPI DUP3 PUSH1 0x1 DUP3 DUP2 SLOAD DUP2 LT PUSH2 0x73B JUMPI PUSH2 0x73A PUSH2 0xCBB JUMP JUMPDEST JUMPDEST SWAP1 PUSH0 MSTORE PUSH1 0x20 PUSH0 KECCAK256 SWAP1 PUSH1 0x2 MUL ADD PUSH1 0x1 ADD SLOAD GT ISZERO PUSH2 0x77B JUMPI PUSH1 0x1 DUP2 DUP2 SLOAD DUP2 LT PUSH2 0x765 JUMPI PUSH2 0x764 PUSH2 0xCBB JUMP JUMPDEST JUMPDEST SWAP1 PUSH0 MSTORE PUSH1 0x20 PUSH0 KECCAK256 SWAP1 PUSH1 0x2 MUL ADD PUSH1 0x1 ADD SLOAD SWAP3 POP DUP1 SWAP2 POP JUMPDEST DUP1 DUP1 PUSH1 0x1 ADD SWAP2 POP POP PUSH2 0x719 JUMP JUMPDEST POP PUSH1 0x1 DUP2 DUP2 SLOAD DUP2 LT PUSH2 0x79D JUMPI PUSH2 0x79C PUSH2 0xCBB JUMP JUMPDEST JUMPDEST SWAP1 PUSH0 MSTORE PUSH1 0x20 PUSH0 KECCAK256 SWAP1 PUSH1 0x2 MUL ADD PUSH0 ADD PUSH1 0x1 DUP3 DUP2 SLOAD DUP2 LT PUSH2 0x7BF JUMPI PUSH2 0x7BE PUSH2 0xCBB JUMP JUMPDEST JUMPDEST SWAP1 PUSH0 MSTORE PUSH1 0x20 PUSH0 KECCAK256 SWAP1 PUSH1 0x2 MUL ADD PUSH1 0x1 ADD SLOAD DUP2 DUP1 SLOAD PUSH2 0x7DB SWAP1 PUSH2 0xD89 JUMP JUMPDEST DUP1 PUSH1 0x1F ADD PUSH1 0x20 DUP1 SWAP2 DIV MUL PUSH1 0x20 ADD PUSH1 0x40 MLOAD SWAP1 DUP2 ADD PUSH1 0x40 MSTORE DUP1 SWAP3 SWAP2 SWAP1 DUP2 DUP2 MSTORE PUSH1 0x20 ADD DUP3 DUP1 SLOAD PUSH2 0x807 SWAP1 PUSH2 0xD89 JUMP JUMPDEST DUP1 ISZERO PUSH2 0x852 JUMPI DUP1 PUSH1 0x1F LT PUSH2 0x829 JUMPI PUSH2 0x100 DUP1 DUP4 SLOAD DIV MUL DUP4 MSTORE SWAP2 PUSH1 0x20 ADD SWAP2 PUSH2 0x852 JUMP JUMPDEST DUP3 ADD SWAP2 SWAP1 PUSH0 MSTORE PUSH1 0x20 PUSH0 KECCAK256 SWAP1 JUMPDEST DUP2 SLOAD DUP2 MSTORE SWAP1 PUSH1 0x1 ADD SWAP1 PUSH1 0x20 ADD DUP1 DUP4 GT PUSH2 0x835 JUMPI DUP3 SWAP1 SUB PUSH1 0x1F AND DUP3 ADD SWAP2 JUMPDEST POP POP POP POP POP SWAP2 POP SWAP4 POP SWAP4 POP POP POP SWAP1 SWAP2 JUMP JUMPDEST PUSH0 PUSH1 0x40 MLOAD SWAP1 POP SWAP1 JUMP JUMPDEST PUSH0 PUSH0 REVERT JUMPDEST PUSH0 PUSH0 REVERT JUMPDEST PUSH0 DUP2 SWAP1 POP SWAP2 SWAP1 POP JUMP JUMPDEST PUSH2 0x886 DUP2 PUSH2 0x874 JUMP JUMPDEST DUP2 EQ PUSH2 0x890 JUMPI PUSH0 PUSH0 REVERT JUMPDEST POP JUMP JUMPDEST PUSH0 DUP2 CALLDATALOAD SWAP1 POP PUSH2 0x8A1 DUP2 PUSH2 0x87D JUMP JUMPDEST SWAP3 SWAP2 POP POP JUMP JUMPDEST PUSH0 PUSH1 0x20 DUP3 DUP5 SUB SLT ISZERO PUSH2 0x8BC JUMPI PUSH2 0x8BB PUSH2 0x86C JUMP JUMPDEST JUMPDEST PUSH0 PUSH2 0x8C9 DUP5 DUP3 DUP6 ADD PUSH2 0x893 JUMP JUMPDEST SWAP2 POP POP SWAP3 SWAP2 POP POP JUMP JUMPDEST PUSH0 PUSH20 0xFFFFFFFFFFFFFFFFFFFFFFFFFFFFFFFFFFFFFFFF DUP3 AND SWAP1 POP SWAP2 SWAP1 POP JUMP JUMPDEST PUSH0 PUSH2 0x8FB DUP3 PUSH2 0x8D2 JUMP JUMPDEST SWAP1 POP SWAP2 SWAP1 POP JUMP JUMPDEST PUSH2 0x90B DUP2 PUSH2 0x8F1 JUMP JUMPDEST DUP2 EQ PUSH2 0x915 JUMPI PUSH0 PUSH0 REVERT JUMPDEST POP JUMP JUMPDEST PUSH0 DUP2 CALLDATALOAD SWAP1 POP PUSH2 0x926 DUP2 PUSH2 0x902 JUMP JUMPDEST SWAP3 SWAP2 POP POP JUMP JUMPDEST PUSH0 PUSH1 0x20 DUP3 DUP5 SUB SLT ISZERO PUSH2 0x941 JUMPI PUSH2 0x940 PUSH2 0x86C JUMP JUMPDEST JUMPDEST PUSH0 PUSH2 0x94E DUP5 DUP3 DUP6 ADD PUSH2 0x918 JUMP JUMPDEST SWAP2 POP POP SWAP3 SWAP2 POP POP JUMP JUMPDEST PUSH0 DUP2 ISZERO ISZERO SWAP1 POP SWAP2 SWAP1 POP JUMP JUMPDEST PUSH2 0x96B DUP2 PUSH2 0x957 JUMP JUMPDEST DUP3 MSTORE POP POP JUMP JUMPDEST PUSH0 PUSH1 0x20 DUP3 ADD SWAP1 POP PUSH2 0x984 PUSH0 DUP4 ADD DUP5 PUSH2 0x962 JUMP JUMPDEST SWAP3 SWAP2 POP POP JUMP JUMPDEST PUSH2 0x993 DUP2 PUSH2 0x874 JUMP JUMPDEST DUP3 MSTORE POP POP JUMP JUMPDEST PUSH0 PUSH1 0x20 DUP3 ADD SWAP1 POP PUSH2 0x9AC PUSH0 DUP4 ADD DUP5 PUSH2 0x98A JUMP JUMPDEST SWAP3 SWAP2 POP POP JUMP JUMPDEST PUSH0 DUP2 MLOAD SWAP1 POP SWAP2 SWAP1 POP JUMP JUMPDEST PUSH0 DUP3 DUP3 MSTORE PUSH1 0x20 DUP3 ADD SWAP1 POP SWAP3 SWAP2 POP POP JUMP JUMPDEST DUP3 DUP2 DUP4 MCOPY PUSH0 DUP4 DUP4 ADD MSTORE POP POP POP JUMP JUMPDEST PUSH0 PUSH1 0x1F NOT PUSH1 0x1F DUP4 ADD AND SWAP1 POP SWAP2 SWAP1 POP JUMP JUMPDEST PUSH0 PUSH2 0x9F4 DUP3 PUSH2 0x9B2 JUMP JUMPDEST PUSH2 0x9FE DUP2 DUP6 PUSH2 0x9BC JUMP JUMPDEST SWAP4 POP PUSH2 0xA0E DUP2 DUP6 PUSH1 0x20 DUP7 ADD PUSH2 0x9CC JUMP JUMPDEST PUSH2 0xA17 DUP2 PUSH2 0x9DA JUMP JUMPDEST DUP5 ADD SWAP2 POP POP SWAP3 SWAP2 POP POP JUMP JUMPDEST PUSH0 PUSH1 0x40 DUP3 ADD SWAP1 POP DUP2 DUP2 SUB PUSH0 DUP4 ADD MSTORE PUSH2 0xA3A DUP2 DUP6 PUSH2 0x9EA JUMP JUMPDEST SWAP1 POP PUSH2 0xA49 PUSH1 0x20 DUP4 ADD DUP5 PUSH2 0x98A JUMP JUMPDEST SWAP4 SWAP3 POP POP POP JUMP JUMPDEST PUSH0 PUSH0 REVERT JUMPDEST PUSH0 PUSH0 REVERT JUMPDEST PUSH32 0x4E487B7100000000000000000000000000000000000000000000000000000000 PUSH0 MSTORE PUSH1 0x41 PUSH1 0x4 MSTORE PUSH1 0x24 PUSH0 REVERT JUMPDEST PUSH2 0xA8E DUP3 PUSH2 0x9DA JUMP JUMPDEST DUP2 ADD DUP2 DUP2 LT PUSH8 0xFFFFFFFFFFFFFFFF DUP3 GT OR ISZERO PUSH2 0xAAD JUMPI PUSH2 0xAAC PUSH2 0xA58 JUMP JUMPDEST JUMPDEST DUP1 PUSH1 0x40 MSTORE POP POP POP JUMP JUMPDEST PUSH0 PUSH2 0xABF PUSH2 0x863 JUMP JUMPDEST SWAP1 POP PUSH2 0xACB DUP3 DUP3 PUSH2 0xA85 JUMP JUMPDEST SWAP2 SWAP1 POP JUMP JUMPDEST PUSH0 PUSH8 0xFFFFFFFFFFFFFFFF DUP3 GT ISZERO PUSH2 0xAEA JUMPI PUSH2 0xAE9 PUSH2 0xA58 JUMP JUMPDEST JUMPDEST PUSH2 0xAF3 DUP3 PUSH2 0x9DA JUMP JUMPDEST SWAP1 POP PUSH1 0x20 DUP2 ADD SWAP1 POP SWAP2 SWAP1 POP JUMP JUMPDEST DUP3 DUP2 DUP4 CALLDATACOPY PUSH0 DUP4 DUP4 ADD MSTORE POP POP POP JUMP JUMPDEST PUSH0 PUSH2 0xB20 PUSH2 0xB1B DUP5 PUSH2 0xAD0 JUMP JUMPDEST PUSH2 0xAB6 JUMP JUMPDEST SWAP1 POP DUP3 DUP2 MSTORE PUSH1 0x20 DUP2 ADD DUP5 DUP5 DUP5 ADD GT ISZERO PUSH2 0xB3C JUMPI PUSH2 0xB3B PUSH2 0xA54 JUMP JUMPDEST JUMPDEST PUSH2 0xB47 DUP5 DUP3 DUP6 PUSH2 0xB00 JUMP JUMPDEST POP SWAP4 SWAP3 POP POP POP JUMP JUMPDEST PUSH0 DUP3 PUSH1 0x1F DUP4 ADD SLT PUSH2 0xB63 JUMPI PUSH2 0xB62 PUSH2 0xA50 JUMP JUMPDEST JUMPDEST DUP2 CALLDATALOAD PUSH2 0xB73 DUP5 DUP3 PUSH1 0x20 DUP7 ADD PUSH2 0xB0E JUMP JUMPDEST SWAP2 POP POP SWAP3 SWAP2 POP POP JUMP JUMPDEST PUSH0 PUSH1 0x20 DUP3 DUP5 SUB SLT ISZERO PUSH2 0xB91 JUMPI PUSH2 0xB90 PUSH2 0x86C JUMP JUMPDEST JUMPDEST PUSH0 DUP3 ADD CALLDATALOAD PUSH8 0xFFFFFFFFFFFFFFFF DUP2 GT ISZERO PUSH2 0xBAE JUMPI PUSH2 0xBAD PUSH2 0x870 JUMP JUMPDEST JUMPDEST PUSH2 0xBBA DUP5 DUP3 DUP6 ADD PUSH2 0xB4F JUMP JUMPDEST SWAP2 POP POP SWAP3 SWAP2 POP POP JUMP JUMPDEST PUSH2 0xBCC DUP2 PUSH2 0x8F1 JUMP JUMPDEST DUP3 MSTORE POP POP JUMP JUMPDEST PUSH0 PUSH1 0x20 DUP3 ADD SWAP1 POP PUSH2 0xBE5 PUSH0 DUP4 ADD DUP5 PUSH2 0xBC3 JUMP JUMPDEST SWAP3 SWAP2 POP POP JUMP JUMPDEST PUSH32 0x596F75206861766520616C726561647920766F74656400000000000000000000 PUSH0 DUP3 ADD MSTORE POP JUMP JUMPDEST PUSH0 PUSH2 0xC1F PUSH1 0x16 DUP4 PUSH2 0x9BC JUMP JUMPDEST SWAP2 POP PUSH2 0xC2A DUP3 PUSH2 0xBEB JUMP JUMPDEST PUSH1 0x20 DUP3 ADD SWAP1 POP SWAP2 SWAP1 POP JUMP JUMPDEST PUSH0 PUSH1 0x20 DUP3 ADD SWAP1 POP DUP2 DUP2 SUB PUSH0 DUP4 ADD MSTORE PUSH2 0xC4C DUP2 PUSH2 0xC13 JUMP JUMPDEST SWAP1 POP SWAP2 SWAP1 POP JUMP JUMPDEST PUSH32 0x496E76616C69642063616E64696461746520696E646578000000000000000000 PUSH0 DUP3 ADD MSTORE POP JUMP JUMPDEST PUSH0 PUSH2 0xC87 PUSH1 0x17 DUP4 PUSH2 0x9BC JUMP JUMPDEST SWAP2 POP PUSH2 0xC92 DUP3 PUSH2 0xC53 JUMP JUMPDEST PUSH1 0x20 DUP3 ADD SWAP1 POP SWAP2 SWAP1 POP JUMP JUMPDEST PUSH0 PUSH1 0x20 DUP3 ADD SWAP1 POP DUP2 DUP2 SUB PUSH0 DUP4 ADD MSTORE PUSH2 0xCB4 DUP2 PUSH2 0xC7B JUMP JUMPDEST SWAP1 POP SWAP2 SWAP1 POP JUMP JUMPDEST PUSH32 0x4E487B7100000000000000000000000000000000000000000000000000000000 PUSH0 MSTORE PUSH1 0x32 PUSH1 0x4 MSTORE PUSH1 0x24 PUSH0 REVERT JUMPDEST PUSH32 0x4E487B7100000000000000000000000000000000000000000000000000000000 PUSH0 MSTORE PUSH1 0x11 PUSH1 0x4 MSTORE PUSH1 0x24 PUSH0 REVERT JUMPDEST PUSH0 PUSH2 0xD1F DUP3 PUSH2 0x874 JUMP JUMPDEST SWAP2 POP PUSH32 0xFFFFFFFFFFFFFFFFFFFFFFFFFFFFFFFFFFFFFFFFFFFFFFFFFFFFFFFFFFFFFFFF DUP3 SUB PUSH2 0xD51 JUMPI PUSH2 0xD50 PUSH2 0xCE8 JUMP JUMPDEST JUMPDEST PUSH1 0x1 DUP3 ADD SWAP1 POP SWAP2 SWAP1 POP JUMP JUMPDEST PUSH32 0x4E487B7100000000000000000000000000000000000000000000000000000000 PUSH0 MSTORE PUSH1 0x22 PUSH1 0x4 MSTORE PUSH1 0x24 PUSH0 REVERT JUMPDEST PUSH0 PUSH1 0x2 DUP3 DIV SWAP1 POP PUSH1 0x1 DUP3 AND DUP1 PUSH2 0xDA0 JUMPI PUSH1 0x7F DUP3 AND SWAP2 POP JUMPDEST PUSH1 0x20 DUP3 LT DUP2 SUB PUSH2 0xDB3 JUMPI PUSH2 0xDB2 PUSH2 0xD5C JUMP JUMPDEST JUMPDEST POP SWAP2 SWAP1 POP JUMP JUMPDEST PUSH0 DUP2 SWAP1 POP DUP2 PUSH0 MSTORE PUSH1 0x20 PUSH0 KECCAK256 SWAP1 POP SWAP2 SWAP1 POP JUMP JUMPDEST PUSH0 DUP2 SLOAD PUSH2 0xDD7 DUP2 PUSH2 0xD89 JUMP JUMPDEST PUSH2 0xDE1 DUP2 DUP7 PUSH2 0x9BC JUMP JUMPDEST SWAP5 POP PUSH1 0x1 DUP3 AND PUSH0 DUP2 EQ PUSH2 0xDFB JUMPI PUSH1 0x1 DUP2 EQ PUSH2 0xE11 JUMPI PUSH2 0xE43 JUMP JUMPDEST PUSH1 0xFF NOT DUP4 AND DUP7 MSTORE DUP2 ISZERO ISZERO PUSH1 0x20 MUL DUP7 ADD SWAP4 POP PUSH2 0xE43 JUMP JUMPDEST PUSH2 0xE1A DUP6 PUSH2 0xDB9 JUMP JUMPDEST PUSH0 JUMPDEST DUP4 DUP2 LT ISZERO PUSH2 0xE3B JUMPI DUP2 SLOAD DUP2 DUP10 ADD MSTORE PUSH1 0x1 DUP3 ADD SWAP2 POP PUSH1 0x20 DUP2 ADD SWAP1 POP PUSH2 0xE1C JUMP JUMPDEST DUP1 DUP9 ADD SWAP6 POP POP POP JUMPDEST POP POP POP SWAP3 SWAP2 POP POP JUMP JUMPDEST PUSH0 PUSH1 0x40 DUP3 ADD SWAP1 POP DUP2 DUP2 SUB PUSH0 DUP4 ADD MSTORE PUSH2 0xE64 DUP2 DUP6 PUSH2 0xDCB JUMP JUMPDEST SWAP1 POP PUSH2 0xE73 PUSH1 0x20 DUP4 ADD DUP5 PUSH2 0x98A JUMP JUMPDEST SWAP4 SWAP3 POP POP POP JUMP JUMPDEST PUSH32 0x496E646578206F7574206F6620626F756E647300000000000000000000000000 PUSH0 DUP3 ADD MSTORE POP JUMP JUMPDEST PUSH0 PUSH2 0xEAE PUSH1 0x13 DUP4 PUSH2 0x9BC JUMP JUMPDEST SWAP2 POP PUSH2 0xEB9 DUP3 PUSH2 0xE7A JUMP JUMPDEST PUSH1 0x20 DUP3 ADD SWAP1 POP SWAP2 SWAP1 POP JUMP JUMPDEST PUSH0 PUSH1 0x20 DUP3 ADD SWAP1 POP DUP2 DUP2 SUB PUSH0 DUP4 ADD MSTORE PUSH2 0xEDB DUP2 PUSH2 0xEA2 JUMP JUMPDEST SWAP1 POP SWAP2 SWAP1 POP JUMP JUMPDEST PUSH32 0x4F6E6C79206F776E65722063616E20706572666F726D20746869732061637469 PUSH0 DUP3 ADD MSTORE PUSH32 0x6F6E000000000000000000000000000000000000000000000000000000000000 PUSH1 0x20 DUP3 ADD MSTORE POP JUMP JUMPDEST PUSH0 PUSH2 0xF3C PUSH1 0x22 DUP4 PUSH2 0x9BC JUMP JUMPDEST SWAP2 POP PUSH2 0xF47 DUP3 PUSH2 0xEE2 JUMP JUMPDEST PUSH1 0x40 DUP3 ADD SWAP1 POP SWAP2 SWAP1 POP JUMP JUMPDEST PUSH0 PUSH1 0x20 DUP3 ADD SWAP1 POP DUP2 DUP2 SUB PUSH0 DUP4 ADD MSTORE PUSH2 0xF69 DUP2 PUSH2 0xF30 JUMP JUMPDEST SWAP1 POP SWAP2 SWAP1 POP JUMP JUMPDEST PUSH0 PUSH1 0x20 PUSH1 0x1F DUP4 ADD DIV SWAP1 POP SWAP2 SWAP1 POP JUMP JUMPDEST PUSH0 DUP3 DUP3 SHL SWAP1 POP SWAP3 SWAP2 POP POP JUMP JUMPDEST PUSH0 PUSH1 0x8 DUP4 MUL PUSH2 0xFBA PUSH32 0xFFFFFFFFFFFFFFFFFFFFFFFFFFFFFFFFFFFFFFFFFFFFFFFFFFFFFFFFFFFFFFFF DUP3 PUSH2 0xF7F JUMP JUMPDEST PUSH2 0xFC4 DUP7 DUP4 PUSH2 0xF7F JUMP JUMPDEST SWAP6 POP DUP1 NOT DUP5 AND SWAP4 POP DUP1 DUP7 AND DUP5 OR SWAP3 POP POP POP SWAP4 SWAP3 POP POP POP JUMP JUMPDEST PUSH0 DUP2 SWAP1 POP SWAP2 SWAP1 POP JUMP JUMPDEST PUSH0 PUSH2 0xFFF PUSH2 0xFFA PUSH2 0xFF5 DUP5 PUSH2 0x874 JUMP JUMPDEST PUSH2 0xFDC JUMP JUMPDEST PUSH2 0x874 JUMP JUMPDEST SWAP1 POP SWAP2 SWAP1 POP JUMP JUMPDEST PUSH0 DUP2 SWAP1 POP SWAP2 SWAP1 POP JUMP JUMPDEST PUSH2 0x1018 DUP4 PUSH2 0xFE5 JUMP JUMPDEST PUSH2 0x102C PUSH2 0x1024 DUP3 PUSH2 0x1006 JUMP JUMPDEST DUP5 DUP5 SLOAD PUSH2 0xF8B JUMP JUMPDEST DUP3 SSTORE POP POP POP POP JUMP JUMPDEST PUSH0 PUSH0 SWAP1 POP SWAP1 JUMP JUMPDEST PUSH2 0x1043 PUSH2 0x1034 JUMP JUMPDEST PUSH2 0x104E DUP2 DUP5 DUP5 PUSH2 0x100F JUMP JUMPDEST POP POP POP JUMP JUMPDEST PUSH0 JUMPDEST DUP3 DUP2 LT ISZERO PUSH2 0x1074 JUMPI PUSH2 0x1069 PUSH0 DUP3 DUP5 ADD PUSH2 0x103B JUMP JUMPDEST PUSH1 0x1 DUP2 ADD SWAP1 POP PUSH2 0x1055 JUMP JUMPDEST POP POP POP JUMP JUMPDEST PUSH1 0x1F DUP3 GT ISZERO PUSH2 0x10C7 JUMPI DUP3 DUP3 GT ISZERO PUSH2 0x10C6 JUMPI PUSH2 0x1093 DUP2 PUSH2 0xDB9 JUMP JUMPDEST PUSH2 0x109C DUP4 PUSH2 0xF70 JUMP JUMPDEST PUSH2 0x10A5 DUP6 PUSH2 0xF70 JUMP JUMPDEST PUSH1 0x20 DUP7 LT ISZERO PUSH2 0x10B2 JUMPI PUSH0 SWAP1 POP JUMPDEST DUP1 DUP4 ADD PUSH2 0x10C1 DUP3 DUP5 SUB DUP3 PUSH2 0x1053 JUMP JUMPDEST POP POP POP POP JUMPDEST JUMPDEST POP POP POP JUMP JUMPDEST PUSH0 DUP3 DUP3 SHR SWAP1 POP SWAP3 SWAP2 POP POP JUMP JUMPDEST PUSH0 PUSH2 0x10E7 PUSH0 NOT DUP5 PUSH1 0x8 MUL PUSH2 0x10CC JUMP JUMPDEST NOT DUP1 DUP4 AND SWAP2 POP POP SWAP3 SWAP2 POP POP JUMP JUMPDEST PUSH0 PUSH2 0x10FF DUP4 DUP4 PUSH2 0x10D8 JUMP JUMPDEST SWAP2 POP DUP3 PUSH1 0x2 MUL DUP3 OR SWAP1 POP SWAP3 SWAP2 POP POP JUMP JUMPDEST PUSH2 0x1118 DUP3 PUSH2 0x9B2 JUMP JUMPDEST PUSH8 0xFFFFFFFFFFFFFFFF DUP2 GT ISZERO PUSH2 0x1131 JUMPI PUSH2 0x1130 PUSH2 0xA58 JUMP JUMPDEST JUMPDEST PUSH2 0x113B DUP3 SLOAD PUSH2 0xD89 JUMP JUMPDEST PUSH2 0x1146 DUP3 DUP3 DUP6 PUSH2 0x1079 JUMP JUMPDEST PUSH0 PUSH1 0x20 SWAP1 POP PUSH1 0x1F DUP4 GT PUSH1 0x1 DUP2 EQ PUSH2 0x1177 JUMPI PUSH0 DUP5 ISZERO PUSH2 0x1165 JUMPI DUP3 DUP8 ADD MLOAD SWAP1 POP JUMPDEST PUSH2 0x116F DUP6 DUP3 PUSH2 0x10F4 JUMP JUMPDEST DUP7 SSTORE POP PUSH2 0x11D6 JUMP JUMPDEST PUSH1 0x1F NOT DUP5 AND PUSH2 0x1185 DUP7 PUSH2 0xDB9 JUMP JUMPDEST PUSH0 JUMPDEST DUP3 DUP2 LT ISZERO PUSH2 0x11AC JUMPI DUP5 DUP10 ADD MLOAD DUP3 SSTORE PUSH1 0x1 DUP3 ADD SWAP2 POP PUSH1 0x20 DUP6 ADD SWAP5 POP PUSH1 0x20 DUP2 ADD SWAP1 POP PUSH2 0x1187 JUMP JUMPDEST DUP7 DUP4 LT ISZERO PUSH2 0x11C9 JUMPI DUP5 DUP10 ADD MLOAD PUSH2 0x11C5 PUSH1 0x1F DUP10 AND DUP3 PUSH2 0x10D8 JUMP JUMPDEST DUP4 SSTORE POP JUMPDEST PUSH1 0x1 PUSH1 0x2 DUP9 MUL ADD DUP9 SSTORE POP POP POP JUMPDEST POP POP POP POP POP POP JUMP JUMPDEST PUSH0 PUSH2 0x11E8 DUP3 PUSH2 0x874 JUMP JUMPDEST SWAP2 POP PUSH2 0x11F3 DUP4 PUSH2 0x874 JUMP JUMPDEST SWAP3 POP DUP3 DUP3 SUB SWAP1 POP DUP2 DUP2 GT ISZERO PUSH2 0x120B JUMPI PUSH2 0x120A PUSH2 0xCE8 JUMP JUMPDEST JUMPDEST SWAP3 SWAP2 POP POP JUMP JUMPDEST PUSH32 0x4E6F2063616E6469646174657300000000000000000000000000000000000000 PUSH0 DUP3 ADD MSTORE POP JUMP JUMPDEST PUSH0 PUSH2 0x1245 PUSH1 0xD DUP4 PUSH2 0x9BC JUMP JUMPDEST SWAP2 POP PUSH2 0x1250 DUP3 PUSH2 0x1211 JUMP JUMPDEST PUSH1 0x20 DUP3 ADD SWAP1 POP SWAP2 SWAP1 POP JUMP JUMPDEST PUSH0 PUSH1 0x20 DUP3 ADD SWAP1 POP DUP2 DUP2 SUB PUSH0 DUP4 ADD MSTORE PUSH2 0x1272 DUP2 PUSH2 0x1239 JUMP JUMPDEST SWAP1 POP SWAP2 SWAP1 POP JUMP INVALID LOG2 PUSH5 0x6970667358 0x22 SLT KECCAK256 RETURNDATACOPY PUSH16 0x3FC8AB22909E7043799C2B9F8B3707D0 PUSH27 0x151E2172F50F5E1994466A7C0764736F6C63430008220033000000 "
		},
		"gasEstimates": {
			"creation": {
				"codeDepositCost": "956600",
				"executionCost": "infinite",
				"totalCost": "infinite"
			},
			"external": {
				"addCandidate(string)": "infinite",
				"candidates(uint256)": "infinite",
				"getCandidate(uint256)": "infinite",
				"getCandidateCount()": "2485",
				"getWinner()": "infinite",
				"hasVoted(address)": "2856",
				"owner()": "2551",
				"vote(uint256)": "infinite"
			}
		},
		"methodIdentifiers": {
			"addCandidate(string)": "462e91ec",
			"candidates(uint256)": "3477ee2e",
			"getCandidate(uint256)": "35b8e820",
			"getCandidateCount()": "30a56347",
			"getWinner()": "8e7ea5b2",
			"hasVoted(address)": "09eef43e",
			"owner()": "8da5cb5b",
			"vote(uint256)": "0121b93f"
		}
	},
	"abi": [
		{
			"inputs": [
				{
					"internalType": "string[]",
					"name": "_candidateNames",
					"type": "string[]"
				}
			],
			"stateMutability": "nonpayable",
			"type": "constructor"
		},
		{
			"anonymous": false,
			"inputs": [
				{
					"indexed": false,
					"internalType": "string",
					"name": "name",
					"type": "string"
				},
				{
					"indexed": false,
					"internalType": "uint256",
					"name": "index",
					"type": "uint256"
				}
			],
			"name": "CandidateAdded",
			"type": "event"
		},
		{
			"anonymous": false,
			"inputs": [
				{
					"indexed": true,
					"internalType": "address",
					"name": "voter",
					"type": "address"
				},
				{
					"indexed": false,
					"internalType": "string",
					"name": "candidateName",
					"type": "string"
				},
				{
					"indexed": false,
					"internalType": "uint256",
					"name": "candidateIndex",
					"type": "uint256"
				}
			],
			"name": "VoteCasted",
			"type": "event"
		},
		{
			"inputs": [
				{
					"internalType": "string",
					"name": "_name",
					"type": "string"
				}
			],
			"name": "addCandidate",
			"outputs": [],
			"stateMutability": "nonpayable",
			"type": "function"
		},
		{
			"inputs": [
				{
					"internalType": "uint256",
					"name": "",
					"type": "uint256"
				}
			],
			"name": "candidates",
			"outputs": [
				{
					"internalType": "string",
					"name": "name",
					"type": "string"
				},
				{
					"internalType": "uint256",
					"name": "voteCount",
					"type": "uint256"
				}
			],
			"stateMutability": "view",
			"type": "function"
		},
		{
			"inputs": [
				{
					"internalType": "uint256",
					"name": "_index",
					"type": "uint256"
				}
			],
			"name": "getCandidate",
			"outputs": [
				{
					"internalType": "string",
					"name": "name",
					"type": "string"
				},
				{
					"internalType": "uint256",
					"name": "voteCount",
					"type": "uint256"
				}
			],
			"stateMutability": "view",
			"type": "function"
		},
		{
			"inputs": [],
			"name": "getCandidateCount",
			"outputs": [
				{
					"internalType": "uint256",
					"name": "",
					"type": "uint256"
				}
			],
			"stateMutability": "view",
			"type": "function"
		},
		{
			"inputs": [],
			"name": "getWinner",
			"outputs": [
				{
					"internalType": "string",
					"name": "winnerName",
					"type": "string"
				},
				{
					"internalType": "uint256",
					"name": "winnerVotes",
					"type": "uint256"
				}
			],
			"stateMutability": "view",
			"type": "function"
		},
		{
			"inputs": [
				{
					"internalType": "address",
					"name": "",
					"type": "address"
				}
			],
			"name": "hasVoted",
			"outputs": [
				{
					"internalType": "bool",
					"name": "",
					"type": "bool"
				}
			],
			"stateMutability": "view",
			"type": "function"
		},
		{
			"inputs": [],
			"name": "owner",
			"outputs": [
				{
					"internalType": "address",
					"name": "",
					"type": "address"
				}
			],
			"stateMutability": "view",
			"type": "function"
		},
		{
			"inputs": [
				{
					"internalType": "uint256",
					"name": "_candidateIndex",
					"type": "uint256"
				}
			],
			"name": "vote",
			"outputs": [],
			"stateMutability": "nonpayable",
			"type": "function"
		}
	]
}